{
	"contracts/BlockLease.sol": {
		"BlockLease": {
			"abi": [
				{
					"inputs": [
						{
							"internalType": "address",
							"name": "landlordAddr",
							"type": "address"
						},
						{
							"internalType": "address",
							"name": "tenantAddr",
							"type": "address"
						},
						{
							"internalType": "string",
							"name": "propertyName",
							"type": "string"
						},
						{
							"internalType": "string",
							"name": "propertyLocation",
							"type": "string"
						}
					],
					"stateMutability": "nonpayable",
					"type": "constructor"
				},
				{
					"inputs": [],
					"name": "depositSecurityDeposit",
					"outputs": [],
					"stateMutability": "payable",
					"type": "function"
				},
				{
					"inputs": [],
					"name": "evict",
					"outputs": [],
					"stateMutability": "nonpayable",
					"type": "function"
				},
				{
					"inputs": [],
					"name": "landlord",
					"outputs": [
						{
							"internalType": "address payable",
							"name": "addr",
							"type": "address"
						},
						{
							"internalType": "bool",
							"name": "agrees",
							"type": "bool"
						}
					],
					"stateMutability": "view",
					"type": "function"
				},
				{
					"inputs": [],
					"name": "lease",
					"outputs": [
						{
							"internalType": "enum BlockLease.LeaseState",
							"name": "state",
							"type": "uint8"
						},
						{
							"internalType": "uint256",
							"name": "rentAmount",
							"type": "uint256"
						},
						{
							"internalType": "uint256",
							"name": "rentalDuration",
							"type": "uint256"
						},
						{
							"internalType": "uint256",
							"name": "startDate",
							"type": "uint256"
						},
						{
							"internalType": "uint256",
							"name": "latePenaltyPerDay",
							"type": "uint256"
						},
						{
							"internalType": "uint256",
							"name": "securityDeposit",
							"type": "uint256"
						}
					],
					"stateMutability": "view",
					"type": "function"
				},
				{
					"inputs": [],
					"name": "payRent",
					"outputs": [],
					"stateMutability": "payable",
					"type": "function"
				},
				{
					"inputs": [],
					"name": "property",
					"outputs": [
						{
							"internalType": "string",
							"name": "name",
							"type": "string"
						},
						{
							"internalType": "string",
							"name": "location",
							"type": "string"
						}
					],
					"stateMutability": "view",
					"type": "function"
				},
				{
					"inputs": [
						{
							"internalType": "uint256",
							"name": "rentAmount",
							"type": "uint256"
						},
						{
							"internalType": "uint256",
							"name": "rentalDuration",
							"type": "uint256"
						},
						{
							"internalType": "uint256",
							"name": "startDate",
							"type": "uint256"
						},
						{
							"internalType": "uint256",
							"name": "latePenaltyPerDay",
							"type": "uint256"
						},
						{
							"internalType": "uint256",
							"name": "securityDeposit",
							"type": "uint256"
						}
					],
					"name": "setTerms",
					"outputs": [],
					"stateMutability": "nonpayable",
					"type": "function"
				},
				{
					"inputs": [],
					"name": "signAgreement",
					"outputs": [],
					"stateMutability": "nonpayable",
					"type": "function"
				},
				{
					"inputs": [],
					"name": "tenant",
					"outputs": [
						{
							"internalType": "address payable",
							"name": "addr",
							"type": "address"
						},
						{
							"internalType": "bool",
							"name": "agrees",
							"type": "bool"
						}
					],
					"stateMutability": "view",
					"type": "function"
				},
				{
					"inputs": [],
					"name": "unsignAgreement",
					"outputs": [],
					"stateMutability": "nonpayable",
					"type": "function"
				},
				{
					"inputs": [],
					"name": "vacate",
					"outputs": [],
					"stateMutability": "nonpayable",
					"type": "function"
				}
			],
			"devdoc": {
				"kind": "dev",
				"methods": {
					"constructor": {
						"details": "Initialize the lease contract. Landlord, tenant, and property details cannot be changed for a contract.",
						"params": {
							"landlordAddr": "the account address of the landlord ",
							"propertyLocation": "the location of the property being leased out",
							"propertyName": "the name of the property being leased out",
							"tenantAddr": "the account address of the tenant"
						}
					},
					"depositSecurityDeposit()": {
						"details": "The tenant can deposit money for the security deposit to activate the lease"
					},
					"evict()": {
						"details": "Called by landlord if the tenant hasn't met the terms of the lease "
					},
					"payRent()": {
						"details": "The tenant can deposit money for the security deposit to activate the lease"
					},
					"setTerms(uint256,uint256,uint256,uint256,uint256)": {
						"details": "Set the terms for lease. Can be called by the tenant or the landlord while the lease is inactive.",
						"params": {
							"latePenaltyPerDay": "late penalty per day in Wei",
							"rentAmount": "amount of rent in Wei",
							"rentalDuration": "length of lease agreement in months",
							"securityDeposit": "security deposit in Wei ",
							"startDate": "start date of the agreement (as a unix timestamp)"
						}
					},
					"signAgreement()": {
						"details": "The tenant or landlord can accept the agreement.  Both parties have to agree for the contract to be put in active state."
					},
					"unsignAgreement()": {
						"details": "The tenant or landlord can revoke their agreement to the lease while the lease is inactive."
					},
					"vacate()": {
						"details": "Called when the tenant wants to leave the house. This is provided the terms of the lease have been met. Security deposit is transferred back"
					}
				},
				"version": 1
			},
			"evm": {
				"assembly": "    /* \"contracts/BlockLease.sol\":69:9215  contract BlockLease {... */\n  mstore(0x40, 0x80)\n    /* \"contracts/BlockLease.sol\":1429:2081  constructor(... */\n  callvalue\n  dup1\n  iszero\n  tag_1\n  jumpi\n  0x00\n  dup1\n  revert\ntag_1:\n  pop\n  mload(0x40)\n  sub(codesize, bytecodeSize)\n  dup1\n  bytecodeSize\n  dup4\n  codecopy\n  dup2\n  dup2\n  add\n  0x40\n  mstore\n  dup2\n  add\n  swap1\n  tag_2\n  swap2\n  swap1\n  tag_3\n  jump\t// in\ntag_2:\n    /* \"contracts/BlockLease.sol\":1612:1624  landlordAddr */\n  dup4\n    /* \"contracts/BlockLease.sol\":1598:1624  msg.sender == landlordAddr */\n  0xffffffffffffffffffffffffffffffffffffffff\n  and\n    /* \"contracts/BlockLease.sol\":1598:1608  msg.sender */\n  caller\n    /* \"contracts/BlockLease.sol\":1598:1624  msg.sender == landlordAddr */\n  0xffffffffffffffffffffffffffffffffffffffff\n  and\n  eq\n    /* \"contracts/BlockLease.sol\":1598:1652  msg.sender == landlordAddr || msg.sender == tenantAddr */\n  dup1\n  tag_6\n  jumpi\n  pop\n    /* \"contracts/BlockLease.sol\":1642:1652  tenantAddr */\n  dup3\n    /* \"contracts/BlockLease.sol\":1628:1652  msg.sender == tenantAddr */\n  0xffffffffffffffffffffffffffffffffffffffff\n  and\n    /* \"contracts/BlockLease.sol\":1628:1638  msg.sender */\n  caller\n    /* \"contracts/BlockLease.sol\":1628:1652  msg.sender == tenantAddr */\n  0xffffffffffffffffffffffffffffffffffffffff\n  and\n  eq\n    /* \"contracts/BlockLease.sol\":1598:1652  msg.sender == landlordAddr || msg.sender == tenantAddr */\ntag_6:\n    /* \"contracts/BlockLease.sol\":1590:1719  require(msg.sender == landlordAddr || msg.sender == tenantAddr, \"Only landlord or tenant should be allowed to create the lease.\") */\n  tag_7\n  jumpi\n  mload(0x40)\n  0x08c379a000000000000000000000000000000000000000000000000000000000\n  dup2\n  mstore\n  0x04\n  add\n  tag_8\n  swap1\n  tag_9\n  jump\t// in\ntag_8:\n  mload(0x40)\n  dup1\n  swap2\n  sub\n  swap1\n  revert\ntag_7:\n    /* \"contracts/BlockLease.sol\":1797:1809  landlordAddr */\n  dup4\n    /* \"contracts/BlockLease.sol\":1773:1781  landlord */\n  0x00\n    /* \"contracts/BlockLease.sol\":1773:1786  landlord.addr */\n  dup1\n  add\n  0x00\n    /* \"contracts/BlockLease.sol\":1773:1810  landlord.addr = payable(landlordAddr) */\n  0x0100\n  exp\n  dup2\n  sload\n  dup2\n  0xffffffffffffffffffffffffffffffffffffffff\n  mul\n  not\n  and\n  swap1\n  dup4\n  0xffffffffffffffffffffffffffffffffffffffff\n  and\n  mul\n  or\n  swap1\n  sstore\n  pop\n    /* \"contracts/BlockLease.sol\":1842:1852  tenantAddr */\n  dup3\n    /* \"contracts/BlockLease.sol\":1820:1826  tenant */\n  0x01\n    /* \"contracts/BlockLease.sol\":1820:1831  tenant.addr */\n  0x00\n  add\n  0x00\n    /* \"contracts/BlockLease.sol\":1820:1853  tenant.addr = payable(tenantAddr) */\n  0x0100\n  exp\n  dup2\n  sload\n  dup2\n  0xffffffffffffffffffffffffffffffffffffffff\n  mul\n  not\n  and\n  swap1\n  dup4\n  0xffffffffffffffffffffffffffffffffffffffff\n  and\n  mul\n  or\n  swap1\n  sstore\n  pop\n    /* \"contracts/BlockLease.sol\":1879:1891  propertyName */\n  dup2\n    /* \"contracts/BlockLease.sol\":1863:1871  property */\n  0x02\n    /* \"contracts/BlockLease.sol\":1863:1876  property.name */\n  0x00\n  add\n    /* \"contracts/BlockLease.sol\":1863:1891  property.name = propertyName */\n  swap1\n  dup2\n  tag_10\n  swap2\n  swap1\n  tag_11\n  jump\t// in\ntag_10:\n  pop\n    /* \"contracts/BlockLease.sol\":1921:1937  propertyLocation */\n  dup1\n    /* \"contracts/BlockLease.sol\":1901:1909  property */\n  0x02\n    /* \"contracts/BlockLease.sol\":1901:1918  property.location */\n  0x01\n  add\n    /* \"contracts/BlockLease.sol\":1901:1937  property.location = propertyLocation */\n  swap1\n  dup2\n  tag_12\n  swap2\n  swap1\n  tag_11\n  jump\t// in\ntag_12:\n  pop\n    /* \"contracts/BlockLease.sol\":2027:2046  LeaseState.INACTIVE */\n  0x00\n    /* \"contracts/BlockLease.sol\":2013:2018  lease */\n  0x04\n    /* \"contracts/BlockLease.sol\":2013:2024  lease.state */\n  0x00\n  add\n  0x00\n    /* \"contracts/BlockLease.sol\":2013:2046  lease.state = LeaseState.INACTIVE */\n  0x0100\n  exp\n  dup2\n  sload\n  dup2\n  0xff\n  mul\n  not\n  and\n  swap1\n  dup4\n  0x03\n  dup2\n  gt\n  iszero\n  tag_13\n  jumpi\n  tag_14\n  tag_15\n  jump\t// in\ntag_14:\ntag_13:\n  mul\n  or\n  swap1\n  sstore\n  pop\n    /* \"contracts/BlockLease.sol\":2073:2074  0 */\n  0x00\n    /* \"contracts/BlockLease.sol\":2056:2070  monthsRentPaid */\n  0x0a\n  0x00\n    /* \"contracts/BlockLease.sol\":2056:2074  monthsRentPaid = 0 */\n  0x0100\n  exp\n  dup2\n  sload\n  dup2\n  0xff\n  mul\n  not\n  and\n  swap1\n  dup4\n  0xff\n  and\n  mul\n  or\n  swap1\n  sstore\n  pop\n    /* \"contracts/BlockLease.sol\":1429:2081  constructor(... */\n  pop\n  pop\n  pop\n  pop\n    /* \"contracts/BlockLease.sol\":69:9215  contract BlockLease {... */\n  jump(tag_16)\n    /* \"#utility.yul\":7:82   */\ntag_17:\n    /* \"#utility.yul\":40:46   */\n  0x00\n    /* \"#utility.yul\":73:75   */\n  0x40\n    /* \"#utility.yul\":67:76   */\n  mload\n    /* \"#utility.yul\":57:76   */\n  swap1\n  pop\n    /* \"#utility.yul\":7:82   */\n  swap1\n  jump\t// out\n    /* \"#utility.yul\":88:205   */\ntag_18:\n    /* \"#utility.yul\":197:198   */\n  0x00\n    /* \"#utility.yul\":194:195   */\n  dup1\n    /* \"#utility.yul\":187:199   */\n  revert\n    /* \"#utility.yul\":211:328   */\ntag_19:\n    /* \"#utility.yul\":320:321   */\n  0x00\n    /* \"#utility.yul\":317:318   */\n  dup1\n    /* \"#utility.yul\":310:322   */\n  revert\n    /* \"#utility.yul\":334:460   */\ntag_20:\n    /* \"#utility.yul\":371:378   */\n  0x00\n    /* \"#utility.yul\":411:453   */\n  0xffffffffffffffffffffffffffffffffffffffff\n    /* \"#utility.yul\":404:409   */\n  dup3\n    /* \"#utility.yul\":400:454   */\n  and\n    /* \"#utility.yul\":389:454   */\n  swap1\n  pop\n    /* \"#utility.yul\":334:460   */\n  swap2\n  swap1\n  pop\n  jump\t// out\n    /* \"#utility.yul\":466:562   */\ntag_21:\n    /* \"#utility.yul\":503:510   */\n  0x00\n    /* \"#utility.yul\":532:556   */\n  tag_62\n    /* \"#utility.yul\":550:555   */\n  dup3\n    /* \"#utility.yul\":532:556   */\n  tag_20\n  jump\t// in\ntag_62:\n    /* \"#utility.yul\":521:556   */\n  swap1\n  pop\n    /* \"#utility.yul\":466:562   */\n  swap2\n  swap1\n  pop\n  jump\t// out\n    /* \"#utility.yul\":568:690   */\ntag_22:\n    /* \"#utility.yul\":641:665   */\n  tag_64\n    /* \"#utility.yul\":659:664   */\n  dup2\n    /* \"#utility.yul\":641:665   */\n  tag_21\n  jump\t// in\ntag_64:\n    /* \"#utility.yul\":634:639   */\n  dup2\n    /* \"#utility.yul\":631:666   */\n  eq\n    /* \"#utility.yul\":621:684   */\n  tag_65\n  jumpi\n    /* \"#utility.yul\":680:681   */\n  0x00\n    /* \"#utility.yul\":677:678   */\n  dup1\n    /* \"#utility.yul\":670:682   */\n  revert\n    /* \"#utility.yul\":621:684   */\ntag_65:\n    /* \"#utility.yul\":568:690   */\n  pop\n  jump\t// out\n    /* \"#utility.yul\":696:839   */\ntag_23:\n    /* \"#utility.yul\":753:758   */\n  0x00\n    /* \"#utility.yul\":784:790   */\n  dup2\n    /* \"#utility.yul\":778:791   */\n  mload\n    /* \"#utility.yul\":769:791   */\n  swap1\n  pop\n    /* \"#utility.yul\":800:833   */\n  tag_67\n    /* \"#utility.yul\":827:832   */\n  dup2\n    /* \"#utility.yul\":800:833   */\n  tag_22\n  jump\t// in\ntag_67:\n    /* \"#utility.yul\":696:839   */\n  swap3\n  swap2\n  pop\n  pop\n  jump\t// out\n    /* \"#utility.yul\":845:962   */\ntag_24:\n    /* \"#utility.yul\":954:955   */\n  0x00\n    /* \"#utility.yul\":951:952   */\n  dup1\n    /* \"#utility.yul\":944:956   */\n  revert\n    /* \"#utility.yul\":968:1085   */\ntag_25:\n    /* \"#utility.yul\":1077:1078   */\n  0x00\n    /* \"#utility.yul\":1074:1075   */\n  dup1\n    /* \"#utility.yul\":1067:1079   */\n  revert\n    /* \"#utility.yul\":1091:1193   */\ntag_26:\n    /* \"#utility.yul\":1132:1138   */\n  0x00\n    /* \"#utility.yul\":1183:1185   */\n  0x1f\n    /* \"#utility.yul\":1179:1186   */\n  not\n    /* \"#utility.yul\":1174:1176   */\n  0x1f\n    /* \"#utility.yul\":1167:1172   */\n  dup4\n    /* \"#utility.yul\":1163:1177   */\n  add\n    /* \"#utility.yul\":1159:1187   */\n  and\n    /* \"#utility.yul\":1149:1187   */\n  swap1\n  pop\n    /* \"#utility.yul\":1091:1193   */\n  swap2\n  swap1\n  pop\n  jump\t// out\n    /* \"#utility.yul\":1199:1379   */\ntag_27:\n    /* \"#utility.yul\":1247:1324   */\n  0x4e487b7100000000000000000000000000000000000000000000000000000000\n    /* \"#utility.yul\":1244:1245   */\n  0x00\n    /* \"#utility.yul\":1237:1325   */\n  mstore\n    /* \"#utility.yul\":1344:1348   */\n  0x41\n    /* \"#utility.yul\":1341:1342   */\n  0x04\n    /* \"#utility.yul\":1334:1349   */\n  mstore\n    /* \"#utility.yul\":1368:1372   */\n  0x24\n    /* \"#utility.yul\":1365:1366   */\n  0x00\n    /* \"#utility.yul\":1358:1373   */\n  revert\n    /* \"#utility.yul\":1385:1666   */\ntag_28:\n    /* \"#utility.yul\":1468:1495   */\n  tag_73\n    /* \"#utility.yul\":1490:1494   */\n  dup3\n    /* \"#utility.yul\":1468:1495   */\n  tag_26\n  jump\t// in\ntag_73:\n    /* \"#utility.yul\":1460:1466   */\n  dup2\n    /* \"#utility.yul\":1456:1496   */\n  add\n    /* \"#utility.yul\":1598:1604   */\n  dup2\n    /* \"#utility.yul\":1586:1596   */\n  dup2\n    /* \"#utility.yul\":1583:1605   */\n  lt\n    /* \"#utility.yul\":1562:1580   */\n  0xffffffffffffffff\n    /* \"#utility.yul\":1550:1560   */\n  dup3\n    /* \"#utility.yul\":1547:1581   */\n  gt\n    /* \"#utility.yul\":1544:1606   */\n  or\n    /* \"#utility.yul\":1541:1629   */\n  iszero\n  tag_74\n  jumpi\n    /* \"#utility.yul\":1609:1627   */\n  tag_75\n  tag_27\n  jump\t// in\ntag_75:\n    /* \"#utility.yul\":1541:1629   */\ntag_74:\n    /* \"#utility.yul\":1649:1659   */\n  dup1\n    /* \"#utility.yul\":1645:1647   */\n  0x40\n    /* \"#utility.yul\":1638:1660   */\n  mstore\n    /* \"#utility.yul\":1428:1666   */\n  pop\n    /* \"#utility.yul\":1385:1666   */\n  pop\n  pop\n  jump\t// out\n    /* \"#utility.yul\":1672:1801   */\ntag_29:\n    /* \"#utility.yul\":1706:1712   */\n  0x00\n    /* \"#utility.yul\":1733:1753   */\n  tag_77\n  tag_17\n  jump\t// in\ntag_77:\n    /* \"#utility.yul\":1723:1753   */\n  swap1\n  pop\n    /* \"#utility.yul\":1762:1795   */\n  tag_78\n    /* \"#utility.yul\":1790:1794   */\n  dup3\n    /* \"#utility.yul\":1782:1788   */\n  dup3\n    /* \"#utility.yul\":1762:1795   */\n  tag_28\n  jump\t// in\ntag_78:\n    /* \"#utility.yul\":1672:1801   */\n  swap2\n  swap1\n  pop\n  jump\t// out\n    /* \"#utility.yul\":1807:2115   */\ntag_30:\n    /* \"#utility.yul\":1869:1873   */\n  0x00\n    /* \"#utility.yul\":1959:1977   */\n  0xffffffffffffffff\n    /* \"#utility.yul\":1951:1957   */\n  dup3\n    /* \"#utility.yul\":1948:1978   */\n  gt\n    /* \"#utility.yul\":1945:2001   */\n  iszero\n  tag_80\n  jumpi\n    /* \"#utility.yul\":1981:1999   */\n  tag_81\n  tag_27\n  jump\t// in\ntag_81:\n    /* \"#utility.yul\":1945:2001   */\ntag_80:\n    /* \"#utility.yul\":2019:2048   */\n  tag_82\n    /* \"#utility.yul\":2041:2047   */\n  dup3\n    /* \"#utility.yul\":2019:2048   */\n  tag_26\n  jump\t// in\ntag_82:\n    /* \"#utility.yul\":2011:2048   */\n  swap1\n  pop\n    /* \"#utility.yul\":2103:2107   */\n  0x20\n    /* \"#utility.yul\":2097:2101   */\n  dup2\n    /* \"#utility.yul\":2093:2108   */\n  add\n    /* \"#utility.yul\":2085:2108   */\n  swap1\n  pop\n    /* \"#utility.yul\":1807:2115   */\n  swap2\n  swap1\n  pop\n  jump\t// out\n    /* \"#utility.yul\":2121:2367   */\ntag_31:\n    /* \"#utility.yul\":2202:2203   */\n  0x00\n    /* \"#utility.yul\":2212:2325   */\ntag_84:\n    /* \"#utility.yul\":2226:2232   */\n  dup4\n    /* \"#utility.yul\":2223:2224   */\n  dup2\n    /* \"#utility.yul\":2220:2233   */\n  lt\n    /* \"#utility.yul\":2212:2325   */\n  iszero\n  tag_86\n  jumpi\n    /* \"#utility.yul\":2311:2312   */\n  dup1\n    /* \"#utility.yul\":2306:2309   */\n  dup3\n    /* \"#utility.yul\":2302:2313   */\n  add\n    /* \"#utility.yul\":2296:2314   */\n  mload\n    /* \"#utility.yul\":2292:2293   */\n  dup2\n    /* \"#utility.yul\":2287:2290   */\n  dup5\n    /* \"#utility.yul\":2283:2294   */\n  add\n    /* \"#utility.yul\":2276:2315   */\n  mstore\n    /* \"#utility.yul\":2248:2250   */\n  0x20\n    /* \"#utility.yul\":2245:2246   */\n  dup2\n    /* \"#utility.yul\":2241:2251   */\n  add\n    /* \"#utility.yul\":2236:2251   */\n  swap1\n  pop\n    /* \"#utility.yul\":2212:2325   */\n  jump(tag_84)\ntag_86:\n    /* \"#utility.yul\":2359:2360   */\n  0x00\n    /* \"#utility.yul\":2350:2356   */\n  dup5\n    /* \"#utility.yul\":2345:2348   */\n  dup5\n    /* \"#utility.yul\":2341:2357   */\n  add\n    /* \"#utility.yul\":2334:2361   */\n  mstore\n    /* \"#utility.yul\":2183:2367   */\n  pop\n    /* \"#utility.yul\":2121:2367   */\n  pop\n  pop\n  pop\n  jump\t// out\n    /* \"#utility.yul\":2373:2807   */\ntag_32:\n    /* \"#utility.yul\":2462:2467   */\n  0x00\n    /* \"#utility.yul\":2487:2553   */\n  tag_88\n    /* \"#utility.yul\":2503:2552   */\n  tag_89\n    /* \"#utility.yul\":2545:2551   */\n  dup5\n    /* \"#utility.yul\":2503:2552   */\n  tag_30\n  jump\t// in\ntag_89:\n    /* \"#utility.yul\":2487:2553   */\n  tag_29\n  jump\t// in\ntag_88:\n    /* \"#utility.yul\":2478:2553   */\n  swap1\n  pop\n    /* \"#utility.yul\":2576:2582   */\n  dup3\n    /* \"#utility.yul\":2569:2574   */\n  dup2\n    /* \"#utility.yul\":2562:2583   */\n  mstore\n    /* \"#utility.yul\":2614:2618   */\n  0x20\n    /* \"#utility.yul\":2607:2612   */\n  dup2\n    /* \"#utility.yul\":2603:2619   */\n  add\n    /* \"#utility.yul\":2652:2655   */\n  dup5\n    /* \"#utility.yul\":2643:2649   */\n  dup5\n    /* \"#utility.yul\":2638:2641   */\n  dup5\n    /* \"#utility.yul\":2634:2650   */\n  add\n    /* \"#utility.yul\":2631:2656   */\n  gt\n    /* \"#utility.yul\":2628:2740   */\n  iszero\n  tag_90\n  jumpi\n    /* \"#utility.yul\":2659:2738   */\n  tag_91\n  tag_25\n  jump\t// in\ntag_91:\n    /* \"#utility.yul\":2628:2740   */\ntag_90:\n    /* \"#utility.yul\":2749:2801   */\n  tag_92\n    /* \"#utility.yul\":2794:2800   */\n  dup5\n    /* \"#utility.yul\":2789:2792   */\n  dup3\n    /* \"#utility.yul\":2784:2787   */\n  dup6\n    /* \"#utility.yul\":2749:2801   */\n  tag_31\n  jump\t// in\ntag_92:\n    /* \"#utility.yul\":2468:2807   */\n  pop\n    /* \"#utility.yul\":2373:2807   */\n  swap4\n  swap3\n  pop\n  pop\n  pop\n  jump\t// out\n    /* \"#utility.yul\":2827:3182   */\ntag_33:\n    /* \"#utility.yul\":2894:2899   */\n  0x00\n    /* \"#utility.yul\":2943:2946   */\n  dup3\n    /* \"#utility.yul\":2936:2940   */\n  0x1f\n    /* \"#utility.yul\":2928:2934   */\n  dup4\n    /* \"#utility.yul\":2924:2941   */\n  add\n    /* \"#utility.yul\":2920:2947   */\n  slt\n    /* \"#utility.yul\":2910:3032   */\n  tag_94\n  jumpi\n    /* \"#utility.yul\":2951:3030   */\n  tag_95\n  tag_24\n  jump\t// in\ntag_95:\n    /* \"#utility.yul\":2910:3032   */\ntag_94:\n    /* \"#utility.yul\":3061:3067   */\n  dup2\n    /* \"#utility.yul\":3055:3068   */\n  mload\n    /* \"#utility.yul\":3086:3176   */\n  tag_96\n    /* \"#utility.yul\":3172:3175   */\n  dup5\n    /* \"#utility.yul\":3164:3170   */\n  dup3\n    /* \"#utility.yul\":3157:3161   */\n  0x20\n    /* \"#utility.yul\":3149:3155   */\n  dup7\n    /* \"#utility.yul\":3145:3162   */\n  add\n    /* \"#utility.yul\":3086:3176   */\n  tag_32\n  jump\t// in\ntag_96:\n    /* \"#utility.yul\":3077:3176   */\n  swap2\n  pop\n    /* \"#utility.yul\":2900:3182   */\n  pop\n    /* \"#utility.yul\":2827:3182   */\n  swap3\n  swap2\n  pop\n  pop\n  jump\t// out\n    /* \"#utility.yul\":3188:4354   */\ntag_3:\n    /* \"#utility.yul\":3305:3311   */\n  0x00\n    /* \"#utility.yul\":3313:3319   */\n  dup1\n    /* \"#utility.yul\":3321:3327   */\n  0x00\n    /* \"#utility.yul\":3329:3335   */\n  dup1\n    /* \"#utility.yul\":3378:3381   */\n  0x80\n    /* \"#utility.yul\":3366:3375   */\n  dup6\n    /* \"#utility.yul\":3357:3364   */\n  dup8\n    /* \"#utility.yul\":3353:3376   */\n  sub\n    /* \"#utility.yul\":3349:3382   */\n  slt\n    /* \"#utility.yul\":3346:3466   */\n  iszero\n  tag_98\n  jumpi\n    /* \"#utility.yul\":3385:3464   */\n  tag_99\n  tag_18\n  jump\t// in\ntag_99:\n    /* \"#utility.yul\":3346:3466   */\ntag_98:\n    /* \"#utility.yul\":3505:3506   */\n  0x00\n    /* \"#utility.yul\":3530:3594   */\n  tag_100\n    /* \"#utility.yul\":3586:3593   */\n  dup8\n    /* \"#utility.yul\":3577:3583   */\n  dup3\n    /* \"#utility.yul\":3566:3575   */\n  dup9\n    /* \"#utility.yul\":3562:3584   */\n  add\n    /* \"#utility.yul\":3530:3594   */\n  tag_23\n  jump\t// in\ntag_100:\n    /* \"#utility.yul\":3520:3594   */\n  swap5\n  pop\n    /* \"#utility.yul\":3476:3604   */\n  pop\n    /* \"#utility.yul\":3643:3645   */\n  0x20\n    /* \"#utility.yul\":3669:3733   */\n  tag_101\n    /* \"#utility.yul\":3725:3732   */\n  dup8\n    /* \"#utility.yul\":3716:3722   */\n  dup3\n    /* \"#utility.yul\":3705:3714   */\n  dup9\n    /* \"#utility.yul\":3701:3723   */\n  add\n    /* \"#utility.yul\":3669:3733   */\n  tag_23\n  jump\t// in\ntag_101:\n    /* \"#utility.yul\":3659:3733   */\n  swap4\n  pop\n    /* \"#utility.yul\":3614:3743   */\n  pop\n    /* \"#utility.yul\":3803:3805   */\n  0x40\n    /* \"#utility.yul\":3792:3801   */\n  dup6\n    /* \"#utility.yul\":3788:3806   */\n  add\n    /* \"#utility.yul\":3782:3807   */\n  mload\n    /* \"#utility.yul\":3834:3852   */\n  0xffffffffffffffff\n    /* \"#utility.yul\":3826:3832   */\n  dup2\n    /* \"#utility.yul\":3823:3853   */\n  gt\n    /* \"#utility.yul\":3820:3937   */\n  iszero\n  tag_102\n  jumpi\n    /* \"#utility.yul\":3856:3935   */\n  tag_103\n  tag_19\n  jump\t// in\ntag_103:\n    /* \"#utility.yul\":3820:3937   */\ntag_102:\n    /* \"#utility.yul\":3961:4035   */\n  tag_104\n    /* \"#utility.yul\":4027:4034   */\n  dup8\n    /* \"#utility.yul\":4018:4024   */\n  dup3\n    /* \"#utility.yul\":4007:4016   */\n  dup9\n    /* \"#utility.yul\":4003:4025   */\n  add\n    /* \"#utility.yul\":3961:4035   */\n  tag_33\n  jump\t// in\ntag_104:\n    /* \"#utility.yul\":3951:4035   */\n  swap3\n  pop\n    /* \"#utility.yul\":3753:4045   */\n  pop\n    /* \"#utility.yul\":4105:4107   */\n  0x60\n    /* \"#utility.yul\":4094:4103   */\n  dup6\n    /* \"#utility.yul\":4090:4108   */\n  add\n    /* \"#utility.yul\":4084:4109   */\n  mload\n    /* \"#utility.yul\":4136:4154   */\n  0xffffffffffffffff\n    /* \"#utility.yul\":4128:4134   */\n  dup2\n    /* \"#utility.yul\":4125:4155   */\n  gt\n    /* \"#utility.yul\":4122:4239   */\n  iszero\n  tag_105\n  jumpi\n    /* \"#utility.yul\":4158:4237   */\n  tag_106\n  tag_19\n  jump\t// in\ntag_106:\n    /* \"#utility.yul\":4122:4239   */\ntag_105:\n    /* \"#utility.yul\":4263:4337   */\n  tag_107\n    /* \"#utility.yul\":4329:4336   */\n  dup8\n    /* \"#utility.yul\":4320:4326   */\n  dup3\n    /* \"#utility.yul\":4309:4318   */\n  dup9\n    /* \"#utility.yul\":4305:4327   */\n  add\n    /* \"#utility.yul\":4263:4337   */\n  tag_33\n  jump\t// in\ntag_107:\n    /* \"#utility.yul\":4253:4337   */\n  swap2\n  pop\n    /* \"#utility.yul\":4055:4347   */\n  pop\n    /* \"#utility.yul\":3188:4354   */\n  swap3\n  swap6\n  swap2\n  swap5\n  pop\n  swap3\n  pop\n  jump\t// out\n    /* \"#utility.yul\":4360:4529   */\ntag_34:\n    /* \"#utility.yul\":4444:4455   */\n  0x00\n    /* \"#utility.yul\":4478:4484   */\n  dup3\n    /* \"#utility.yul\":4473:4476   */\n  dup3\n    /* \"#utility.yul\":4466:4485   */\n  mstore\n    /* \"#utility.yul\":4518:4522   */\n  0x20\n    /* \"#utility.yul\":4513:4516   */\n  dup3\n    /* \"#utility.yul\":4509:4523   */\n  add\n    /* \"#utility.yul\":4494:4523   */\n  swap1\n  pop\n    /* \"#utility.yul\":4360:4529   */\n  swap3\n  swap2\n  pop\n  pop\n  jump\t// out\n    /* \"#utility.yul\":4535:4784   */\ntag_35:\n    /* \"#utility.yul\":4675:4709   */\n  0x4f6e6c79206c616e646c6f7264206f722074656e616e742073686f756c642062\n    /* \"#utility.yul\":4671:4672   */\n  0x00\n    /* \"#utility.yul\":4663:4669   */\n  dup3\n    /* \"#utility.yul\":4659:4673   */\n  add\n    /* \"#utility.yul\":4652:4710   */\n  mstore\n    /* \"#utility.yul\":4744:4776   */\n  0x6520616c6c6f77656420746f2063726561746520746865206c656173652e0000\n    /* \"#utility.yul\":4739:4741   */\n  0x20\n    /* \"#utility.yul\":4731:4737   */\n  dup3\n    /* \"#utility.yul\":4727:4742   */\n  add\n    /* \"#utility.yul\":4720:4777   */\n  mstore\n    /* \"#utility.yul\":4535:4784   */\n  pop\n  jump\t// out\n    /* \"#utility.yul\":4790:5156   */\ntag_36:\n    /* \"#utility.yul\":4932:4935   */\n  0x00\n    /* \"#utility.yul\":4953:5020   */\n  tag_111\n    /* \"#utility.yul\":5017:5019   */\n  0x3e\n    /* \"#utility.yul\":5012:5015   */\n  dup4\n    /* \"#utility.yul\":4953:5020   */\n  tag_34\n  jump\t// in\ntag_111:\n    /* \"#utility.yul\":4946:5020   */\n  swap2\n  pop\n    /* \"#utility.yul\":5029:5122   */\n  tag_112\n    /* \"#utility.yul\":5118:5121   */\n  dup3\n    /* \"#utility.yul\":5029:5122   */\n  tag_35\n  jump\t// in\ntag_112:\n    /* \"#utility.yul\":5147:5149   */\n  0x40\n    /* \"#utility.yul\":5142:5145   */\n  dup3\n    /* \"#utility.yul\":5138:5150   */\n  add\n    /* \"#utility.yul\":5131:5150   */\n  swap1\n  pop\n    /* \"#utility.yul\":4790:5156   */\n  swap2\n  swap1\n  pop\n  jump\t// out\n    /* \"#utility.yul\":5162:5581   */\ntag_9:\n    /* \"#utility.yul\":5328:5332   */\n  0x00\n    /* \"#utility.yul\":5366:5368   */\n  0x20\n    /* \"#utility.yul\":5355:5364   */\n  dup3\n    /* \"#utility.yul\":5351:5369   */\n  add\n    /* \"#utility.yul\":5343:5369   */\n  swap1\n  pop\n    /* \"#utility.yul\":5415:5424   */\n  dup2\n    /* \"#utility.yul\":5409:5413   */\n  dup2\n    /* \"#utility.yul\":5405:5425   */\n  sub\n    /* \"#utility.yul\":5401:5402   */\n  0x00\n    /* \"#utility.yul\":5390:5399   */\n  dup4\n    /* \"#utility.yul\":5386:5403   */\n  add\n    /* \"#utility.yul\":5379:5426   */\n  mstore\n    /* \"#utility.yul\":5443:5574   */\n  tag_114\n    /* \"#utility.yul\":5569:5573   */\n  dup2\n    /* \"#utility.yul\":5443:5574   */\n  tag_36\n  jump\t// in\ntag_114:\n    /* \"#utility.yul\":5435:5574   */\n  swap1\n  pop\n    /* \"#utility.yul\":5162:5581   */\n  swap2\n  swap1\n  pop\n  jump\t// out\n    /* \"#utility.yul\":5587:5686   */\ntag_37:\n    /* \"#utility.yul\":5639:5645   */\n  0x00\n    /* \"#utility.yul\":5673:5678   */\n  dup2\n    /* \"#utility.yul\":5667:5679   */\n  mload\n    /* \"#utility.yul\":5657:5679   */\n  swap1\n  pop\n    /* \"#utility.yul\":5587:5686   */\n  swap2\n  swap1\n  pop\n  jump\t// out\n    /* \"#utility.yul\":5692:5872   */\ntag_38:\n    /* \"#utility.yul\":5740:5817   */\n  0x4e487b7100000000000000000000000000000000000000000000000000000000\n    /* \"#utility.yul\":5737:5738   */\n  0x00\n    /* \"#utility.yul\":5730:5818   */\n  mstore\n    /* \"#utility.yul\":5837:5841   */\n  0x22\n    /* \"#utility.yul\":5834:5835   */\n  0x04\n    /* \"#utility.yul\":5827:5842   */\n  mstore\n    /* \"#utility.yul\":5861:5865   */\n  0x24\n    /* \"#utility.yul\":5858:5859   */\n  0x00\n    /* \"#utility.yul\":5851:5866   */\n  revert\n    /* \"#utility.yul\":5878:6198   */\ntag_39:\n    /* \"#utility.yul\":5922:5928   */\n  0x00\n    /* \"#utility.yul\":5959:5960   */\n  0x02\n    /* \"#utility.yul\":5953:5957   */\n  dup3\n    /* \"#utility.yul\":5949:5961   */\n  div\n    /* \"#utility.yul\":5939:5961   */\n  swap1\n  pop\n    /* \"#utility.yul\":6006:6007   */\n  0x01\n    /* \"#utility.yul\":6000:6004   */\n  dup3\n    /* \"#utility.yul\":5996:6008   */\n  and\n    /* \"#utility.yul\":6027:6045   */\n  dup1\n    /* \"#utility.yul\":6017:6098   */\n  tag_118\n  jumpi\n    /* \"#utility.yul\":6083:6087   */\n  0x7f\n    /* \"#utility.yul\":6075:6081   */\n  dup3\n    /* \"#utility.yul\":6071:6088   */\n  and\n    /* \"#utility.yul\":6061:6088   */\n  swap2\n  pop\n    /* \"#utility.yul\":6017:6098   */\ntag_118:\n    /* \"#utility.yul\":6145:6147   */\n  0x20\n    /* \"#utility.yul\":6137:6143   */\n  dup3\n    /* \"#utility.yul\":6134:6148   */\n  lt\n    /* \"#utility.yul\":6114:6132   */\n  dup2\n    /* \"#utility.yul\":6111:6149   */\n  sub\n    /* \"#utility.yul\":6108:6192   */\n  tag_119\n  jumpi\n    /* \"#utility.yul\":6164:6182   */\n  tag_120\n  tag_38\n  jump\t// in\ntag_120:\n    /* \"#utility.yul\":6108:6192   */\ntag_119:\n    /* \"#utility.yul\":5929:6198   */\n  pop\n    /* \"#utility.yul\":5878:6198   */\n  swap2\n  swap1\n  pop\n  jump\t// out\n    /* \"#utility.yul\":6204:6345   */\ntag_40:\n    /* \"#utility.yul\":6253:6257   */\n  0x00\n    /* \"#utility.yul\":6276:6279   */\n  dup2\n    /* \"#utility.yul\":6268:6279   */\n  swap1\n  pop\n    /* \"#utility.yul\":6299:6302   */\n  dup2\n    /* \"#utility.yul\":6296:6297   */\n  0x00\n    /* \"#utility.yul\":6289:6303   */\n  mstore\n    /* \"#utility.yul\":6333:6337   */\n  0x20\n    /* \"#utility.yul\":6330:6331   */\n  0x00\n    /* \"#utility.yul\":6320:6338   */\n  keccak256\n    /* \"#utility.yul\":6312:6338   */\n  swap1\n  pop\n    /* \"#utility.yul\":6204:6345   */\n  swap2\n  swap1\n  pop\n  jump\t// out\n    /* \"#utility.yul\":6351:6444   */\ntag_41:\n    /* \"#utility.yul\":6388:6394   */\n  0x00\n    /* \"#utility.yul\":6435:6437   */\n  0x20\n    /* \"#utility.yul\":6430:6432   */\n  0x1f\n    /* \"#utility.yul\":6423:6428   */\n  dup4\n    /* \"#utility.yul\":6419:6433   */\n  add\n    /* \"#utility.yul\":6415:6438   */\n  div\n    /* \"#utility.yul\":6405:6438   */\n  swap1\n  pop\n    /* \"#utility.yul\":6351:6444   */\n  swap2\n  swap1\n  pop\n  jump\t// out\n    /* \"#utility.yul\":6450:6557   */\ntag_42:\n    /* \"#utility.yul\":6494:6502   */\n  0x00\n    /* \"#utility.yul\":6544:6549   */\n  dup3\n    /* \"#utility.yul\":6538:6542   */\n  dup3\n    /* \"#utility.yul\":6534:6550   */\n  shl\n    /* \"#utility.yul\":6513:6550   */\n  swap1\n  pop\n    /* \"#utility.yul\":6450:6557   */\n  swap3\n  swap2\n  pop\n  pop\n  jump\t// out\n    /* \"#utility.yul\":6563:6956   */\ntag_43:\n    /* \"#utility.yul\":6632:6638   */\n  0x00\n    /* \"#utility.yul\":6682:6683   */\n  0x08\n    /* \"#utility.yul\":6670:6680   */\n  dup4\n    /* \"#utility.yul\":6666:6684   */\n  mul\n    /* \"#utility.yul\":6705:6802   */\n  tag_125\n    /* \"#utility.yul\":6735:6801   */\n  0xffffffffffffffffffffffffffffffffffffffffffffffffffffffffffffffff\n    /* \"#utility.yul\":6724:6733   */\n  dup3\n    /* \"#utility.yul\":6705:6802   */\n  tag_42\n  jump\t// in\ntag_125:\n    /* \"#utility.yul\":6823:6862   */\n  tag_126\n    /* \"#utility.yul\":6853:6861   */\n  dup7\n    /* \"#utility.yul\":6842:6851   */\n  dup4\n    /* \"#utility.yul\":6823:6862   */\n  tag_42\n  jump\t// in\ntag_126:\n    /* \"#utility.yul\":6811:6862   */\n  swap6\n  pop\n    /* \"#utility.yul\":6895:6899   */\n  dup1\n    /* \"#utility.yul\":6891:6900   */\n  not\n    /* \"#utility.yul\":6884:6889   */\n  dup5\n    /* \"#utility.yul\":6880:6901   */\n  and\n    /* \"#utility.yul\":6871:6901   */\n  swap4\n  pop\n    /* \"#utility.yul\":6944:6948   */\n  dup1\n    /* \"#utility.yul\":6934:6942   */\n  dup7\n    /* \"#utility.yul\":6930:6949   */\n  and\n    /* \"#utility.yul\":6923:6928   */\n  dup5\n    /* \"#utility.yul\":6920:6950   */\n  or\n    /* \"#utility.yul\":6910:6950   */\n  swap3\n  pop\n    /* \"#utility.yul\":6639:6956   */\n  pop\n  pop\n    /* \"#utility.yul\":6563:6956   */\n  swap4\n  swap3\n  pop\n  pop\n  pop\n  jump\t// out\n    /* \"#utility.yul\":6962:7039   */\ntag_44:\n    /* \"#utility.yul\":6999:7006   */\n  0x00\n    /* \"#utility.yul\":7028:7033   */\n  dup2\n    /* \"#utility.yul\":7017:7033   */\n  swap1\n  pop\n    /* \"#utility.yul\":6962:7039   */\n  swap2\n  swap1\n  pop\n  jump\t// out\n    /* \"#utility.yul\":7045:7105   */\ntag_45:\n    /* \"#utility.yul\":7073:7076   */\n  0x00\n    /* \"#utility.yul\":7094:7099   */\n  dup2\n    /* \"#utility.yul\":7087:7099   */\n  swap1\n  pop\n    /* \"#utility.yul\":7045:7105   */\n  swap2\n  swap1\n  pop\n  jump\t// out\n    /* \"#utility.yul\":7111:7253   */\ntag_46:\n    /* \"#utility.yul\":7161:7170   */\n  0x00\n    /* \"#utility.yul\":7194:7247   */\n  tag_130\n    /* \"#utility.yul\":7212:7246   */\n  tag_131\n    /* \"#utility.yul\":7221:7245   */\n  tag_132\n    /* \"#utility.yul\":7239:7244   */\n  dup5\n    /* \"#utility.yul\":7221:7245   */\n  tag_44\n  jump\t// in\ntag_132:\n    /* \"#utility.yul\":7212:7246   */\n  tag_45\n  jump\t// in\ntag_131:\n    /* \"#utility.yul\":7194:7247   */\n  tag_44\n  jump\t// in\ntag_130:\n    /* \"#utility.yul\":7181:7247   */\n  swap1\n  pop\n    /* \"#utility.yul\":7111:7253   */\n  swap2\n  swap1\n  pop\n  jump\t// out\n    /* \"#utility.yul\":7259:7334   */\ntag_47:\n    /* \"#utility.yul\":7302:7305   */\n  0x00\n    /* \"#utility.yul\":7323:7328   */\n  dup2\n    /* \"#utility.yul\":7316:7328   */\n  swap1\n  pop\n    /* \"#utility.yul\":7259:7334   */\n  swap2\n  swap1\n  pop\n  jump\t// out\n    /* \"#utility.yul\":7340:7609   */\ntag_48:\n    /* \"#utility.yul\":7450:7489   */\n  tag_135\n    /* \"#utility.yul\":7481:7488   */\n  dup4\n    /* \"#utility.yul\":7450:7489   */\n  tag_46\n  jump\t// in\ntag_135:\n    /* \"#utility.yul\":7511:7602   */\n  tag_136\n    /* \"#utility.yul\":7560:7601   */\n  tag_137\n    /* \"#utility.yul\":7584:7600   */\n  dup3\n    /* \"#utility.yul\":7560:7601   */\n  tag_47\n  jump\t// in\ntag_137:\n    /* \"#utility.yul\":7552:7558   */\n  dup5\n    /* \"#utility.yul\":7545:7549   */\n  dup5\n    /* \"#utility.yul\":7539:7550   */\n  sload\n    /* \"#utility.yul\":7511:7602   */\n  tag_43\n  jump\t// in\ntag_136:\n    /* \"#utility.yul\":7505:7509   */\n  dup3\n    /* \"#utility.yul\":7498:7603   */\n  sstore\n    /* \"#utility.yul\":7416:7609   */\n  pop\n    /* \"#utility.yul\":7340:7609   */\n  pop\n  pop\n  pop\n  jump\t// out\n    /* \"#utility.yul\":7615:7688   */\ntag_49:\n    /* \"#utility.yul\":7660:7663   */\n  0x00\n    /* \"#utility.yul\":7615:7688   */\n  swap1\n  jump\t// out\n    /* \"#utility.yul\":7694:7883   */\ntag_50:\n    /* \"#utility.yul\":7771:7803   */\n  tag_140\n  tag_49\n  jump\t// in\ntag_140:\n    /* \"#utility.yul\":7812:7877   */\n  tag_141\n    /* \"#utility.yul\":7870:7876   */\n  dup2\n    /* \"#utility.yul\":7862:7868   */\n  dup5\n    /* \"#utility.yul\":7856:7860   */\n  dup5\n    /* \"#utility.yul\":7812:7877   */\n  tag_48\n  jump\t// in\ntag_141:\n    /* \"#utility.yul\":7747:7883   */\n  pop\n    /* \"#utility.yul\":7694:7883   */\n  pop\n  pop\n  jump\t// out\n    /* \"#utility.yul\":7889:8075   */\ntag_51:\n    /* \"#utility.yul\":7949:8069   */\ntag_143:\n    /* \"#utility.yul\":7966:7969   */\n  dup2\n    /* \"#utility.yul\":7959:7964   */\n  dup2\n    /* \"#utility.yul\":7956:7970   */\n  lt\n    /* \"#utility.yul\":7949:8069   */\n  iszero\n  tag_145\n  jumpi\n    /* \"#utility.yul\":8020:8059   */\n  tag_146\n    /* \"#utility.yul\":8057:8058   */\n  0x00\n    /* \"#utility.yul\":8050:8055   */\n  dup3\n    /* \"#utility.yul\":8020:8059   */\n  tag_50\n  jump\t// in\ntag_146:\n    /* \"#utility.yul\":7993:7994   */\n  0x01\n    /* \"#utility.yul\":7986:7991   */\n  dup2\n    /* \"#utility.yul\":7982:7995   */\n  add\n    /* \"#utility.yul\":7973:7995   */\n  swap1\n  pop\n    /* \"#utility.yul\":7949:8069   */\n  jump(tag_143)\ntag_145:\n    /* \"#utility.yul\":7889:8075   */\n  pop\n  pop\n  jump\t// out\n    /* \"#utility.yul\":8081:8624   */\ntag_52:\n    /* \"#utility.yul\":8182:8184   */\n  0x1f\n    /* \"#utility.yul\":8177:8180   */\n  dup3\n    /* \"#utility.yul\":8174:8185   */\n  gt\n    /* \"#utility.yul\":8171:8617   */\n  iszero\n  tag_148\n  jumpi\n    /* \"#utility.yul\":8216:8254   */\n  tag_149\n    /* \"#utility.yul\":8248:8253   */\n  dup2\n    /* \"#utility.yul\":8216:8254   */\n  tag_40\n  jump\t// in\ntag_149:\n    /* \"#utility.yul\":8300:8329   */\n  tag_150\n    /* \"#utility.yul\":8318:8328   */\n  dup5\n    /* \"#utility.yul\":8300:8329   */\n  tag_41\n  jump\t// in\ntag_150:\n    /* \"#utility.yul\":8290:8298   */\n  dup2\n    /* \"#utility.yul\":8286:8330   */\n  add\n    /* \"#utility.yul\":8483:8485   */\n  0x20\n    /* \"#utility.yul\":8471:8481   */\n  dup6\n    /* \"#utility.yul\":8468:8486   */\n  lt\n    /* \"#utility.yul\":8465:8514   */\n  iszero\n  tag_151\n  jumpi\n    /* \"#utility.yul\":8504:8512   */\n  dup2\n    /* \"#utility.yul\":8489:8512   */\n  swap1\n  pop\n    /* \"#utility.yul\":8465:8514   */\ntag_151:\n    /* \"#utility.yul\":8527:8607   */\n  tag_152\n    /* \"#utility.yul\":8583:8605   */\n  tag_153\n    /* \"#utility.yul\":8601:8604   */\n  dup6\n    /* \"#utility.yul\":8583:8605   */\n  tag_41\n  jump\t// in\ntag_153:\n    /* \"#utility.yul\":8573:8581   */\n  dup4\n    /* \"#utility.yul\":8569:8606   */\n  add\n    /* \"#utility.yul\":8556:8567   */\n  dup3\n    /* \"#utility.yul\":8527:8607   */\n  tag_51\n  jump\t// in\ntag_152:\n    /* \"#utility.yul\":8186:8617   */\n  pop\n  pop\n    /* \"#utility.yul\":8171:8617   */\ntag_148:\n    /* \"#utility.yul\":8081:8624   */\n  pop\n  pop\n  pop\n  jump\t// out\n    /* \"#utility.yul\":8630:8747   */\ntag_53:\n    /* \"#utility.yul\":8684:8692   */\n  0x00\n    /* \"#utility.yul\":8734:8739   */\n  dup3\n    /* \"#utility.yul\":8728:8732   */\n  dup3\n    /* \"#utility.yul\":8724:8740   */\n  shr\n    /* \"#utility.yul\":8703:8740   */\n  swap1\n  pop\n    /* \"#utility.yul\":8630:8747   */\n  swap3\n  swap2\n  pop\n  pop\n  jump\t// out\n    /* \"#utility.yul\":8753:8922   */\ntag_54:\n    /* \"#utility.yul\":8797:8803   */\n  0x00\n    /* \"#utility.yul\":8830:8881   */\n  tag_156\n    /* \"#utility.yul\":8878:8879   */\n  0x00\n    /* \"#utility.yul\":8874:8880   */\n  not\n    /* \"#utility.yul\":8866:8871   */\n  dup5\n    /* \"#utility.yul\":8863:8864   */\n  0x08\n    /* \"#utility.yul\":8859:8872   */\n  mul\n    /* \"#utility.yul\":8830:8881   */\n  tag_53\n  jump\t// in\ntag_156:\n    /* \"#utility.yul\":8826:8882   */\n  not\n    /* \"#utility.yul\":8911:8915   */\n  dup1\n    /* \"#utility.yul\":8905:8909   */\n  dup4\n    /* \"#utility.yul\":8901:8916   */\n  and\n    /* \"#utility.yul\":8891:8916   */\n  swap2\n  pop\n    /* \"#utility.yul\":8804:8922   */\n  pop\n    /* \"#utility.yul\":8753:8922   */\n  swap3\n  swap2\n  pop\n  pop\n  jump\t// out\n    /* \"#utility.yul\":8927:9222   */\ntag_55:\n    /* \"#utility.yul\":9003:9007   */\n  0x00\n    /* \"#utility.yul\":9149:9178   */\n  tag_158\n    /* \"#utility.yul\":9174:9177   */\n  dup4\n    /* \"#utility.yul\":9168:9172   */\n  dup4\n    /* \"#utility.yul\":9149:9178   */\n  tag_54\n  jump\t// in\ntag_158:\n    /* \"#utility.yul\":9141:9178   */\n  swap2\n  pop\n    /* \"#utility.yul\":9211:9214   */\n  dup3\n    /* \"#utility.yul\":9208:9209   */\n  0x02\n    /* \"#utility.yul\":9204:9215   */\n  mul\n    /* \"#utility.yul\":9198:9202   */\n  dup3\n    /* \"#utility.yul\":9195:9216   */\n  or\n    /* \"#utility.yul\":9187:9216   */\n  swap1\n  pop\n    /* \"#utility.yul\":8927:9222   */\n  swap3\n  swap2\n  pop\n  pop\n  jump\t// out\n    /* \"#utility.yul\":9227:10622   */\ntag_11:\n    /* \"#utility.yul\":9344:9381   */\n  tag_160\n    /* \"#utility.yul\":9377:9380   */\n  dup3\n    /* \"#utility.yul\":9344:9381   */\n  tag_37\n  jump\t// in\ntag_160:\n    /* \"#utility.yul\":9446:9464   */\n  0xffffffffffffffff\n    /* \"#utility.yul\":9438:9444   */\n  dup2\n    /* \"#utility.yul\":9435:9465   */\n  gt\n    /* \"#utility.yul\":9432:9488   */\n  iszero\n  tag_161\n  jumpi\n    /* \"#utility.yul\":9468:9486   */\n  tag_162\n  tag_27\n  jump\t// in\ntag_162:\n    /* \"#utility.yul\":9432:9488   */\ntag_161:\n    /* \"#utility.yul\":9512:9550   */\n  tag_163\n    /* \"#utility.yul\":9544:9548   */\n  dup3\n    /* \"#utility.yul\":9538:9549   */\n  sload\n    /* \"#utility.yul\":9512:9550   */\n  tag_39\n  jump\t// in\ntag_163:\n    /* \"#utility.yul\":9597:9664   */\n  tag_164\n    /* \"#utility.yul\":9657:9663   */\n  dup3\n    /* \"#utility.yul\":9649:9655   */\n  dup3\n    /* \"#utility.yul\":9643:9647   */\n  dup6\n    /* \"#utility.yul\":9597:9664   */\n  tag_52\n  jump\t// in\ntag_164:\n    /* \"#utility.yul\":9691:9692   */\n  0x00\n    /* \"#utility.yul\":9715:9719   */\n  0x20\n    /* \"#utility.yul\":9702:9719   */\n  swap1\n  pop\n    /* \"#utility.yul\":9747:9749   */\n  0x1f\n    /* \"#utility.yul\":9739:9745   */\n  dup4\n    /* \"#utility.yul\":9736:9750   */\n  gt\n    /* \"#utility.yul\":9764:9765   */\n  0x01\n    /* \"#utility.yul\":9759:10377   */\n  dup2\n  eq\n  tag_166\n  jumpi\n    /* \"#utility.yul\":10421:10422   */\n  0x00\n    /* \"#utility.yul\":10438:10444   */\n  dup5\n    /* \"#utility.yul\":10435:10512   */\n  iszero\n  tag_167\n  jumpi\n    /* \"#utility.yul\":10487:10496   */\n  dup3\n    /* \"#utility.yul\":10482:10485   */\n  dup8\n    /* \"#utility.yul\":10478:10497   */\n  add\n    /* \"#utility.yul\":10472:10498   */\n  mload\n    /* \"#utility.yul\":10463:10498   */\n  swap1\n  pop\n    /* \"#utility.yul\":10435:10512   */\ntag_167:\n    /* \"#utility.yul\":10538:10605   */\n  tag_168\n    /* \"#utility.yul\":10598:10604   */\n  dup6\n    /* \"#utility.yul\":10591:10596   */\n  dup3\n    /* \"#utility.yul\":10538:10605   */\n  tag_55\n  jump\t// in\ntag_168:\n    /* \"#utility.yul\":10532:10536   */\n  dup7\n    /* \"#utility.yul\":10525:10606   */\n  sstore\n    /* \"#utility.yul\":10394:10616   */\n  pop\n    /* \"#utility.yul\":9729:10616   */\n  jump(tag_165)\n    /* \"#utility.yul\":9759:10377   */\ntag_166:\n    /* \"#utility.yul\":9811:9815   */\n  0x1f\n    /* \"#utility.yul\":9807:9816   */\n  not\n    /* \"#utility.yul\":9799:9805   */\n  dup5\n    /* \"#utility.yul\":9795:9817   */\n  and\n    /* \"#utility.yul\":9845:9882   */\n  tag_169\n    /* \"#utility.yul\":9877:9881   */\n  dup7\n    /* \"#utility.yul\":9845:9882   */\n  tag_40\n  jump\t// in\ntag_169:\n    /* \"#utility.yul\":9904:9905   */\n  0x00\n    /* \"#utility.yul\":9918:10126   */\ntag_170:\n    /* \"#utility.yul\":9932:9939   */\n  dup3\n    /* \"#utility.yul\":9929:9930   */\n  dup2\n    /* \"#utility.yul\":9926:9940   */\n  lt\n    /* \"#utility.yul\":9918:10126   */\n  iszero\n  tag_172\n  jumpi\n    /* \"#utility.yul\":10011:10020   */\n  dup5\n    /* \"#utility.yul\":10006:10009   */\n  dup10\n    /* \"#utility.yul\":10002:10021   */\n  add\n    /* \"#utility.yul\":9996:10022   */\n  mload\n    /* \"#utility.yul\":9988:9994   */\n  dup3\n    /* \"#utility.yul\":9981:10023   */\n  sstore\n    /* \"#utility.yul\":10062:10063   */\n  0x01\n    /* \"#utility.yul\":10054:10060   */\n  dup3\n    /* \"#utility.yul\":10050:10064   */\n  add\n    /* \"#utility.yul\":10040:10064   */\n  swap2\n  pop\n    /* \"#utility.yul\":10109:10111   */\n  0x20\n    /* \"#utility.yul\":10098:10107   */\n  dup6\n    /* \"#utility.yul\":10094:10112   */\n  add\n    /* \"#utility.yul\":10081:10112   */\n  swap5\n  pop\n    /* \"#utility.yul\":9955:9959   */\n  0x20\n    /* \"#utility.yul\":9952:9953   */\n  dup2\n    /* \"#utility.yul\":9948:9960   */\n  add\n    /* \"#utility.yul\":9943:9960   */\n  swap1\n  pop\n    /* \"#utility.yul\":9918:10126   */\n  jump(tag_170)\ntag_172:\n    /* \"#utility.yul\":10154:10160   */\n  dup7\n    /* \"#utility.yul\":10145:10152   */\n  dup4\n    /* \"#utility.yul\":10142:10161   */\n  lt\n    /* \"#utility.yul\":10139:10318   */\n  iszero\n  tag_173\n  jumpi\n    /* \"#utility.yul\":10212:10221   */\n  dup5\n    /* \"#utility.yul\":10207:10210   */\n  dup10\n    /* \"#utility.yul\":10203:10222   */\n  add\n    /* \"#utility.yul\":10197:10223   */\n  mload\n    /* \"#utility.yul\":10255:10303   */\n  tag_174\n    /* \"#utility.yul\":10297:10301   */\n  0x1f\n    /* \"#utility.yul\":10289:10295   */\n  dup10\n    /* \"#utility.yul\":10285:10302   */\n  and\n    /* \"#utility.yul\":10274:10283   */\n  dup3\n    /* \"#utility.yul\":10255:10303   */\n  tag_54\n  jump\t// in\ntag_174:\n    /* \"#utility.yul\":10247:10253   */\n  dup4\n    /* \"#utility.yul\":10240:10304   */\n  sstore\n    /* \"#utility.yul\":10162:10318   */\n  pop\n    /* \"#utility.yul\":10139:10318   */\ntag_173:\n    /* \"#utility.yul\":10364:10365   */\n  0x01\n    /* \"#utility.yul\":10360:10361   */\n  0x02\n    /* \"#utility.yul\":10352:10358   */\n  dup9\n    /* \"#utility.yul\":10348:10362   */\n  mul\n    /* \"#utility.yul\":10344:10366   */\n  add\n    /* \"#utility.yul\":10338:10342   */\n  dup9\n    /* \"#utility.yul\":10331:10367   */\n  sstore\n    /* \"#utility.yul\":9766:10377   */\n  pop\n  pop\n  pop\n    /* \"#utility.yul\":9729:10616   */\ntag_165:\n  pop\n    /* \"#utility.yul\":9319:10622   */\n  pop\n  pop\n  pop\n    /* \"#utility.yul\":9227:10622   */\n  pop\n  pop\n  jump\t// out\n    /* \"#utility.yul\":10628:10808   */\ntag_15:\n    /* \"#utility.yul\":10676:10753   */\n  0x4e487b7100000000000000000000000000000000000000000000000000000000\n    /* \"#utility.yul\":10673:10674   */\n  0x00\n    /* \"#utility.yul\":10666:10754   */\n  mstore\n    /* \"#utility.yul\":10773:10777   */\n  0x21\n    /* \"#utility.yul\":10770:10771   */\n  0x04\n    /* \"#utility.yul\":10763:10778   */\n  mstore\n    /* \"#utility.yul\":10797:10801   */\n  0x24\n    /* \"#utility.yul\":10794:10795   */\n  0x00\n    /* \"#utility.yul\":10787:10802   */\n  revert\n    /* \"contracts/BlockLease.sol\":69:9215  contract BlockLease {... */\ntag_16:\n  dataSize(sub_0)\n  dup1\n  dataOffset(sub_0)\n  0x00\n  codecopy\n  0x00\n  return\nstop\n\nsub_0: assembly {\n        /* \"contracts/BlockLease.sol\":69:9215  contract BlockLease {... */\n      mstore(0x40, 0x80)\n      jumpi(tag_1, lt(calldatasize, 0x04))\n      shr(0xe0, calldataload(0x00))\n      dup1\n      0xadf07791\n      gt\n      tag_13\n      jumpi\n      dup1\n      0xadf07791\n      eq\n      tag_7\n      jumpi\n      dup1\n      0xb763701b\n      eq\n      tag_8\n      jumpi\n      dup1\n      0xc939329b\n      eq\n      tag_9\n      jumpi\n      dup1\n      0xc998eef4\n      eq\n      tag_10\n      jumpi\n      dup1\n      0xdc1997ea\n      eq\n      tag_11\n      jumpi\n      dup1\n      0xe154fe71\n      eq\n      tag_12\n      jumpi\n      jump(tag_1)\n    tag_13:\n      dup1\n      0x176fd3f0\n      eq\n      tag_2\n      jumpi\n      dup1\n      0x3fbd37d2\n      eq\n      tag_3\n      jumpi\n      dup1\n      0x548aff72\n      eq\n      tag_4\n      jumpi\n      dup1\n      0x750d23a9\n      eq\n      tag_5\n      jumpi\n      dup1\n      0xa709c4fe\n      eq\n      tag_6\n      jumpi\n    tag_1:\n      0x00\n      dup1\n      revert\n        /* \"contracts/BlockLease.sol\":908:932  Property public property */\n    tag_2:\n      callvalue\n      dup1\n      iszero\n      tag_14\n      jumpi\n      0x00\n      dup1\n      revert\n    tag_14:\n      pop\n      tag_15\n      tag_16\n      jump\t// in\n    tag_15:\n      mload(0x40)\n      tag_17\n      swap3\n      swap2\n      swap1\n      tag_18\n      jump\t// in\n    tag_17:\n      mload(0x40)\n      dup1\n      swap2\n      sub\n      swap1\n      return\n        /* \"contracts/BlockLease.sol\":4349:5129  function unsignAgreement() public {... */\n    tag_3:\n      callvalue\n      dup1\n      iszero\n      tag_19\n      jumpi\n      0x00\n      dup1\n      revert\n    tag_19:\n      pop\n      tag_20\n      tag_21\n      jump\t// in\n    tag_20:\n      stop\n        /* \"contracts/BlockLease.sol\":8739:9213  function vacate() public {... */\n    tag_4:\n      callvalue\n      dup1\n      iszero\n      tag_22\n      jumpi\n      0x00\n      dup1\n      revert\n    tag_22:\n      pop\n      tag_23\n      tag_24\n      jump\t// in\n    tag_23:\n      stop\n        /* \"contracts/BlockLease.sol\":2516:3276  function setTerms(uint256 rentAmount, uint256 rentalDuration, uint startDate, uint256 latePenaltyPerDay, uint256 securityDeposit) public {... */\n    tag_5:\n      callvalue\n      dup1\n      iszero\n      tag_25\n      jumpi\n      0x00\n      dup1\n      revert\n    tag_25:\n      pop\n      tag_26\n      0x04\n      dup1\n      calldatasize\n      sub\n      dup2\n      add\n      swap1\n      tag_27\n      swap2\n      swap1\n      tag_28\n      jump\t// in\n    tag_27:\n      tag_29\n      jump\t// in\n    tag_26:\n      stop\n        /* \"contracts/BlockLease.sol\":6284:7838  function payRent() payable public {... */\n    tag_6:\n      tag_30\n      tag_31\n      jump\t// in\n    tag_30:\n      stop\n        /* \"contracts/BlockLease.sol\":882:902  Tenant public tenant */\n    tag_7:\n      callvalue\n      dup1\n      iszero\n      tag_32\n      jumpi\n      0x00\n      dup1\n      revert\n    tag_32:\n      pop\n      tag_33\n      tag_34\n      jump\t// in\n    tag_33:\n      mload(0x40)\n      tag_35\n      swap3\n      swap2\n      swap1\n      tag_36\n      jump\t// in\n    tag_35:\n      mload(0x40)\n      dup1\n      swap2\n      sub\n      swap1\n      return\n        /* \"contracts/BlockLease.sol\":7940:8557  function evict() public {... */\n    tag_8:\n      callvalue\n      dup1\n      iszero\n      tag_37\n      jumpi\n      0x00\n      dup1\n      revert\n    tag_37:\n      pop\n      tag_38\n      tag_39\n      jump\t// in\n    tag_38:\n      stop\n        /* \"contracts/BlockLease.sol\":3440:4221  function signAgreement() public {... */\n    tag_9:\n      callvalue\n      dup1\n      iszero\n      tag_40\n      jumpi\n      0x00\n      dup1\n      revert\n    tag_40:\n      pop\n      tag_41\n      tag_42\n      jump\t// in\n    tag_41:\n      stop\n        /* \"contracts/BlockLease.sol\":938:956  Lease public lease */\n    tag_10:\n      callvalue\n      dup1\n      iszero\n      tag_43\n      jumpi\n      0x00\n      dup1\n      revert\n    tag_43:\n      pop\n      tag_44\n      tag_45\n      jump\t// in\n    tag_44:\n      mload(0x40)\n      tag_46\n      swap7\n      swap6\n      swap5\n      swap4\n      swap3\n      swap2\n      swap1\n      tag_47\n      jump\t// in\n    tag_46:\n      mload(0x40)\n      dup1\n      swap2\n      sub\n      swap1\n      return\n        /* \"contracts/BlockLease.sol\":852:876  Landlord public landlord */\n    tag_11:\n      callvalue\n      dup1\n      iszero\n      tag_48\n      jumpi\n      0x00\n      dup1\n      revert\n    tag_48:\n      pop\n      tag_49\n      tag_50\n      jump\t// in\n    tag_49:\n      mload(0x40)\n      tag_51\n      swap3\n      swap2\n      swap1\n      tag_36\n      jump\t// in\n    tag_51:\n      mload(0x40)\n      dup1\n      swap2\n      sub\n      swap1\n      return\n        /* \"contracts/BlockLease.sol\":5241:5725  function depositSecurityDeposit() payable public {... */\n    tag_12:\n      tag_52\n      tag_53\n      jump\t// in\n    tag_52:\n      stop\n        /* \"contracts/BlockLease.sol\":908:932  Property public property */\n    tag_16:\n      0x02\n      dup1\n      0x00\n      add\n      dup1\n      sload\n      tag_54\n      swap1\n      tag_55\n      jump\t// in\n    tag_54:\n      dup1\n      0x1f\n      add\n      0x20\n      dup1\n      swap2\n      div\n      mul\n      0x20\n      add\n      mload(0x40)\n      swap1\n      dup2\n      add\n      0x40\n      mstore\n      dup1\n      swap3\n      swap2\n      swap1\n      dup2\n      dup2\n      mstore\n      0x20\n      add\n      dup3\n      dup1\n      sload\n      tag_56\n      swap1\n      tag_55\n      jump\t// in\n    tag_56:\n      dup1\n      iszero\n      tag_57\n      jumpi\n      dup1\n      0x1f\n      lt\n      tag_58\n      jumpi\n      0x0100\n      dup1\n      dup4\n      sload\n      div\n      mul\n      dup4\n      mstore\n      swap2\n      0x20\n      add\n      swap2\n      jump(tag_57)\n    tag_58:\n      dup3\n      add\n      swap2\n      swap1\n      0x00\n      mstore\n      keccak256(0x00, 0x20)\n      swap1\n    tag_59:\n      dup2\n      sload\n      dup2\n      mstore\n      swap1\n      0x01\n      add\n      swap1\n      0x20\n      add\n      dup1\n      dup4\n      gt\n      tag_59\n      jumpi\n      dup3\n      swap1\n      sub\n      0x1f\n      and\n      dup3\n      add\n      swap2\n    tag_57:\n      pop\n      pop\n      pop\n      pop\n      pop\n      swap1\n      dup1\n      0x01\n      add\n      dup1\n      sload\n      tag_60\n      swap1\n      tag_55\n      jump\t// in\n    tag_60:\n      dup1\n      0x1f\n      add\n      0x20\n      dup1\n      swap2\n      div\n      mul\n      0x20\n      add\n      mload(0x40)\n      swap1\n      dup2\n      add\n      0x40\n      mstore\n      dup1\n      swap3\n      swap2\n      swap1\n      dup2\n      dup2\n      mstore\n      0x20\n      add\n      dup3\n      dup1\n      sload\n      tag_61\n      swap1\n      tag_55\n      jump\t// in\n    tag_61:\n      dup1\n      iszero\n      tag_62\n      jumpi\n      dup1\n      0x1f\n      lt\n      tag_63\n      jumpi\n      0x0100\n      dup1\n      dup4\n      sload\n      div\n      mul\n      dup4\n      mstore\n      swap2\n      0x20\n      add\n      swap2\n      jump(tag_62)\n    tag_63:\n      dup3\n      add\n      swap2\n      swap1\n      0x00\n      mstore\n      keccak256(0x00, 0x20)\n      swap1\n    tag_64:\n      dup2\n      sload\n      dup2\n      mstore\n      swap1\n      0x01\n      add\n      swap1\n      0x20\n      add\n      dup1\n      dup4\n      gt\n      tag_64\n      jumpi\n      dup3\n      swap1\n      sub\n      0x1f\n      and\n      dup3\n      add\n      swap2\n    tag_62:\n      pop\n      pop\n      pop\n      pop\n      pop\n      swap1\n      pop\n      dup3\n      jump\t// out\n        /* \"contracts/BlockLease.sol\":4349:5129  function unsignAgreement() public {... */\n    tag_21:\n        /* \"contracts/BlockLease.sol\":4415:4423  landlord */\n      0x00\n        /* \"contracts/BlockLease.sol\":4415:4428  landlord.addr */\n      dup1\n      add\n      0x00\n      swap1\n      sload\n      swap1\n      0x0100\n      exp\n      swap1\n      div\n      0xffffffffffffffffffffffffffffffffffffffff\n      and\n        /* \"contracts/BlockLease.sol\":4401:4428  msg.sender == landlord.addr */\n      0xffffffffffffffffffffffffffffffffffffffff\n      and\n        /* \"contracts/BlockLease.sol\":4401:4411  msg.sender */\n      caller\n        /* \"contracts/BlockLease.sol\":4401:4428  msg.sender == landlord.addr */\n      0xffffffffffffffffffffffffffffffffffffffff\n      and\n      eq\n        /* \"contracts/BlockLease.sol\":4401:4457  msg.sender == landlord.addr || msg.sender == tenant.addr */\n      dup1\n      tag_66\n      jumpi\n      pop\n        /* \"contracts/BlockLease.sol\":4446:4452  tenant */\n      0x01\n        /* \"contracts/BlockLease.sol\":4446:4457  tenant.addr */\n      0x00\n      add\n      0x00\n      swap1\n      sload\n      swap1\n      0x0100\n      exp\n      swap1\n      div\n      0xffffffffffffffffffffffffffffffffffffffff\n      and\n        /* \"contracts/BlockLease.sol\":4432:4457  msg.sender == tenant.addr */\n      0xffffffffffffffffffffffffffffffffffffffff\n      and\n        /* \"contracts/BlockLease.sol\":4432:4442  msg.sender */\n      caller\n        /* \"contracts/BlockLease.sol\":4432:4457  msg.sender == tenant.addr */\n      0xffffffffffffffffffffffffffffffffffffffff\n      and\n      eq\n        /* \"contracts/BlockLease.sol\":4401:4457  msg.sender == landlord.addr || msg.sender == tenant.addr */\n    tag_66:\n        /* \"contracts/BlockLease.sol\":4393:4504  require(msg.sender == landlord.addr || msg.sender == tenant.addr, \"Only owner or tenent can unsign agreement.\") */\n      tag_67\n      jumpi\n      mload(0x40)\n      0x08c379a000000000000000000000000000000000000000000000000000000000\n      dup2\n      mstore\n      0x04\n      add\n      tag_68\n      swap1\n      tag_69\n      jump\t// in\n    tag_68:\n      mload(0x40)\n      dup1\n      swap2\n      sub\n      swap1\n      revert\n    tag_67:\n        /* \"contracts/BlockLease.sol\":4537:4556  LeaseState.INACTIVE */\n      0x00\n        /* \"contracts/BlockLease.sol\":4522:4556  lease.state == LeaseState.INACTIVE */\n      0x03\n      dup2\n      gt\n      iszero\n      tag_70\n      jumpi\n      tag_71\n      tag_72\n      jump\t// in\n    tag_71:\n    tag_70:\n        /* \"contracts/BlockLease.sol\":4522:4527  lease */\n      0x04\n        /* \"contracts/BlockLease.sol\":4522:4533  lease.state */\n      0x00\n      add\n      0x00\n      swap1\n      sload\n      swap1\n      0x0100\n      exp\n      swap1\n      div\n      0xff\n      and\n        /* \"contracts/BlockLease.sol\":4522:4556  lease.state == LeaseState.INACTIVE */\n      0x03\n      dup2\n      gt\n      iszero\n      tag_73\n      jumpi\n      tag_74\n      tag_72\n      jump\t// in\n    tag_74:\n    tag_73:\n      eq\n        /* \"contracts/BlockLease.sol\":4522:4601  lease.state == LeaseState.INACTIVE || lease.state == LeaseState.PENDING_DEPOSIT */\n      dup1\n      tag_75\n      jumpi\n      pop\n        /* \"contracts/BlockLease.sol\":4575:4601  LeaseState.PENDING_DEPOSIT */\n      0x01\n        /* \"contracts/BlockLease.sol\":4560:4601  lease.state == LeaseState.PENDING_DEPOSIT */\n      0x03\n      dup2\n      gt\n      iszero\n      tag_76\n      jumpi\n      tag_77\n      tag_72\n      jump\t// in\n    tag_77:\n    tag_76:\n        /* \"contracts/BlockLease.sol\":4560:4565  lease */\n      0x04\n        /* \"contracts/BlockLease.sol\":4560:4571  lease.state */\n      0x00\n      add\n      0x00\n      swap1\n      sload\n      swap1\n      0x0100\n      exp\n      swap1\n      div\n      0xff\n      and\n        /* \"contracts/BlockLease.sol\":4560:4601  lease.state == LeaseState.PENDING_DEPOSIT */\n      0x03\n      dup2\n      gt\n      iszero\n      tag_78\n      jumpi\n      tag_79\n      tag_72\n      jump\t// in\n    tag_79:\n    tag_78:\n      eq\n        /* \"contracts/BlockLease.sol\":4522:4601  lease.state == LeaseState.INACTIVE || lease.state == LeaseState.PENDING_DEPOSIT */\n    tag_75:\n        /* \"contracts/BlockLease.sol\":4514:4640  require(lease.state == LeaseState.INACTIVE || lease.state == LeaseState.PENDING_DEPOSIT, \"The lease should not have actived.\") */\n      tag_80\n      jumpi\n      mload(0x40)\n      0x08c379a000000000000000000000000000000000000000000000000000000000\n      dup2\n      mstore\n      0x04\n      add\n      tag_81\n      swap1\n      tag_82\n      jump\t// in\n    tag_81:\n      mload(0x40)\n      dup1\n      swap2\n      sub\n      swap1\n      revert\n    tag_80:\n        /* \"contracts/BlockLease.sol\":4667:4675  landlord */\n      0x00\n        /* \"contracts/BlockLease.sol\":4667:4680  landlord.addr */\n      dup1\n      add\n      0x00\n      swap1\n      sload\n      swap1\n      0x0100\n      exp\n      swap1\n      div\n      0xffffffffffffffffffffffffffffffffffffffff\n      and\n        /* \"contracts/BlockLease.sol\":4653:4680  msg.sender == landlord.addr */\n      0xffffffffffffffffffffffffffffffffffffffff\n      and\n        /* \"contracts/BlockLease.sol\":4653:4663  msg.sender */\n      caller\n        /* \"contracts/BlockLease.sol\":4653:4680  msg.sender == landlord.addr */\n      0xffffffffffffffffffffffffffffffffffffffff\n      and\n      sub\n        /* \"contracts/BlockLease.sol\":4650:4823  if(msg.sender == landlord.addr) {... */\n      tag_83\n      jumpi\n        /* \"contracts/BlockLease.sol\":4724:4728  true */\n      0x01\n        /* \"contracts/BlockLease.sol\":4705:4728  landlord.agrees == true */\n      iszero\n      iszero\n        /* \"contracts/BlockLease.sol\":4705:4713  landlord */\n      0x00\n        /* \"contracts/BlockLease.sol\":4705:4720  landlord.agrees */\n      dup1\n      add\n      0x14\n      swap1\n      sload\n      swap1\n      0x0100\n      exp\n      swap1\n      div\n      0xff\n      and\n        /* \"contracts/BlockLease.sol\":4705:4728  landlord.agrees == true */\n      iszero\n      iszero\n      eq\n        /* \"contracts/BlockLease.sol\":4696:4775  require (landlord.agrees == true, \"Landlord has not signed the agreement yet.\") */\n      tag_84\n      jumpi\n      mload(0x40)\n      0x08c379a000000000000000000000000000000000000000000000000000000000\n      dup2\n      mstore\n      0x04\n      add\n      tag_85\n      swap1\n      tag_86\n      jump\t// in\n    tag_85:\n      mload(0x40)\n      dup1\n      swap2\n      sub\n      swap1\n      revert\n    tag_84:\n        /* \"contracts/BlockLease.sol\":4807:4812  false */\n      0x00\n        /* \"contracts/BlockLease.sol\":4789:4797  landlord */\n      dup1\n        /* \"contracts/BlockLease.sol\":4789:4804  landlord.agrees */\n      0x00\n      add\n      0x14\n        /* \"contracts/BlockLease.sol\":4789:4812  landlord.agrees = false */\n      0x0100\n      exp\n      dup2\n      sload\n      dup2\n      0xff\n      mul\n      not\n      and\n      swap1\n      dup4\n      iszero\n      iszero\n      mul\n      or\n      swap1\n      sstore\n      pop\n        /* \"contracts/BlockLease.sol\":4650:4823  if(msg.sender == landlord.addr) {... */\n    tag_83:\n        /* \"contracts/BlockLease.sol\":4850:4856  tenant */\n      0x01\n        /* \"contracts/BlockLease.sol\":4850:4861  tenant.addr */\n      0x00\n      add\n      0x00\n      swap1\n      sload\n      swap1\n      0x0100\n      exp\n      swap1\n      div\n      0xffffffffffffffffffffffffffffffffffffffff\n      and\n        /* \"contracts/BlockLease.sol\":4836:4861  msg.sender == tenant.addr */\n      0xffffffffffffffffffffffffffffffffffffffff\n      and\n        /* \"contracts/BlockLease.sol\":4836:4846  msg.sender */\n      caller\n        /* \"contracts/BlockLease.sol\":4836:4861  msg.sender == tenant.addr */\n      0xffffffffffffffffffffffffffffffffffffffff\n      and\n      sub\n        /* \"contracts/BlockLease.sol\":4832:4998  if (msg.sender == tenant.addr) {... */\n      tag_87\n      jumpi\n        /* \"contracts/BlockLease.sol\":4903:4907  true */\n      0x01\n        /* \"contracts/BlockLease.sol\":4886:4907  tenant.agrees == true */\n      iszero\n      iszero\n        /* \"contracts/BlockLease.sol\":4886:4892  tenant */\n      0x01\n        /* \"contracts/BlockLease.sol\":4886:4899  tenant.agrees */\n      0x00\n      add\n      0x14\n      swap1\n      sload\n      swap1\n      0x0100\n      exp\n      swap1\n      div\n      0xff\n      and\n        /* \"contracts/BlockLease.sol\":4886:4907  tenant.agrees == true */\n      iszero\n      iszero\n      eq\n        /* \"contracts/BlockLease.sol\":4877:4952  require (tenant.agrees == true, \"Tenant has not signed the agreement yet.\") */\n      tag_88\n      jumpi\n      mload(0x40)\n      0x08c379a000000000000000000000000000000000000000000000000000000000\n      dup2\n      mstore\n      0x04\n      add\n      tag_89\n      swap1\n      tag_90\n      jump\t// in\n    tag_89:\n      mload(0x40)\n      dup1\n      swap2\n      sub\n      swap1\n      revert\n    tag_88:\n        /* \"contracts/BlockLease.sol\":4982:4987  false */\n      0x00\n        /* \"contracts/BlockLease.sol\":4966:4972  tenant */\n      0x01\n        /* \"contracts/BlockLease.sol\":4966:4979  tenant.agrees */\n      0x00\n      add\n      0x14\n        /* \"contracts/BlockLease.sol\":4966:4987  tenant.agrees = false */\n      0x0100\n      exp\n      dup2\n      sload\n      dup2\n      0xff\n      mul\n      not\n      and\n      swap1\n      dup4\n      iszero\n      iszero\n      mul\n      or\n      swap1\n      sstore\n      pop\n        /* \"contracts/BlockLease.sol\":4832:4998  if (msg.sender == tenant.addr) {... */\n    tag_87:\n        /* \"contracts/BlockLease.sol\":5103:5122  LeaseState.INACTIVE */\n      0x00\n        /* \"contracts/BlockLease.sol\":5088:5122  lease.state == LeaseState.INACTIVE */\n      0x03\n      dup2\n      gt\n      iszero\n      tag_91\n      jumpi\n      tag_92\n      tag_72\n      jump\t// in\n    tag_92:\n    tag_91:\n        /* \"contracts/BlockLease.sol\":5088:5093  lease */\n      0x04\n        /* \"contracts/BlockLease.sol\":5088:5099  lease.state */\n      0x00\n      add\n      0x00\n      swap1\n      sload\n      swap1\n      0x0100\n      exp\n      swap1\n      div\n      0xff\n      and\n        /* \"contracts/BlockLease.sol\":5088:5122  lease.state == LeaseState.INACTIVE */\n      0x03\n      dup2\n      gt\n      iszero\n      tag_93\n      jumpi\n      tag_94\n      tag_72\n      jump\t// in\n    tag_94:\n    tag_93:\n      pop\n      pop\n        /* \"contracts/BlockLease.sol\":4349:5129  function unsignAgreement() public {... */\n      jump\t// out\n        /* \"contracts/BlockLease.sol\":8739:9213  function vacate() public {... */\n    tag_24:\n        /* \"contracts/BlockLease.sol\":8796:8802  tenant */\n      0x01\n        /* \"contracts/BlockLease.sol\":8796:8807  tenant.addr */\n      0x00\n      add\n      0x00\n      swap1\n      sload\n      swap1\n      0x0100\n      exp\n      swap1\n      div\n      0xffffffffffffffffffffffffffffffffffffffff\n      and\n        /* \"contracts/BlockLease.sol\":8782:8807  msg.sender == tenant.addr */\n      0xffffffffffffffffffffffffffffffffffffffff\n      and\n        /* \"contracts/BlockLease.sol\":8782:8792  msg.sender */\n      caller\n        /* \"contracts/BlockLease.sol\":8782:8807  msg.sender == tenant.addr */\n      0xffffffffffffffffffffffffffffffffffffffff\n      and\n      eq\n        /* \"contracts/BlockLease.sol\":8774:8849  require(msg.sender == tenant.addr, \"Only the tenent can choose to vacate.\") */\n      tag_96\n      jumpi\n      mload(0x40)\n      0x08c379a000000000000000000000000000000000000000000000000000000000\n      dup2\n      mstore\n      0x04\n      add\n      tag_97\n      swap1\n      tag_98\n      jump\t// in\n    tag_97:\n      mload(0x40)\n      dup1\n      swap2\n      sub\n      swap1\n      revert\n    tag_96:\n        /* \"contracts/BlockLease.sol\":8882:8899  LeaseState.ACTIVE */\n      0x02\n        /* \"contracts/BlockLease.sol\":8867:8899  lease.state == LeaseState.ACTIVE */\n      0x03\n      dup2\n      gt\n      iszero\n      tag_99\n      jumpi\n      tag_100\n      tag_72\n      jump\t// in\n    tag_100:\n    tag_99:\n        /* \"contracts/BlockLease.sol\":8867:8872  lease */\n      0x04\n        /* \"contracts/BlockLease.sol\":8867:8878  lease.state */\n      0x00\n      add\n      0x00\n      swap1\n      sload\n      swap1\n      0x0100\n      exp\n      swap1\n      div\n      0xff\n      and\n        /* \"contracts/BlockLease.sol\":8867:8899  lease.state == LeaseState.ACTIVE */\n      0x03\n      dup2\n      gt\n      iszero\n      tag_101\n      jumpi\n      tag_102\n      tag_72\n      jump\t// in\n    tag_102:\n    tag_101:\n      eq\n        /* \"contracts/BlockLease.sol\":8859:8955  require(lease.state == LeaseState.ACTIVE, \"The lease should be active to start vacate process.\") */\n      tag_103\n      jumpi\n      mload(0x40)\n      0x08c379a000000000000000000000000000000000000000000000000000000000\n      dup2\n      mstore\n      0x04\n      add\n      tag_104\n      swap1\n      tag_105\n      jump\t// in\n    tag_104:\n      mload(0x40)\n      dup1\n      swap2\n      sub\n      swap1\n      revert\n    tag_103:\n        /* \"contracts/BlockLease.sol\":8991:8996  lease */\n      0x04\n        /* \"contracts/BlockLease.sol\":8991:9011  lease.rentalDuration */\n      0x02\n      add\n      sload\n        /* \"contracts/BlockLease.sol\":8973:8987  monthsRentPaid */\n      0x0a\n      0x00\n      swap1\n      sload\n      swap1\n      0x0100\n      exp\n      swap1\n      div\n      0xff\n      and\n        /* \"contracts/BlockLease.sol\":8973:9011  monthsRentPaid == lease.rentalDuration */\n      0xff\n      and\n      eq\n        /* \"contracts/BlockLease.sol\":8965:9053  require(monthsRentPaid == lease.rentalDuration, \"The lease term has not yet completed.\") */\n      tag_106\n      jumpi\n      mload(0x40)\n      0x08c379a000000000000000000000000000000000000000000000000000000000\n      dup2\n      mstore\n      0x04\n      add\n      tag_107\n      swap1\n      tag_108\n      jump\t// in\n    tag_107:\n      mload(0x40)\n      dup1\n      swap2\n      sub\n      swap1\n      revert\n    tag_106:\n        /* \"contracts/BlockLease.sol\":9120:9126  tenant */\n      0x01\n        /* \"contracts/BlockLease.sol\":9120:9131  tenant.addr */\n      0x00\n      add\n      0x00\n      swap1\n      sload\n      swap1\n      0x0100\n      exp\n      swap1\n      div\n      0xffffffffffffffffffffffffffffffffffffffff\n      and\n        /* \"contracts/BlockLease.sol\":9120:9140  tenant.addr.transfer */\n      0xffffffffffffffffffffffffffffffffffffffff\n      and\n        /* \"contracts/BlockLease.sol\":9120:9163  tenant.addr.transfer(lease.securityDeposit) */\n      0x08fc\n        /* \"contracts/BlockLease.sol\":9141:9146  lease */\n      0x04\n        /* \"contracts/BlockLease.sol\":9141:9162  lease.securityDeposit */\n      0x05\n      add\n      sload\n        /* \"contracts/BlockLease.sol\":9120:9163  tenant.addr.transfer(lease.securityDeposit) */\n      swap1\n      dup2\n      iszero\n      mul\n      swap1\n      mload(0x40)\n      0x00\n      mload(0x40)\n      dup1\n      dup4\n      sub\n      dup2\n      dup6\n      dup9\n      dup9\n      call\n      swap4\n      pop\n      pop\n      pop\n      pop\n      iszero\n      dup1\n      iszero\n      tag_110\n      jumpi\n      returndatasize\n      0x00\n      dup1\n      returndatacopy\n      revert(0x00, returndatasize)\n    tag_110:\n      pop\n        /* \"contracts/BlockLease.sol\":9187:9206  LeaseState.FINISHED */\n      0x03\n        /* \"contracts/BlockLease.sol\":9173:9178  lease */\n      0x04\n        /* \"contracts/BlockLease.sol\":9173:9184  lease.state */\n      0x00\n      add\n      0x00\n        /* \"contracts/BlockLease.sol\":9173:9206  lease.state = LeaseState.FINISHED */\n      0x0100\n      exp\n      dup2\n      sload\n      dup2\n      0xff\n      mul\n      not\n      and\n      swap1\n      dup4\n      0x03\n      dup2\n      gt\n      iszero\n      tag_111\n      jumpi\n      tag_112\n      tag_72\n      jump\t// in\n    tag_112:\n    tag_111:\n      mul\n      or\n      swap1\n      sstore\n      pop\n        /* \"contracts/BlockLease.sol\":8739:9213  function vacate() public {... */\n      jump\t// out\n        /* \"contracts/BlockLease.sol\":2516:3276  function setTerms(uint256 rentAmount, uint256 rentalDuration, uint startDate, uint256 latePenaltyPerDay, uint256 securityDeposit) public {... */\n    tag_29:\n        /* \"contracts/BlockLease.sol\":2685:2693  landlord */\n      0x00\n        /* \"contracts/BlockLease.sol\":2685:2698  landlord.addr */\n      dup1\n      add\n      0x00\n      swap1\n      sload\n      swap1\n      0x0100\n      exp\n      swap1\n      div\n      0xffffffffffffffffffffffffffffffffffffffff\n      and\n        /* \"contracts/BlockLease.sol\":2671:2698  msg.sender == landlord.addr */\n      0xffffffffffffffffffffffffffffffffffffffff\n      and\n        /* \"contracts/BlockLease.sol\":2671:2681  msg.sender */\n      caller\n        /* \"contracts/BlockLease.sol\":2671:2698  msg.sender == landlord.addr */\n      0xffffffffffffffffffffffffffffffffffffffff\n      and\n      eq\n        /* \"contracts/BlockLease.sol\":2671:2727  msg.sender == landlord.addr || msg.sender == tenant.addr */\n      dup1\n      tag_114\n      jumpi\n      pop\n        /* \"contracts/BlockLease.sol\":2716:2722  tenant */\n      0x01\n        /* \"contracts/BlockLease.sol\":2716:2727  tenant.addr */\n      0x00\n      add\n      0x00\n      swap1\n      sload\n      swap1\n      0x0100\n      exp\n      swap1\n      div\n      0xffffffffffffffffffffffffffffffffffffffff\n      and\n        /* \"contracts/BlockLease.sol\":2702:2727  msg.sender == tenant.addr */\n      0xffffffffffffffffffffffffffffffffffffffff\n      and\n        /* \"contracts/BlockLease.sol\":2702:2712  msg.sender */\n      caller\n        /* \"contracts/BlockLease.sol\":2702:2727  msg.sender == tenant.addr */\n      0xffffffffffffffffffffffffffffffffffffffff\n      and\n      eq\n        /* \"contracts/BlockLease.sol\":2671:2727  msg.sender == landlord.addr || msg.sender == tenant.addr */\n    tag_114:\n        /* \"contracts/BlockLease.sol\":2663:2767  require(msg.sender == landlord.addr || msg.sender == tenant.addr, \"Only owner or tenent can set terms.\") */\n      tag_115\n      jumpi\n      mload(0x40)\n      0x08c379a000000000000000000000000000000000000000000000000000000000\n      dup2\n      mstore\n      0x04\n      add\n      tag_116\n      swap1\n      tag_117\n      jump\t// in\n    tag_116:\n      mload(0x40)\n      dup1\n      swap2\n      sub\n      swap1\n      revert\n    tag_115:\n        /* \"contracts/BlockLease.sol\":2800:2819  LeaseState.INACTIVE */\n      0x00\n        /* \"contracts/BlockLease.sol\":2785:2819  lease.state == LeaseState.INACTIVE */\n      0x03\n      dup2\n      gt\n      iszero\n      tag_118\n      jumpi\n      tag_119\n      tag_72\n      jump\t// in\n    tag_119:\n    tag_118:\n        /* \"contracts/BlockLease.sol\":2785:2790  lease */\n      0x04\n        /* \"contracts/BlockLease.sol\":2785:2796  lease.state */\n      0x00\n      add\n      0x00\n      swap1\n      sload\n      swap1\n      0x0100\n      exp\n      swap1\n      div\n      0xff\n      and\n        /* \"contracts/BlockLease.sol\":2785:2819  lease.state == LeaseState.INACTIVE */\n      0x03\n      dup2\n      gt\n      iszero\n      tag_120\n      jumpi\n      tag_121\n      tag_72\n      jump\t// in\n    tag_121:\n    tag_120:\n      eq\n        /* \"contracts/BlockLease.sol\":2777:2875  require(lease.state == LeaseState.INACTIVE, \"The lease has to be in inactive state to set terms.\") */\n      tag_122\n      jumpi\n      mload(0x40)\n      0x08c379a000000000000000000000000000000000000000000000000000000000\n      dup2\n      mstore\n      0x04\n      add\n      tag_123\n      swap1\n      tag_124\n      jump\t// in\n    tag_123:\n      mload(0x40)\n      dup1\n      swap2\n      sub\n      swap1\n      revert\n    tag_122:\n        /* \"contracts/BlockLease.sol\":2943:2953  rentAmount */\n      dup5\n        /* \"contracts/BlockLease.sol\":2924:2929  lease */\n      0x04\n        /* \"contracts/BlockLease.sol\":2924:2940  lease.rentAmount */\n      0x01\n      add\n        /* \"contracts/BlockLease.sol\":2924:2953  lease.rentAmount = rentAmount */\n      dup2\n      swap1\n      sstore\n      pop\n        /* \"contracts/BlockLease.sol\":2986:3000  rentalDuration */\n      dup4\n        /* \"contracts/BlockLease.sol\":2963:2968  lease */\n      0x04\n        /* \"contracts/BlockLease.sol\":2963:2983  lease.rentalDuration */\n      0x02\n      add\n        /* \"contracts/BlockLease.sol\":2963:3000  lease.rentalDuration = rentalDuration */\n      dup2\n      swap1\n      sstore\n      pop\n        /* \"contracts/BlockLease.sol\":3028:3037  startDate */\n      dup3\n        /* \"contracts/BlockLease.sol\":3010:3015  lease */\n      0x04\n        /* \"contracts/BlockLease.sol\":3010:3025  lease.startDate */\n      0x03\n      add\n        /* \"contracts/BlockLease.sol\":3010:3037  lease.startDate = startDate */\n      dup2\n      swap1\n      sstore\n      pop\n        /* \"contracts/BlockLease.sol\":3073:3090  latePenaltyPerDay */\n      dup2\n        /* \"contracts/BlockLease.sol\":3047:3052  lease */\n      0x04\n        /* \"contracts/BlockLease.sol\":3047:3070  lease.latePenaltyPerDay */\n      dup1\n      add\n        /* \"contracts/BlockLease.sol\":3047:3090  lease.latePenaltyPerDay = latePenaltyPerDay */\n      dup2\n      swap1\n      sstore\n      pop\n        /* \"contracts/BlockLease.sol\":3124:3139  securityDeposit */\n      dup1\n        /* \"contracts/BlockLease.sol\":3100:3105  lease */\n      0x04\n        /* \"contracts/BlockLease.sol\":3100:3121  lease.securityDeposit */\n      0x05\n      add\n        /* \"contracts/BlockLease.sol\":3100:3139  lease.securityDeposit = securityDeposit */\n      dup2\n      swap1\n      sstore\n      pop\n        /* \"contracts/BlockLease.sol\":3233:3238  false */\n      0x00\n        /* \"contracts/BlockLease.sol\":3215:3223  landlord */\n      dup1\n        /* \"contracts/BlockLease.sol\":3215:3230  landlord.agrees */\n      0x00\n      add\n      0x14\n        /* \"contracts/BlockLease.sol\":3215:3238  landlord.agrees = false */\n      0x0100\n      exp\n      dup2\n      sload\n      dup2\n      0xff\n      mul\n      not\n      and\n      swap1\n      dup4\n      iszero\n      iszero\n      mul\n      or\n      swap1\n      sstore\n      pop\n        /* \"contracts/BlockLease.sol\":3264:3269  false */\n      0x00\n        /* \"contracts/BlockLease.sol\":3248:3254  tenant */\n      0x01\n        /* \"contracts/BlockLease.sol\":3248:3261  tenant.agrees */\n      0x00\n      add\n      0x14\n        /* \"contracts/BlockLease.sol\":3248:3269  tenant.agrees = false */\n      0x0100\n      exp\n      dup2\n      sload\n      dup2\n      0xff\n      mul\n      not\n      and\n      swap1\n      dup4\n      iszero\n      iszero\n      mul\n      or\n      swap1\n      sstore\n      pop\n        /* \"contracts/BlockLease.sol\":2516:3276  function setTerms(uint256 rentAmount, uint256 rentalDuration, uint startDate, uint256 latePenaltyPerDay, uint256 securityDeposit) public {... */\n      pop\n      pop\n      pop\n      pop\n      pop\n      jump\t// out\n        /* \"contracts/BlockLease.sol\":6284:7838  function payRent() payable public {... */\n    tag_31:\n        /* \"contracts/BlockLease.sol\":6350:6356  tenant */\n      0x01\n        /* \"contracts/BlockLease.sol\":6350:6361  tenant.addr */\n      0x00\n      add\n      0x00\n      swap1\n      sload\n      swap1\n      0x0100\n      exp\n      swap1\n      div\n      0xffffffffffffffffffffffffffffffffffffffff\n      and\n        /* \"contracts/BlockLease.sol\":6336:6361  msg.sender == tenant.addr */\n      0xffffffffffffffffffffffffffffffffffffffff\n      and\n        /* \"contracts/BlockLease.sol\":6336:6346  msg.sender */\n      caller\n        /* \"contracts/BlockLease.sol\":6336:6361  msg.sender == tenant.addr */\n      0xffffffffffffffffffffffffffffffffffffffff\n      and\n      eq\n        /* \"contracts/BlockLease.sol\":6328:6392  require(msg.sender == tenant.addr, \"Only tenent can send rent.\") */\n      tag_126\n      jumpi\n      mload(0x40)\n      0x08c379a000000000000000000000000000000000000000000000000000000000\n      dup2\n      mstore\n      0x04\n      add\n      tag_127\n      swap1\n      tag_128\n      jump\t// in\n    tag_127:\n      mload(0x40)\n      dup1\n      swap2\n      sub\n      swap1\n      revert\n    tag_126:\n        /* \"contracts/BlockLease.sol\":6425:6442  LeaseState.ACTIVE */\n      0x02\n        /* \"contracts/BlockLease.sol\":6410:6442  lease.state == LeaseState.ACTIVE */\n      0x03\n      dup2\n      gt\n      iszero\n      tag_129\n      jumpi\n      tag_130\n      tag_72\n      jump\t// in\n    tag_130:\n    tag_129:\n        /* \"contracts/BlockLease.sol\":6410:6415  lease */\n      0x04\n        /* \"contracts/BlockLease.sol\":6410:6421  lease.state */\n      0x00\n      add\n      0x00\n      swap1\n      sload\n      swap1\n      0x0100\n      exp\n      swap1\n      div\n      0xff\n      and\n        /* \"contracts/BlockLease.sol\":6410:6442  lease.state == LeaseState.ACTIVE */\n      0x03\n      dup2\n      gt\n      iszero\n      tag_131\n      jumpi\n      tag_132\n      tag_72\n      jump\t// in\n    tag_132:\n    tag_131:\n      eq\n        /* \"contracts/BlockLease.sol\":6402:6487  require(lease.state == LeaseState.ACTIVE, \"The lease should be active to send rent.\") */\n      tag_133\n      jumpi\n      mload(0x40)\n      0x08c379a000000000000000000000000000000000000000000000000000000000\n      dup2\n      mstore\n      0x04\n      add\n      tag_134\n      swap1\n      tag_135\n      jump\t// in\n    tag_134:\n      mload(0x40)\n      dup1\n      swap2\n      sub\n      swap1\n      revert\n    tag_133:\n        /* \"contracts/BlockLease.sol\":6523:6528  lease */\n      0x04\n        /* \"contracts/BlockLease.sol\":6523:6543  lease.rentalDuration */\n      0x02\n      add\n      sload\n        /* \"contracts/BlockLease.sol\":6506:6520  monthsRentPaid */\n      0x0a\n      0x00\n      swap1\n      sload\n      swap1\n      0x0100\n      exp\n      swap1\n      div\n      0xff\n      and\n        /* \"contracts/BlockLease.sol\":6506:6543  monthsRentPaid < lease.rentalDuration */\n      0xff\n      and\n      lt\n        /* \"contracts/BlockLease.sol\":6497:6596  require (monthsRentPaid < lease.rentalDuration, \"The lease term is up - time to vacate the place.\") */\n      tag_136\n      jumpi\n      mload(0x40)\n      0x08c379a000000000000000000000000000000000000000000000000000000000\n      dup2\n      mstore\n      0x04\n      add\n      tag_137\n      swap1\n      tag_138\n      jump\t// in\n    tag_137:\n      mload(0x40)\n      dup1\n      swap2\n      sub\n      swap1\n      revert\n    tag_136:\n        /* \"contracts/BlockLease.sol\":6607:6629  uint timeSinceLastRent */\n      0x00\n        /* \"contracts/BlockLease.sol\":6632:6655  findTimeSinceLastRent() */\n      tag_139\n        /* \"contracts/BlockLease.sol\":6632:6653  findTimeSinceLastRent */\n      tag_140\n        /* \"contracts/BlockLease.sol\":6632:6655  findTimeSinceLastRent() */\n      jump\t// in\n    tag_139:\n        /* \"contracts/BlockLease.sol\":6607:6655  uint timeSinceLastRent = findTimeSinceLastRent() */\n      swap1\n      pop\n        /* \"contracts/BlockLease.sol\":6666:6684  uint256 netRentDue */\n      0x00\n        /* \"contracts/BlockLease.sol\":6687:6692  lease */\n      0x04\n        /* \"contracts/BlockLease.sol\":6687:6703  lease.rentAmount */\n      0x01\n      add\n      sload\n        /* \"contracts/BlockLease.sol\":6666:6703  uint256 netRentDue = lease.rentAmount */\n      swap1\n      pop\n        /* \"contracts/BlockLease.sol\":6785:6791  5 days */\n      0x069780\n        /* \"contracts/BlockLease.sol\":6764:6781  timeSinceLastRent */\n      dup3\n        /* \"contracts/BlockLease.sol\":6764:6791  timeSinceLastRent <= 5 days */\n      gt\n        /* \"contracts/BlockLease.sol\":6760:7479  if (timeSinceLastRent <= 5 days) {... */\n      iszero\n      tag_142\n      jumpi\n        /* \"contracts/BlockLease.sol\":6917:6923  5 days */\n      0x069780\n        /* \"contracts/BlockLease.sol\":6896:6913  timeSinceLastRent */\n      dup3\n        /* \"contracts/BlockLease.sol\":6896:6923  timeSinceLastRent <= 5 days */\n      gt\n      iszero\n        /* \"contracts/BlockLease.sol\":6896:6955  timeSinceLastRent <= 5 days && timeSinceLastRent <= 30 days */\n      dup1\n      iszero\n      tag_143\n      jumpi\n      pop\n        /* \"contracts/BlockLease.sol\":6948:6955  30 days */\n      0x278d00\n        /* \"contracts/BlockLease.sol\":6927:6944  timeSinceLastRent */\n      dup3\n        /* \"contracts/BlockLease.sol\":6927:6955  timeSinceLastRent <= 30 days */\n      gt\n      iszero\n        /* \"contracts/BlockLease.sol\":6896:6955  timeSinceLastRent <= 5 days && timeSinceLastRent <= 30 days */\n    tag_143:\n        /* \"contracts/BlockLease.sol\":6892:7479  if (timeSinceLastRent <= 5 days && timeSinceLastRent <= 30 days) {... */\n      iszero\n      tag_144\n      jumpi\n        /* \"contracts/BlockLease.sol\":7003:7016  uint daysLate */\n      0x00\n        /* \"contracts/BlockLease.sol\":7050:7056  1 days */\n      0x015180\n        /* \"contracts/BlockLease.sol\":7024:7041  timeSinceLastRent */\n      dup4\n        /* \"contracts/BlockLease.sol\":7019:7057  uint(timeSinceLastRent) / uint(1 days) */\n      tag_145\n      swap2\n      swap1\n      tag_146\n      jump\t// in\n    tag_145:\n        /* \"contracts/BlockLease.sol\":7003:7057  uint daysLate = uint(timeSinceLastRent) / uint(1 days) */\n      swap1\n      pop\n        /* \"contracts/BlockLease.sol\":7112:7120  daysLate */\n      dup1\n        /* \"contracts/BlockLease.sol\":7086:7091  lease */\n      0x04\n        /* \"contracts/BlockLease.sol\":7086:7109  lease.latePenaltyPerDay */\n      dup1\n      add\n      sload\n        /* \"contracts/BlockLease.sol\":7086:7120  lease.latePenaltyPerDay * daysLate */\n      tag_147\n      swap2\n      swap1\n      tag_148\n      jump\t// in\n    tag_147:\n        /* \"contracts/BlockLease.sol\":7071:7121  netRentDue += (lease.latePenaltyPerDay * daysLate) */\n      dup3\n      tag_149\n      swap2\n      swap1\n      tag_150\n      jump\t// in\n    tag_149:\n      swap2\n      pop\n        /* \"contracts/BlockLease.sol\":6957:7132  {... */\n      pop\n        /* \"contracts/BlockLease.sol\":6892:7479  if (timeSinceLastRent <= 5 days && timeSinceLastRent <= 30 days) {... */\n      jump(tag_151)\n    tag_144:\n        /* \"contracts/BlockLease.sol\":7162:7169  30 days */\n      0x278d00\n        /* \"contracts/BlockLease.sol\":7142:7159  timeSinceLastRent */\n      dup3\n        /* \"contracts/BlockLease.sol\":7142:7169  timeSinceLastRent > 30 days */\n      gt\n        /* \"contracts/BlockLease.sol\":7138:7479  if (timeSinceLastRent > 30 days) {... */\n      iszero\n      tag_152\n      jumpi\n        /* \"contracts/BlockLease.sol\":7309:7328  LeaseState.FINISHED */\n      0x03\n        /* \"contracts/BlockLease.sol\":7295:7300  lease */\n      0x04\n        /* \"contracts/BlockLease.sol\":7295:7306  lease.state */\n      0x00\n      add\n      0x00\n        /* \"contracts/BlockLease.sol\":7295:7328  lease.state = LeaseState.FINISHED */\n      0x0100\n      exp\n      dup2\n      sload\n      dup2\n      0xff\n      mul\n      not\n      and\n      swap1\n      dup4\n      0x03\n      dup2\n      gt\n      iszero\n      tag_153\n      jumpi\n      tag_154\n      tag_72\n      jump\t// in\n    tag_154:\n    tag_153:\n      mul\n      or\n      swap1\n      sstore\n      pop\n        /* \"contracts/BlockLease.sol\":7430:7437  30 days */\n      0x278d00\n        /* \"contracts/BlockLease.sol\":7409:7426  timeSinceLastRent */\n      dup3\n        /* \"contracts/BlockLease.sol\":7409:7437  timeSinceLastRent <= 30 days */\n      gt\n      iszero\n        /* \"contracts/BlockLease.sol\":7400:7468  require (timeSinceLastRent <= 30 days, \"Lease has been terminated.\") */\n      tag_155\n      jumpi\n      mload(0x40)\n      0x08c379a000000000000000000000000000000000000000000000000000000000\n      dup2\n      mstore\n      0x04\n      add\n      tag_156\n      swap1\n      tag_157\n      jump\t// in\n    tag_156:\n      mload(0x40)\n      dup1\n      swap2\n      sub\n      swap1\n      revert\n    tag_155:\n        /* \"contracts/BlockLease.sol\":7138:7479  if (timeSinceLastRent > 30 days) {... */\n    tag_152:\n        /* \"contracts/BlockLease.sol\":6892:7479  if (timeSinceLastRent <= 5 days && timeSinceLastRent <= 30 days) {... */\n    tag_151:\n        /* \"contracts/BlockLease.sol\":6760:7479  if (timeSinceLastRent <= 5 days) {... */\n    tag_142:\n        /* \"contracts/BlockLease.sol\":7510:7515  lease */\n      0x04\n        /* \"contracts/BlockLease.sol\":7510:7526  lease.rentAmount */\n      0x01\n      add\n      sload\n        /* \"contracts/BlockLease.sol\":7497:7506  msg.value */\n      callvalue\n        /* \"contracts/BlockLease.sol\":7497:7526  msg.value == lease.rentAmount */\n      eq\n        /* \"contracts/BlockLease.sol\":7489:7603  require(msg.value == lease.rentAmount, \"The value being sent should equal the rent amount (including late fees).\") */\n      tag_158\n      jumpi\n      mload(0x40)\n      0x08c379a000000000000000000000000000000000000000000000000000000000\n      dup2\n      mstore\n      0x04\n      add\n      tag_159\n      swap1\n      tag_160\n      jump\t// in\n    tag_159:\n      mload(0x40)\n      dup1\n      swap2\n      sub\n      swap1\n      revert\n    tag_158:\n        /* \"contracts/BlockLease.sol\":7735:7736  1 */\n      0x01\n        /* \"contracts/BlockLease.sol\":7717:7731  monthsRentPaid */\n      0x0a\n      0x00\n        /* \"contracts/BlockLease.sol\":7717:7736  monthsRentPaid += 1 */\n      dup3\n      dup3\n      dup3\n      swap1\n      sload\n      swap1\n      0x0100\n      exp\n      swap1\n      div\n      0xff\n      and\n      tag_161\n      swap2\n      swap1\n      tag_162\n      jump\t// in\n    tag_161:\n      swap3\n      pop\n      0x0100\n      exp\n      dup2\n      sload\n      dup2\n      0xff\n      mul\n      not\n      and\n      swap1\n      dup4\n      0xff\n      and\n      mul\n      or\n      swap1\n      sstore\n      pop\n        /* \"contracts/BlockLease.sol\":7791:7799  landlord */\n      0x00\n        /* \"contracts/BlockLease.sol\":7791:7804  landlord.addr */\n      dup1\n      add\n      0x00\n      swap1\n      sload\n      swap1\n      0x0100\n      exp\n      swap1\n      div\n      0xffffffffffffffffffffffffffffffffffffffff\n      and\n        /* \"contracts/BlockLease.sol\":7791:7813  landlord.addr.transfer */\n      0xffffffffffffffffffffffffffffffffffffffff\n      and\n        /* \"contracts/BlockLease.sol\":7791:7831  landlord.addr.transfer(lease.rentAmount) */\n      0x08fc\n        /* \"contracts/BlockLease.sol\":7814:7819  lease */\n      0x04\n        /* \"contracts/BlockLease.sol\":7814:7830  lease.rentAmount */\n      0x01\n      add\n      sload\n        /* \"contracts/BlockLease.sol\":7791:7831  landlord.addr.transfer(lease.rentAmount) */\n      swap1\n      dup2\n      iszero\n      mul\n      swap1\n      mload(0x40)\n      0x00\n      mload(0x40)\n      dup1\n      dup4\n      sub\n      dup2\n      dup6\n      dup9\n      dup9\n      call\n      swap4\n      pop\n      pop\n      pop\n      pop\n      iszero\n      dup1\n      iszero\n      tag_164\n      jumpi\n      returndatasize\n      0x00\n      dup1\n      returndatacopy\n      revert(0x00, returndatasize)\n    tag_164:\n      pop\n        /* \"contracts/BlockLease.sol\":6318:7838  {... */\n      pop\n      pop\n        /* \"contracts/BlockLease.sol\":6284:7838  function payRent() payable public {... */\n      jump\t// out\n        /* \"contracts/BlockLease.sol\":882:902  Tenant public tenant */\n    tag_34:\n      0x01\n      dup1\n      0x00\n      add\n      0x00\n      swap1\n      sload\n      swap1\n      0x0100\n      exp\n      swap1\n      div\n      0xffffffffffffffffffffffffffffffffffffffff\n      and\n      swap1\n      dup1\n      0x00\n      add\n      0x14\n      swap1\n      sload\n      swap1\n      0x0100\n      exp\n      swap1\n      div\n      0xff\n      and\n      swap1\n      pop\n      dup3\n      jump\t// out\n        /* \"contracts/BlockLease.sol\":7940:8557  function evict() public {... */\n    tag_39:\n        /* \"contracts/BlockLease.sol\":7996:8004  landlord */\n      0x00\n        /* \"contracts/BlockLease.sol\":7996:8009  landlord.addr */\n      dup1\n      add\n      0x00\n      swap1\n      sload\n      swap1\n      0x0100\n      exp\n      swap1\n      div\n      0xffffffffffffffffffffffffffffffffffffffff\n      and\n        /* \"contracts/BlockLease.sol\":7982:8009  msg.sender == landlord.addr */\n      0xffffffffffffffffffffffffffffffffffffffff\n      and\n        /* \"contracts/BlockLease.sol\":7982:7992  msg.sender */\n      caller\n        /* \"contracts/BlockLease.sol\":7982:8009  msg.sender == landlord.addr */\n      0xffffffffffffffffffffffffffffffffffffffff\n      and\n      eq\n        /* \"contracts/BlockLease.sol\":7974:8052  require(msg.sender == landlord.addr, \"Only the landlord can choose to evict.\") */\n      tag_166\n      jumpi\n      mload(0x40)\n      0x08c379a000000000000000000000000000000000000000000000000000000000\n      dup2\n      mstore\n      0x04\n      add\n      tag_167\n      swap1\n      tag_168\n      jump\t// in\n    tag_167:\n      mload(0x40)\n      dup1\n      swap2\n      sub\n      swap1\n      revert\n    tag_166:\n        /* \"contracts/BlockLease.sol\":8085:8102  LeaseState.ACTIVE */\n      0x02\n        /* \"contracts/BlockLease.sol\":8070:8102  lease.state == LeaseState.ACTIVE */\n      0x03\n      dup2\n      gt\n      iszero\n      tag_169\n      jumpi\n      tag_170\n      tag_72\n      jump\t// in\n    tag_170:\n    tag_169:\n        /* \"contracts/BlockLease.sol\":8070:8075  lease */\n      0x04\n        /* \"contracts/BlockLease.sol\":8070:8081  lease.state */\n      0x00\n      add\n      0x00\n      swap1\n      sload\n      swap1\n      0x0100\n      exp\n      swap1\n      div\n      0xff\n      and\n        /* \"contracts/BlockLease.sol\":8070:8102  lease.state == LeaseState.ACTIVE */\n      0x03\n      dup2\n      gt\n      iszero\n      tag_171\n      jumpi\n      tag_172\n      tag_72\n      jump\t// in\n    tag_172:\n    tag_171:\n      eq\n        /* \"contracts/BlockLease.sol\":8062:8160  require(lease.state == LeaseState.ACTIVE, \"The lease should be active to start eviction process.\") */\n      tag_173\n      jumpi\n      mload(0x40)\n      0x08c379a000000000000000000000000000000000000000000000000000000000\n      dup2\n      mstore\n      0x04\n      add\n      tag_174\n      swap1\n      tag_175\n      jump\t// in\n    tag_174:\n      mload(0x40)\n      dup1\n      swap2\n      sub\n      swap1\n      revert\n    tag_173:\n        /* \"contracts/BlockLease.sol\":8170:8192  uint timeSinceLastRent */\n      0x00\n        /* \"contracts/BlockLease.sol\":8195:8218  findTimeSinceLastRent() */\n      tag_176\n        /* \"contracts/BlockLease.sol\":8195:8216  findTimeSinceLastRent */\n      tag_140\n        /* \"contracts/BlockLease.sol\":8195:8218  findTimeSinceLastRent() */\n      jump\t// in\n    tag_176:\n        /* \"contracts/BlockLease.sol\":8170:8218  uint timeSinceLastRent = findTimeSinceLastRent() */\n      swap1\n      pop\n        /* \"contracts/BlockLease.sol\":8257:8264  30 days */\n      0x278d00\n        /* \"contracts/BlockLease.sol\":8237:8254  timeSinceLastRent */\n      dup2\n        /* \"contracts/BlockLease.sol\":8237:8264  timeSinceLastRent > 30 days */\n      gt\n        /* \"contracts/BlockLease.sol\":8229:8313  require(timeSinceLastRent > 30 days, \"It has not been 30 days since the last rent.\") */\n      tag_177\n      jumpi\n      mload(0x40)\n      0x08c379a000000000000000000000000000000000000000000000000000000000\n      dup2\n      mstore\n      0x04\n      add\n      tag_178\n      swap1\n      tag_179\n      jump\t// in\n    tag_178:\n      mload(0x40)\n      dup1\n      swap2\n      sub\n      swap1\n      revert\n    tag_177:\n        /* \"contracts/BlockLease.sol\":8345:8350  lease */\n      0x04\n        /* \"contracts/BlockLease.sol\":8345:8365  lease.rentalDuration */\n      0x02\n      add\n      sload\n        /* \"contracts/BlockLease.sol\":8327:8341  monthsRentPaid */\n      0x0a\n      0x00\n      swap1\n      sload\n      swap1\n      0x0100\n      exp\n      swap1\n      div\n      0xff\n      and\n        /* \"contracts/BlockLease.sol\":8327:8365  monthsRentPaid == lease.rentalDuration */\n      0xff\n      and\n      sub\n        /* \"contracts/BlockLease.sol\":8324:8503  if(monthsRentPaid == lease.rentalDuration) {... */\n      tag_180\n      jumpi\n        /* \"contracts/BlockLease.sol\":8449:8455  tenant */\n      0x01\n        /* \"contracts/BlockLease.sol\":8449:8460  tenant.addr */\n      0x00\n      add\n      0x00\n      swap1\n      sload\n      swap1\n      0x0100\n      exp\n      swap1\n      div\n      0xffffffffffffffffffffffffffffffffffffffff\n      and\n        /* \"contracts/BlockLease.sol\":8449:8469  tenant.addr.transfer */\n      0xffffffffffffffffffffffffffffffffffffffff\n      and\n        /* \"contracts/BlockLease.sol\":8449:8492  tenant.addr.transfer(lease.securityDeposit) */\n      0x08fc\n        /* \"contracts/BlockLease.sol\":8470:8475  lease */\n      0x04\n        /* \"contracts/BlockLease.sol\":8470:8491  lease.securityDeposit */\n      0x05\n      add\n      sload\n        /* \"contracts/BlockLease.sol\":8449:8492  tenant.addr.transfer(lease.securityDeposit) */\n      swap1\n      dup2\n      iszero\n      mul\n      swap1\n      mload(0x40)\n      0x00\n      mload(0x40)\n      dup1\n      dup4\n      sub\n      dup2\n      dup6\n      dup9\n      dup9\n      call\n      swap4\n      pop\n      pop\n      pop\n      pop\n      iszero\n      dup1\n      iszero\n      tag_182\n      jumpi\n      returndatasize\n      0x00\n      dup1\n      returndatacopy\n      revert(0x00, returndatasize)\n    tag_182:\n      pop\n        /* \"contracts/BlockLease.sol\":8324:8503  if(monthsRentPaid == lease.rentalDuration) {... */\n    tag_180:\n        /* \"contracts/BlockLease.sol\":8527:8546  LeaseState.FINISHED */\n      0x03\n        /* \"contracts/BlockLease.sol\":8513:8518  lease */\n      0x04\n        /* \"contracts/BlockLease.sol\":8513:8524  lease.state */\n      0x00\n      add\n      0x00\n        /* \"contracts/BlockLease.sol\":8513:8546  lease.state = LeaseState.FINISHED */\n      0x0100\n      exp\n      dup2\n      sload\n      dup2\n      0xff\n      mul\n      not\n      and\n      swap1\n      dup4\n      0x03\n      dup2\n      gt\n      iszero\n      tag_183\n      jumpi\n      tag_184\n      tag_72\n      jump\t// in\n    tag_184:\n    tag_183:\n      mul\n      or\n      swap1\n      sstore\n      pop\n        /* \"contracts/BlockLease.sol\":7964:8557  {... */\n      pop\n        /* \"contracts/BlockLease.sol\":7940:8557  function evict() public {... */\n      jump\t// out\n        /* \"contracts/BlockLease.sol\":3440:4221  function signAgreement() public {... */\n    tag_42:\n        /* \"contracts/BlockLease.sol\":3504:3512  landlord */\n      0x00\n        /* \"contracts/BlockLease.sol\":3504:3517  landlord.addr */\n      dup1\n      add\n      0x00\n      swap1\n      sload\n      swap1\n      0x0100\n      exp\n      swap1\n      div\n      0xffffffffffffffffffffffffffffffffffffffff\n      and\n        /* \"contracts/BlockLease.sol\":3490:3517  msg.sender == landlord.addr */\n      0xffffffffffffffffffffffffffffffffffffffff\n      and\n        /* \"contracts/BlockLease.sol\":3490:3500  msg.sender */\n      caller\n        /* \"contracts/BlockLease.sol\":3490:3517  msg.sender == landlord.addr */\n      0xffffffffffffffffffffffffffffffffffffffff\n      and\n      eq\n        /* \"contracts/BlockLease.sol\":3490:3546  msg.sender == landlord.addr || msg.sender == tenant.addr */\n      dup1\n      tag_186\n      jumpi\n      pop\n        /* \"contracts/BlockLease.sol\":3535:3541  tenant */\n      0x01\n        /* \"contracts/BlockLease.sol\":3535:3546  tenant.addr */\n      0x00\n      add\n      0x00\n      swap1\n      sload\n      swap1\n      0x0100\n      exp\n      swap1\n      div\n      0xffffffffffffffffffffffffffffffffffffffff\n      and\n        /* \"contracts/BlockLease.sol\":3521:3546  msg.sender == tenant.addr */\n      0xffffffffffffffffffffffffffffffffffffffff\n      and\n        /* \"contracts/BlockLease.sol\":3521:3531  msg.sender */\n      caller\n        /* \"contracts/BlockLease.sol\":3521:3546  msg.sender == tenant.addr */\n      0xffffffffffffffffffffffffffffffffffffffff\n      and\n      eq\n        /* \"contracts/BlockLease.sol\":3490:3546  msg.sender == landlord.addr || msg.sender == tenant.addr */\n    tag_186:\n        /* \"contracts/BlockLease.sol\":3482:3591  require(msg.sender == landlord.addr || msg.sender == tenant.addr, \"Only owner or tenent can sign agreement.\") */\n      tag_187\n      jumpi\n      mload(0x40)\n      0x08c379a000000000000000000000000000000000000000000000000000000000\n      dup2\n      mstore\n      0x04\n      add\n      tag_188\n      swap1\n      tag_189\n      jump\t// in\n    tag_188:\n      mload(0x40)\n      dup1\n      swap2\n      sub\n      swap1\n      revert\n    tag_187:\n        /* \"contracts/BlockLease.sol\":3624:3643  LeaseState.INACTIVE */\n      0x00\n        /* \"contracts/BlockLease.sol\":3609:3643  lease.state == LeaseState.INACTIVE */\n      0x03\n      dup2\n      gt\n      iszero\n      tag_190\n      jumpi\n      tag_191\n      tag_72\n      jump\t// in\n    tag_191:\n    tag_190:\n        /* \"contracts/BlockLease.sol\":3609:3614  lease */\n      0x04\n        /* \"contracts/BlockLease.sol\":3609:3620  lease.state */\n      0x00\n      add\n      0x00\n      swap1\n      sload\n      swap1\n      0x0100\n      exp\n      swap1\n      div\n      0xff\n      and\n        /* \"contracts/BlockLease.sol\":3609:3643  lease.state == LeaseState.INACTIVE */\n      0x03\n      dup2\n      gt\n      iszero\n      tag_192\n      jumpi\n      tag_193\n      tag_72\n      jump\t// in\n    tag_193:\n    tag_192:\n      eq\n        /* \"contracts/BlockLease.sol\":3601:3686  require(lease.state == LeaseState.INACTIVE, \"The lease has to be in inactive state.\") */\n      tag_194\n      jumpi\n      mload(0x40)\n      0x08c379a000000000000000000000000000000000000000000000000000000000\n      dup2\n      mstore\n      0x04\n      add\n      tag_195\n      swap1\n      tag_196\n      jump\t// in\n    tag_195:\n      mload(0x40)\n      dup1\n      swap2\n      sub\n      swap1\n      revert\n    tag_194:\n        /* \"contracts/BlockLease.sol\":3713:3721  landlord */\n      0x00\n        /* \"contracts/BlockLease.sol\":3713:3726  landlord.addr */\n      dup1\n      add\n      0x00\n      swap1\n      sload\n      swap1\n      0x0100\n      exp\n      swap1\n      div\n      0xffffffffffffffffffffffffffffffffffffffff\n      and\n        /* \"contracts/BlockLease.sol\":3699:3726  msg.sender == landlord.addr */\n      0xffffffffffffffffffffffffffffffffffffffff\n      and\n        /* \"contracts/BlockLease.sol\":3699:3709  msg.sender */\n      caller\n        /* \"contracts/BlockLease.sol\":3699:3726  msg.sender == landlord.addr */\n      0xffffffffffffffffffffffffffffffffffffffff\n      and\n      sub\n        /* \"contracts/BlockLease.sol\":3696:3855  if(msg.sender == landlord.addr) {... */\n      tag_197\n      jumpi\n        /* \"contracts/BlockLease.sol\":3770:3775  false */\n      0x00\n        /* \"contracts/BlockLease.sol\":3751:3775  landlord.agrees == false */\n      iszero\n      iszero\n        /* \"contracts/BlockLease.sol\":3751:3759  landlord */\n      0x00\n        /* \"contracts/BlockLease.sol\":3751:3766  landlord.agrees */\n      dup1\n      add\n      0x14\n      swap1\n      sload\n      swap1\n      0x0100\n      exp\n      swap1\n      div\n      0xff\n      and\n        /* \"contracts/BlockLease.sol\":3751:3775  landlord.agrees == false */\n      iszero\n      iszero\n      eq\n        /* \"contracts/BlockLease.sol\":3742:3808  require (landlord.agrees == false, \"Landlord has already agreed.\") */\n      tag_198\n      jumpi\n      mload(0x40)\n      0x08c379a000000000000000000000000000000000000000000000000000000000\n      dup2\n      mstore\n      0x04\n      add\n      tag_199\n      swap1\n      tag_200\n      jump\t// in\n    tag_199:\n      mload(0x40)\n      dup1\n      swap2\n      sub\n      swap1\n      revert\n    tag_198:\n        /* \"contracts/BlockLease.sol\":3840:3844  true */\n      0x01\n        /* \"contracts/BlockLease.sol\":3822:3830  landlord */\n      0x00\n        /* \"contracts/BlockLease.sol\":3822:3837  landlord.agrees */\n      dup1\n      add\n      0x14\n        /* \"contracts/BlockLease.sol\":3822:3844  landlord.agrees = true */\n      0x0100\n      exp\n      dup2\n      sload\n      dup2\n      0xff\n      mul\n      not\n      and\n      swap1\n      dup4\n      iszero\n      iszero\n      mul\n      or\n      swap1\n      sstore\n      pop\n        /* \"contracts/BlockLease.sol\":3696:3855  if(msg.sender == landlord.addr) {... */\n    tag_197:\n        /* \"contracts/BlockLease.sol\":3882:3888  tenant */\n      0x01\n        /* \"contracts/BlockLease.sol\":3882:3893  tenant.addr */\n      0x00\n      add\n      0x00\n      swap1\n      sload\n      swap1\n      0x0100\n      exp\n      swap1\n      div\n      0xffffffffffffffffffffffffffffffffffffffff\n      and\n        /* \"contracts/BlockLease.sol\":3868:3893  msg.sender == tenant.addr */\n      0xffffffffffffffffffffffffffffffffffffffff\n      and\n        /* \"contracts/BlockLease.sol\":3868:3878  msg.sender */\n      caller\n        /* \"contracts/BlockLease.sol\":3868:3893  msg.sender == tenant.addr */\n      0xffffffffffffffffffffffffffffffffffffffff\n      and\n      sub\n        /* \"contracts/BlockLease.sol\":3864:4016  if (msg.sender == tenant.addr) {... */\n      tag_201\n      jumpi\n        /* \"contracts/BlockLease.sol\":3935:3940  false */\n      0x00\n        /* \"contracts/BlockLease.sol\":3918:3940  tenant.agrees == false */\n      iszero\n      iszero\n        /* \"contracts/BlockLease.sol\":3918:3924  tenant */\n      0x01\n        /* \"contracts/BlockLease.sol\":3918:3931  tenant.agrees */\n      0x00\n      add\n      0x14\n      swap1\n      sload\n      swap1\n      0x0100\n      exp\n      swap1\n      div\n      0xff\n      and\n        /* \"contracts/BlockLease.sol\":3918:3940  tenant.agrees == false */\n      iszero\n      iszero\n      eq\n        /* \"contracts/BlockLease.sol\":3909:3971  require (tenant.agrees == false, \"Tenant has already agreed.\") */\n      tag_202\n      jumpi\n      mload(0x40)\n      0x08c379a000000000000000000000000000000000000000000000000000000000\n      dup2\n      mstore\n      0x04\n      add\n      tag_203\n      swap1\n      tag_204\n      jump\t// in\n    tag_203:\n      mload(0x40)\n      dup1\n      swap2\n      sub\n      swap1\n      revert\n    tag_202:\n        /* \"contracts/BlockLease.sol\":4001:4005  true */\n      0x01\n        /* \"contracts/BlockLease.sol\":3985:3991  tenant */\n      dup1\n        /* \"contracts/BlockLease.sol\":3985:3998  tenant.agrees */\n      0x00\n      add\n      0x14\n        /* \"contracts/BlockLease.sol\":3985:4005  tenant.agrees = true */\n      0x0100\n      exp\n      dup2\n      sload\n      dup2\n      0xff\n      mul\n      not\n      and\n      swap1\n      dup4\n      iszero\n      iszero\n      mul\n      or\n      swap1\n      sstore\n      pop\n        /* \"contracts/BlockLease.sol\":3864:4016  if (msg.sender == tenant.addr) {... */\n    tag_201:\n        /* \"contracts/BlockLease.sol\":4030:4038  landlord */\n      0x00\n        /* \"contracts/BlockLease.sol\":4030:4045  landlord.agrees */\n      dup1\n      add\n      0x14\n      swap1\n      sload\n      swap1\n      0x0100\n      exp\n      swap1\n      div\n      0xff\n      and\n        /* \"contracts/BlockLease.sol\":4030:4062  landlord.agrees && tenant.agrees */\n      dup1\n      iszero\n      tag_205\n      jumpi\n      pop\n        /* \"contracts/BlockLease.sol\":4049:4055  tenant */\n      0x01\n        /* \"contracts/BlockLease.sol\":4049:4062  tenant.agrees */\n      0x00\n      add\n      0x14\n      swap1\n      sload\n      swap1\n      0x0100\n      exp\n      swap1\n      div\n      0xff\n      and\n        /* \"contracts/BlockLease.sol\":4030:4062  landlord.agrees && tenant.agrees */\n    tag_205:\n        /* \"contracts/BlockLease.sol\":4026:4215  if (landlord.agrees && tenant.agrees) {... */\n      iszero\n      tag_206\n      jumpi\n        /* \"contracts/BlockLease.sol\":4178:4204  LeaseState.PENDING_DEPOSIT */\n      0x01\n        /* \"contracts/BlockLease.sol\":4164:4169  lease */\n      0x04\n        /* \"contracts/BlockLease.sol\":4164:4175  lease.state */\n      0x00\n      add\n      0x00\n        /* \"contracts/BlockLease.sol\":4164:4204  lease.state = LeaseState.PENDING_DEPOSIT */\n      0x0100\n      exp\n      dup2\n      sload\n      dup2\n      0xff\n      mul\n      not\n      and\n      swap1\n      dup4\n      0x03\n      dup2\n      gt\n      iszero\n      tag_207\n      jumpi\n      tag_208\n      tag_72\n      jump\t// in\n    tag_208:\n    tag_207:\n      mul\n      or\n      swap1\n      sstore\n      pop\n        /* \"contracts/BlockLease.sol\":4026:4215  if (landlord.agrees && tenant.agrees) {... */\n    tag_206:\n        /* \"contracts/BlockLease.sol\":3440:4221  function signAgreement() public {... */\n      jump\t// out\n        /* \"contracts/BlockLease.sol\":938:956  Lease public lease */\n    tag_45:\n      0x04\n      dup1\n      0x00\n      add\n      0x00\n      swap1\n      sload\n      swap1\n      0x0100\n      exp\n      swap1\n      div\n      0xff\n      and\n      swap1\n      dup1\n      0x01\n      add\n      sload\n      swap1\n      dup1\n      0x02\n      add\n      sload\n      swap1\n      dup1\n      0x03\n      add\n      sload\n      swap1\n      dup1\n      0x04\n      add\n      sload\n      swap1\n      dup1\n      0x05\n      add\n      sload\n      swap1\n      pop\n      dup7\n      jump\t// out\n        /* \"contracts/BlockLease.sol\":852:876  Landlord public landlord */\n    tag_50:\n      0x00\n      dup1\n      0x00\n      add\n      0x00\n      swap1\n      sload\n      swap1\n      0x0100\n      exp\n      swap1\n      div\n      0xffffffffffffffffffffffffffffffffffffffff\n      and\n      swap1\n      dup1\n      0x00\n      add\n      0x14\n      swap1\n      sload\n      swap1\n      0x0100\n      exp\n      swap1\n      div\n      0xff\n      and\n      swap1\n      pop\n      dup3\n      jump\t// out\n        /* \"contracts/BlockLease.sol\":5241:5725  function depositSecurityDeposit() payable public {... */\n    tag_53:\n        /* \"contracts/BlockLease.sol\":5322:5328  tenant */\n      0x01\n        /* \"contracts/BlockLease.sol\":5322:5333  tenant.addr */\n      0x00\n      add\n      0x00\n      swap1\n      sload\n      swap1\n      0x0100\n      exp\n      swap1\n      div\n      0xffffffffffffffffffffffffffffffffffffffff\n      and\n        /* \"contracts/BlockLease.sol\":5308:5333  msg.sender == tenant.addr */\n      0xffffffffffffffffffffffffffffffffffffffff\n      and\n        /* \"contracts/BlockLease.sol\":5308:5318  msg.sender */\n      caller\n        /* \"contracts/BlockLease.sol\":5308:5333  msg.sender == tenant.addr */\n      0xffffffffffffffffffffffffffffffffffffffff\n      and\n      eq\n        /* \"contracts/BlockLease.sol\":5300:5376  require(msg.sender == tenant.addr, \"Only tenent can send security deposit.\") */\n      tag_210\n      jumpi\n      mload(0x40)\n      0x08c379a000000000000000000000000000000000000000000000000000000000\n      dup2\n      mstore\n      0x04\n      add\n      tag_211\n      swap1\n      tag_212\n      jump\t// in\n    tag_211:\n      mload(0x40)\n      dup1\n      swap2\n      sub\n      swap1\n      revert\n    tag_210:\n        /* \"contracts/BlockLease.sol\":5409:5435  LeaseState.PENDING_DEPOSIT */\n      0x01\n        /* \"contracts/BlockLease.sol\":5394:5435  lease.state == LeaseState.PENDING_DEPOSIT */\n      0x03\n      dup2\n      gt\n      iszero\n      tag_213\n      jumpi\n      tag_214\n      tag_72\n      jump\t// in\n    tag_214:\n    tag_213:\n        /* \"contracts/BlockLease.sol\":5394:5399  lease */\n      0x04\n        /* \"contracts/BlockLease.sol\":5394:5405  lease.state */\n      0x00\n      add\n      0x00\n      swap1\n      sload\n      swap1\n      0x0100\n      exp\n      swap1\n      div\n      0xff\n      and\n        /* \"contracts/BlockLease.sol\":5394:5435  lease.state == LeaseState.PENDING_DEPOSIT */\n      0x03\n      dup2\n      gt\n      iszero\n      tag_215\n      jumpi\n      tag_216\n      tag_72\n      jump\t// in\n    tag_216:\n    tag_215:\n      eq\n        /* \"contracts/BlockLease.sol\":5386:5485  require(lease.state == LeaseState.PENDING_DEPOSIT, \"The lease should be in pending deposit state.\") */\n      tag_217\n      jumpi\n      mload(0x40)\n      0x08c379a000000000000000000000000000000000000000000000000000000000\n      dup2\n      mstore\n      0x04\n      add\n      tag_218\n      swap1\n      tag_219\n      jump\t// in\n    tag_218:\n      mload(0x40)\n      dup1\n      swap2\n      sub\n      swap1\n      revert\n    tag_217:\n        /* \"contracts/BlockLease.sol\":5516:5521  lease */\n      0x04\n        /* \"contracts/BlockLease.sol\":5516:5537  lease.securityDeposit */\n      0x05\n      add\n      sload\n        /* \"contracts/BlockLease.sol\":5503:5512  msg.value */\n      callvalue\n        /* \"contracts/BlockLease.sol\":5503:5537  msg.value == lease.securityDeposit */\n      eq\n        /* \"contracts/BlockLease.sol\":5495:5609  require(msg.value == lease.securityDeposit, \"The value being deposited should equal the security deposit amount.\") */\n      tag_220\n      jumpi\n      mload(0x40)\n      0x08c379a000000000000000000000000000000000000000000000000000000000\n      dup2\n      mstore\n      0x04\n      add\n      tag_221\n      swap1\n      tag_222\n      jump\t// in\n    tag_221:\n      mload(0x40)\n      dup1\n      swap2\n      sub\n      swap1\n      revert\n    tag_220:\n        /* \"contracts/BlockLease.sol\":5701:5718  LeaseState.ACTIVE */\n      0x02\n        /* \"contracts/BlockLease.sol\":5687:5692  lease */\n      0x04\n        /* \"contracts/BlockLease.sol\":5687:5698  lease.state */\n      0x00\n      add\n      0x00\n        /* \"contracts/BlockLease.sol\":5687:5718  lease.state = LeaseState.ACTIVE */\n      0x0100\n      exp\n      dup2\n      sload\n      dup2\n      0xff\n      mul\n      not\n      and\n      swap1\n      dup4\n      0x03\n      dup2\n      gt\n      iszero\n      tag_223\n      jumpi\n      tag_224\n      tag_72\n      jump\t// in\n    tag_224:\n    tag_223:\n      mul\n      or\n      swap1\n      sstore\n      pop\n        /* \"contracts/BlockLease.sol\":5241:5725  function depositSecurityDeposit() payable public {... */\n      jump\t// out\n        /* \"contracts/BlockLease.sol\":5808:6174  function findTimeSinceLastRent() private view returns (uint){... */\n    tag_140:\n        /* \"contracts/BlockLease.sol\":5863:5867  uint */\n      0x00\n        /* \"contracts/BlockLease.sol\":5907:5920  uint currDate */\n      dup1\n        /* \"contracts/BlockLease.sol\":5923:5938  block.timestamp */\n      timestamp\n        /* \"contracts/BlockLease.sol\":5907:5938  uint currDate = block.timestamp */\n      swap1\n      pop\n        /* \"contracts/BlockLease.sol\":5990:5998  uint res */\n      0x00\n        /* \"contracts/BlockLease.sol\":6012:6017  lease */\n      0x04\n        /* \"contracts/BlockLease.sol\":6012:6027  lease.startDate */\n      0x03\n      add\n      sload\n        /* \"contracts/BlockLease.sol\":6001:6009  currDate */\n      dup3\n        /* \"contracts/BlockLease.sol\":6001:6027  currDate - lease.startDate */\n      tag_226\n      swap2\n      swap1\n      tag_227\n      jump\t// in\n    tag_226:\n        /* \"contracts/BlockLease.sol\":5990:6027  uint res = currDate - lease.startDate */\n      swap1\n      pop\n        /* \"contracts/BlockLease.sol\":6137:6144  30 days */\n      0x278d00\n        /* \"contracts/BlockLease.sol\":6119:6133  monthsRentPaid */\n      0x0a\n      0x00\n      swap1\n      sload\n      swap1\n      0x0100\n      exp\n      swap1\n      div\n      0xff\n      and\n        /* \"contracts/BlockLease.sol\":6119:6145  monthsRentPaid * (30 days) */\n      0xff\n      and\n      tag_228\n      swap2\n      swap1\n      tag_229\n      jump\t// in\n    tag_228:\n        /* \"contracts/BlockLease.sol\":6111:6146  res -= (monthsRentPaid * (30 days)) */\n      0xffffff\n      and\n      dup2\n      tag_230\n      swap2\n      swap1\n      tag_227\n      jump\t// in\n    tag_230:\n      swap1\n      pop\n        /* \"contracts/BlockLease.sol\":6164:6167  res */\n      dup1\n        /* \"contracts/BlockLease.sol\":6157:6167  return res */\n      swap3\n      pop\n      pop\n      pop\n        /* \"contracts/BlockLease.sol\":5808:6174  function findTimeSinceLastRent() private view returns (uint){... */\n      swap1\n      jump\t// out\n        /* \"#utility.yul\":7:106   */\n    tag_231:\n        /* \"#utility.yul\":59:65   */\n      0x00\n        /* \"#utility.yul\":93:98   */\n      dup2\n        /* \"#utility.yul\":87:99   */\n      mload\n        /* \"#utility.yul\":77:99   */\n      swap1\n      pop\n        /* \"#utility.yul\":7:106   */\n      swap2\n      swap1\n      pop\n      jump\t// out\n        /* \"#utility.yul\":112:281   */\n    tag_232:\n        /* \"#utility.yul\":196:207   */\n      0x00\n        /* \"#utility.yul\":230:236   */\n      dup3\n        /* \"#utility.yul\":225:228   */\n      dup3\n        /* \"#utility.yul\":218:237   */\n      mstore\n        /* \"#utility.yul\":270:274   */\n      0x20\n        /* \"#utility.yul\":265:268   */\n      dup3\n        /* \"#utility.yul\":261:275   */\n      add\n        /* \"#utility.yul\":246:275   */\n      swap1\n      pop\n        /* \"#utility.yul\":112:281   */\n      swap3\n      swap2\n      pop\n      pop\n      jump\t// out\n        /* \"#utility.yul\":287:533   */\n    tag_233:\n        /* \"#utility.yul\":368:369   */\n      0x00\n        /* \"#utility.yul\":378:491   */\n    tag_309:\n        /* \"#utility.yul\":392:398   */\n      dup4\n        /* \"#utility.yul\":389:390   */\n      dup2\n        /* \"#utility.yul\":386:399   */\n      lt\n        /* \"#utility.yul\":378:491   */\n      iszero\n      tag_311\n      jumpi\n        /* \"#utility.yul\":477:478   */\n      dup1\n        /* \"#utility.yul\":472:475   */\n      dup3\n        /* \"#utility.yul\":468:479   */\n      add\n        /* \"#utility.yul\":462:480   */\n      mload\n        /* \"#utility.yul\":458:459   */\n      dup2\n        /* \"#utility.yul\":453:456   */\n      dup5\n        /* \"#utility.yul\":449:460   */\n      add\n        /* \"#utility.yul\":442:481   */\n      mstore\n        /* \"#utility.yul\":414:416   */\n      0x20\n        /* \"#utility.yul\":411:412   */\n      dup2\n        /* \"#utility.yul\":407:417   */\n      add\n        /* \"#utility.yul\":402:417   */\n      swap1\n      pop\n        /* \"#utility.yul\":378:491   */\n      jump(tag_309)\n    tag_311:\n        /* \"#utility.yul\":525:526   */\n      0x00\n        /* \"#utility.yul\":516:522   */\n      dup5\n        /* \"#utility.yul\":511:514   */\n      dup5\n        /* \"#utility.yul\":507:523   */\n      add\n        /* \"#utility.yul\":500:527   */\n      mstore\n        /* \"#utility.yul\":349:533   */\n      pop\n        /* \"#utility.yul\":287:533   */\n      pop\n      pop\n      pop\n      jump\t// out\n        /* \"#utility.yul\":539:641   */\n    tag_234:\n        /* \"#utility.yul\":580:586   */\n      0x00\n        /* \"#utility.yul\":631:633   */\n      0x1f\n        /* \"#utility.yul\":627:634   */\n      not\n        /* \"#utility.yul\":622:624   */\n      0x1f\n        /* \"#utility.yul\":615:620   */\n      dup4\n        /* \"#utility.yul\":611:625   */\n      add\n        /* \"#utility.yul\":607:635   */\n      and\n        /* \"#utility.yul\":597:635   */\n      swap1\n      pop\n        /* \"#utility.yul\":539:641   */\n      swap2\n      swap1\n      pop\n      jump\t// out\n        /* \"#utility.yul\":647:1024   */\n    tag_235:\n        /* \"#utility.yul\":735:738   */\n      0x00\n        /* \"#utility.yul\":763:802   */\n      tag_314\n        /* \"#utility.yul\":796:801   */\n      dup3\n        /* \"#utility.yul\":763:802   */\n      tag_231\n      jump\t// in\n    tag_314:\n        /* \"#utility.yul\":818:889   */\n      tag_315\n        /* \"#utility.yul\":882:888   */\n      dup2\n        /* \"#utility.yul\":877:880   */\n      dup6\n        /* \"#utility.yul\":818:889   */\n      tag_232\n      jump\t// in\n    tag_315:\n        /* \"#utility.yul\":811:889   */\n      swap4\n      pop\n        /* \"#utility.yul\":898:963   */\n      tag_316\n        /* \"#utility.yul\":956:962   */\n      dup2\n        /* \"#utility.yul\":951:954   */\n      dup6\n        /* \"#utility.yul\":944:948   */\n      0x20\n        /* \"#utility.yul\":937:942   */\n      dup7\n        /* \"#utility.yul\":933:949   */\n      add\n        /* \"#utility.yul\":898:963   */\n      tag_233\n      jump\t// in\n    tag_316:\n        /* \"#utility.yul\":988:1017   */\n      tag_317\n        /* \"#utility.yul\":1010:1016   */\n      dup2\n        /* \"#utility.yul\":988:1017   */\n      tag_234\n      jump\t// in\n    tag_317:\n        /* \"#utility.yul\":983:986   */\n      dup5\n        /* \"#utility.yul\":979:1018   */\n      add\n        /* \"#utility.yul\":972:1018   */\n      swap2\n      pop\n        /* \"#utility.yul\":739:1024   */\n      pop\n        /* \"#utility.yul\":647:1024   */\n      swap3\n      swap2\n      pop\n      pop\n      jump\t// out\n        /* \"#utility.yul\":1030:1544   */\n    tag_18:\n        /* \"#utility.yul\":1191:1195   */\n      0x00\n        /* \"#utility.yul\":1229:1231   */\n      0x40\n        /* \"#utility.yul\":1218:1227   */\n      dup3\n        /* \"#utility.yul\":1214:1232   */\n      add\n        /* \"#utility.yul\":1206:1232   */\n      swap1\n      pop\n        /* \"#utility.yul\":1278:1287   */\n      dup2\n        /* \"#utility.yul\":1272:1276   */\n      dup2\n        /* \"#utility.yul\":1268:1288   */\n      sub\n        /* \"#utility.yul\":1264:1265   */\n      0x00\n        /* \"#utility.yul\":1253:1262   */\n      dup4\n        /* \"#utility.yul\":1249:1266   */\n      add\n        /* \"#utility.yul\":1242:1289   */\n      mstore\n        /* \"#utility.yul\":1306:1384   */\n      tag_319\n        /* \"#utility.yul\":1379:1383   */\n      dup2\n        /* \"#utility.yul\":1370:1376   */\n      dup6\n        /* \"#utility.yul\":1306:1384   */\n      tag_235\n      jump\t// in\n    tag_319:\n        /* \"#utility.yul\":1298:1384   */\n      swap1\n      pop\n        /* \"#utility.yul\":1431:1440   */\n      dup2\n        /* \"#utility.yul\":1425:1429   */\n      dup2\n        /* \"#utility.yul\":1421:1441   */\n      sub\n        /* \"#utility.yul\":1416:1418   */\n      0x20\n        /* \"#utility.yul\":1405:1414   */\n      dup4\n        /* \"#utility.yul\":1401:1419   */\n      add\n        /* \"#utility.yul\":1394:1442   */\n      mstore\n        /* \"#utility.yul\":1459:1537   */\n      tag_320\n        /* \"#utility.yul\":1532:1536   */\n      dup2\n        /* \"#utility.yul\":1523:1529   */\n      dup5\n        /* \"#utility.yul\":1459:1537   */\n      tag_235\n      jump\t// in\n    tag_320:\n        /* \"#utility.yul\":1451:1537   */\n      swap1\n      pop\n        /* \"#utility.yul\":1030:1544   */\n      swap4\n      swap3\n      pop\n      pop\n      pop\n      jump\t// out\n        /* \"#utility.yul\":1631:1748   */\n    tag_237:\n        /* \"#utility.yul\":1740:1741   */\n      0x00\n        /* \"#utility.yul\":1737:1738   */\n      dup1\n        /* \"#utility.yul\":1730:1742   */\n      revert\n        /* \"#utility.yul\":1877:1954   */\n    tag_239:\n        /* \"#utility.yul\":1914:1921   */\n      0x00\n        /* \"#utility.yul\":1943:1948   */\n      dup2\n        /* \"#utility.yul\":1932:1948   */\n      swap1\n      pop\n        /* \"#utility.yul\":1877:1954   */\n      swap2\n      swap1\n      pop\n      jump\t// out\n        /* \"#utility.yul\":1960:2082   */\n    tag_240:\n        /* \"#utility.yul\":2033:2057   */\n      tag_326\n        /* \"#utility.yul\":2051:2056   */\n      dup2\n        /* \"#utility.yul\":2033:2057   */\n      tag_239\n      jump\t// in\n    tag_326:\n        /* \"#utility.yul\":2026:2031   */\n      dup2\n        /* \"#utility.yul\":2023:2058   */\n      eq\n        /* \"#utility.yul\":2013:2076   */\n      tag_327\n      jumpi\n        /* \"#utility.yul\":2072:2073   */\n      0x00\n        /* \"#utility.yul\":2069:2070   */\n      dup1\n        /* \"#utility.yul\":2062:2074   */\n      revert\n        /* \"#utility.yul\":2013:2076   */\n    tag_327:\n        /* \"#utility.yul\":1960:2082   */\n      pop\n      jump\t// out\n        /* \"#utility.yul\":2088:2227   */\n    tag_241:\n        /* \"#utility.yul\":2134:2139   */\n      0x00\n        /* \"#utility.yul\":2172:2178   */\n      dup2\n        /* \"#utility.yul\":2159:2179   */\n      calldataload\n        /* \"#utility.yul\":2150:2179   */\n      swap1\n      pop\n        /* \"#utility.yul\":2188:2221   */\n      tag_329\n        /* \"#utility.yul\":2215:2220   */\n      dup2\n        /* \"#utility.yul\":2188:2221   */\n      tag_240\n      jump\t// in\n    tag_329:\n        /* \"#utility.yul\":2088:2227   */\n      swap3\n      swap2\n      pop\n      pop\n      jump\t// out\n        /* \"#utility.yul\":2233:3144   */\n    tag_28:\n        /* \"#utility.yul\":2328:2334   */\n      0x00\n        /* \"#utility.yul\":2336:2342   */\n      dup1\n        /* \"#utility.yul\":2344:2350   */\n      0x00\n        /* \"#utility.yul\":2352:2358   */\n      dup1\n        /* \"#utility.yul\":2360:2366   */\n      0x00\n        /* \"#utility.yul\":2409:2412   */\n      0xa0\n        /* \"#utility.yul\":2397:2406   */\n      dup7\n        /* \"#utility.yul\":2388:2395   */\n      dup9\n        /* \"#utility.yul\":2384:2407   */\n      sub\n        /* \"#utility.yul\":2380:2413   */\n      slt\n        /* \"#utility.yul\":2377:2497   */\n      iszero\n      tag_331\n      jumpi\n        /* \"#utility.yul\":2416:2495   */\n      tag_332\n      tag_237\n      jump\t// in\n    tag_332:\n        /* \"#utility.yul\":2377:2497   */\n    tag_331:\n        /* \"#utility.yul\":2536:2537   */\n      0x00\n        /* \"#utility.yul\":2561:2614   */\n      tag_333\n        /* \"#utility.yul\":2606:2613   */\n      dup9\n        /* \"#utility.yul\":2597:2603   */\n      dup3\n        /* \"#utility.yul\":2586:2595   */\n      dup10\n        /* \"#utility.yul\":2582:2604   */\n      add\n        /* \"#utility.yul\":2561:2614   */\n      tag_241\n      jump\t// in\n    tag_333:\n        /* \"#utility.yul\":2551:2614   */\n      swap6\n      pop\n        /* \"#utility.yul\":2507:2624   */\n      pop\n        /* \"#utility.yul\":2663:2665   */\n      0x20\n        /* \"#utility.yul\":2689:2742   */\n      tag_334\n        /* \"#utility.yul\":2734:2741   */\n      dup9\n        /* \"#utility.yul\":2725:2731   */\n      dup3\n        /* \"#utility.yul\":2714:2723   */\n      dup10\n        /* \"#utility.yul\":2710:2732   */\n      add\n        /* \"#utility.yul\":2689:2742   */\n      tag_241\n      jump\t// in\n    tag_334:\n        /* \"#utility.yul\":2679:2742   */\n      swap5\n      pop\n        /* \"#utility.yul\":2634:2752   */\n      pop\n        /* \"#utility.yul\":2791:2793   */\n      0x40\n        /* \"#utility.yul\":2817:2870   */\n      tag_335\n        /* \"#utility.yul\":2862:2869   */\n      dup9\n        /* \"#utility.yul\":2853:2859   */\n      dup3\n        /* \"#utility.yul\":2842:2851   */\n      dup10\n        /* \"#utility.yul\":2838:2860   */\n      add\n        /* \"#utility.yul\":2817:2870   */\n      tag_241\n      jump\t// in\n    tag_335:\n        /* \"#utility.yul\":2807:2870   */\n      swap4\n      pop\n        /* \"#utility.yul\":2762:2880   */\n      pop\n        /* \"#utility.yul\":2919:2921   */\n      0x60\n        /* \"#utility.yul\":2945:2998   */\n      tag_336\n        /* \"#utility.yul\":2990:2997   */\n      dup9\n        /* \"#utility.yul\":2981:2987   */\n      dup3\n        /* \"#utility.yul\":2970:2979   */\n      dup10\n        /* \"#utility.yul\":2966:2988   */\n      add\n        /* \"#utility.yul\":2945:2998   */\n      tag_241\n      jump\t// in\n    tag_336:\n        /* \"#utility.yul\":2935:2998   */\n      swap3\n      pop\n        /* \"#utility.yul\":2890:3008   */\n      pop\n        /* \"#utility.yul\":3047:3050   */\n      0x80\n        /* \"#utility.yul\":3074:3127   */\n      tag_337\n        /* \"#utility.yul\":3119:3126   */\n      dup9\n        /* \"#utility.yul\":3110:3116   */\n      dup3\n        /* \"#utility.yul\":3099:3108   */\n      dup10\n        /* \"#utility.yul\":3095:3117   */\n      add\n        /* \"#utility.yul\":3074:3127   */\n      tag_241\n      jump\t// in\n    tag_337:\n        /* \"#utility.yul\":3064:3127   */\n      swap2\n      pop\n        /* \"#utility.yul\":3018:3137   */\n      pop\n        /* \"#utility.yul\":2233:3144   */\n      swap3\n      swap6\n      pop\n      swap3\n      swap6\n      swap1\n      swap4\n      pop\n      jump\t// out\n        /* \"#utility.yul\":3150:3276   */\n    tag_242:\n        /* \"#utility.yul\":3187:3194   */\n      0x00\n        /* \"#utility.yul\":3227:3269   */\n      0xffffffffffffffffffffffffffffffffffffffff\n        /* \"#utility.yul\":3220:3225   */\n      dup3\n        /* \"#utility.yul\":3216:3270   */\n      and\n        /* \"#utility.yul\":3205:3270   */\n      swap1\n      pop\n        /* \"#utility.yul\":3150:3276   */\n      swap2\n      swap1\n      pop\n      jump\t// out\n        /* \"#utility.yul\":3282:3386   */\n    tag_243:\n        /* \"#utility.yul\":3327:3334   */\n      0x00\n        /* \"#utility.yul\":3356:3380   */\n      tag_340\n        /* \"#utility.yul\":3374:3379   */\n      dup3\n        /* \"#utility.yul\":3356:3380   */\n      tag_242\n      jump\t// in\n    tag_340:\n        /* \"#utility.yul\":3345:3380   */\n      swap1\n      pop\n        /* \"#utility.yul\":3282:3386   */\n      swap2\n      swap1\n      pop\n      jump\t// out\n        /* \"#utility.yul\":3392:3534   */\n    tag_244:\n        /* \"#utility.yul\":3495:3527   */\n      tag_342\n        /* \"#utility.yul\":3521:3526   */\n      dup2\n        /* \"#utility.yul\":3495:3527   */\n      tag_243\n      jump\t// in\n    tag_342:\n        /* \"#utility.yul\":3490:3493   */\n      dup3\n        /* \"#utility.yul\":3483:3528   */\n      mstore\n        /* \"#utility.yul\":3392:3534   */\n      pop\n      pop\n      jump\t// out\n        /* \"#utility.yul\":3540:3630   */\n    tag_245:\n        /* \"#utility.yul\":3574:3581   */\n      0x00\n        /* \"#utility.yul\":3617:3622   */\n      dup2\n        /* \"#utility.yul\":3610:3623   */\n      iszero\n        /* \"#utility.yul\":3603:3624   */\n      iszero\n        /* \"#utility.yul\":3592:3624   */\n      swap1\n      pop\n        /* \"#utility.yul\":3540:3630   */\n      swap2\n      swap1\n      pop\n      jump\t// out\n        /* \"#utility.yul\":3636:3745   */\n    tag_246:\n        /* \"#utility.yul\":3717:3738   */\n      tag_345\n        /* \"#utility.yul\":3732:3737   */\n      dup2\n        /* \"#utility.yul\":3717:3738   */\n      tag_245\n      jump\t// in\n    tag_345:\n        /* \"#utility.yul\":3712:3715   */\n      dup3\n        /* \"#utility.yul\":3705:3739   */\n      mstore\n        /* \"#utility.yul\":3636:3745   */\n      pop\n      pop\n      jump\t// out\n        /* \"#utility.yul\":3751:4103   */\n    tag_36:\n        /* \"#utility.yul\":3882:3886   */\n      0x00\n        /* \"#utility.yul\":3920:3922   */\n      0x40\n        /* \"#utility.yul\":3909:3918   */\n      dup3\n        /* \"#utility.yul\":3905:3923   */\n      add\n        /* \"#utility.yul\":3897:3923   */\n      swap1\n      pop\n        /* \"#utility.yul\":3933:4020   */\n      tag_347\n        /* \"#utility.yul\":4017:4018   */\n      0x00\n        /* \"#utility.yul\":4006:4015   */\n      dup4\n        /* \"#utility.yul\":4002:4019   */\n      add\n        /* \"#utility.yul\":3993:3999   */\n      dup6\n        /* \"#utility.yul\":3933:4020   */\n      tag_244\n      jump\t// in\n    tag_347:\n        /* \"#utility.yul\":4030:4096   */\n      tag_348\n        /* \"#utility.yul\":4092:4094   */\n      0x20\n        /* \"#utility.yul\":4081:4090   */\n      dup4\n        /* \"#utility.yul\":4077:4095   */\n      add\n        /* \"#utility.yul\":4068:4074   */\n      dup5\n        /* \"#utility.yul\":4030:4096   */\n      tag_246\n      jump\t// in\n    tag_348:\n        /* \"#utility.yul\":3751:4103   */\n      swap4\n      swap3\n      pop\n      pop\n      pop\n      jump\t// out\n        /* \"#utility.yul\":4109:4289   */\n    tag_72:\n        /* \"#utility.yul\":4157:4234   */\n      0x4e487b7100000000000000000000000000000000000000000000000000000000\n        /* \"#utility.yul\":4154:4155   */\n      0x00\n        /* \"#utility.yul\":4147:4235   */\n      mstore\n        /* \"#utility.yul\":4254:4258   */\n      0x21\n        /* \"#utility.yul\":4251:4252   */\n      0x04\n        /* \"#utility.yul\":4244:4259   */\n      mstore\n        /* \"#utility.yul\":4278:4282   */\n      0x24\n        /* \"#utility.yul\":4275:4276   */\n      0x00\n        /* \"#utility.yul\":4268:4283   */\n      revert\n        /* \"#utility.yul\":4295:4413   */\n    tag_247:\n        /* \"#utility.yul\":4381:4382   */\n      0x04\n        /* \"#utility.yul\":4374:4379   */\n      dup2\n        /* \"#utility.yul\":4371:4383   */\n      lt\n        /* \"#utility.yul\":4361:4407   */\n      tag_351\n      jumpi\n        /* \"#utility.yul\":4387:4405   */\n      tag_352\n      tag_72\n      jump\t// in\n    tag_352:\n        /* \"#utility.yul\":4361:4407   */\n    tag_351:\n        /* \"#utility.yul\":4295:4413   */\n      pop\n      jump\t// out\n        /* \"#utility.yul\":4419:4556   */\n    tag_248:\n        /* \"#utility.yul\":4469:4476   */\n      0x00\n        /* \"#utility.yul\":4498:4503   */\n      dup2\n        /* \"#utility.yul\":4487:4503   */\n      swap1\n      pop\n        /* \"#utility.yul\":4504:4550   */\n      tag_354\n        /* \"#utility.yul\":4544:4549   */\n      dup3\n        /* \"#utility.yul\":4504:4550   */\n      tag_247\n      jump\t// in\n    tag_354:\n        /* \"#utility.yul\":4419:4556   */\n      swap2\n      swap1\n      pop\n      jump\t// out\n        /* \"#utility.yul\":4562:4699   */\n    tag_249:\n        /* \"#utility.yul\":4623:4632   */\n      0x00\n        /* \"#utility.yul\":4656:4693   */\n      tag_356\n        /* \"#utility.yul\":4687:4692   */\n      dup3\n        /* \"#utility.yul\":4656:4693   */\n      tag_248\n      jump\t// in\n    tag_356:\n        /* \"#utility.yul\":4643:4693   */\n      swap1\n      pop\n        /* \"#utility.yul\":4562:4699   */\n      swap2\n      swap1\n      pop\n      jump\t// out\n        /* \"#utility.yul\":4705:4858   */\n    tag_250:\n        /* \"#utility.yul\":4803:4851   */\n      tag_358\n        /* \"#utility.yul\":4845:4850   */\n      dup2\n        /* \"#utility.yul\":4803:4851   */\n      tag_249\n      jump\t// in\n    tag_358:\n        /* \"#utility.yul\":4798:4801   */\n      dup3\n        /* \"#utility.yul\":4791:4852   */\n      mstore\n        /* \"#utility.yul\":4705:4858   */\n      pop\n      pop\n      jump\t// out\n        /* \"#utility.yul\":4864:4982   */\n    tag_251:\n        /* \"#utility.yul\":4951:4975   */\n      tag_360\n        /* \"#utility.yul\":4969:4974   */\n      dup2\n        /* \"#utility.yul\":4951:4975   */\n      tag_239\n      jump\t// in\n    tag_360:\n        /* \"#utility.yul\":4946:4949   */\n      dup3\n        /* \"#utility.yul\":4939:4976   */\n      mstore\n        /* \"#utility.yul\":4864:4982   */\n      pop\n      pop\n      jump\t// out\n        /* \"#utility.yul\":4988:5785   */\n    tag_47:\n        /* \"#utility.yul\":5232:5236   */\n      0x00\n        /* \"#utility.yul\":5270:5273   */\n      0xc0\n        /* \"#utility.yul\":5259:5268   */\n      dup3\n        /* \"#utility.yul\":5255:5274   */\n      add\n        /* \"#utility.yul\":5247:5274   */\n      swap1\n      pop\n        /* \"#utility.yul\":5284:5366   */\n      tag_362\n        /* \"#utility.yul\":5363:5364   */\n      0x00\n        /* \"#utility.yul\":5352:5361   */\n      dup4\n        /* \"#utility.yul\":5348:5365   */\n      add\n        /* \"#utility.yul\":5339:5345   */\n      dup10\n        /* \"#utility.yul\":5284:5366   */\n      tag_250\n      jump\t// in\n    tag_362:\n        /* \"#utility.yul\":5376:5448   */\n      tag_363\n        /* \"#utility.yul\":5444:5446   */\n      0x20\n        /* \"#utility.yul\":5433:5442   */\n      dup4\n        /* \"#utility.yul\":5429:5447   */\n      add\n        /* \"#utility.yul\":5420:5426   */\n      dup9\n        /* \"#utility.yul\":5376:5448   */\n      tag_251\n      jump\t// in\n    tag_363:\n        /* \"#utility.yul\":5458:5530   */\n      tag_364\n        /* \"#utility.yul\":5526:5528   */\n      0x40\n        /* \"#utility.yul\":5515:5524   */\n      dup4\n        /* \"#utility.yul\":5511:5529   */\n      add\n        /* \"#utility.yul\":5502:5508   */\n      dup8\n        /* \"#utility.yul\":5458:5530   */\n      tag_251\n      jump\t// in\n    tag_364:\n        /* \"#utility.yul\":5540:5612   */\n      tag_365\n        /* \"#utility.yul\":5608:5610   */\n      0x60\n        /* \"#utility.yul\":5597:5606   */\n      dup4\n        /* \"#utility.yul\":5593:5611   */\n      add\n        /* \"#utility.yul\":5584:5590   */\n      dup7\n        /* \"#utility.yul\":5540:5612   */\n      tag_251\n      jump\t// in\n    tag_365:\n        /* \"#utility.yul\":5622:5695   */\n      tag_366\n        /* \"#utility.yul\":5690:5693   */\n      0x80\n        /* \"#utility.yul\":5679:5688   */\n      dup4\n        /* \"#utility.yul\":5675:5694   */\n      add\n        /* \"#utility.yul\":5666:5672   */\n      dup6\n        /* \"#utility.yul\":5622:5695   */\n      tag_251\n      jump\t// in\n    tag_366:\n        /* \"#utility.yul\":5705:5778   */\n      tag_367\n        /* \"#utility.yul\":5773:5776   */\n      0xa0\n        /* \"#utility.yul\":5762:5771   */\n      dup4\n        /* \"#utility.yul\":5758:5777   */\n      add\n        /* \"#utility.yul\":5749:5755   */\n      dup5\n        /* \"#utility.yul\":5705:5778   */\n      tag_251\n      jump\t// in\n    tag_367:\n        /* \"#utility.yul\":4988:5785   */\n      swap8\n      swap7\n      pop\n      pop\n      pop\n      pop\n      pop\n      pop\n      pop\n      jump\t// out\n        /* \"#utility.yul\":5791:5971   */\n    tag_252:\n        /* \"#utility.yul\":5839:5916   */\n      0x4e487b7100000000000000000000000000000000000000000000000000000000\n        /* \"#utility.yul\":5836:5837   */\n      0x00\n        /* \"#utility.yul\":5829:5917   */\n      mstore\n        /* \"#utility.yul\":5936:5940   */\n      0x22\n        /* \"#utility.yul\":5933:5934   */\n      0x04\n        /* \"#utility.yul\":5926:5941   */\n      mstore\n        /* \"#utility.yul\":5960:5964   */\n      0x24\n        /* \"#utility.yul\":5957:5958   */\n      0x00\n        /* \"#utility.yul\":5950:5965   */\n      revert\n        /* \"#utility.yul\":5977:6297   */\n    tag_55:\n        /* \"#utility.yul\":6021:6027   */\n      0x00\n        /* \"#utility.yul\":6058:6059   */\n      0x02\n        /* \"#utility.yul\":6052:6056   */\n      dup3\n        /* \"#utility.yul\":6048:6060   */\n      div\n        /* \"#utility.yul\":6038:6060   */\n      swap1\n      pop\n        /* \"#utility.yul\":6105:6106   */\n      0x01\n        /* \"#utility.yul\":6099:6103   */\n      dup3\n        /* \"#utility.yul\":6095:6107   */\n      and\n        /* \"#utility.yul\":6126:6144   */\n      dup1\n        /* \"#utility.yul\":6116:6197   */\n      tag_370\n      jumpi\n        /* \"#utility.yul\":6182:6186   */\n      0x7f\n        /* \"#utility.yul\":6174:6180   */\n      dup3\n        /* \"#utility.yul\":6170:6187   */\n      and\n        /* \"#utility.yul\":6160:6187   */\n      swap2\n      pop\n        /* \"#utility.yul\":6116:6197   */\n    tag_370:\n        /* \"#utility.yul\":6244:6246   */\n      0x20\n        /* \"#utility.yul\":6236:6242   */\n      dup3\n        /* \"#utility.yul\":6233:6247   */\n      lt\n        /* \"#utility.yul\":6213:6231   */\n      dup2\n        /* \"#utility.yul\":6210:6248   */\n      sub\n        /* \"#utility.yul\":6207:6291   */\n      tag_371\n      jumpi\n        /* \"#utility.yul\":6263:6281   */\n      tag_372\n      tag_252\n      jump\t// in\n    tag_372:\n        /* \"#utility.yul\":6207:6291   */\n    tag_371:\n        /* \"#utility.yul\":6028:6297   */\n      pop\n        /* \"#utility.yul\":5977:6297   */\n      swap2\n      swap1\n      pop\n      jump\t// out\n        /* \"#utility.yul\":6303:6532   */\n    tag_253:\n        /* \"#utility.yul\":6443:6477   */\n      0x4f6e6c79206f776e6572206f722074656e656e742063616e20756e7369676e20\n        /* \"#utility.yul\":6439:6440   */\n      0x00\n        /* \"#utility.yul\":6431:6437   */\n      dup3\n        /* \"#utility.yul\":6427:6441   */\n      add\n        /* \"#utility.yul\":6420:6478   */\n      mstore\n        /* \"#utility.yul\":6512:6524   */\n      0x61677265656d656e742e00000000000000000000000000000000000000000000\n        /* \"#utility.yul\":6507:6509   */\n      0x20\n        /* \"#utility.yul\":6499:6505   */\n      dup3\n        /* \"#utility.yul\":6495:6510   */\n      add\n        /* \"#utility.yul\":6488:6525   */\n      mstore\n        /* \"#utility.yul\":6303:6532   */\n      pop\n      jump\t// out\n        /* \"#utility.yul\":6538:6904   */\n    tag_254:\n        /* \"#utility.yul\":6680:6683   */\n      0x00\n        /* \"#utility.yul\":6701:6768   */\n      tag_375\n        /* \"#utility.yul\":6765:6767   */\n      0x2a\n        /* \"#utility.yul\":6760:6763   */\n      dup4\n        /* \"#utility.yul\":6701:6768   */\n      tag_232\n      jump\t// in\n    tag_375:\n        /* \"#utility.yul\":6694:6768   */\n      swap2\n      pop\n        /* \"#utility.yul\":6777:6870   */\n      tag_376\n        /* \"#utility.yul\":6866:6869   */\n      dup3\n        /* \"#utility.yul\":6777:6870   */\n      tag_253\n      jump\t// in\n    tag_376:\n        /* \"#utility.yul\":6895:6897   */\n      0x40\n        /* \"#utility.yul\":6890:6893   */\n      dup3\n        /* \"#utility.yul\":6886:6898   */\n      add\n        /* \"#utility.yul\":6879:6898   */\n      swap1\n      pop\n        /* \"#utility.yul\":6538:6904   */\n      swap2\n      swap1\n      pop\n      jump\t// out\n        /* \"#utility.yul\":6910:7329   */\n    tag_69:\n        /* \"#utility.yul\":7076:7080   */\n      0x00\n        /* \"#utility.yul\":7114:7116   */\n      0x20\n        /* \"#utility.yul\":7103:7112   */\n      dup3\n        /* \"#utility.yul\":7099:7117   */\n      add\n        /* \"#utility.yul\":7091:7117   */\n      swap1\n      pop\n        /* \"#utility.yul\":7163:7172   */\n      dup2\n        /* \"#utility.yul\":7157:7161   */\n      dup2\n        /* \"#utility.yul\":7153:7173   */\n      sub\n        /* \"#utility.yul\":7149:7150   */\n      0x00\n        /* \"#utility.yul\":7138:7147   */\n      dup4\n        /* \"#utility.yul\":7134:7151   */\n      add\n        /* \"#utility.yul\":7127:7174   */\n      mstore\n        /* \"#utility.yul\":7191:7322   */\n      tag_378\n        /* \"#utility.yul\":7317:7321   */\n      dup2\n        /* \"#utility.yul\":7191:7322   */\n      tag_254\n      jump\t// in\n    tag_378:\n        /* \"#utility.yul\":7183:7322   */\n      swap1\n      pop\n        /* \"#utility.yul\":6910:7329   */\n      swap2\n      swap1\n      pop\n      jump\t// out\n        /* \"#utility.yul\":7335:7556   */\n    tag_255:\n        /* \"#utility.yul\":7475:7509   */\n      0x546865206c656173652073686f756c64206e6f74206861766520616374697665\n        /* \"#utility.yul\":7471:7472   */\n      0x00\n        /* \"#utility.yul\":7463:7469   */\n      dup3\n        /* \"#utility.yul\":7459:7473   */\n      add\n        /* \"#utility.yul\":7452:7510   */\n      mstore\n        /* \"#utility.yul\":7544:7548   */\n      0x642e000000000000000000000000000000000000000000000000000000000000\n        /* \"#utility.yul\":7539:7541   */\n      0x20\n        /* \"#utility.yul\":7531:7537   */\n      dup3\n        /* \"#utility.yul\":7527:7542   */\n      add\n        /* \"#utility.yul\":7520:7549   */\n      mstore\n        /* \"#utility.yul\":7335:7556   */\n      pop\n      jump\t// out\n        /* \"#utility.yul\":7562:7928   */\n    tag_256:\n        /* \"#utility.yul\":7704:7707   */\n      0x00\n        /* \"#utility.yul\":7725:7792   */\n      tag_381\n        /* \"#utility.yul\":7789:7791   */\n      0x22\n        /* \"#utility.yul\":7784:7787   */\n      dup4\n        /* \"#utility.yul\":7725:7792   */\n      tag_232\n      jump\t// in\n    tag_381:\n        /* \"#utility.yul\":7718:7792   */\n      swap2\n      pop\n        /* \"#utility.yul\":7801:7894   */\n      tag_382\n        /* \"#utility.yul\":7890:7893   */\n      dup3\n        /* \"#utility.yul\":7801:7894   */\n      tag_255\n      jump\t// in\n    tag_382:\n        /* \"#utility.yul\":7919:7921   */\n      0x40\n        /* \"#utility.yul\":7914:7917   */\n      dup3\n        /* \"#utility.yul\":7910:7922   */\n      add\n        /* \"#utility.yul\":7903:7922   */\n      swap1\n      pop\n        /* \"#utility.yul\":7562:7928   */\n      swap2\n      swap1\n      pop\n      jump\t// out\n        /* \"#utility.yul\":7934:8353   */\n    tag_82:\n        /* \"#utility.yul\":8100:8104   */\n      0x00\n        /* \"#utility.yul\":8138:8140   */\n      0x20\n        /* \"#utility.yul\":8127:8136   */\n      dup3\n        /* \"#utility.yul\":8123:8141   */\n      add\n        /* \"#utility.yul\":8115:8141   */\n      swap1\n      pop\n        /* \"#utility.yul\":8187:8196   */\n      dup2\n        /* \"#utility.yul\":8181:8185   */\n      dup2\n        /* \"#utility.yul\":8177:8197   */\n      sub\n        /* \"#utility.yul\":8173:8174   */\n      0x00\n        /* \"#utility.yul\":8162:8171   */\n      dup4\n        /* \"#utility.yul\":8158:8175   */\n      add\n        /* \"#utility.yul\":8151:8198   */\n      mstore\n        /* \"#utility.yul\":8215:8346   */\n      tag_384\n        /* \"#utility.yul\":8341:8345   */\n      dup2\n        /* \"#utility.yul\":8215:8346   */\n      tag_256\n      jump\t// in\n    tag_384:\n        /* \"#utility.yul\":8207:8346   */\n      swap1\n      pop\n        /* \"#utility.yul\":7934:8353   */\n      swap2\n      swap1\n      pop\n      jump\t// out\n        /* \"#utility.yul\":8359:8588   */\n    tag_257:\n        /* \"#utility.yul\":8499:8533   */\n      0x4c616e646c6f726420686173206e6f74207369676e6564207468652061677265\n        /* \"#utility.yul\":8495:8496   */\n      0x00\n        /* \"#utility.yul\":8487:8493   */\n      dup3\n        /* \"#utility.yul\":8483:8497   */\n      add\n        /* \"#utility.yul\":8476:8534   */\n      mstore\n        /* \"#utility.yul\":8568:8580   */\n      0x656d656e74207965742e00000000000000000000000000000000000000000000\n        /* \"#utility.yul\":8563:8565   */\n      0x20\n        /* \"#utility.yul\":8555:8561   */\n      dup3\n        /* \"#utility.yul\":8551:8566   */\n      add\n        /* \"#utility.yul\":8544:8581   */\n      mstore\n        /* \"#utility.yul\":8359:8588   */\n      pop\n      jump\t// out\n        /* \"#utility.yul\":8594:8960   */\n    tag_258:\n        /* \"#utility.yul\":8736:8739   */\n      0x00\n        /* \"#utility.yul\":8757:8824   */\n      tag_387\n        /* \"#utility.yul\":8821:8823   */\n      0x2a\n        /* \"#utility.yul\":8816:8819   */\n      dup4\n        /* \"#utility.yul\":8757:8824   */\n      tag_232\n      jump\t// in\n    tag_387:\n        /* \"#utility.yul\":8750:8824   */\n      swap2\n      pop\n        /* \"#utility.yul\":8833:8926   */\n      tag_388\n        /* \"#utility.yul\":8922:8925   */\n      dup3\n        /* \"#utility.yul\":8833:8926   */\n      tag_257\n      jump\t// in\n    tag_388:\n        /* \"#utility.yul\":8951:8953   */\n      0x40\n        /* \"#utility.yul\":8946:8949   */\n      dup3\n        /* \"#utility.yul\":8942:8954   */\n      add\n        /* \"#utility.yul\":8935:8954   */\n      swap1\n      pop\n        /* \"#utility.yul\":8594:8960   */\n      swap2\n      swap1\n      pop\n      jump\t// out\n        /* \"#utility.yul\":8966:9385   */\n    tag_86:\n        /* \"#utility.yul\":9132:9136   */\n      0x00\n        /* \"#utility.yul\":9170:9172   */\n      0x20\n        /* \"#utility.yul\":9159:9168   */\n      dup3\n        /* \"#utility.yul\":9155:9173   */\n      add\n        /* \"#utility.yul\":9147:9173   */\n      swap1\n      pop\n        /* \"#utility.yul\":9219:9228   */\n      dup2\n        /* \"#utility.yul\":9213:9217   */\n      dup2\n        /* \"#utility.yul\":9209:9229   */\n      sub\n        /* \"#utility.yul\":9205:9206   */\n      0x00\n        /* \"#utility.yul\":9194:9203   */\n      dup4\n        /* \"#utility.yul\":9190:9207   */\n      add\n        /* \"#utility.yul\":9183:9230   */\n      mstore\n        /* \"#utility.yul\":9247:9378   */\n      tag_390\n        /* \"#utility.yul\":9373:9377   */\n      dup2\n        /* \"#utility.yul\":9247:9378   */\n      tag_258\n      jump\t// in\n    tag_390:\n        /* \"#utility.yul\":9239:9378   */\n      swap1\n      pop\n        /* \"#utility.yul\":8966:9385   */\n      swap2\n      swap1\n      pop\n      jump\t// out\n        /* \"#utility.yul\":9391:9618   */\n    tag_259:\n        /* \"#utility.yul\":9531:9565   */\n      0x54656e616e7420686173206e6f74207369676e6564207468652061677265656d\n        /* \"#utility.yul\":9527:9528   */\n      0x00\n        /* \"#utility.yul\":9519:9525   */\n      dup3\n        /* \"#utility.yul\":9515:9529   */\n      add\n        /* \"#utility.yul\":9508:9566   */\n      mstore\n        /* \"#utility.yul\":9600:9610   */\n      0x656e74207965742e000000000000000000000000000000000000000000000000\n        /* \"#utility.yul\":9595:9597   */\n      0x20\n        /* \"#utility.yul\":9587:9593   */\n      dup3\n        /* \"#utility.yul\":9583:9598   */\n      add\n        /* \"#utility.yul\":9576:9611   */\n      mstore\n        /* \"#utility.yul\":9391:9618   */\n      pop\n      jump\t// out\n        /* \"#utility.yul\":9624:9990   */\n    tag_260:\n        /* \"#utility.yul\":9766:9769   */\n      0x00\n        /* \"#utility.yul\":9787:9854   */\n      tag_393\n        /* \"#utility.yul\":9851:9853   */\n      0x28\n        /* \"#utility.yul\":9846:9849   */\n      dup4\n        /* \"#utility.yul\":9787:9854   */\n      tag_232\n      jump\t// in\n    tag_393:\n        /* \"#utility.yul\":9780:9854   */\n      swap2\n      pop\n        /* \"#utility.yul\":9863:9956   */\n      tag_394\n        /* \"#utility.yul\":9952:9955   */\n      dup3\n        /* \"#utility.yul\":9863:9956   */\n      tag_259\n      jump\t// in\n    tag_394:\n        /* \"#utility.yul\":9981:9983   */\n      0x40\n        /* \"#utility.yul\":9976:9979   */\n      dup3\n        /* \"#utility.yul\":9972:9984   */\n      add\n        /* \"#utility.yul\":9965:9984   */\n      swap1\n      pop\n        /* \"#utility.yul\":9624:9990   */\n      swap2\n      swap1\n      pop\n      jump\t// out\n        /* \"#utility.yul\":9996:10415   */\n    tag_90:\n        /* \"#utility.yul\":10162:10166   */\n      0x00\n        /* \"#utility.yul\":10200:10202   */\n      0x20\n        /* \"#utility.yul\":10189:10198   */\n      dup3\n        /* \"#utility.yul\":10185:10203   */\n      add\n        /* \"#utility.yul\":10177:10203   */\n      swap1\n      pop\n        /* \"#utility.yul\":10249:10258   */\n      dup2\n        /* \"#utility.yul\":10243:10247   */\n      dup2\n        /* \"#utility.yul\":10239:10259   */\n      sub\n        /* \"#utility.yul\":10235:10236   */\n      0x00\n        /* \"#utility.yul\":10224:10233   */\n      dup4\n        /* \"#utility.yul\":10220:10237   */\n      add\n        /* \"#utility.yul\":10213:10260   */\n      mstore\n        /* \"#utility.yul\":10277:10408   */\n      tag_396\n        /* \"#utility.yul\":10403:10407   */\n      dup2\n        /* \"#utility.yul\":10277:10408   */\n      tag_260\n      jump\t// in\n    tag_396:\n        /* \"#utility.yul\":10269:10408   */\n      swap1\n      pop\n        /* \"#utility.yul\":9996:10415   */\n      swap2\n      swap1\n      pop\n      jump\t// out\n        /* \"#utility.yul\":10421:10645   */\n    tag_261:\n        /* \"#utility.yul\":10561:10595   */\n      0x4f6e6c79207468652074656e656e742063616e2063686f6f736520746f207661\n        /* \"#utility.yul\":10557:10558   */\n      0x00\n        /* \"#utility.yul\":10549:10555   */\n      dup3\n        /* \"#utility.yul\":10545:10559   */\n      add\n        /* \"#utility.yul\":10538:10596   */\n      mstore\n        /* \"#utility.yul\":10630:10637   */\n      0x636174652e000000000000000000000000000000000000000000000000000000\n        /* \"#utility.yul\":10625:10627   */\n      0x20\n        /* \"#utility.yul\":10617:10623   */\n      dup3\n        /* \"#utility.yul\":10613:10628   */\n      add\n        /* \"#utility.yul\":10606:10638   */\n      mstore\n        /* \"#utility.yul\":10421:10645   */\n      pop\n      jump\t// out\n        /* \"#utility.yul\":10651:11017   */\n    tag_262:\n        /* \"#utility.yul\":10793:10796   */\n      0x00\n        /* \"#utility.yul\":10814:10881   */\n      tag_399\n        /* \"#utility.yul\":10878:10880   */\n      0x25\n        /* \"#utility.yul\":10873:10876   */\n      dup4\n        /* \"#utility.yul\":10814:10881   */\n      tag_232\n      jump\t// in\n    tag_399:\n        /* \"#utility.yul\":10807:10881   */\n      swap2\n      pop\n        /* \"#utility.yul\":10890:10983   */\n      tag_400\n        /* \"#utility.yul\":10979:10982   */\n      dup3\n        /* \"#utility.yul\":10890:10983   */\n      tag_261\n      jump\t// in\n    tag_400:\n        /* \"#utility.yul\":11008:11010   */\n      0x40\n        /* \"#utility.yul\":11003:11006   */\n      dup3\n        /* \"#utility.yul\":10999:11011   */\n      add\n        /* \"#utility.yul\":10992:11011   */\n      swap1\n      pop\n        /* \"#utility.yul\":10651:11017   */\n      swap2\n      swap1\n      pop\n      jump\t// out\n        /* \"#utility.yul\":11023:11442   */\n    tag_98:\n        /* \"#utility.yul\":11189:11193   */\n      0x00\n        /* \"#utility.yul\":11227:11229   */\n      0x20\n        /* \"#utility.yul\":11216:11225   */\n      dup3\n        /* \"#utility.yul\":11212:11230   */\n      add\n        /* \"#utility.yul\":11204:11230   */\n      swap1\n      pop\n        /* \"#utility.yul\":11276:11285   */\n      dup2\n        /* \"#utility.yul\":11270:11274   */\n      dup2\n        /* \"#utility.yul\":11266:11286   */\n      sub\n        /* \"#utility.yul\":11262:11263   */\n      0x00\n        /* \"#utility.yul\":11251:11260   */\n      dup4\n        /* \"#utility.yul\":11247:11264   */\n      add\n        /* \"#utility.yul\":11240:11287   */\n      mstore\n        /* \"#utility.yul\":11304:11435   */\n      tag_402\n        /* \"#utility.yul\":11430:11434   */\n      dup2\n        /* \"#utility.yul\":11304:11435   */\n      tag_262\n      jump\t// in\n    tag_402:\n        /* \"#utility.yul\":11296:11435   */\n      swap1\n      pop\n        /* \"#utility.yul\":11023:11442   */\n      swap2\n      swap1\n      pop\n      jump\t// out\n        /* \"#utility.yul\":11448:11686   */\n    tag_263:\n        /* \"#utility.yul\":11588:11622   */\n      0x546865206c656173652073686f756c642062652061637469766520746f207374\n        /* \"#utility.yul\":11584:11585   */\n      0x00\n        /* \"#utility.yul\":11576:11582   */\n      dup3\n        /* \"#utility.yul\":11572:11586   */\n      add\n        /* \"#utility.yul\":11565:11623   */\n      mstore\n        /* \"#utility.yul\":11657:11678   */\n      0x617274207661636174652070726f636573732e00000000000000000000000000\n        /* \"#utility.yul\":11652:11654   */\n      0x20\n        /* \"#utility.yul\":11644:11650   */\n      dup3\n        /* \"#utility.yul\":11640:11655   */\n      add\n        /* \"#utility.yul\":11633:11679   */\n      mstore\n        /* \"#utility.yul\":11448:11686   */\n      pop\n      jump\t// out\n        /* \"#utility.yul\":11692:12058   */\n    tag_264:\n        /* \"#utility.yul\":11834:11837   */\n      0x00\n        /* \"#utility.yul\":11855:11922   */\n      tag_405\n        /* \"#utility.yul\":11919:11921   */\n      0x33\n        /* \"#utility.yul\":11914:11917   */\n      dup4\n        /* \"#utility.yul\":11855:11922   */\n      tag_232\n      jump\t// in\n    tag_405:\n        /* \"#utility.yul\":11848:11922   */\n      swap2\n      pop\n        /* \"#utility.yul\":11931:12024   */\n      tag_406\n        /* \"#utility.yul\":12020:12023   */\n      dup3\n        /* \"#utility.yul\":11931:12024   */\n      tag_263\n      jump\t// in\n    tag_406:\n        /* \"#utility.yul\":12049:12051   */\n      0x40\n        /* \"#utility.yul\":12044:12047   */\n      dup3\n        /* \"#utility.yul\":12040:12052   */\n      add\n        /* \"#utility.yul\":12033:12052   */\n      swap1\n      pop\n        /* \"#utility.yul\":11692:12058   */\n      swap2\n      swap1\n      pop\n      jump\t// out\n        /* \"#utility.yul\":12064:12483   */\n    tag_105:\n        /* \"#utility.yul\":12230:12234   */\n      0x00\n        /* \"#utility.yul\":12268:12270   */\n      0x20\n        /* \"#utility.yul\":12257:12266   */\n      dup3\n        /* \"#utility.yul\":12253:12271   */\n      add\n        /* \"#utility.yul\":12245:12271   */\n      swap1\n      pop\n        /* \"#utility.yul\":12317:12326   */\n      dup2\n        /* \"#utility.yul\":12311:12315   */\n      dup2\n        /* \"#utility.yul\":12307:12327   */\n      sub\n        /* \"#utility.yul\":12303:12304   */\n      0x00\n        /* \"#utility.yul\":12292:12301   */\n      dup4\n        /* \"#utility.yul\":12288:12305   */\n      add\n        /* \"#utility.yul\":12281:12328   */\n      mstore\n        /* \"#utility.yul\":12345:12476   */\n      tag_408\n        /* \"#utility.yul\":12471:12475   */\n      dup2\n        /* \"#utility.yul\":12345:12476   */\n      tag_264\n      jump\t// in\n    tag_408:\n        /* \"#utility.yul\":12337:12476   */\n      swap1\n      pop\n        /* \"#utility.yul\":12064:12483   */\n      swap2\n      swap1\n      pop\n      jump\t// out\n        /* \"#utility.yul\":12489:12713   */\n    tag_265:\n        /* \"#utility.yul\":12629:12663   */\n      0x546865206c65617365207465726d20686173206e6f742079657420636f6d706c\n        /* \"#utility.yul\":12625:12626   */\n      0x00\n        /* \"#utility.yul\":12617:12623   */\n      dup3\n        /* \"#utility.yul\":12613:12627   */\n      add\n        /* \"#utility.yul\":12606:12664   */\n      mstore\n        /* \"#utility.yul\":12698:12705   */\n      0x657465642e000000000000000000000000000000000000000000000000000000\n        /* \"#utility.yul\":12693:12695   */\n      0x20\n        /* \"#utility.yul\":12685:12691   */\n      dup3\n        /* \"#utility.yul\":12681:12696   */\n      add\n        /* \"#utility.yul\":12674:12706   */\n      mstore\n        /* \"#utility.yul\":12489:12713   */\n      pop\n      jump\t// out\n        /* \"#utility.yul\":12719:13085   */\n    tag_266:\n        /* \"#utility.yul\":12861:12864   */\n      0x00\n        /* \"#utility.yul\":12882:12949   */\n      tag_411\n        /* \"#utility.yul\":12946:12948   */\n      0x25\n        /* \"#utility.yul\":12941:12944   */\n      dup4\n        /* \"#utility.yul\":12882:12949   */\n      tag_232\n      jump\t// in\n    tag_411:\n        /* \"#utility.yul\":12875:12949   */\n      swap2\n      pop\n        /* \"#utility.yul\":12958:13051   */\n      tag_412\n        /* \"#utility.yul\":13047:13050   */\n      dup3\n        /* \"#utility.yul\":12958:13051   */\n      tag_265\n      jump\t// in\n    tag_412:\n        /* \"#utility.yul\":13076:13078   */\n      0x40\n        /* \"#utility.yul\":13071:13074   */\n      dup3\n        /* \"#utility.yul\":13067:13079   */\n      add\n        /* \"#utility.yul\":13060:13079   */\n      swap1\n      pop\n        /* \"#utility.yul\":12719:13085   */\n      swap2\n      swap1\n      pop\n      jump\t// out\n        /* \"#utility.yul\":13091:13510   */\n    tag_108:\n        /* \"#utility.yul\":13257:13261   */\n      0x00\n        /* \"#utility.yul\":13295:13297   */\n      0x20\n        /* \"#utility.yul\":13284:13293   */\n      dup3\n        /* \"#utility.yul\":13280:13298   */\n      add\n        /* \"#utility.yul\":13272:13298   */\n      swap1\n      pop\n        /* \"#utility.yul\":13344:13353   */\n      dup2\n        /* \"#utility.yul\":13338:13342   */\n      dup2\n        /* \"#utility.yul\":13334:13354   */\n      sub\n        /* \"#utility.yul\":13330:13331   */\n      0x00\n        /* \"#utility.yul\":13319:13328   */\n      dup4\n        /* \"#utility.yul\":13315:13332   */\n      add\n        /* \"#utility.yul\":13308:13355   */\n      mstore\n        /* \"#utility.yul\":13372:13503   */\n      tag_414\n        /* \"#utility.yul\":13498:13502   */\n      dup2\n        /* \"#utility.yul\":13372:13503   */\n      tag_266\n      jump\t// in\n    tag_414:\n        /* \"#utility.yul\":13364:13503   */\n      swap1\n      pop\n        /* \"#utility.yul\":13091:13510   */\n      swap2\n      swap1\n      pop\n      jump\t// out\n        /* \"#utility.yul\":13516:13738   */\n    tag_267:\n        /* \"#utility.yul\":13656:13690   */\n      0x4f6e6c79206f776e6572206f722074656e656e742063616e2073657420746572\n        /* \"#utility.yul\":13652:13653   */\n      0x00\n        /* \"#utility.yul\":13644:13650   */\n      dup3\n        /* \"#utility.yul\":13640:13654   */\n      add\n        /* \"#utility.yul\":13633:13691   */\n      mstore\n        /* \"#utility.yul\":13725:13730   */\n      0x6d732e0000000000000000000000000000000000000000000000000000000000\n        /* \"#utility.yul\":13720:13722   */\n      0x20\n        /* \"#utility.yul\":13712:13718   */\n      dup3\n        /* \"#utility.yul\":13708:13723   */\n      add\n        /* \"#utility.yul\":13701:13731   */\n      mstore\n        /* \"#utility.yul\":13516:13738   */\n      pop\n      jump\t// out\n        /* \"#utility.yul\":13744:14110   */\n    tag_268:\n        /* \"#utility.yul\":13886:13889   */\n      0x00\n        /* \"#utility.yul\":13907:13974   */\n      tag_417\n        /* \"#utility.yul\":13971:13973   */\n      0x23\n        /* \"#utility.yul\":13966:13969   */\n      dup4\n        /* \"#utility.yul\":13907:13974   */\n      tag_232\n      jump\t// in\n    tag_417:\n        /* \"#utility.yul\":13900:13974   */\n      swap2\n      pop\n        /* \"#utility.yul\":13983:14076   */\n      tag_418\n        /* \"#utility.yul\":14072:14075   */\n      dup3\n        /* \"#utility.yul\":13983:14076   */\n      tag_267\n      jump\t// in\n    tag_418:\n        /* \"#utility.yul\":14101:14103   */\n      0x40\n        /* \"#utility.yul\":14096:14099   */\n      dup3\n        /* \"#utility.yul\":14092:14104   */\n      add\n        /* \"#utility.yul\":14085:14104   */\n      swap1\n      pop\n        /* \"#utility.yul\":13744:14110   */\n      swap2\n      swap1\n      pop\n      jump\t// out\n        /* \"#utility.yul\":14116:14535   */\n    tag_117:\n        /* \"#utility.yul\":14282:14286   */\n      0x00\n        /* \"#utility.yul\":14320:14322   */\n      0x20\n        /* \"#utility.yul\":14309:14318   */\n      dup3\n        /* \"#utility.yul\":14305:14323   */\n      add\n        /* \"#utility.yul\":14297:14323   */\n      swap1\n      pop\n        /* \"#utility.yul\":14369:14378   */\n      dup2\n        /* \"#utility.yul\":14363:14367   */\n      dup2\n        /* \"#utility.yul\":14359:14379   */\n      sub\n        /* \"#utility.yul\":14355:14356   */\n      0x00\n        /* \"#utility.yul\":14344:14353   */\n      dup4\n        /* \"#utility.yul\":14340:14357   */\n      add\n        /* \"#utility.yul\":14333:14380   */\n      mstore\n        /* \"#utility.yul\":14397:14528   */\n      tag_420\n        /* \"#utility.yul\":14523:14527   */\n      dup2\n        /* \"#utility.yul\":14397:14528   */\n      tag_268\n      jump\t// in\n    tag_420:\n        /* \"#utility.yul\":14389:14528   */\n      swap1\n      pop\n        /* \"#utility.yul\":14116:14535   */\n      swap2\n      swap1\n      pop\n      jump\t// out\n        /* \"#utility.yul\":14541:14779   */\n    tag_269:\n        /* \"#utility.yul\":14681:14715   */\n      0x546865206c656173652068617320746f20626520696e20696e61637469766520\n        /* \"#utility.yul\":14677:14678   */\n      0x00\n        /* \"#utility.yul\":14669:14675   */\n      dup3\n        /* \"#utility.yul\":14665:14679   */\n      add\n        /* \"#utility.yul\":14658:14716   */\n      mstore\n        /* \"#utility.yul\":14750:14771   */\n      0x737461746520746f20736574207465726d732e00000000000000000000000000\n        /* \"#utility.yul\":14745:14747   */\n      0x20\n        /* \"#utility.yul\":14737:14743   */\n      dup3\n        /* \"#utility.yul\":14733:14748   */\n      add\n        /* \"#utility.yul\":14726:14772   */\n      mstore\n        /* \"#utility.yul\":14541:14779   */\n      pop\n      jump\t// out\n        /* \"#utility.yul\":14785:15151   */\n    tag_270:\n        /* \"#utility.yul\":14927:14930   */\n      0x00\n        /* \"#utility.yul\":14948:15015   */\n      tag_423\n        /* \"#utility.yul\":15012:15014   */\n      0x33\n        /* \"#utility.yul\":15007:15010   */\n      dup4\n        /* \"#utility.yul\":14948:15015   */\n      tag_232\n      jump\t// in\n    tag_423:\n        /* \"#utility.yul\":14941:15015   */\n      swap2\n      pop\n        /* \"#utility.yul\":15024:15117   */\n      tag_424\n        /* \"#utility.yul\":15113:15116   */\n      dup3\n        /* \"#utility.yul\":15024:15117   */\n      tag_269\n      jump\t// in\n    tag_424:\n        /* \"#utility.yul\":15142:15144   */\n      0x40\n        /* \"#utility.yul\":15137:15140   */\n      dup3\n        /* \"#utility.yul\":15133:15145   */\n      add\n        /* \"#utility.yul\":15126:15145   */\n      swap1\n      pop\n        /* \"#utility.yul\":14785:15151   */\n      swap2\n      swap1\n      pop\n      jump\t// out\n        /* \"#utility.yul\":15157:15576   */\n    tag_124:\n        /* \"#utility.yul\":15323:15327   */\n      0x00\n        /* \"#utility.yul\":15361:15363   */\n      0x20\n        /* \"#utility.yul\":15350:15359   */\n      dup3\n        /* \"#utility.yul\":15346:15364   */\n      add\n        /* \"#utility.yul\":15338:15364   */\n      swap1\n      pop\n        /* \"#utility.yul\":15410:15419   */\n      dup2\n        /* \"#utility.yul\":15404:15408   */\n      dup2\n        /* \"#utility.yul\":15400:15420   */\n      sub\n        /* \"#utility.yul\":15396:15397   */\n      0x00\n        /* \"#utility.yul\":15385:15394   */\n      dup4\n        /* \"#utility.yul\":15381:15398   */\n      add\n        /* \"#utility.yul\":15374:15421   */\n      mstore\n        /* \"#utility.yul\":15438:15569   */\n      tag_426\n        /* \"#utility.yul\":15564:15568   */\n      dup2\n        /* \"#utility.yul\":15438:15569   */\n      tag_270\n      jump\t// in\n    tag_426:\n        /* \"#utility.yul\":15430:15569   */\n      swap1\n      pop\n        /* \"#utility.yul\":15157:15576   */\n      swap2\n      swap1\n      pop\n      jump\t// out\n        /* \"#utility.yul\":15582:15758   */\n    tag_271:\n        /* \"#utility.yul\":15722:15750   */\n      0x4f6e6c792074656e656e742063616e2073656e642072656e742e000000000000\n        /* \"#utility.yul\":15718:15719   */\n      0x00\n        /* \"#utility.yul\":15710:15716   */\n      dup3\n        /* \"#utility.yul\":15706:15720   */\n      add\n        /* \"#utility.yul\":15699:15751   */\n      mstore\n        /* \"#utility.yul\":15582:15758   */\n      pop\n      jump\t// out\n        /* \"#utility.yul\":15764:16130   */\n    tag_272:\n        /* \"#utility.yul\":15906:15909   */\n      0x00\n        /* \"#utility.yul\":15927:15994   */\n      tag_429\n        /* \"#utility.yul\":15991:15993   */\n      0x1a\n        /* \"#utility.yul\":15986:15989   */\n      dup4\n        /* \"#utility.yul\":15927:15994   */\n      tag_232\n      jump\t// in\n    tag_429:\n        /* \"#utility.yul\":15920:15994   */\n      swap2\n      pop\n        /* \"#utility.yul\":16003:16096   */\n      tag_430\n        /* \"#utility.yul\":16092:16095   */\n      dup3\n        /* \"#utility.yul\":16003:16096   */\n      tag_271\n      jump\t// in\n    tag_430:\n        /* \"#utility.yul\":16121:16123   */\n      0x20\n        /* \"#utility.yul\":16116:16119   */\n      dup3\n        /* \"#utility.yul\":16112:16124   */\n      add\n        /* \"#utility.yul\":16105:16124   */\n      swap1\n      pop\n        /* \"#utility.yul\":15764:16130   */\n      swap2\n      swap1\n      pop\n      jump\t// out\n        /* \"#utility.yul\":16136:16555   */\n    tag_128:\n        /* \"#utility.yul\":16302:16306   */\n      0x00\n        /* \"#utility.yul\":16340:16342   */\n      0x20\n        /* \"#utility.yul\":16329:16338   */\n      dup3\n        /* \"#utility.yul\":16325:16343   */\n      add\n        /* \"#utility.yul\":16317:16343   */\n      swap1\n      pop\n        /* \"#utility.yul\":16389:16398   */\n      dup2\n        /* \"#utility.yul\":16383:16387   */\n      dup2\n        /* \"#utility.yul\":16379:16399   */\n      sub\n        /* \"#utility.yul\":16375:16376   */\n      0x00\n        /* \"#utility.yul\":16364:16373   */\n      dup4\n        /* \"#utility.yul\":16360:16377   */\n      add\n        /* \"#utility.yul\":16353:16400   */\n      mstore\n        /* \"#utility.yul\":16417:16548   */\n      tag_432\n        /* \"#utility.yul\":16543:16547   */\n      dup2\n        /* \"#utility.yul\":16417:16548   */\n      tag_272\n      jump\t// in\n    tag_432:\n        /* \"#utility.yul\":16409:16548   */\n      swap1\n      pop\n        /* \"#utility.yul\":16136:16555   */\n      swap2\n      swap1\n      pop\n      jump\t// out\n        /* \"#utility.yul\":16561:16788   */\n    tag_273:\n        /* \"#utility.yul\":16701:16735   */\n      0x546865206c656173652073686f756c642062652061637469766520746f207365\n        /* \"#utility.yul\":16697:16698   */\n      0x00\n        /* \"#utility.yul\":16689:16695   */\n      dup3\n        /* \"#utility.yul\":16685:16699   */\n      add\n        /* \"#utility.yul\":16678:16736   */\n      mstore\n        /* \"#utility.yul\":16770:16780   */\n      0x6e642072656e742e000000000000000000000000000000000000000000000000\n        /* \"#utility.yul\":16765:16767   */\n      0x20\n        /* \"#utility.yul\":16757:16763   */\n      dup3\n        /* \"#utility.yul\":16753:16768   */\n      add\n        /* \"#utility.yul\":16746:16781   */\n      mstore\n        /* \"#utility.yul\":16561:16788   */\n      pop\n      jump\t// out\n        /* \"#utility.yul\":16794:17160   */\n    tag_274:\n        /* \"#utility.yul\":16936:16939   */\n      0x00\n        /* \"#utility.yul\":16957:17024   */\n      tag_435\n        /* \"#utility.yul\":17021:17023   */\n      0x28\n        /* \"#utility.yul\":17016:17019   */\n      dup4\n        /* \"#utility.yul\":16957:17024   */\n      tag_232\n      jump\t// in\n    tag_435:\n        /* \"#utility.yul\":16950:17024   */\n      swap2\n      pop\n        /* \"#utility.yul\":17033:17126   */\n      tag_436\n        /* \"#utility.yul\":17122:17125   */\n      dup3\n        /* \"#utility.yul\":17033:17126   */\n      tag_273\n      jump\t// in\n    tag_436:\n        /* \"#utility.yul\":17151:17153   */\n      0x40\n        /* \"#utility.yul\":17146:17149   */\n      dup3\n        /* \"#utility.yul\":17142:17154   */\n      add\n        /* \"#utility.yul\":17135:17154   */\n      swap1\n      pop\n        /* \"#utility.yul\":16794:17160   */\n      swap2\n      swap1\n      pop\n      jump\t// out\n        /* \"#utility.yul\":17166:17585   */\n    tag_135:\n        /* \"#utility.yul\":17332:17336   */\n      0x00\n        /* \"#utility.yul\":17370:17372   */\n      0x20\n        /* \"#utility.yul\":17359:17368   */\n      dup3\n        /* \"#utility.yul\":17355:17373   */\n      add\n        /* \"#utility.yul\":17347:17373   */\n      swap1\n      pop\n        /* \"#utility.yul\":17419:17428   */\n      dup2\n        /* \"#utility.yul\":17413:17417   */\n      dup2\n        /* \"#utility.yul\":17409:17429   */\n      sub\n        /* \"#utility.yul\":17405:17406   */\n      0x00\n        /* \"#utility.yul\":17394:17403   */\n      dup4\n        /* \"#utility.yul\":17390:17407   */\n      add\n        /* \"#utility.yul\":17383:17430   */\n      mstore\n        /* \"#utility.yul\":17447:17578   */\n      tag_438\n        /* \"#utility.yul\":17573:17577   */\n      dup2\n        /* \"#utility.yul\":17447:17578   */\n      tag_274\n      jump\t// in\n    tag_438:\n        /* \"#utility.yul\":17439:17578   */\n      swap1\n      pop\n        /* \"#utility.yul\":17166:17585   */\n      swap2\n      swap1\n      pop\n      jump\t// out\n        /* \"#utility.yul\":17591:17826   */\n    tag_275:\n        /* \"#utility.yul\":17731:17765   */\n      0x546865206c65617365207465726d206973207570202d2074696d6520746f2076\n        /* \"#utility.yul\":17727:17728   */\n      0x00\n        /* \"#utility.yul\":17719:17725   */\n      dup3\n        /* \"#utility.yul\":17715:17729   */\n      add\n        /* \"#utility.yul\":17708:17766   */\n      mstore\n        /* \"#utility.yul\":17800:17818   */\n      0x61636174652074686520706c6163652e00000000000000000000000000000000\n        /* \"#utility.yul\":17795:17797   */\n      0x20\n        /* \"#utility.yul\":17787:17793   */\n      dup3\n        /* \"#utility.yul\":17783:17798   */\n      add\n        /* \"#utility.yul\":17776:17819   */\n      mstore\n        /* \"#utility.yul\":17591:17826   */\n      pop\n      jump\t// out\n        /* \"#utility.yul\":17832:18198   */\n    tag_276:\n        /* \"#utility.yul\":17974:17977   */\n      0x00\n        /* \"#utility.yul\":17995:18062   */\n      tag_441\n        /* \"#utility.yul\":18059:18061   */\n      0x30\n        /* \"#utility.yul\":18054:18057   */\n      dup4\n        /* \"#utility.yul\":17995:18062   */\n      tag_232\n      jump\t// in\n    tag_441:\n        /* \"#utility.yul\":17988:18062   */\n      swap2\n      pop\n        /* \"#utility.yul\":18071:18164   */\n      tag_442\n        /* \"#utility.yul\":18160:18163   */\n      dup3\n        /* \"#utility.yul\":18071:18164   */\n      tag_275\n      jump\t// in\n    tag_442:\n        /* \"#utility.yul\":18189:18191   */\n      0x40\n        /* \"#utility.yul\":18184:18187   */\n      dup3\n        /* \"#utility.yul\":18180:18192   */\n      add\n        /* \"#utility.yul\":18173:18192   */\n      swap1\n      pop\n        /* \"#utility.yul\":17832:18198   */\n      swap2\n      swap1\n      pop\n      jump\t// out\n        /* \"#utility.yul\":18204:18623   */\n    tag_138:\n        /* \"#utility.yul\":18370:18374   */\n      0x00\n        /* \"#utility.yul\":18408:18410   */\n      0x20\n        /* \"#utility.yul\":18397:18406   */\n      dup3\n        /* \"#utility.yul\":18393:18411   */\n      add\n        /* \"#utility.yul\":18385:18411   */\n      swap1\n      pop\n        /* \"#utility.yul\":18457:18466   */\n      dup2\n        /* \"#utility.yul\":18451:18455   */\n      dup2\n        /* \"#utility.yul\":18447:18467   */\n      sub\n        /* \"#utility.yul\":18443:18444   */\n      0x00\n        /* \"#utility.yul\":18432:18441   */\n      dup4\n        /* \"#utility.yul\":18428:18445   */\n      add\n        /* \"#utility.yul\":18421:18468   */\n      mstore\n        /* \"#utility.yul\":18485:18616   */\n      tag_444\n        /* \"#utility.yul\":18611:18615   */\n      dup2\n        /* \"#utility.yul\":18485:18616   */\n      tag_276\n      jump\t// in\n    tag_444:\n        /* \"#utility.yul\":18477:18616   */\n      swap1\n      pop\n        /* \"#utility.yul\":18204:18623   */\n      swap2\n      swap1\n      pop\n      jump\t// out\n        /* \"#utility.yul\":18629:18809   */\n    tag_277:\n        /* \"#utility.yul\":18677:18754   */\n      0x4e487b7100000000000000000000000000000000000000000000000000000000\n        /* \"#utility.yul\":18674:18675   */\n      0x00\n        /* \"#utility.yul\":18667:18755   */\n      mstore\n        /* \"#utility.yul\":18774:18778   */\n      0x12\n        /* \"#utility.yul\":18771:18772   */\n      0x04\n        /* \"#utility.yul\":18764:18779   */\n      mstore\n        /* \"#utility.yul\":18798:18802   */\n      0x24\n        /* \"#utility.yul\":18795:18796   */\n      0x00\n        /* \"#utility.yul\":18788:18803   */\n      revert\n        /* \"#utility.yul\":18815:18995   */\n    tag_278:\n        /* \"#utility.yul\":18863:18940   */\n      0x4e487b7100000000000000000000000000000000000000000000000000000000\n        /* \"#utility.yul\":18860:18861   */\n      0x00\n        /* \"#utility.yul\":18853:18941   */\n      mstore\n        /* \"#utility.yul\":18960:18964   */\n      0x11\n        /* \"#utility.yul\":18957:18958   */\n      0x04\n        /* \"#utility.yul\":18950:18965   */\n      mstore\n        /* \"#utility.yul\":18984:18988   */\n      0x24\n        /* \"#utility.yul\":18981:18982   */\n      0x00\n        /* \"#utility.yul\":18974:18989   */\n      revert\n        /* \"#utility.yul\":19001:19186   */\n    tag_146:\n        /* \"#utility.yul\":19041:19042   */\n      0x00\n        /* \"#utility.yul\":19058:19078   */\n      tag_448\n        /* \"#utility.yul\":19076:19077   */\n      dup3\n        /* \"#utility.yul\":19058:19078   */\n      tag_239\n      jump\t// in\n    tag_448:\n        /* \"#utility.yul\":19053:19078   */\n      swap2\n      pop\n        /* \"#utility.yul\":19092:19112   */\n      tag_449\n        /* \"#utility.yul\":19110:19111   */\n      dup4\n        /* \"#utility.yul\":19092:19112   */\n      tag_239\n      jump\t// in\n    tag_449:\n        /* \"#utility.yul\":19087:19112   */\n      swap3\n      pop\n        /* \"#utility.yul\":19131:19132   */\n      dup3\n        /* \"#utility.yul\":19121:19156   */\n      tag_450\n      jumpi\n        /* \"#utility.yul\":19136:19154   */\n      tag_451\n      tag_277\n      jump\t// in\n    tag_451:\n        /* \"#utility.yul\":19121:19156   */\n    tag_450:\n        /* \"#utility.yul\":19178:19179   */\n      dup3\n        /* \"#utility.yul\":19175:19176   */\n      dup3\n        /* \"#utility.yul\":19171:19180   */\n      div\n        /* \"#utility.yul\":19166:19180   */\n      swap1\n      pop\n        /* \"#utility.yul\":19001:19186   */\n      swap3\n      swap2\n      pop\n      pop\n      jump\t// out\n        /* \"#utility.yul\":19192:19602   */\n    tag_148:\n        /* \"#utility.yul\":19232:19239   */\n      0x00\n        /* \"#utility.yul\":19255:19275   */\n      tag_453\n        /* \"#utility.yul\":19273:19274   */\n      dup3\n        /* \"#utility.yul\":19255:19275   */\n      tag_239\n      jump\t// in\n    tag_453:\n        /* \"#utility.yul\":19250:19275   */\n      swap2\n      pop\n        /* \"#utility.yul\":19289:19309   */\n      tag_454\n        /* \"#utility.yul\":19307:19308   */\n      dup4\n        /* \"#utility.yul\":19289:19309   */\n      tag_239\n      jump\t// in\n    tag_454:\n        /* \"#utility.yul\":19284:19309   */\n      swap3\n      pop\n        /* \"#utility.yul\":19344:19345   */\n      dup3\n        /* \"#utility.yul\":19341:19342   */\n      dup3\n        /* \"#utility.yul\":19337:19346   */\n      mul\n        /* \"#utility.yul\":19366:19396   */\n      tag_455\n        /* \"#utility.yul\":19384:19395   */\n      dup2\n        /* \"#utility.yul\":19366:19396   */\n      tag_239\n      jump\t// in\n    tag_455:\n        /* \"#utility.yul\":19355:19396   */\n      swap2\n      pop\n        /* \"#utility.yul\":19545:19546   */\n      dup3\n        /* \"#utility.yul\":19536:19543   */\n      dup3\n        /* \"#utility.yul\":19532:19547   */\n      div\n        /* \"#utility.yul\":19529:19530   */\n      dup5\n        /* \"#utility.yul\":19526:19548   */\n      eq\n        /* \"#utility.yul\":19506:19507   */\n      dup4\n        /* \"#utility.yul\":19499:19508   */\n      iszero\n        /* \"#utility.yul\":19479:19562   */\n      or\n        /* \"#utility.yul\":19456:19595   */\n      tag_456\n      jumpi\n        /* \"#utility.yul\":19575:19593   */\n      tag_457\n      tag_278\n      jump\t// in\n    tag_457:\n        /* \"#utility.yul\":19456:19595   */\n    tag_456:\n        /* \"#utility.yul\":19240:19602   */\n      pop\n        /* \"#utility.yul\":19192:19602   */\n      swap3\n      swap2\n      pop\n      pop\n      jump\t// out\n        /* \"#utility.yul\":19608:19799   */\n    tag_150:\n        /* \"#utility.yul\":19648:19651   */\n      0x00\n        /* \"#utility.yul\":19667:19687   */\n      tag_459\n        /* \"#utility.yul\":19685:19686   */\n      dup3\n        /* \"#utility.yul\":19667:19687   */\n      tag_239\n      jump\t// in\n    tag_459:\n        /* \"#utility.yul\":19662:19687   */\n      swap2\n      pop\n        /* \"#utility.yul\":19701:19721   */\n      tag_460\n        /* \"#utility.yul\":19719:19720   */\n      dup4\n        /* \"#utility.yul\":19701:19721   */\n      tag_239\n      jump\t// in\n    tag_460:\n        /* \"#utility.yul\":19696:19721   */\n      swap3\n      pop\n        /* \"#utility.yul\":19744:19745   */\n      dup3\n        /* \"#utility.yul\":19741:19742   */\n      dup3\n        /* \"#utility.yul\":19737:19746   */\n      add\n        /* \"#utility.yul\":19730:19746   */\n      swap1\n      pop\n        /* \"#utility.yul\":19765:19768   */\n      dup1\n        /* \"#utility.yul\":19762:19763   */\n      dup3\n        /* \"#utility.yul\":19759:19769   */\n      gt\n        /* \"#utility.yul\":19756:19792   */\n      iszero\n      tag_461\n      jumpi\n        /* \"#utility.yul\":19772:19790   */\n      tag_462\n      tag_278\n      jump\t// in\n    tag_462:\n        /* \"#utility.yul\":19756:19792   */\n    tag_461:\n        /* \"#utility.yul\":19608:19799   */\n      swap3\n      swap2\n      pop\n      pop\n      jump\t// out\n        /* \"#utility.yul\":19805:19981   */\n    tag_279:\n        /* \"#utility.yul\":19945:19973   */\n      0x4c6561736520686173206265656e207465726d696e617465642e000000000000\n        /* \"#utility.yul\":19941:19942   */\n      0x00\n        /* \"#utility.yul\":19933:19939   */\n      dup3\n        /* \"#utility.yul\":19929:19943   */\n      add\n        /* \"#utility.yul\":19922:19974   */\n      mstore\n        /* \"#utility.yul\":19805:19981   */\n      pop\n      jump\t// out\n        /* \"#utility.yul\":19987:20353   */\n    tag_280:\n        /* \"#utility.yul\":20129:20132   */\n      0x00\n        /* \"#utility.yul\":20150:20217   */\n      tag_465\n        /* \"#utility.yul\":20214:20216   */\n      0x1a\n        /* \"#utility.yul\":20209:20212   */\n      dup4\n        /* \"#utility.yul\":20150:20217   */\n      tag_232\n      jump\t// in\n    tag_465:\n        /* \"#utility.yul\":20143:20217   */\n      swap2\n      pop\n        /* \"#utility.yul\":20226:20319   */\n      tag_466\n        /* \"#utility.yul\":20315:20318   */\n      dup3\n        /* \"#utility.yul\":20226:20319   */\n      tag_279\n      jump\t// in\n    tag_466:\n        /* \"#utility.yul\":20344:20346   */\n      0x20\n        /* \"#utility.yul\":20339:20342   */\n      dup3\n        /* \"#utility.yul\":20335:20347   */\n      add\n        /* \"#utility.yul\":20328:20347   */\n      swap1\n      pop\n        /* \"#utility.yul\":19987:20353   */\n      swap2\n      swap1\n      pop\n      jump\t// out\n        /* \"#utility.yul\":20359:20778   */\n    tag_157:\n        /* \"#utility.yul\":20525:20529   */\n      0x00\n        /* \"#utility.yul\":20563:20565   */\n      0x20\n        /* \"#utility.yul\":20552:20561   */\n      dup3\n        /* \"#utility.yul\":20548:20566   */\n      add\n        /* \"#utility.yul\":20540:20566   */\n      swap1\n      pop\n        /* \"#utility.yul\":20612:20621   */\n      dup2\n        /* \"#utility.yul\":20606:20610   */\n      dup2\n        /* \"#utility.yul\":20602:20622   */\n      sub\n        /* \"#utility.yul\":20598:20599   */\n      0x00\n        /* \"#utility.yul\":20587:20596   */\n      dup4\n        /* \"#utility.yul\":20583:20600   */\n      add\n        /* \"#utility.yul\":20576:20623   */\n      mstore\n        /* \"#utility.yul\":20640:20771   */\n      tag_468\n        /* \"#utility.yul\":20766:20770   */\n      dup2\n        /* \"#utility.yul\":20640:20771   */\n      tag_280\n      jump\t// in\n    tag_468:\n        /* \"#utility.yul\":20632:20771   */\n      swap1\n      pop\n        /* \"#utility.yul\":20359:20778   */\n      swap2\n      swap1\n      pop\n      jump\t// out\n        /* \"#utility.yul\":20784:21080   */\n    tag_281:\n        /* \"#utility.yul\":20924:20958   */\n      0x5468652076616c7565206265696e672073656e742073686f756c642065717561\n        /* \"#utility.yul\":20920:20921   */\n      0x00\n        /* \"#utility.yul\":20912:20918   */\n      dup3\n        /* \"#utility.yul\":20908:20922   */\n      add\n        /* \"#utility.yul\":20901:20959   */\n      mstore\n        /* \"#utility.yul\":20993:21027   */\n      0x6c207468652072656e7420616d6f756e742028696e636c7564696e67206c6174\n        /* \"#utility.yul\":20988:20990   */\n      0x20\n        /* \"#utility.yul\":20980:20986   */\n      dup3\n        /* \"#utility.yul\":20976:20991   */\n      add\n        /* \"#utility.yul\":20969:21028   */\n      mstore\n        /* \"#utility.yul\":21062:21072   */\n      0x652066656573292e000000000000000000000000000000000000000000000000\n        /* \"#utility.yul\":21057:21059   */\n      0x40\n        /* \"#utility.yul\":21049:21055   */\n      dup3\n        /* \"#utility.yul\":21045:21060   */\n      add\n        /* \"#utility.yul\":21038:21073   */\n      mstore\n        /* \"#utility.yul\":20784:21080   */\n      pop\n      jump\t// out\n        /* \"#utility.yul\":21086:21452   */\n    tag_282:\n        /* \"#utility.yul\":21228:21231   */\n      0x00\n        /* \"#utility.yul\":21249:21316   */\n      tag_471\n        /* \"#utility.yul\":21313:21315   */\n      0x48\n        /* \"#utility.yul\":21308:21311   */\n      dup4\n        /* \"#utility.yul\":21249:21316   */\n      tag_232\n      jump\t// in\n    tag_471:\n        /* \"#utility.yul\":21242:21316   */\n      swap2\n      pop\n        /* \"#utility.yul\":21325:21418   */\n      tag_472\n        /* \"#utility.yul\":21414:21417   */\n      dup3\n        /* \"#utility.yul\":21325:21418   */\n      tag_281\n      jump\t// in\n    tag_472:\n        /* \"#utility.yul\":21443:21445   */\n      0x60\n        /* \"#utility.yul\":21438:21441   */\n      dup3\n        /* \"#utility.yul\":21434:21446   */\n      add\n        /* \"#utility.yul\":21427:21446   */\n      swap1\n      pop\n        /* \"#utility.yul\":21086:21452   */\n      swap2\n      swap1\n      pop\n      jump\t// out\n        /* \"#utility.yul\":21458:21877   */\n    tag_160:\n        /* \"#utility.yul\":21624:21628   */\n      0x00\n        /* \"#utility.yul\":21662:21664   */\n      0x20\n        /* \"#utility.yul\":21651:21660   */\n      dup3\n        /* \"#utility.yul\":21647:21665   */\n      add\n        /* \"#utility.yul\":21639:21665   */\n      swap1\n      pop\n        /* \"#utility.yul\":21711:21720   */\n      dup2\n        /* \"#utility.yul\":21705:21709   */\n      dup2\n        /* \"#utility.yul\":21701:21721   */\n      sub\n        /* \"#utility.yul\":21697:21698   */\n      0x00\n        /* \"#utility.yul\":21686:21695   */\n      dup4\n        /* \"#utility.yul\":21682:21699   */\n      add\n        /* \"#utility.yul\":21675:21722   */\n      mstore\n        /* \"#utility.yul\":21739:21870   */\n      tag_474\n        /* \"#utility.yul\":21865:21869   */\n      dup2\n        /* \"#utility.yul\":21739:21870   */\n      tag_282\n      jump\t// in\n    tag_474:\n        /* \"#utility.yul\":21731:21870   */\n      swap1\n      pop\n        /* \"#utility.yul\":21458:21877   */\n      swap2\n      swap1\n      pop\n      jump\t// out\n        /* \"#utility.yul\":21883:21969   */\n    tag_283:\n        /* \"#utility.yul\":21918:21925   */\n      0x00\n        /* \"#utility.yul\":21958:21962   */\n      0xff\n        /* \"#utility.yul\":21951:21956   */\n      dup3\n        /* \"#utility.yul\":21947:21963   */\n      and\n        /* \"#utility.yul\":21936:21963   */\n      swap1\n      pop\n        /* \"#utility.yul\":21883:21969   */\n      swap2\n      swap1\n      pop\n      jump\t// out\n        /* \"#utility.yul\":21975:22163   */\n    tag_162:\n        /* \"#utility.yul\":22013:22016   */\n      0x00\n        /* \"#utility.yul\":22032:22050   */\n      tag_477\n        /* \"#utility.yul\":22048:22049   */\n      dup3\n        /* \"#utility.yul\":22032:22050   */\n      tag_283\n      jump\t// in\n    tag_477:\n        /* \"#utility.yul\":22027:22050   */\n      swap2\n      pop\n        /* \"#utility.yul\":22064:22082   */\n      tag_478\n        /* \"#utility.yul\":22080:22081   */\n      dup4\n        /* \"#utility.yul\":22064:22082   */\n      tag_283\n      jump\t// in\n    tag_478:\n        /* \"#utility.yul\":22059:22082   */\n      swap3\n      pop\n        /* \"#utility.yul\":22105:22106   */\n      dup3\n        /* \"#utility.yul\":22102:22103   */\n      dup3\n        /* \"#utility.yul\":22098:22107   */\n      add\n        /* \"#utility.yul\":22091:22107   */\n      swap1\n      pop\n        /* \"#utility.yul\":22128:22132   */\n      0xff\n        /* \"#utility.yul\":22123:22126   */\n      dup2\n        /* \"#utility.yul\":22120:22133   */\n      gt\n        /* \"#utility.yul\":22117:22156   */\n      iszero\n      tag_479\n      jumpi\n        /* \"#utility.yul\":22136:22154   */\n      tag_480\n      tag_278\n      jump\t// in\n    tag_480:\n        /* \"#utility.yul\":22117:22156   */\n    tag_479:\n        /* \"#utility.yul\":21975:22163   */\n      swap3\n      swap2\n      pop\n      pop\n      jump\t// out\n        /* \"#utility.yul\":22169:22394   */\n    tag_284:\n        /* \"#utility.yul\":22309:22343   */\n      0x4f6e6c7920746865206c616e646c6f72642063616e2063686f6f736520746f20\n        /* \"#utility.yul\":22305:22306   */\n      0x00\n        /* \"#utility.yul\":22297:22303   */\n      dup3\n        /* \"#utility.yul\":22293:22307   */\n      add\n        /* \"#utility.yul\":22286:22344   */\n      mstore\n        /* \"#utility.yul\":22378:22386   */\n      0x65766963742e0000000000000000000000000000000000000000000000000000\n        /* \"#utility.yul\":22373:22375   */\n      0x20\n        /* \"#utility.yul\":22365:22371   */\n      dup3\n        /* \"#utility.yul\":22361:22376   */\n      add\n        /* \"#utility.yul\":22354:22387   */\n      mstore\n        /* \"#utility.yul\":22169:22394   */\n      pop\n      jump\t// out\n        /* \"#utility.yul\":22400:22766   */\n    tag_285:\n        /* \"#utility.yul\":22542:22545   */\n      0x00\n        /* \"#utility.yul\":22563:22630   */\n      tag_483\n        /* \"#utility.yul\":22627:22629   */\n      0x26\n        /* \"#utility.yul\":22622:22625   */\n      dup4\n        /* \"#utility.yul\":22563:22630   */\n      tag_232\n      jump\t// in\n    tag_483:\n        /* \"#utility.yul\":22556:22630   */\n      swap2\n      pop\n        /* \"#utility.yul\":22639:22732   */\n      tag_484\n        /* \"#utility.yul\":22728:22731   */\n      dup3\n        /* \"#utility.yul\":22639:22732   */\n      tag_284\n      jump\t// in\n    tag_484:\n        /* \"#utility.yul\":22757:22759   */\n      0x40\n        /* \"#utility.yul\":22752:22755   */\n      dup3\n        /* \"#utility.yul\":22748:22760   */\n      add\n        /* \"#utility.yul\":22741:22760   */\n      swap1\n      pop\n        /* \"#utility.yul\":22400:22766   */\n      swap2\n      swap1\n      pop\n      jump\t// out\n        /* \"#utility.yul\":22772:23191   */\n    tag_168:\n        /* \"#utility.yul\":22938:22942   */\n      0x00\n        /* \"#utility.yul\":22976:22978   */\n      0x20\n        /* \"#utility.yul\":22965:22974   */\n      dup3\n        /* \"#utility.yul\":22961:22979   */\n      add\n        /* \"#utility.yul\":22953:22979   */\n      swap1\n      pop\n        /* \"#utility.yul\":23025:23034   */\n      dup2\n        /* \"#utility.yul\":23019:23023   */\n      dup2\n        /* \"#utility.yul\":23015:23035   */\n      sub\n        /* \"#utility.yul\":23011:23012   */\n      0x00\n        /* \"#utility.yul\":23000:23009   */\n      dup4\n        /* \"#utility.yul\":22996:23013   */\n      add\n        /* \"#utility.yul\":22989:23036   */\n      mstore\n        /* \"#utility.yul\":23053:23184   */\n      tag_486\n        /* \"#utility.yul\":23179:23183   */\n      dup2\n        /* \"#utility.yul\":23053:23184   */\n      tag_285\n      jump\t// in\n    tag_486:\n        /* \"#utility.yul\":23045:23184   */\n      swap1\n      pop\n        /* \"#utility.yul\":22772:23191   */\n      swap2\n      swap1\n      pop\n      jump\t// out\n        /* \"#utility.yul\":23197:23437   */\n    tag_286:\n        /* \"#utility.yul\":23337:23371   */\n      0x546865206c656173652073686f756c642062652061637469766520746f207374\n        /* \"#utility.yul\":23333:23334   */\n      0x00\n        /* \"#utility.yul\":23325:23331   */\n      dup3\n        /* \"#utility.yul\":23321:23335   */\n      add\n        /* \"#utility.yul\":23314:23372   */\n      mstore\n        /* \"#utility.yul\":23406:23429   */\n      0x617274206576696374696f6e2070726f636573732e0000000000000000000000\n        /* \"#utility.yul\":23401:23403   */\n      0x20\n        /* \"#utility.yul\":23393:23399   */\n      dup3\n        /* \"#utility.yul\":23389:23404   */\n      add\n        /* \"#utility.yul\":23382:23430   */\n      mstore\n        /* \"#utility.yul\":23197:23437   */\n      pop\n      jump\t// out\n        /* \"#utility.yul\":23443:23809   */\n    tag_287:\n        /* \"#utility.yul\":23585:23588   */\n      0x00\n        /* \"#utility.yul\":23606:23673   */\n      tag_489\n        /* \"#utility.yul\":23670:23672   */\n      0x35\n        /* \"#utility.yul\":23665:23668   */\n      dup4\n        /* \"#utility.yul\":23606:23673   */\n      tag_232\n      jump\t// in\n    tag_489:\n        /* \"#utility.yul\":23599:23673   */\n      swap2\n      pop\n        /* \"#utility.yul\":23682:23775   */\n      tag_490\n        /* \"#utility.yul\":23771:23774   */\n      dup3\n        /* \"#utility.yul\":23682:23775   */\n      tag_286\n      jump\t// in\n    tag_490:\n        /* \"#utility.yul\":23800:23802   */\n      0x40\n        /* \"#utility.yul\":23795:23798   */\n      dup3\n        /* \"#utility.yul\":23791:23803   */\n      add\n        /* \"#utility.yul\":23784:23803   */\n      swap1\n      pop\n        /* \"#utility.yul\":23443:23809   */\n      swap2\n      swap1\n      pop\n      jump\t// out\n        /* \"#utility.yul\":23815:24234   */\n    tag_175:\n        /* \"#utility.yul\":23981:23985   */\n      0x00\n        /* \"#utility.yul\":24019:24021   */\n      0x20\n        /* \"#utility.yul\":24008:24017   */\n      dup3\n        /* \"#utility.yul\":24004:24022   */\n      add\n        /* \"#utility.yul\":23996:24022   */\n      swap1\n      pop\n        /* \"#utility.yul\":24068:24077   */\n      dup2\n        /* \"#utility.yul\":24062:24066   */\n      dup2\n        /* \"#utility.yul\":24058:24078   */\n      sub\n        /* \"#utility.yul\":24054:24055   */\n      0x00\n        /* \"#utility.yul\":24043:24052   */\n      dup4\n        /* \"#utility.yul\":24039:24056   */\n      add\n        /* \"#utility.yul\":24032:24079   */\n      mstore\n        /* \"#utility.yul\":24096:24227   */\n      tag_492\n        /* \"#utility.yul\":24222:24226   */\n      dup2\n        /* \"#utility.yul\":24096:24227   */\n      tag_287\n      jump\t// in\n    tag_492:\n        /* \"#utility.yul\":24088:24227   */\n      swap1\n      pop\n        /* \"#utility.yul\":23815:24234   */\n      swap2\n      swap1\n      pop\n      jump\t// out\n        /* \"#utility.yul\":24240:24471   */\n    tag_288:\n        /* \"#utility.yul\":24380:24414   */\n      0x497420686173206e6f74206265656e20333020646179732073696e6365207468\n        /* \"#utility.yul\":24376:24377   */\n      0x00\n        /* \"#utility.yul\":24368:24374   */\n      dup3\n        /* \"#utility.yul\":24364:24378   */\n      add\n        /* \"#utility.yul\":24357:24415   */\n      mstore\n        /* \"#utility.yul\":24449:24463   */\n      0x65206c6173742072656e742e0000000000000000000000000000000000000000\n        /* \"#utility.yul\":24444:24446   */\n      0x20\n        /* \"#utility.yul\":24436:24442   */\n      dup3\n        /* \"#utility.yul\":24432:24447   */\n      add\n        /* \"#utility.yul\":24425:24464   */\n      mstore\n        /* \"#utility.yul\":24240:24471   */\n      pop\n      jump\t// out\n        /* \"#utility.yul\":24477:24843   */\n    tag_289:\n        /* \"#utility.yul\":24619:24622   */\n      0x00\n        /* \"#utility.yul\":24640:24707   */\n      tag_495\n        /* \"#utility.yul\":24704:24706   */\n      0x2c\n        /* \"#utility.yul\":24699:24702   */\n      dup4\n        /* \"#utility.yul\":24640:24707   */\n      tag_232\n      jump\t// in\n    tag_495:\n        /* \"#utility.yul\":24633:24707   */\n      swap2\n      pop\n        /* \"#utility.yul\":24716:24809   */\n      tag_496\n        /* \"#utility.yul\":24805:24808   */\n      dup3\n        /* \"#utility.yul\":24716:24809   */\n      tag_288\n      jump\t// in\n    tag_496:\n        /* \"#utility.yul\":24834:24836   */\n      0x40\n        /* \"#utility.yul\":24829:24832   */\n      dup3\n        /* \"#utility.yul\":24825:24837   */\n      add\n        /* \"#utility.yul\":24818:24837   */\n      swap1\n      pop\n        /* \"#utility.yul\":24477:24843   */\n      swap2\n      swap1\n      pop\n      jump\t// out\n        /* \"#utility.yul\":24849:25268   */\n    tag_179:\n        /* \"#utility.yul\":25015:25019   */\n      0x00\n        /* \"#utility.yul\":25053:25055   */\n      0x20\n        /* \"#utility.yul\":25042:25051   */\n      dup3\n        /* \"#utility.yul\":25038:25056   */\n      add\n        /* \"#utility.yul\":25030:25056   */\n      swap1\n      pop\n        /* \"#utility.yul\":25102:25111   */\n      dup2\n        /* \"#utility.yul\":25096:25100   */\n      dup2\n        /* \"#utility.yul\":25092:25112   */\n      sub\n        /* \"#utility.yul\":25088:25089   */\n      0x00\n        /* \"#utility.yul\":25077:25086   */\n      dup4\n        /* \"#utility.yul\":25073:25090   */\n      add\n        /* \"#utility.yul\":25066:25113   */\n      mstore\n        /* \"#utility.yul\":25130:25261   */\n      tag_498\n        /* \"#utility.yul\":25256:25260   */\n      dup2\n        /* \"#utility.yul\":25130:25261   */\n      tag_289\n      jump\t// in\n    tag_498:\n        /* \"#utility.yul\":25122:25261   */\n      swap1\n      pop\n        /* \"#utility.yul\":24849:25268   */\n      swap2\n      swap1\n      pop\n      jump\t// out\n        /* \"#utility.yul\":25274:25501   */\n    tag_290:\n        /* \"#utility.yul\":25414:25448   */\n      0x4f6e6c79206f776e6572206f722074656e656e742063616e207369676e206167\n        /* \"#utility.yul\":25410:25411   */\n      0x00\n        /* \"#utility.yul\":25402:25408   */\n      dup3\n        /* \"#utility.yul\":25398:25412   */\n      add\n        /* \"#utility.yul\":25391:25449   */\n      mstore\n        /* \"#utility.yul\":25483:25493   */\n      0x7265656d656e742e000000000000000000000000000000000000000000000000\n        /* \"#utility.yul\":25478:25480   */\n      0x20\n        /* \"#utility.yul\":25470:25476   */\n      dup3\n        /* \"#utility.yul\":25466:25481   */\n      add\n        /* \"#utility.yul\":25459:25494   */\n      mstore\n        /* \"#utility.yul\":25274:25501   */\n      pop\n      jump\t// out\n        /* \"#utility.yul\":25507:25873   */\n    tag_291:\n        /* \"#utility.yul\":25649:25652   */\n      0x00\n        /* \"#utility.yul\":25670:25737   */\n      tag_501\n        /* \"#utility.yul\":25734:25736   */\n      0x28\n        /* \"#utility.yul\":25729:25732   */\n      dup4\n        /* \"#utility.yul\":25670:25737   */\n      tag_232\n      jump\t// in\n    tag_501:\n        /* \"#utility.yul\":25663:25737   */\n      swap2\n      pop\n        /* \"#utility.yul\":25746:25839   */\n      tag_502\n        /* \"#utility.yul\":25835:25838   */\n      dup3\n        /* \"#utility.yul\":25746:25839   */\n      tag_290\n      jump\t// in\n    tag_502:\n        /* \"#utility.yul\":25864:25866   */\n      0x40\n        /* \"#utility.yul\":25859:25862   */\n      dup3\n        /* \"#utility.yul\":25855:25867   */\n      add\n        /* \"#utility.yul\":25848:25867   */\n      swap1\n      pop\n        /* \"#utility.yul\":25507:25873   */\n      swap2\n      swap1\n      pop\n      jump\t// out\n        /* \"#utility.yul\":25879:26298   */\n    tag_189:\n        /* \"#utility.yul\":26045:26049   */\n      0x00\n        /* \"#utility.yul\":26083:26085   */\n      0x20\n        /* \"#utility.yul\":26072:26081   */\n      dup3\n        /* \"#utility.yul\":26068:26086   */\n      add\n        /* \"#utility.yul\":26060:26086   */\n      swap1\n      pop\n        /* \"#utility.yul\":26132:26141   */\n      dup2\n        /* \"#utility.yul\":26126:26130   */\n      dup2\n        /* \"#utility.yul\":26122:26142   */\n      sub\n        /* \"#utility.yul\":26118:26119   */\n      0x00\n        /* \"#utility.yul\":26107:26116   */\n      dup4\n        /* \"#utility.yul\":26103:26120   */\n      add\n        /* \"#utility.yul\":26096:26143   */\n      mstore\n        /* \"#utility.yul\":26160:26291   */\n      tag_504\n        /* \"#utility.yul\":26286:26290   */\n      dup2\n        /* \"#utility.yul\":26160:26291   */\n      tag_291\n      jump\t// in\n    tag_504:\n        /* \"#utility.yul\":26152:26291   */\n      swap1\n      pop\n        /* \"#utility.yul\":25879:26298   */\n      swap2\n      swap1\n      pop\n      jump\t// out\n        /* \"#utility.yul\":26304:26529   */\n    tag_292:\n        /* \"#utility.yul\":26444:26478   */\n      0x546865206c656173652068617320746f20626520696e20696e61637469766520\n        /* \"#utility.yul\":26440:26441   */\n      0x00\n        /* \"#utility.yul\":26432:26438   */\n      dup3\n        /* \"#utility.yul\":26428:26442   */\n      add\n        /* \"#utility.yul\":26421:26479   */\n      mstore\n        /* \"#utility.yul\":26513:26521   */\n      0x73746174652e0000000000000000000000000000000000000000000000000000\n        /* \"#utility.yul\":26508:26510   */\n      0x20\n        /* \"#utility.yul\":26500:26506   */\n      dup3\n        /* \"#utility.yul\":26496:26511   */\n      add\n        /* \"#utility.yul\":26489:26522   */\n      mstore\n        /* \"#utility.yul\":26304:26529   */\n      pop\n      jump\t// out\n        /* \"#utility.yul\":26535:26901   */\n    tag_293:\n        /* \"#utility.yul\":26677:26680   */\n      0x00\n        /* \"#utility.yul\":26698:26765   */\n      tag_507\n        /* \"#utility.yul\":26762:26764   */\n      0x26\n        /* \"#utility.yul\":26757:26760   */\n      dup4\n        /* \"#utility.yul\":26698:26765   */\n      tag_232\n      jump\t// in\n    tag_507:\n        /* \"#utility.yul\":26691:26765   */\n      swap2\n      pop\n        /* \"#utility.yul\":26774:26867   */\n      tag_508\n        /* \"#utility.yul\":26863:26866   */\n      dup3\n        /* \"#utility.yul\":26774:26867   */\n      tag_292\n      jump\t// in\n    tag_508:\n        /* \"#utility.yul\":26892:26894   */\n      0x40\n        /* \"#utility.yul\":26887:26890   */\n      dup3\n        /* \"#utility.yul\":26883:26895   */\n      add\n        /* \"#utility.yul\":26876:26895   */\n      swap1\n      pop\n        /* \"#utility.yul\":26535:26901   */\n      swap2\n      swap1\n      pop\n      jump\t// out\n        /* \"#utility.yul\":26907:27326   */\n    tag_196:\n        /* \"#utility.yul\":27073:27077   */\n      0x00\n        /* \"#utility.yul\":27111:27113   */\n      0x20\n        /* \"#utility.yul\":27100:27109   */\n      dup3\n        /* \"#utility.yul\":27096:27114   */\n      add\n        /* \"#utility.yul\":27088:27114   */\n      swap1\n      pop\n        /* \"#utility.yul\":27160:27169   */\n      dup2\n        /* \"#utility.yul\":27154:27158   */\n      dup2\n        /* \"#utility.yul\":27150:27170   */\n      sub\n        /* \"#utility.yul\":27146:27147   */\n      0x00\n        /* \"#utility.yul\":27135:27144   */\n      dup4\n        /* \"#utility.yul\":27131:27148   */\n      add\n        /* \"#utility.yul\":27124:27171   */\n      mstore\n        /* \"#utility.yul\":27188:27319   */\n      tag_510\n        /* \"#utility.yul\":27314:27318   */\n      dup2\n        /* \"#utility.yul\":27188:27319   */\n      tag_293\n      jump\t// in\n    tag_510:\n        /* \"#utility.yul\":27180:27319   */\n      swap1\n      pop\n        /* \"#utility.yul\":26907:27326   */\n      swap2\n      swap1\n      pop\n      jump\t// out\n        /* \"#utility.yul\":27332:27510   */\n    tag_294:\n        /* \"#utility.yul\":27472:27502   */\n      0x4c616e646c6f72642068617320616c7265616479206167726565642e00000000\n        /* \"#utility.yul\":27468:27469   */\n      0x00\n        /* \"#utility.yul\":27460:27466   */\n      dup3\n        /* \"#utility.yul\":27456:27470   */\n      add\n        /* \"#utility.yul\":27449:27503   */\n      mstore\n        /* \"#utility.yul\":27332:27510   */\n      pop\n      jump\t// out\n        /* \"#utility.yul\":27516:27882   */\n    tag_295:\n        /* \"#utility.yul\":27658:27661   */\n      0x00\n        /* \"#utility.yul\":27679:27746   */\n      tag_513\n        /* \"#utility.yul\":27743:27745   */\n      0x1c\n        /* \"#utility.yul\":27738:27741   */\n      dup4\n        /* \"#utility.yul\":27679:27746   */\n      tag_232\n      jump\t// in\n    tag_513:\n        /* \"#utility.yul\":27672:27746   */\n      swap2\n      pop\n        /* \"#utility.yul\":27755:27848   */\n      tag_514\n        /* \"#utility.yul\":27844:27847   */\n      dup3\n        /* \"#utility.yul\":27755:27848   */\n      tag_294\n      jump\t// in\n    tag_514:\n        /* \"#utility.yul\":27873:27875   */\n      0x20\n        /* \"#utility.yul\":27868:27871   */\n      dup3\n        /* \"#utility.yul\":27864:27876   */\n      add\n        /* \"#utility.yul\":27857:27876   */\n      swap1\n      pop\n        /* \"#utility.yul\":27516:27882   */\n      swap2\n      swap1\n      pop\n      jump\t// out\n        /* \"#utility.yul\":27888:28307   */\n    tag_200:\n        /* \"#utility.yul\":28054:28058   */\n      0x00\n        /* \"#utility.yul\":28092:28094   */\n      0x20\n        /* \"#utility.yul\":28081:28090   */\n      dup3\n        /* \"#utility.yul\":28077:28095   */\n      add\n        /* \"#utility.yul\":28069:28095   */\n      swap1\n      pop\n        /* \"#utility.yul\":28141:28150   */\n      dup2\n        /* \"#utility.yul\":28135:28139   */\n      dup2\n        /* \"#utility.yul\":28131:28151   */\n      sub\n        /* \"#utility.yul\":28127:28128   */\n      0x00\n        /* \"#utility.yul\":28116:28125   */\n      dup4\n        /* \"#utility.yul\":28112:28129   */\n      add\n        /* \"#utility.yul\":28105:28152   */\n      mstore\n        /* \"#utility.yul\":28169:28300   */\n      tag_516\n        /* \"#utility.yul\":28295:28299   */\n      dup2\n        /* \"#utility.yul\":28169:28300   */\n      tag_295\n      jump\t// in\n    tag_516:\n        /* \"#utility.yul\":28161:28300   */\n      swap1\n      pop\n        /* \"#utility.yul\":27888:28307   */\n      swap2\n      swap1\n      pop\n      jump\t// out\n        /* \"#utility.yul\":28313:28489   */\n    tag_296:\n        /* \"#utility.yul\":28453:28481   */\n      0x54656e616e742068617320616c7265616479206167726565642e000000000000\n        /* \"#utility.yul\":28449:28450   */\n      0x00\n        /* \"#utility.yul\":28441:28447   */\n      dup3\n        /* \"#utility.yul\":28437:28451   */\n      add\n        /* \"#utility.yul\":28430:28482   */\n      mstore\n        /* \"#utility.yul\":28313:28489   */\n      pop\n      jump\t// out\n        /* \"#utility.yul\":28495:28861   */\n    tag_297:\n        /* \"#utility.yul\":28637:28640   */\n      0x00\n        /* \"#utility.yul\":28658:28725   */\n      tag_519\n        /* \"#utility.yul\":28722:28724   */\n      0x1a\n        /* \"#utility.yul\":28717:28720   */\n      dup4\n        /* \"#utility.yul\":28658:28725   */\n      tag_232\n      jump\t// in\n    tag_519:\n        /* \"#utility.yul\":28651:28725   */\n      swap2\n      pop\n        /* \"#utility.yul\":28734:28827   */\n      tag_520\n        /* \"#utility.yul\":28823:28826   */\n      dup3\n        /* \"#utility.yul\":28734:28827   */\n      tag_296\n      jump\t// in\n    tag_520:\n        /* \"#utility.yul\":28852:28854   */\n      0x20\n        /* \"#utility.yul\":28847:28850   */\n      dup3\n        /* \"#utility.yul\":28843:28855   */\n      add\n        /* \"#utility.yul\":28836:28855   */\n      swap1\n      pop\n        /* \"#utility.yul\":28495:28861   */\n      swap2\n      swap1\n      pop\n      jump\t// out\n        /* \"#utility.yul\":28867:29286   */\n    tag_204:\n        /* \"#utility.yul\":29033:29037   */\n      0x00\n        /* \"#utility.yul\":29071:29073   */\n      0x20\n        /* \"#utility.yul\":29060:29069   */\n      dup3\n        /* \"#utility.yul\":29056:29074   */\n      add\n        /* \"#utility.yul\":29048:29074   */\n      swap1\n      pop\n        /* \"#utility.yul\":29120:29129   */\n      dup2\n        /* \"#utility.yul\":29114:29118   */\n      dup2\n        /* \"#utility.yul\":29110:29130   */\n      sub\n        /* \"#utility.yul\":29106:29107   */\n      0x00\n        /* \"#utility.yul\":29095:29104   */\n      dup4\n        /* \"#utility.yul\":29091:29108   */\n      add\n        /* \"#utility.yul\":29084:29131   */\n      mstore\n        /* \"#utility.yul\":29148:29279   */\n      tag_522\n        /* \"#utility.yul\":29274:29278   */\n      dup2\n        /* \"#utility.yul\":29148:29279   */\n      tag_297\n      jump\t// in\n    tag_522:\n        /* \"#utility.yul\":29140:29279   */\n      swap1\n      pop\n        /* \"#utility.yul\":28867:29286   */\n      swap2\n      swap1\n      pop\n      jump\t// out\n        /* \"#utility.yul\":29292:29517   */\n    tag_298:\n        /* \"#utility.yul\":29432:29466   */\n      0x4f6e6c792074656e656e742063616e2073656e64207365637572697479206465\n        /* \"#utility.yul\":29428:29429   */\n      0x00\n        /* \"#utility.yul\":29420:29426   */\n      dup3\n        /* \"#utility.yul\":29416:29430   */\n      add\n        /* \"#utility.yul\":29409:29467   */\n      mstore\n        /* \"#utility.yul\":29501:29509   */\n      0x706f7369742e0000000000000000000000000000000000000000000000000000\n        /* \"#utility.yul\":29496:29498   */\n      0x20\n        /* \"#utility.yul\":29488:29494   */\n      dup3\n        /* \"#utility.yul\":29484:29499   */\n      add\n        /* \"#utility.yul\":29477:29510   */\n      mstore\n        /* \"#utility.yul\":29292:29517   */\n      pop\n      jump\t// out\n        /* \"#utility.yul\":29523:29889   */\n    tag_299:\n        /* \"#utility.yul\":29665:29668   */\n      0x00\n        /* \"#utility.yul\":29686:29753   */\n      tag_525\n        /* \"#utility.yul\":29750:29752   */\n      0x26\n        /* \"#utility.yul\":29745:29748   */\n      dup4\n        /* \"#utility.yul\":29686:29753   */\n      tag_232\n      jump\t// in\n    tag_525:\n        /* \"#utility.yul\":29679:29753   */\n      swap2\n      pop\n        /* \"#utility.yul\":29762:29855   */\n      tag_526\n        /* \"#utility.yul\":29851:29854   */\n      dup3\n        /* \"#utility.yul\":29762:29855   */\n      tag_298\n      jump\t// in\n    tag_526:\n        /* \"#utility.yul\":29880:29882   */\n      0x40\n        /* \"#utility.yul\":29875:29878   */\n      dup3\n        /* \"#utility.yul\":29871:29883   */\n      add\n        /* \"#utility.yul\":29864:29883   */\n      swap1\n      pop\n        /* \"#utility.yul\":29523:29889   */\n      swap2\n      swap1\n      pop\n      jump\t// out\n        /* \"#utility.yul\":29895:30314   */\n    tag_212:\n        /* \"#utility.yul\":30061:30065   */\n      0x00\n        /* \"#utility.yul\":30099:30101   */\n      0x20\n        /* \"#utility.yul\":30088:30097   */\n      dup3\n        /* \"#utility.yul\":30084:30102   */\n      add\n        /* \"#utility.yul\":30076:30102   */\n      swap1\n      pop\n        /* \"#utility.yul\":30148:30157   */\n      dup2\n        /* \"#utility.yul\":30142:30146   */\n      dup2\n        /* \"#utility.yul\":30138:30158   */\n      sub\n        /* \"#utility.yul\":30134:30135   */\n      0x00\n        /* \"#utility.yul\":30123:30132   */\n      dup4\n        /* \"#utility.yul\":30119:30136   */\n      add\n        /* \"#utility.yul\":30112:30159   */\n      mstore\n        /* \"#utility.yul\":30176:30307   */\n      tag_528\n        /* \"#utility.yul\":30302:30306   */\n      dup2\n        /* \"#utility.yul\":30176:30307   */\n      tag_299\n      jump\t// in\n    tag_528:\n        /* \"#utility.yul\":30168:30307   */\n      swap1\n      pop\n        /* \"#utility.yul\":29895:30314   */\n      swap2\n      swap1\n      pop\n      jump\t// out\n        /* \"#utility.yul\":30320:30552   */\n    tag_300:\n        /* \"#utility.yul\":30460:30494   */\n      0x546865206c656173652073686f756c6420626520696e2070656e64696e672064\n        /* \"#utility.yul\":30456:30457   */\n      0x00\n        /* \"#utility.yul\":30448:30454   */\n      dup3\n        /* \"#utility.yul\":30444:30458   */\n      add\n        /* \"#utility.yul\":30437:30495   */\n      mstore\n        /* \"#utility.yul\":30529:30544   */\n      0x65706f7369742073746174652e00000000000000000000000000000000000000\n        /* \"#utility.yul\":30524:30526   */\n      0x20\n        /* \"#utility.yul\":30516:30522   */\n      dup3\n        /* \"#utility.yul\":30512:30527   */\n      add\n        /* \"#utility.yul\":30505:30545   */\n      mstore\n        /* \"#utility.yul\":30320:30552   */\n      pop\n      jump\t// out\n        /* \"#utility.yul\":30558:30924   */\n    tag_301:\n        /* \"#utility.yul\":30700:30703   */\n      0x00\n        /* \"#utility.yul\":30721:30788   */\n      tag_531\n        /* \"#utility.yul\":30785:30787   */\n      0x2d\n        /* \"#utility.yul\":30780:30783   */\n      dup4\n        /* \"#utility.yul\":30721:30788   */\n      tag_232\n      jump\t// in\n    tag_531:\n        /* \"#utility.yul\":30714:30788   */\n      swap2\n      pop\n        /* \"#utility.yul\":30797:30890   */\n      tag_532\n        /* \"#utility.yul\":30886:30889   */\n      dup3\n        /* \"#utility.yul\":30797:30890   */\n      tag_300\n      jump\t// in\n    tag_532:\n        /* \"#utility.yul\":30915:30917   */\n      0x40\n        /* \"#utility.yul\":30910:30913   */\n      dup3\n        /* \"#utility.yul\":30906:30918   */\n      add\n        /* \"#utility.yul\":30899:30918   */\n      swap1\n      pop\n        /* \"#utility.yul\":30558:30924   */\n      swap2\n      swap1\n      pop\n      jump\t// out\n        /* \"#utility.yul\":30930:31349   */\n    tag_219:\n        /* \"#utility.yul\":31096:31100   */\n      0x00\n        /* \"#utility.yul\":31134:31136   */\n      0x20\n        /* \"#utility.yul\":31123:31132   */\n      dup3\n        /* \"#utility.yul\":31119:31137   */\n      add\n        /* \"#utility.yul\":31111:31137   */\n      swap1\n      pop\n        /* \"#utility.yul\":31183:31192   */\n      dup2\n        /* \"#utility.yul\":31177:31181   */\n      dup2\n        /* \"#utility.yul\":31173:31193   */\n      sub\n        /* \"#utility.yul\":31169:31170   */\n      0x00\n        /* \"#utility.yul\":31158:31167   */\n      dup4\n        /* \"#utility.yul\":31154:31171   */\n      add\n        /* \"#utility.yul\":31147:31194   */\n      mstore\n        /* \"#utility.yul\":31211:31342   */\n      tag_534\n        /* \"#utility.yul\":31337:31341   */\n      dup2\n        /* \"#utility.yul\":31211:31342   */\n      tag_301\n      jump\t// in\n    tag_534:\n        /* \"#utility.yul\":31203:31342   */\n      swap1\n      pop\n        /* \"#utility.yul\":30930:31349   */\n      swap2\n      swap1\n      pop\n      jump\t// out\n        /* \"#utility.yul\":31355:31646   */\n    tag_302:\n        /* \"#utility.yul\":31495:31529   */\n      0x5468652076616c7565206265696e67206465706f73697465642073686f756c64\n        /* \"#utility.yul\":31491:31492   */\n      0x00\n        /* \"#utility.yul\":31483:31489   */\n      dup3\n        /* \"#utility.yul\":31479:31493   */\n      add\n        /* \"#utility.yul\":31472:31530   */\n      mstore\n        /* \"#utility.yul\":31564:31598   */\n      0x20657175616c20746865207365637572697479206465706f73697420616d6f75\n        /* \"#utility.yul\":31559:31561   */\n      0x20\n        /* \"#utility.yul\":31551:31557   */\n      dup3\n        /* \"#utility.yul\":31547:31562   */\n      add\n        /* \"#utility.yul\":31540:31599   */\n      mstore\n        /* \"#utility.yul\":31633:31638   */\n      0x6e742e0000000000000000000000000000000000000000000000000000000000\n        /* \"#utility.yul\":31628:31630   */\n      0x40\n        /* \"#utility.yul\":31620:31626   */\n      dup3\n        /* \"#utility.yul\":31616:31631   */\n      add\n        /* \"#utility.yul\":31609:31639   */\n      mstore\n        /* \"#utility.yul\":31355:31646   */\n      pop\n      jump\t// out\n        /* \"#utility.yul\":31652:32018   */\n    tag_303:\n        /* \"#utility.yul\":31794:31797   */\n      0x00\n        /* \"#utility.yul\":31815:31882   */\n      tag_537\n        /* \"#utility.yul\":31879:31881   */\n      0x43\n        /* \"#utility.yul\":31874:31877   */\n      dup4\n        /* \"#utility.yul\":31815:31882   */\n      tag_232\n      jump\t// in\n    tag_537:\n        /* \"#utility.yul\":31808:31882   */\n      swap2\n      pop\n        /* \"#utility.yul\":31891:31984   */\n      tag_538\n        /* \"#utility.yul\":31980:31983   */\n      dup3\n        /* \"#utility.yul\":31891:31984   */\n      tag_302\n      jump\t// in\n    tag_538:\n        /* \"#utility.yul\":32009:32011   */\n      0x60\n        /* \"#utility.yul\":32004:32007   */\n      dup3\n        /* \"#utility.yul\":32000:32012   */\n      add\n        /* \"#utility.yul\":31993:32012   */\n      swap1\n      pop\n        /* \"#utility.yul\":31652:32018   */\n      swap2\n      swap1\n      pop\n      jump\t// out\n        /* \"#utility.yul\":32024:32443   */\n    tag_222:\n        /* \"#utility.yul\":32190:32194   */\n      0x00\n        /* \"#utility.yul\":32228:32230   */\n      0x20\n        /* \"#utility.yul\":32217:32226   */\n      dup3\n        /* \"#utility.yul\":32213:32231   */\n      add\n        /* \"#utility.yul\":32205:32231   */\n      swap1\n      pop\n        /* \"#utility.yul\":32277:32286   */\n      dup2\n        /* \"#utility.yul\":32271:32275   */\n      dup2\n        /* \"#utility.yul\":32267:32287   */\n      sub\n        /* \"#utility.yul\":32263:32264   */\n      0x00\n        /* \"#utility.yul\":32252:32261   */\n      dup4\n        /* \"#utility.yul\":32248:32265   */\n      add\n        /* \"#utility.yul\":32241:32288   */\n      mstore\n        /* \"#utility.yul\":32305:32436   */\n      tag_540\n        /* \"#utility.yul\":32431:32435   */\n      dup2\n        /* \"#utility.yul\":32305:32436   */\n      tag_303\n      jump\t// in\n    tag_540:\n        /* \"#utility.yul\":32297:32436   */\n      swap1\n      pop\n        /* \"#utility.yul\":32024:32443   */\n      swap2\n      swap1\n      pop\n      jump\t// out\n        /* \"#utility.yul\":32449:32643   */\n    tag_227:\n        /* \"#utility.yul\":32489:32493   */\n      0x00\n        /* \"#utility.yul\":32509:32529   */\n      tag_542\n        /* \"#utility.yul\":32527:32528   */\n      dup3\n        /* \"#utility.yul\":32509:32529   */\n      tag_239\n      jump\t// in\n    tag_542:\n        /* \"#utility.yul\":32504:32529   */\n      swap2\n      pop\n        /* \"#utility.yul\":32543:32563   */\n      tag_543\n        /* \"#utility.yul\":32561:32562   */\n      dup4\n        /* \"#utility.yul\":32543:32563   */\n      tag_239\n      jump\t// in\n    tag_543:\n        /* \"#utility.yul\":32538:32563   */\n      swap3\n      pop\n        /* \"#utility.yul\":32587:32588   */\n      dup3\n        /* \"#utility.yul\":32584:32585   */\n      dup3\n        /* \"#utility.yul\":32580:32589   */\n      sub\n        /* \"#utility.yul\":32572:32589   */\n      swap1\n      pop\n        /* \"#utility.yul\":32611:32612   */\n      dup2\n        /* \"#utility.yul\":32605:32609   */\n      dup2\n        /* \"#utility.yul\":32602:32613   */\n      gt\n        /* \"#utility.yul\":32599:32636   */\n      iszero\n      tag_544\n      jumpi\n        /* \"#utility.yul\":32616:32634   */\n      tag_545\n      tag_278\n      jump\t// in\n    tag_545:\n        /* \"#utility.yul\":32599:32636   */\n    tag_544:\n        /* \"#utility.yul\":32449:32643   */\n      swap3\n      swap2\n      pop\n      pop\n      jump\t// out\n        /* \"#utility.yul\":32649:32740   */\n    tag_304:\n        /* \"#utility.yul\":32685:32692   */\n      0x00\n        /* \"#utility.yul\":32725:32733   */\n      0xffffff\n        /* \"#utility.yul\":32718:32723   */\n      dup3\n        /* \"#utility.yul\":32714:32734   */\n      and\n        /* \"#utility.yul\":32703:32734   */\n      swap1\n      pop\n        /* \"#utility.yul\":32649:32740   */\n      swap2\n      swap1\n      pop\n      jump\t// out\n        /* \"#utility.yul\":32746:33021   */\n    tag_229:\n        /* \"#utility.yul\":32785:32792   */\n      0x00\n        /* \"#utility.yul\":32808:32827   */\n      tag_548\n        /* \"#utility.yul\":32825:32826   */\n      dup3\n        /* \"#utility.yul\":32808:32827   */\n      tag_304\n      jump\t// in\n    tag_548:\n        /* \"#utility.yul\":32803:32827   */\n      swap2\n      pop\n        /* \"#utility.yul\":32841:32860   */\n      tag_549\n        /* \"#utility.yul\":32858:32859   */\n      dup4\n        /* \"#utility.yul\":32841:32860   */\n      tag_304\n      jump\t// in\n    tag_549:\n        /* \"#utility.yul\":32836:32860   */\n      swap3\n      pop\n        /* \"#utility.yul\":32895:32896   */\n      dup3\n        /* \"#utility.yul\":32892:32893   */\n      dup3\n        /* \"#utility.yul\":32888:32897   */\n      mul\n        /* \"#utility.yul\":32917:32946   */\n      tag_550\n        /* \"#utility.yul\":32934:32945   */\n      dup2\n        /* \"#utility.yul\":32917:32946   */\n      tag_304\n      jump\t// in\n    tag_550:\n        /* \"#utility.yul\":32906:32946   */\n      swap2\n      pop\n        /* \"#utility.yul\":32978:32989   */\n      dup1\n        /* \"#utility.yul\":32969:32976   */\n      dup3\n        /* \"#utility.yul\":32966:32990   */\n      eq\n        /* \"#utility.yul\":32956:33014   */\n      tag_551\n      jumpi\n        /* \"#utility.yul\":32994:33012   */\n      tag_552\n      tag_278\n      jump\t// in\n    tag_552:\n        /* \"#utility.yul\":32956:33014   */\n    tag_551:\n        /* \"#utility.yul\":32793:33021   */\n      pop\n        /* \"#utility.yul\":32746:33021   */\n      swap3\n      swap2\n      pop\n      pop\n      jump\t// out\n\n    auxdata: 0xa2646970667358221220cb21dcd02999a6bb9454f626710c371345e0e774f374393f7da991c9283de2fd64736f6c63430008120033\n}\n",
				"bytecode": {
					"linkReferences": {},
					"object": "60806040523480156200001157600080fd5b506040516200311e3803806200311e8339818101604052810190620000379190620003df565b8373ffffffffffffffffffffffffffffffffffffffff163373ffffffffffffffffffffffffffffffffffffffff1614806200009d57508273ffffffffffffffffffffffffffffffffffffffff163373ffffffffffffffffffffffffffffffffffffffff16145b620000df576040517f08c379a0000000000000000000000000000000000000000000000000000000008152600401620000d69062000516565b60405180910390fd5b836000800160006101000a81548173ffffffffffffffffffffffffffffffffffffffff021916908373ffffffffffffffffffffffffffffffffffffffff16021790555082600160000160006101000a81548173ffffffffffffffffffffffffffffffffffffffff021916908373ffffffffffffffffffffffffffffffffffffffff16021790555081600260000190816200017a919062000783565b5080600260010190816200018f919062000783565b506000600460000160006101000a81548160ff02191690836003811115620001bc57620001bb6200086a565b5b02179055506000600a60006101000a81548160ff021916908360ff1602179055505050505062000899565b6000604051905090565b600080fd5b600080fd5b600073ffffffffffffffffffffffffffffffffffffffff82169050919050565b60006200022882620001fb565b9050919050565b6200023a816200021b565b81146200024657600080fd5b50565b6000815190506200025a816200022f565b92915050565b600080fd5b600080fd5b6000601f19601f8301169050919050565b7f4e487b7100000000000000000000000000000000000000000000000000000000600052604160045260246000fd5b620002b5826200026a565b810181811067ffffffffffffffff82111715620002d757620002d66200027b565b5b80604052505050565b6000620002ec620001e7565b9050620002fa8282620002aa565b919050565b600067ffffffffffffffff8211156200031d576200031c6200027b565b5b62000328826200026a565b9050602081019050919050565b60005b838110156200035557808201518184015260208101905062000338565b60008484015250505050565b6000620003786200037284620002ff565b620002e0565b90508281526020810184848401111562000397576200039662000265565b5b620003a484828562000335565b509392505050565b600082601f830112620003c457620003c362000260565b5b8151620003d684826020860162000361565b91505092915050565b60008060008060808587031215620003fc57620003fb620001f1565b5b60006200040c8782880162000249565b94505060206200041f8782880162000249565b935050604085015167ffffffffffffffff811115620004435762000442620001f6565b5b6200045187828801620003ac565b925050606085015167ffffffffffffffff811115620004755762000474620001f6565b5b6200048387828801620003ac565b91505092959194509250565b600082825260208201905092915050565b7f4f6e6c79206c616e646c6f7264206f722074656e616e742073686f756c64206260008201527f6520616c6c6f77656420746f2063726561746520746865206c656173652e0000602082015250565b6000620004fe603e836200048f565b91506200050b82620004a0565b604082019050919050565b600060208201905081810360008301526200053181620004ef565b9050919050565b600081519050919050565b7f4e487b7100000000000000000000000000000000000000000000000000000000600052602260045260246000fd5b600060028204905060018216806200058b57607f821691505b602082108103620005a157620005a062000543565b5b50919050565b60008190508160005260206000209050919050565b60006020601f8301049050919050565b600082821b905092915050565b6000600883026200060b7fffffffffffffffffffffffffffffffffffffffffffffffffffffffffffffffff82620005cc565b620006178683620005cc565b95508019841693508086168417925050509392505050565b6000819050919050565b6000819050919050565b6000620006646200065e62000658846200062f565b62000639565b6200062f565b9050919050565b6000819050919050565b620006808362000643565b620006986200068f826200066b565b848454620005d9565b825550505050565b600090565b620006af620006a0565b620006bc81848462000675565b505050565b5b81811015620006e457620006d8600082620006a5565b600181019050620006c2565b5050565b601f8211156200073357620006fd81620005a7565b6200070884620005bc565b8101602085101562000718578190505b620007306200072785620005bc565b830182620006c1565b50505b505050565b600082821c905092915050565b6000620007586000198460080262000738565b1980831691505092915050565b600062000773838362000745565b9150826002028217905092915050565b6200078e8262000538565b67ffffffffffffffff811115620007aa57620007a96200027b565b5b620007b6825462000572565b620007c3828285620006e8565b600060209050601f831160018114620007fb5760008415620007e6578287015190505b620007f2858262000765565b86555062000862565b601f1984166200080b86620005a7565b60005b8281101562000835578489015182556001820191506020850194506020810190506200080e565b8683101562000855578489015162000851601f89168262000745565b8355505b6001600288020188555050505b505050505050565b7f4e487b7100000000000000000000000000000000000000000000000000000000600052602160045260246000fd5b61287580620008a96000396000f3fe60806040526004361061009c5760003560e01c8063adf0779111610064578063adf077911461012e578063b763701b1461015a578063c939329b14610171578063c998eef414610188578063dc1997ea146101b8578063e154fe71146101e45761009c565b8063176fd3f0146100a15780633fbd37d2146100cd578063548aff72146100e4578063750d23a9146100fb578063a709c4fe14610124575b600080fd5b3480156100ad57600080fd5b506100b66101ee565b6040516100c492919061165b565b60405180910390f35b3480156100d957600080fd5b506100e2610310565b005b3480156100f057600080fd5b506100f9610691565b005b34801561010757600080fd5b50610122600480360381019061011d91906116cd565b610897565b005b61012c610a70565b005b34801561013a57600080fd5b50610143610dbb565b6040516101519291906117a4565b60405180910390f35b34801561016657600080fd5b5061016f610dfa565b005b34801561017d57600080fd5b50610186611017565b005b34801561019457600080fd5b5061019d61137c565b6040516101af96959493929190611853565b60405180910390f35b3480156101c457600080fd5b506101cd6113b3565b6040516101db9291906117a4565b60405180910390f35b6101ec6113f2565b005b60028060000180546101ff906118e3565b80601f016020809104026020016040519081016040528092919081815260200182805461022b906118e3565b80156102785780601f1061024d57610100808354040283529160200191610278565b820191906000526020600020905b81548152906001019060200180831161025b57829003601f168201915b50505050509080600101805461028d906118e3565b80601f01602080910402602001604051908101604052809291908181526020018280546102b9906118e3565b80156103065780601f106102db57610100808354040283529160200191610306565b820191906000526020600020905b8154815290600101906020018083116102e957829003601f168201915b5050505050905082565b6000800160009054906101000a900473ffffffffffffffffffffffffffffffffffffffff1673ffffffffffffffffffffffffffffffffffffffff163373ffffffffffffffffffffffffffffffffffffffff1614806103be5750600160000160009054906101000a900473ffffffffffffffffffffffffffffffffffffffff1673ffffffffffffffffffffffffffffffffffffffff163373ffffffffffffffffffffffffffffffffffffffff16145b6103fd576040517f08c379a00000000000000000000000000000000000000000000000000000000081526004016103f490611986565b60405180910390fd5b60006003811115610411576104106117cd565b5b600460000160009054906101000a900460ff166003811115610436576104356117cd565b5b1480610478575060016003811115610451576104506117cd565b5b600460000160009054906101000a900460ff166003811115610476576104756117cd565b5b145b6104b7576040517f08c379a00000000000000000000000000000000000000000000000000000000081526004016104ae90611a18565b60405180910390fd5b6000800160009054906101000a900473ffffffffffffffffffffffffffffffffffffffff1673ffffffffffffffffffffffffffffffffffffffff163373ffffffffffffffffffffffffffffffffffffffff160361058457600115156000800160149054906101000a900460ff16151514610566576040517f08c379a000000000000000000000000000000000000000000000000000000000815260040161055d90611aaa565b60405180910390fd5b60008060000160146101000a81548160ff0219169083151502179055505b600160000160009054906101000a900473ffffffffffffffffffffffffffffffffffffffff1673ffffffffffffffffffffffffffffffffffffffff163373ffffffffffffffffffffffffffffffffffffffff16036106545760011515600160000160149054906101000a900460ff16151514610635576040517f08c379a000000000000000000000000000000000000000000000000000000000815260040161062c90611b3c565b60405180910390fd5b6000600160000160146101000a81548160ff0219169083151502179055505b60006003811115610668576106676117cd565b5b600460000160009054906101000a900460ff16600381111561068d5761068c6117cd565b5b5050565b600160000160009054906101000a900473ffffffffffffffffffffffffffffffffffffffff1673ffffffffffffffffffffffffffffffffffffffff163373ffffffffffffffffffffffffffffffffffffffff1614610724576040517f08c379a000000000000000000000000000000000000000000000000000000000815260040161071b90611bce565b60405180910390fd5b60026003811115610738576107376117cd565b5b600460000160009054906101000a900460ff16600381111561075d5761075c6117cd565b5b1461079d576040517f08c379a000000000000000000000000000000000000000000000000000000000815260040161079490611c60565b60405180910390fd5b600460020154600a60009054906101000a900460ff1660ff16146107f6576040517f08c379a00000000000000000000000000000000000000000000000000000000081526004016107ed90611cf2565b60405180910390fd5b600160000160009054906101000a900473ffffffffffffffffffffffffffffffffffffffff1673ffffffffffffffffffffffffffffffffffffffff166108fc6004600501549081150290604051600060405180830381858888f19350505050158015610866573d6000803e3d6000fd5b506003600460000160006101000a81548160ff021916908360038111156108905761088f6117cd565b5b0217905550565b6000800160009054906101000a900473ffffffffffffffffffffffffffffffffffffffff1673ffffffffffffffffffffffffffffffffffffffff163373ffffffffffffffffffffffffffffffffffffffff1614806109455750600160000160009054906101000a900473ffffffffffffffffffffffffffffffffffffffff1673ffffffffffffffffffffffffffffffffffffffff163373ffffffffffffffffffffffffffffffffffffffff16145b610984576040517f08c379a000000000000000000000000000000000000000000000000000000000815260040161097b90611d84565b60405180910390fd5b60006003811115610998576109976117cd565b5b600460000160009054906101000a900460ff1660038111156109bd576109bc6117cd565b5b146109fd576040517f08c379a00000000000000000000000000000000000000000000000000000000081526004016109f490611e16565b60405180910390fd5b8460046001018190555083600460020181905550826004600301819055508160048001819055508060046005018190555060008060000160146101000a81548160ff0219169083151502179055506000600160000160146101000a81548160ff0219169083151502179055505050505050565b600160000160009054906101000a900473ffffffffffffffffffffffffffffffffffffffff1673ffffffffffffffffffffffffffffffffffffffff163373ffffffffffffffffffffffffffffffffffffffff1614610b03576040517f08c379a0000000000000000000000000000000000000000000000000000000008152600401610afa90611e82565b60405180910390fd5b60026003811115610b1757610b166117cd565b5b600460000160009054906101000a900460ff166003811115610b3c57610b3b6117cd565b5b14610b7c576040517f08c379a0000000000000000000000000000000000000000000000000000000008152600401610b7390611f14565b60405180910390fd5b600460020154600a60009054906101000a900460ff1660ff1610610bd5576040517f08c379a0000000000000000000000000000000000000000000000000000000008152600401610bcc90611fa6565b60405180910390fd5b6000610bdf611575565b90506000600460010154905062069780821115610cc957620697808211158015610c0c575062278d008211155b15610c475760006201518083610c229190612024565b9050806004800154610c349190612055565b82610c3f9190612097565b915050610cc8565b62278d00821115610cc7576003600460000160006101000a81548160ff02191690836003811115610c7b57610c7a6117cd565b5b021790555062278d00821115610cc6576040517f08c379a0000000000000000000000000000000000000000000000000000000008152600401610cbd90612117565b60405180910390fd5b5b5b5b6004600101543414610d10576040517f08c379a0000000000000000000000000000000000000000000000000000000008152600401610d07906121cf565b60405180910390fd5b6001600a60008282829054906101000a900460ff16610d2f91906121fc565b92506101000a81548160ff021916908360ff1602179055506000800160009054906101000a900473ffffffffffffffffffffffffffffffffffffffff1673ffffffffffffffffffffffffffffffffffffffff166108fc6004600101549081150290604051600060405180830381858888f19350505050158015610db6573d6000803e3d6000fd5b505050565b60018060000160009054906101000a900473ffffffffffffffffffffffffffffffffffffffff16908060000160149054906101000a900460ff16905082565b6000800160009054906101000a900473ffffffffffffffffffffffffffffffffffffffff1673ffffffffffffffffffffffffffffffffffffffff163373ffffffffffffffffffffffffffffffffffffffff1614610e8c576040517f08c379a0000000000000000000000000000000000000000000000000000000008152600401610e83906122a3565b60405180910390fd5b60026003811115610ea057610e9f6117cd565b5b600460000160009054906101000a900460ff166003811115610ec557610ec46117cd565b5b14610f05576040517f08c379a0000000000000000000000000000000000000000000000000000000008152600401610efc90612335565b60405180910390fd5b6000610f0f611575565b905062278d008111610f56576040517f08c379a0000000000000000000000000000000000000000000000000000000008152600401610f4d906123c7565b60405180910390fd5b600460020154600a60009054906101000a900460ff1660ff1603610fe657600160000160009054906101000a900473ffffffffffffffffffffffffffffffffffffffff1673ffffffffffffffffffffffffffffffffffffffff166108fc6004600501549081150290604051600060405180830381858888f19350505050158015610fe4573d6000803e3d6000fd5b505b6003600460000160006101000a81548160ff0219169083600381111561100f5761100e6117cd565b5b021790555050565b6000800160009054906101000a900473ffffffffffffffffffffffffffffffffffffffff1673ffffffffffffffffffffffffffffffffffffffff163373ffffffffffffffffffffffffffffffffffffffff1614806110c55750600160000160009054906101000a900473ffffffffffffffffffffffffffffffffffffffff1673ffffffffffffffffffffffffffffffffffffffff163373ffffffffffffffffffffffffffffffffffffffff16145b611104576040517f08c379a00000000000000000000000000000000000000000000000000000000081526004016110fb90612459565b60405180910390fd5b60006003811115611118576111176117cd565b5b600460000160009054906101000a900460ff16600381111561113d5761113c6117cd565b5b1461117d576040517f08c379a0000000000000000000000000000000000000000000000000000000008152600401611174906124eb565b60405180910390fd5b6000800160009054906101000a900473ffffffffffffffffffffffffffffffffffffffff1673ffffffffffffffffffffffffffffffffffffffff163373ffffffffffffffffffffffffffffffffffffffff160361124a57600015156000800160149054906101000a900460ff1615151461122c576040517f08c379a000000000000000000000000000000000000000000000000000000000815260040161122390612557565b60405180910390fd5b60016000800160146101000a81548160ff0219169083151502179055505b600160000160009054906101000a900473ffffffffffffffffffffffffffffffffffffffff1673ffffffffffffffffffffffffffffffffffffffff163373ffffffffffffffffffffffffffffffffffffffff16036113195760001515600160000160149054906101000a900460ff161515146112fb576040517f08c379a00000000000000000000000000000000000000000000000000000000081526004016112f2906125c3565b60405180910390fd5b60018060000160146101000a81548160ff0219169083151502179055505b6000800160149054906101000a900460ff1680156113465750600160000160149054906101000a900460ff165b1561137a576001600460000160006101000a81548160ff02191690836003811115611374576113736117cd565b5b02179055505b565b60048060000160009054906101000a900460ff16908060010154908060020154908060030154908060040154908060050154905086565b60008060000160009054906101000a900473ffffffffffffffffffffffffffffffffffffffff16908060000160149054906101000a900460ff16905082565b600160000160009054906101000a900473ffffffffffffffffffffffffffffffffffffffff1673ffffffffffffffffffffffffffffffffffffffff163373ffffffffffffffffffffffffffffffffffffffff1614611485576040517f08c379a000000000000000000000000000000000000000000000000000000000815260040161147c90612655565b60405180910390fd5b60016003811115611499576114986117cd565b5b600460000160009054906101000a900460ff1660038111156114be576114bd6117cd565b5b146114fe576040517f08c379a00000000000000000000000000000000000000000000000000000000081526004016114f5906126e7565b60405180910390fd5b6004600501543414611545576040517f08c379a000000000000000000000000000000000000000000000000000000000815260040161153c9061279f565b60405180910390fd5b6002600460000160006101000a81548160ff0219169083600381111561156e5761156d6117cd565b5b0217905550565b60008042905060006004600301548261158e91906127bf565b905062278d00600a60009054906101000a900460ff1660ff166115b19190612802565b62ffffff16816115c191906127bf565b9050809250505090565b600081519050919050565b600082825260208201905092915050565b60005b838110156116055780820151818401526020810190506115ea565b60008484015250505050565b6000601f19601f8301169050919050565b600061162d826115cb565b61163781856115d6565b93506116478185602086016115e7565b61165081611611565b840191505092915050565b600060408201905081810360008301526116758185611622565b905081810360208301526116898184611622565b90509392505050565b600080fd5b6000819050919050565b6116aa81611697565b81146116b557600080fd5b50565b6000813590506116c7816116a1565b92915050565b600080600080600060a086880312156116e9576116e8611692565b5b60006116f7888289016116b8565b9550506020611708888289016116b8565b9450506040611719888289016116b8565b935050606061172a888289016116b8565b925050608061173b888289016116b8565b9150509295509295909350565b600073ffffffffffffffffffffffffffffffffffffffff82169050919050565b600061177382611748565b9050919050565b61178381611768565b82525050565b60008115159050919050565b61179e81611789565b82525050565b60006040820190506117b9600083018561177a565b6117c66020830184611795565b9392505050565b7f4e487b7100000000000000000000000000000000000000000000000000000000600052602160045260246000fd5b6004811061180d5761180c6117cd565b5b50565b600081905061181e826117fc565b919050565b600061182e82611810565b9050919050565b61183e81611823565b82525050565b61184d81611697565b82525050565b600060c0820190506118686000830189611835565b6118756020830188611844565b6118826040830187611844565b61188f6060830186611844565b61189c6080830185611844565b6118a960a0830184611844565b979650505050505050565b7f4e487b7100000000000000000000000000000000000000000000000000000000600052602260045260246000fd5b600060028204905060018216806118fb57607f821691505b60208210810361190e5761190d6118b4565b5b50919050565b7f4f6e6c79206f776e6572206f722074656e656e742063616e20756e7369676e2060008201527f61677265656d656e742e00000000000000000000000000000000000000000000602082015250565b6000611970602a836115d6565b915061197b82611914565b604082019050919050565b6000602082019050818103600083015261199f81611963565b9050919050565b7f546865206c656173652073686f756c64206e6f7420686176652061637469766560008201527f642e000000000000000000000000000000000000000000000000000000000000602082015250565b6000611a026022836115d6565b9150611a0d826119a6565b604082019050919050565b60006020820190508181036000830152611a31816119f5565b9050919050565b7f4c616e646c6f726420686173206e6f74207369676e656420746865206167726560008201527f656d656e74207965742e00000000000000000000000000000000000000000000602082015250565b6000611a94602a836115d6565b9150611a9f82611a38565b604082019050919050565b60006020820190508181036000830152611ac381611a87565b9050919050565b7f54656e616e7420686173206e6f74207369676e6564207468652061677265656d60008201527f656e74207965742e000000000000000000000000000000000000000000000000602082015250565b6000611b266028836115d6565b9150611b3182611aca565b604082019050919050565b60006020820190508181036000830152611b5581611b19565b9050919050565b7f4f6e6c79207468652074656e656e742063616e2063686f6f736520746f20766160008201527f636174652e000000000000000000000000000000000000000000000000000000602082015250565b6000611bb86025836115d6565b9150611bc382611b5c565b604082019050919050565b60006020820190508181036000830152611be781611bab565b9050919050565b7f546865206c656173652073686f756c642062652061637469766520746f20737460008201527f617274207661636174652070726f636573732e00000000000000000000000000602082015250565b6000611c4a6033836115d6565b9150611c5582611bee565b604082019050919050565b60006020820190508181036000830152611c7981611c3d565b9050919050565b7f546865206c65617365207465726d20686173206e6f742079657420636f6d706c60008201527f657465642e000000000000000000000000000000000000000000000000000000602082015250565b6000611cdc6025836115d6565b9150611ce782611c80565b604082019050919050565b60006020820190508181036000830152611d0b81611ccf565b9050919050565b7f4f6e6c79206f776e6572206f722074656e656e742063616e207365742074657260008201527f6d732e0000000000000000000000000000000000000000000000000000000000602082015250565b6000611d6e6023836115d6565b9150611d7982611d12565b604082019050919050565b60006020820190508181036000830152611d9d81611d61565b9050919050565b7f546865206c656173652068617320746f20626520696e20696e6163746976652060008201527f737461746520746f20736574207465726d732e00000000000000000000000000602082015250565b6000611e006033836115d6565b9150611e0b82611da4565b604082019050919050565b60006020820190508181036000830152611e2f81611df3565b9050919050565b7f4f6e6c792074656e656e742063616e2073656e642072656e742e000000000000600082015250565b6000611e6c601a836115d6565b9150611e7782611e36565b602082019050919050565b60006020820190508181036000830152611e9b81611e5f565b9050919050565b7f546865206c656173652073686f756c642062652061637469766520746f20736560008201527f6e642072656e742e000000000000000000000000000000000000000000000000602082015250565b6000611efe6028836115d6565b9150611f0982611ea2565b604082019050919050565b60006020820190508181036000830152611f2d81611ef1565b9050919050565b7f546865206c65617365207465726d206973207570202d2074696d6520746f207660008201527f61636174652074686520706c6163652e00000000000000000000000000000000602082015250565b6000611f906030836115d6565b9150611f9b82611f34565b604082019050919050565b60006020820190508181036000830152611fbf81611f83565b9050919050565b7f4e487b7100000000000000000000000000000000000000000000000000000000600052601260045260246000fd5b7f4e487b7100000000000000000000000000000000000000000000000000000000600052601160045260246000fd5b600061202f82611697565b915061203a83611697565b92508261204a57612049611fc6565b5b828204905092915050565b600061206082611697565b915061206b83611697565b925082820261207981611697565b915082820484148315176120905761208f611ff5565b5b5092915050565b60006120a282611697565b91506120ad83611697565b92508282019050808211156120c5576120c4611ff5565b5b92915050565b7f4c6561736520686173206265656e207465726d696e617465642e000000000000600082015250565b6000612101601a836115d6565b915061210c826120cb565b602082019050919050565b60006020820190508181036000830152612130816120f4565b9050919050565b7f5468652076616c7565206265696e672073656e742073686f756c64206571756160008201527f6c207468652072656e7420616d6f756e742028696e636c7564696e67206c617460208201527f652066656573292e000000000000000000000000000000000000000000000000604082015250565b60006121b96048836115d6565b91506121c482612137565b606082019050919050565b600060208201905081810360008301526121e8816121ac565b9050919050565b600060ff82169050919050565b6000612207826121ef565b9150612212836121ef565b9250828201905060ff81111561222b5761222a611ff5565b5b92915050565b7f4f6e6c7920746865206c616e646c6f72642063616e2063686f6f736520746f2060008201527f65766963742e0000000000000000000000000000000000000000000000000000602082015250565b600061228d6026836115d6565b915061229882612231565b604082019050919050565b600060208201905081810360008301526122bc81612280565b9050919050565b7f546865206c656173652073686f756c642062652061637469766520746f20737460008201527f617274206576696374696f6e2070726f636573732e0000000000000000000000602082015250565b600061231f6035836115d6565b915061232a826122c3565b604082019050919050565b6000602082019050818103600083015261234e81612312565b9050919050565b7f497420686173206e6f74206265656e20333020646179732073696e636520746860008201527f65206c6173742072656e742e0000000000000000000000000000000000000000602082015250565b60006123b1602c836115d6565b91506123bc82612355565b604082019050919050565b600060208201905081810360008301526123e0816123a4565b9050919050565b7f4f6e6c79206f776e6572206f722074656e656e742063616e207369676e20616760008201527f7265656d656e742e000000000000000000000000000000000000000000000000602082015250565b60006124436028836115d6565b915061244e826123e7565b604082019050919050565b6000602082019050818103600083015261247281612436565b9050919050565b7f546865206c656173652068617320746f20626520696e20696e6163746976652060008201527f73746174652e0000000000000000000000000000000000000000000000000000602082015250565b60006124d56026836115d6565b91506124e082612479565b604082019050919050565b60006020820190508181036000830152612504816124c8565b9050919050565b7f4c616e646c6f72642068617320616c7265616479206167726565642e00000000600082015250565b6000612541601c836115d6565b915061254c8261250b565b602082019050919050565b6000602082019050818103600083015261257081612534565b9050919050565b7f54656e616e742068617320616c7265616479206167726565642e000000000000600082015250565b60006125ad601a836115d6565b91506125b882612577565b602082019050919050565b600060208201905081810360008301526125dc816125a0565b9050919050565b7f4f6e6c792074656e656e742063616e2073656e6420736563757269747920646560008201527f706f7369742e0000000000000000000000000000000000000000000000000000602082015250565b600061263f6026836115d6565b915061264a826125e3565b604082019050919050565b6000602082019050818103600083015261266e81612632565b9050919050565b7f546865206c656173652073686f756c6420626520696e2070656e64696e67206460008201527f65706f7369742073746174652e00000000000000000000000000000000000000602082015250565b60006126d1602d836115d6565b91506126dc82612675565b604082019050919050565b60006020820190508181036000830152612700816126c4565b9050919050565b7f5468652076616c7565206265696e67206465706f73697465642073686f756c6460008201527f20657175616c20746865207365637572697479206465706f73697420616d6f7560208201527f6e742e0000000000000000000000000000000000000000000000000000000000604082015250565b60006127896043836115d6565b915061279482612707565b606082019050919050565b600060208201905081810360008301526127b88161277c565b9050919050565b60006127ca82611697565b91506127d583611697565b92508282039050818111156127ed576127ec611ff5565b5b92915050565b600062ffffff82169050919050565b600061280d826127f3565b9150612818836127f3565b9250828202612826816127f3565b915080821461283857612837611ff5565b5b509291505056fea2646970667358221220cb21dcd02999a6bb9454f626710c371345e0e774f374393f7da991c9283de2fd64736f6c63430008120033",
					"opcodes": "PUSH1 0x80 PUSH1 0x40 MSTORE CALLVALUE DUP1 ISZERO PUSH3 0x11 JUMPI PUSH1 0x0 DUP1 REVERT JUMPDEST POP PUSH1 0x40 MLOAD PUSH3 0x311E CODESIZE SUB DUP1 PUSH3 0x311E DUP4 CODECOPY DUP2 DUP2 ADD PUSH1 0x40 MSTORE DUP2 ADD SWAP1 PUSH3 0x37 SWAP2 SWAP1 PUSH3 0x3DF JUMP JUMPDEST DUP4 PUSH20 0xFFFFFFFFFFFFFFFFFFFFFFFFFFFFFFFFFFFFFFFF AND CALLER PUSH20 0xFFFFFFFFFFFFFFFFFFFFFFFFFFFFFFFFFFFFFFFF AND EQ DUP1 PUSH3 0x9D JUMPI POP DUP3 PUSH20 0xFFFFFFFFFFFFFFFFFFFFFFFFFFFFFFFFFFFFFFFF AND CALLER PUSH20 0xFFFFFFFFFFFFFFFFFFFFFFFFFFFFFFFFFFFFFFFF AND EQ JUMPDEST PUSH3 0xDF JUMPI PUSH1 0x40 MLOAD PUSH32 0x8C379A000000000000000000000000000000000000000000000000000000000 DUP2 MSTORE PUSH1 0x4 ADD PUSH3 0xD6 SWAP1 PUSH3 0x516 JUMP JUMPDEST PUSH1 0x40 MLOAD DUP1 SWAP2 SUB SWAP1 REVERT JUMPDEST DUP4 PUSH1 0x0 DUP1 ADD PUSH1 0x0 PUSH2 0x100 EXP DUP2 SLOAD DUP2 PUSH20 0xFFFFFFFFFFFFFFFFFFFFFFFFFFFFFFFFFFFFFFFF MUL NOT AND SWAP1 DUP4 PUSH20 0xFFFFFFFFFFFFFFFFFFFFFFFFFFFFFFFFFFFFFFFF AND MUL OR SWAP1 SSTORE POP DUP3 PUSH1 0x1 PUSH1 0x0 ADD PUSH1 0x0 PUSH2 0x100 EXP DUP2 SLOAD DUP2 PUSH20 0xFFFFFFFFFFFFFFFFFFFFFFFFFFFFFFFFFFFFFFFF MUL NOT AND SWAP1 DUP4 PUSH20 0xFFFFFFFFFFFFFFFFFFFFFFFFFFFFFFFFFFFFFFFF AND MUL OR SWAP1 SSTORE POP DUP2 PUSH1 0x2 PUSH1 0x0 ADD SWAP1 DUP2 PUSH3 0x17A SWAP2 SWAP1 PUSH3 0x783 JUMP JUMPDEST POP DUP1 PUSH1 0x2 PUSH1 0x1 ADD SWAP1 DUP2 PUSH3 0x18F SWAP2 SWAP1 PUSH3 0x783 JUMP JUMPDEST POP PUSH1 0x0 PUSH1 0x4 PUSH1 0x0 ADD PUSH1 0x0 PUSH2 0x100 EXP DUP2 SLOAD DUP2 PUSH1 0xFF MUL NOT AND SWAP1 DUP4 PUSH1 0x3 DUP2 GT ISZERO PUSH3 0x1BC JUMPI PUSH3 0x1BB PUSH3 0x86A JUMP JUMPDEST JUMPDEST MUL OR SWAP1 SSTORE POP PUSH1 0x0 PUSH1 0xA PUSH1 0x0 PUSH2 0x100 EXP DUP2 SLOAD DUP2 PUSH1 0xFF MUL NOT AND SWAP1 DUP4 PUSH1 0xFF AND MUL OR SWAP1 SSTORE POP POP POP POP POP PUSH3 0x899 JUMP JUMPDEST PUSH1 0x0 PUSH1 0x40 MLOAD SWAP1 POP SWAP1 JUMP JUMPDEST PUSH1 0x0 DUP1 REVERT JUMPDEST PUSH1 0x0 DUP1 REVERT JUMPDEST PUSH1 0x0 PUSH20 0xFFFFFFFFFFFFFFFFFFFFFFFFFFFFFFFFFFFFFFFF DUP3 AND SWAP1 POP SWAP2 SWAP1 POP JUMP JUMPDEST PUSH1 0x0 PUSH3 0x228 DUP3 PUSH3 0x1FB JUMP JUMPDEST SWAP1 POP SWAP2 SWAP1 POP JUMP JUMPDEST PUSH3 0x23A DUP2 PUSH3 0x21B JUMP JUMPDEST DUP2 EQ PUSH3 0x246 JUMPI PUSH1 0x0 DUP1 REVERT JUMPDEST POP JUMP JUMPDEST PUSH1 0x0 DUP2 MLOAD SWAP1 POP PUSH3 0x25A DUP2 PUSH3 0x22F JUMP JUMPDEST SWAP3 SWAP2 POP POP JUMP JUMPDEST PUSH1 0x0 DUP1 REVERT JUMPDEST PUSH1 0x0 DUP1 REVERT JUMPDEST PUSH1 0x0 PUSH1 0x1F NOT PUSH1 0x1F DUP4 ADD AND SWAP1 POP SWAP2 SWAP1 POP JUMP JUMPDEST PUSH32 0x4E487B7100000000000000000000000000000000000000000000000000000000 PUSH1 0x0 MSTORE PUSH1 0x41 PUSH1 0x4 MSTORE PUSH1 0x24 PUSH1 0x0 REVERT JUMPDEST PUSH3 0x2B5 DUP3 PUSH3 0x26A JUMP JUMPDEST DUP2 ADD DUP2 DUP2 LT PUSH8 0xFFFFFFFFFFFFFFFF DUP3 GT OR ISZERO PUSH3 0x2D7 JUMPI PUSH3 0x2D6 PUSH3 0x27B JUMP JUMPDEST JUMPDEST DUP1 PUSH1 0x40 MSTORE POP POP POP JUMP JUMPDEST PUSH1 0x0 PUSH3 0x2EC PUSH3 0x1E7 JUMP JUMPDEST SWAP1 POP PUSH3 0x2FA DUP3 DUP3 PUSH3 0x2AA JUMP JUMPDEST SWAP2 SWAP1 POP JUMP JUMPDEST PUSH1 0x0 PUSH8 0xFFFFFFFFFFFFFFFF DUP3 GT ISZERO PUSH3 0x31D JUMPI PUSH3 0x31C PUSH3 0x27B JUMP JUMPDEST JUMPDEST PUSH3 0x328 DUP3 PUSH3 0x26A JUMP JUMPDEST SWAP1 POP PUSH1 0x20 DUP2 ADD SWAP1 POP SWAP2 SWAP1 POP JUMP JUMPDEST PUSH1 0x0 JUMPDEST DUP4 DUP2 LT ISZERO PUSH3 0x355 JUMPI DUP1 DUP3 ADD MLOAD DUP2 DUP5 ADD MSTORE PUSH1 0x20 DUP2 ADD SWAP1 POP PUSH3 0x338 JUMP JUMPDEST PUSH1 0x0 DUP5 DUP5 ADD MSTORE POP POP POP POP JUMP JUMPDEST PUSH1 0x0 PUSH3 0x378 PUSH3 0x372 DUP5 PUSH3 0x2FF JUMP JUMPDEST PUSH3 0x2E0 JUMP JUMPDEST SWAP1 POP DUP3 DUP2 MSTORE PUSH1 0x20 DUP2 ADD DUP5 DUP5 DUP5 ADD GT ISZERO PUSH3 0x397 JUMPI PUSH3 0x396 PUSH3 0x265 JUMP JUMPDEST JUMPDEST PUSH3 0x3A4 DUP5 DUP3 DUP6 PUSH3 0x335 JUMP JUMPDEST POP SWAP4 SWAP3 POP POP POP JUMP JUMPDEST PUSH1 0x0 DUP3 PUSH1 0x1F DUP4 ADD SLT PUSH3 0x3C4 JUMPI PUSH3 0x3C3 PUSH3 0x260 JUMP JUMPDEST JUMPDEST DUP2 MLOAD PUSH3 0x3D6 DUP5 DUP3 PUSH1 0x20 DUP7 ADD PUSH3 0x361 JUMP JUMPDEST SWAP2 POP POP SWAP3 SWAP2 POP POP JUMP JUMPDEST PUSH1 0x0 DUP1 PUSH1 0x0 DUP1 PUSH1 0x80 DUP6 DUP8 SUB SLT ISZERO PUSH3 0x3FC JUMPI PUSH3 0x3FB PUSH3 0x1F1 JUMP JUMPDEST JUMPDEST PUSH1 0x0 PUSH3 0x40C DUP8 DUP3 DUP9 ADD PUSH3 0x249 JUMP JUMPDEST SWAP5 POP POP PUSH1 0x20 PUSH3 0x41F DUP8 DUP3 DUP9 ADD PUSH3 0x249 JUMP JUMPDEST SWAP4 POP POP PUSH1 0x40 DUP6 ADD MLOAD PUSH8 0xFFFFFFFFFFFFFFFF DUP2 GT ISZERO PUSH3 0x443 JUMPI PUSH3 0x442 PUSH3 0x1F6 JUMP JUMPDEST JUMPDEST PUSH3 0x451 DUP8 DUP3 DUP9 ADD PUSH3 0x3AC JUMP JUMPDEST SWAP3 POP POP PUSH1 0x60 DUP6 ADD MLOAD PUSH8 0xFFFFFFFFFFFFFFFF DUP2 GT ISZERO PUSH3 0x475 JUMPI PUSH3 0x474 PUSH3 0x1F6 JUMP JUMPDEST JUMPDEST PUSH3 0x483 DUP8 DUP3 DUP9 ADD PUSH3 0x3AC JUMP JUMPDEST SWAP2 POP POP SWAP3 SWAP6 SWAP2 SWAP5 POP SWAP3 POP JUMP JUMPDEST PUSH1 0x0 DUP3 DUP3 MSTORE PUSH1 0x20 DUP3 ADD SWAP1 POP SWAP3 SWAP2 POP POP JUMP JUMPDEST PUSH32 0x4F6E6C79206C616E646C6F7264206F722074656E616E742073686F756C642062 PUSH1 0x0 DUP3 ADD MSTORE PUSH32 0x6520616C6C6F77656420746F2063726561746520746865206C656173652E0000 PUSH1 0x20 DUP3 ADD MSTORE POP JUMP JUMPDEST PUSH1 0x0 PUSH3 0x4FE PUSH1 0x3E DUP4 PUSH3 0x48F JUMP JUMPDEST SWAP2 POP PUSH3 0x50B DUP3 PUSH3 0x4A0 JUMP JUMPDEST PUSH1 0x40 DUP3 ADD SWAP1 POP SWAP2 SWAP1 POP JUMP JUMPDEST PUSH1 0x0 PUSH1 0x20 DUP3 ADD SWAP1 POP DUP2 DUP2 SUB PUSH1 0x0 DUP4 ADD MSTORE PUSH3 0x531 DUP2 PUSH3 0x4EF JUMP JUMPDEST SWAP1 POP SWAP2 SWAP1 POP JUMP JUMPDEST PUSH1 0x0 DUP2 MLOAD SWAP1 POP SWAP2 SWAP1 POP JUMP JUMPDEST PUSH32 0x4E487B7100000000000000000000000000000000000000000000000000000000 PUSH1 0x0 MSTORE PUSH1 0x22 PUSH1 0x4 MSTORE PUSH1 0x24 PUSH1 0x0 REVERT JUMPDEST PUSH1 0x0 PUSH1 0x2 DUP3 DIV SWAP1 POP PUSH1 0x1 DUP3 AND DUP1 PUSH3 0x58B JUMPI PUSH1 0x7F DUP3 AND SWAP2 POP JUMPDEST PUSH1 0x20 DUP3 LT DUP2 SUB PUSH3 0x5A1 JUMPI PUSH3 0x5A0 PUSH3 0x543 JUMP JUMPDEST JUMPDEST POP SWAP2 SWAP1 POP JUMP JUMPDEST PUSH1 0x0 DUP2 SWAP1 POP DUP2 PUSH1 0x0 MSTORE PUSH1 0x20 PUSH1 0x0 KECCAK256 SWAP1 POP SWAP2 SWAP1 POP JUMP JUMPDEST PUSH1 0x0 PUSH1 0x20 PUSH1 0x1F DUP4 ADD DIV SWAP1 POP SWAP2 SWAP1 POP JUMP JUMPDEST PUSH1 0x0 DUP3 DUP3 SHL SWAP1 POP SWAP3 SWAP2 POP POP JUMP JUMPDEST PUSH1 0x0 PUSH1 0x8 DUP4 MUL PUSH3 0x60B PUSH32 0xFFFFFFFFFFFFFFFFFFFFFFFFFFFFFFFFFFFFFFFFFFFFFFFFFFFFFFFFFFFFFFFF DUP3 PUSH3 0x5CC JUMP JUMPDEST PUSH3 0x617 DUP7 DUP4 PUSH3 0x5CC JUMP JUMPDEST SWAP6 POP DUP1 NOT DUP5 AND SWAP4 POP DUP1 DUP7 AND DUP5 OR SWAP3 POP POP POP SWAP4 SWAP3 POP POP POP JUMP JUMPDEST PUSH1 0x0 DUP2 SWAP1 POP SWAP2 SWAP1 POP JUMP JUMPDEST PUSH1 0x0 DUP2 SWAP1 POP SWAP2 SWAP1 POP JUMP JUMPDEST PUSH1 0x0 PUSH3 0x664 PUSH3 0x65E PUSH3 0x658 DUP5 PUSH3 0x62F JUMP JUMPDEST PUSH3 0x639 JUMP JUMPDEST PUSH3 0x62F JUMP JUMPDEST SWAP1 POP SWAP2 SWAP1 POP JUMP JUMPDEST PUSH1 0x0 DUP2 SWAP1 POP SWAP2 SWAP1 POP JUMP JUMPDEST PUSH3 0x680 DUP4 PUSH3 0x643 JUMP JUMPDEST PUSH3 0x698 PUSH3 0x68F DUP3 PUSH3 0x66B JUMP JUMPDEST DUP5 DUP5 SLOAD PUSH3 0x5D9 JUMP JUMPDEST DUP3 SSTORE POP POP POP POP JUMP JUMPDEST PUSH1 0x0 SWAP1 JUMP JUMPDEST PUSH3 0x6AF PUSH3 0x6A0 JUMP JUMPDEST PUSH3 0x6BC DUP2 DUP5 DUP5 PUSH3 0x675 JUMP JUMPDEST POP POP POP JUMP JUMPDEST JUMPDEST DUP2 DUP2 LT ISZERO PUSH3 0x6E4 JUMPI PUSH3 0x6D8 PUSH1 0x0 DUP3 PUSH3 0x6A5 JUMP JUMPDEST PUSH1 0x1 DUP2 ADD SWAP1 POP PUSH3 0x6C2 JUMP JUMPDEST POP POP JUMP JUMPDEST PUSH1 0x1F DUP3 GT ISZERO PUSH3 0x733 JUMPI PUSH3 0x6FD DUP2 PUSH3 0x5A7 JUMP JUMPDEST PUSH3 0x708 DUP5 PUSH3 0x5BC JUMP JUMPDEST DUP2 ADD PUSH1 0x20 DUP6 LT ISZERO PUSH3 0x718 JUMPI DUP2 SWAP1 POP JUMPDEST PUSH3 0x730 PUSH3 0x727 DUP6 PUSH3 0x5BC JUMP JUMPDEST DUP4 ADD DUP3 PUSH3 0x6C1 JUMP JUMPDEST POP POP JUMPDEST POP POP POP JUMP JUMPDEST PUSH1 0x0 DUP3 DUP3 SHR SWAP1 POP SWAP3 SWAP2 POP POP JUMP JUMPDEST PUSH1 0x0 PUSH3 0x758 PUSH1 0x0 NOT DUP5 PUSH1 0x8 MUL PUSH3 0x738 JUMP JUMPDEST NOT DUP1 DUP4 AND SWAP2 POP POP SWAP3 SWAP2 POP POP JUMP JUMPDEST PUSH1 0x0 PUSH3 0x773 DUP4 DUP4 PUSH3 0x745 JUMP JUMPDEST SWAP2 POP DUP3 PUSH1 0x2 MUL DUP3 OR SWAP1 POP SWAP3 SWAP2 POP POP JUMP JUMPDEST PUSH3 0x78E DUP3 PUSH3 0x538 JUMP JUMPDEST PUSH8 0xFFFFFFFFFFFFFFFF DUP2 GT ISZERO PUSH3 0x7AA JUMPI PUSH3 0x7A9 PUSH3 0x27B JUMP JUMPDEST JUMPDEST PUSH3 0x7B6 DUP3 SLOAD PUSH3 0x572 JUMP JUMPDEST PUSH3 0x7C3 DUP3 DUP3 DUP6 PUSH3 0x6E8 JUMP JUMPDEST PUSH1 0x0 PUSH1 0x20 SWAP1 POP PUSH1 0x1F DUP4 GT PUSH1 0x1 DUP2 EQ PUSH3 0x7FB JUMPI PUSH1 0x0 DUP5 ISZERO PUSH3 0x7E6 JUMPI DUP3 DUP8 ADD MLOAD SWAP1 POP JUMPDEST PUSH3 0x7F2 DUP6 DUP3 PUSH3 0x765 JUMP JUMPDEST DUP7 SSTORE POP PUSH3 0x862 JUMP JUMPDEST PUSH1 0x1F NOT DUP5 AND PUSH3 0x80B DUP7 PUSH3 0x5A7 JUMP JUMPDEST PUSH1 0x0 JUMPDEST DUP3 DUP2 LT ISZERO PUSH3 0x835 JUMPI DUP5 DUP10 ADD MLOAD DUP3 SSTORE PUSH1 0x1 DUP3 ADD SWAP2 POP PUSH1 0x20 DUP6 ADD SWAP5 POP PUSH1 0x20 DUP2 ADD SWAP1 POP PUSH3 0x80E JUMP JUMPDEST DUP7 DUP4 LT ISZERO PUSH3 0x855 JUMPI DUP5 DUP10 ADD MLOAD PUSH3 0x851 PUSH1 0x1F DUP10 AND DUP3 PUSH3 0x745 JUMP JUMPDEST DUP4 SSTORE POP JUMPDEST PUSH1 0x1 PUSH1 0x2 DUP9 MUL ADD DUP9 SSTORE POP POP POP JUMPDEST POP POP POP POP POP POP JUMP JUMPDEST PUSH32 0x4E487B7100000000000000000000000000000000000000000000000000000000 PUSH1 0x0 MSTORE PUSH1 0x21 PUSH1 0x4 MSTORE PUSH1 0x24 PUSH1 0x0 REVERT JUMPDEST PUSH2 0x2875 DUP1 PUSH3 0x8A9 PUSH1 0x0 CODECOPY PUSH1 0x0 RETURN INVALID PUSH1 0x80 PUSH1 0x40 MSTORE PUSH1 0x4 CALLDATASIZE LT PUSH2 0x9C JUMPI PUSH1 0x0 CALLDATALOAD PUSH1 0xE0 SHR DUP1 PUSH4 0xADF07791 GT PUSH2 0x64 JUMPI DUP1 PUSH4 0xADF07791 EQ PUSH2 0x12E JUMPI DUP1 PUSH4 0xB763701B EQ PUSH2 0x15A JUMPI DUP1 PUSH4 0xC939329B EQ PUSH2 0x171 JUMPI DUP1 PUSH4 0xC998EEF4 EQ PUSH2 0x188 JUMPI DUP1 PUSH4 0xDC1997EA EQ PUSH2 0x1B8 JUMPI DUP1 PUSH4 0xE154FE71 EQ PUSH2 0x1E4 JUMPI PUSH2 0x9C JUMP JUMPDEST DUP1 PUSH4 0x176FD3F0 EQ PUSH2 0xA1 JUMPI DUP1 PUSH4 0x3FBD37D2 EQ PUSH2 0xCD JUMPI DUP1 PUSH4 0x548AFF72 EQ PUSH2 0xE4 JUMPI DUP1 PUSH4 0x750D23A9 EQ PUSH2 0xFB JUMPI DUP1 PUSH4 0xA709C4FE EQ PUSH2 0x124 JUMPI JUMPDEST PUSH1 0x0 DUP1 REVERT JUMPDEST CALLVALUE DUP1 ISZERO PUSH2 0xAD JUMPI PUSH1 0x0 DUP1 REVERT JUMPDEST POP PUSH2 0xB6 PUSH2 0x1EE JUMP JUMPDEST PUSH1 0x40 MLOAD PUSH2 0xC4 SWAP3 SWAP2 SWAP1 PUSH2 0x165B JUMP JUMPDEST PUSH1 0x40 MLOAD DUP1 SWAP2 SUB SWAP1 RETURN JUMPDEST CALLVALUE DUP1 ISZERO PUSH2 0xD9 JUMPI PUSH1 0x0 DUP1 REVERT JUMPDEST POP PUSH2 0xE2 PUSH2 0x310 JUMP JUMPDEST STOP JUMPDEST CALLVALUE DUP1 ISZERO PUSH2 0xF0 JUMPI PUSH1 0x0 DUP1 REVERT JUMPDEST POP PUSH2 0xF9 PUSH2 0x691 JUMP JUMPDEST STOP JUMPDEST CALLVALUE DUP1 ISZERO PUSH2 0x107 JUMPI PUSH1 0x0 DUP1 REVERT JUMPDEST POP PUSH2 0x122 PUSH1 0x4 DUP1 CALLDATASIZE SUB DUP2 ADD SWAP1 PUSH2 0x11D SWAP2 SWAP1 PUSH2 0x16CD JUMP JUMPDEST PUSH2 0x897 JUMP JUMPDEST STOP JUMPDEST PUSH2 0x12C PUSH2 0xA70 JUMP JUMPDEST STOP JUMPDEST CALLVALUE DUP1 ISZERO PUSH2 0x13A JUMPI PUSH1 0x0 DUP1 REVERT JUMPDEST POP PUSH2 0x143 PUSH2 0xDBB JUMP JUMPDEST PUSH1 0x40 MLOAD PUSH2 0x151 SWAP3 SWAP2 SWAP1 PUSH2 0x17A4 JUMP JUMPDEST PUSH1 0x40 MLOAD DUP1 SWAP2 SUB SWAP1 RETURN JUMPDEST CALLVALUE DUP1 ISZERO PUSH2 0x166 JUMPI PUSH1 0x0 DUP1 REVERT JUMPDEST POP PUSH2 0x16F PUSH2 0xDFA JUMP JUMPDEST STOP JUMPDEST CALLVALUE DUP1 ISZERO PUSH2 0x17D JUMPI PUSH1 0x0 DUP1 REVERT JUMPDEST POP PUSH2 0x186 PUSH2 0x1017 JUMP JUMPDEST STOP JUMPDEST CALLVALUE DUP1 ISZERO PUSH2 0x194 JUMPI PUSH1 0x0 DUP1 REVERT JUMPDEST POP PUSH2 0x19D PUSH2 0x137C JUMP JUMPDEST PUSH1 0x40 MLOAD PUSH2 0x1AF SWAP7 SWAP6 SWAP5 SWAP4 SWAP3 SWAP2 SWAP1 PUSH2 0x1853 JUMP JUMPDEST PUSH1 0x40 MLOAD DUP1 SWAP2 SUB SWAP1 RETURN JUMPDEST CALLVALUE DUP1 ISZERO PUSH2 0x1C4 JUMPI PUSH1 0x0 DUP1 REVERT JUMPDEST POP PUSH2 0x1CD PUSH2 0x13B3 JUMP JUMPDEST PUSH1 0x40 MLOAD PUSH2 0x1DB SWAP3 SWAP2 SWAP1 PUSH2 0x17A4 JUMP JUMPDEST PUSH1 0x40 MLOAD DUP1 SWAP2 SUB SWAP1 RETURN JUMPDEST PUSH2 0x1EC PUSH2 0x13F2 JUMP JUMPDEST STOP JUMPDEST PUSH1 0x2 DUP1 PUSH1 0x0 ADD DUP1 SLOAD PUSH2 0x1FF SWAP1 PUSH2 0x18E3 JUMP JUMPDEST DUP1 PUSH1 0x1F ADD PUSH1 0x20 DUP1 SWAP2 DIV MUL PUSH1 0x20 ADD PUSH1 0x40 MLOAD SWAP1 DUP2 ADD PUSH1 0x40 MSTORE DUP1 SWAP3 SWAP2 SWAP1 DUP2 DUP2 MSTORE PUSH1 0x20 ADD DUP3 DUP1 SLOAD PUSH2 0x22B SWAP1 PUSH2 0x18E3 JUMP JUMPDEST DUP1 ISZERO PUSH2 0x278 JUMPI DUP1 PUSH1 0x1F LT PUSH2 0x24D JUMPI PUSH2 0x100 DUP1 DUP4 SLOAD DIV MUL DUP4 MSTORE SWAP2 PUSH1 0x20 ADD SWAP2 PUSH2 0x278 JUMP JUMPDEST DUP3 ADD SWAP2 SWAP1 PUSH1 0x0 MSTORE PUSH1 0x20 PUSH1 0x0 KECCAK256 SWAP1 JUMPDEST DUP2 SLOAD DUP2 MSTORE SWAP1 PUSH1 0x1 ADD SWAP1 PUSH1 0x20 ADD DUP1 DUP4 GT PUSH2 0x25B JUMPI DUP3 SWAP1 SUB PUSH1 0x1F AND DUP3 ADD SWAP2 JUMPDEST POP POP POP POP POP SWAP1 DUP1 PUSH1 0x1 ADD DUP1 SLOAD PUSH2 0x28D SWAP1 PUSH2 0x18E3 JUMP JUMPDEST DUP1 PUSH1 0x1F ADD PUSH1 0x20 DUP1 SWAP2 DIV MUL PUSH1 0x20 ADD PUSH1 0x40 MLOAD SWAP1 DUP2 ADD PUSH1 0x40 MSTORE DUP1 SWAP3 SWAP2 SWAP1 DUP2 DUP2 MSTORE PUSH1 0x20 ADD DUP3 DUP1 SLOAD PUSH2 0x2B9 SWAP1 PUSH2 0x18E3 JUMP JUMPDEST DUP1 ISZERO PUSH2 0x306 JUMPI DUP1 PUSH1 0x1F LT PUSH2 0x2DB JUMPI PUSH2 0x100 DUP1 DUP4 SLOAD DIV MUL DUP4 MSTORE SWAP2 PUSH1 0x20 ADD SWAP2 PUSH2 0x306 JUMP JUMPDEST DUP3 ADD SWAP2 SWAP1 PUSH1 0x0 MSTORE PUSH1 0x20 PUSH1 0x0 KECCAK256 SWAP1 JUMPDEST DUP2 SLOAD DUP2 MSTORE SWAP1 PUSH1 0x1 ADD SWAP1 PUSH1 0x20 ADD DUP1 DUP4 GT PUSH2 0x2E9 JUMPI DUP3 SWAP1 SUB PUSH1 0x1F AND DUP3 ADD SWAP2 JUMPDEST POP POP POP POP POP SWAP1 POP DUP3 JUMP JUMPDEST PUSH1 0x0 DUP1 ADD PUSH1 0x0 SWAP1 SLOAD SWAP1 PUSH2 0x100 EXP SWAP1 DIV PUSH20 0xFFFFFFFFFFFFFFFFFFFFFFFFFFFFFFFFFFFFFFFF AND PUSH20 0xFFFFFFFFFFFFFFFFFFFFFFFFFFFFFFFFFFFFFFFF AND CALLER PUSH20 0xFFFFFFFFFFFFFFFFFFFFFFFFFFFFFFFFFFFFFFFF AND EQ DUP1 PUSH2 0x3BE JUMPI POP PUSH1 0x1 PUSH1 0x0 ADD PUSH1 0x0 SWAP1 SLOAD SWAP1 PUSH2 0x100 EXP SWAP1 DIV PUSH20 0xFFFFFFFFFFFFFFFFFFFFFFFFFFFFFFFFFFFFFFFF AND PUSH20 0xFFFFFFFFFFFFFFFFFFFFFFFFFFFFFFFFFFFFFFFF AND CALLER PUSH20 0xFFFFFFFFFFFFFFFFFFFFFFFFFFFFFFFFFFFFFFFF AND EQ JUMPDEST PUSH2 0x3FD JUMPI PUSH1 0x40 MLOAD PUSH32 0x8C379A000000000000000000000000000000000000000000000000000000000 DUP2 MSTORE PUSH1 0x4 ADD PUSH2 0x3F4 SWAP1 PUSH2 0x1986 JUMP JUMPDEST PUSH1 0x40 MLOAD DUP1 SWAP2 SUB SWAP1 REVERT JUMPDEST PUSH1 0x0 PUSH1 0x3 DUP2 GT ISZERO PUSH2 0x411 JUMPI PUSH2 0x410 PUSH2 0x17CD JUMP JUMPDEST JUMPDEST PUSH1 0x4 PUSH1 0x0 ADD PUSH1 0x0 SWAP1 SLOAD SWAP1 PUSH2 0x100 EXP SWAP1 DIV PUSH1 0xFF AND PUSH1 0x3 DUP2 GT ISZERO PUSH2 0x436 JUMPI PUSH2 0x435 PUSH2 0x17CD JUMP JUMPDEST JUMPDEST EQ DUP1 PUSH2 0x478 JUMPI POP PUSH1 0x1 PUSH1 0x3 DUP2 GT ISZERO PUSH2 0x451 JUMPI PUSH2 0x450 PUSH2 0x17CD JUMP JUMPDEST JUMPDEST PUSH1 0x4 PUSH1 0x0 ADD PUSH1 0x0 SWAP1 SLOAD SWAP1 PUSH2 0x100 EXP SWAP1 DIV PUSH1 0xFF AND PUSH1 0x3 DUP2 GT ISZERO PUSH2 0x476 JUMPI PUSH2 0x475 PUSH2 0x17CD JUMP JUMPDEST JUMPDEST EQ JUMPDEST PUSH2 0x4B7 JUMPI PUSH1 0x40 MLOAD PUSH32 0x8C379A000000000000000000000000000000000000000000000000000000000 DUP2 MSTORE PUSH1 0x4 ADD PUSH2 0x4AE SWAP1 PUSH2 0x1A18 JUMP JUMPDEST PUSH1 0x40 MLOAD DUP1 SWAP2 SUB SWAP1 REVERT JUMPDEST PUSH1 0x0 DUP1 ADD PUSH1 0x0 SWAP1 SLOAD SWAP1 PUSH2 0x100 EXP SWAP1 DIV PUSH20 0xFFFFFFFFFFFFFFFFFFFFFFFFFFFFFFFFFFFFFFFF AND PUSH20 0xFFFFFFFFFFFFFFFFFFFFFFFFFFFFFFFFFFFFFFFF AND CALLER PUSH20 0xFFFFFFFFFFFFFFFFFFFFFFFFFFFFFFFFFFFFFFFF AND SUB PUSH2 0x584 JUMPI PUSH1 0x1 ISZERO ISZERO PUSH1 0x0 DUP1 ADD PUSH1 0x14 SWAP1 SLOAD SWAP1 PUSH2 0x100 EXP SWAP1 DIV PUSH1 0xFF AND ISZERO ISZERO EQ PUSH2 0x566 JUMPI PUSH1 0x40 MLOAD PUSH32 0x8C379A000000000000000000000000000000000000000000000000000000000 DUP2 MSTORE PUSH1 0x4 ADD PUSH2 0x55D SWAP1 PUSH2 0x1AAA JUMP JUMPDEST PUSH1 0x40 MLOAD DUP1 SWAP2 SUB SWAP1 REVERT JUMPDEST PUSH1 0x0 DUP1 PUSH1 0x0 ADD PUSH1 0x14 PUSH2 0x100 EXP DUP2 SLOAD DUP2 PUSH1 0xFF MUL NOT AND SWAP1 DUP4 ISZERO ISZERO MUL OR SWAP1 SSTORE POP JUMPDEST PUSH1 0x1 PUSH1 0x0 ADD PUSH1 0x0 SWAP1 SLOAD SWAP1 PUSH2 0x100 EXP SWAP1 DIV PUSH20 0xFFFFFFFFFFFFFFFFFFFFFFFFFFFFFFFFFFFFFFFF AND PUSH20 0xFFFFFFFFFFFFFFFFFFFFFFFFFFFFFFFFFFFFFFFF AND CALLER PUSH20 0xFFFFFFFFFFFFFFFFFFFFFFFFFFFFFFFFFFFFFFFF AND SUB PUSH2 0x654 JUMPI PUSH1 0x1 ISZERO ISZERO PUSH1 0x1 PUSH1 0x0 ADD PUSH1 0x14 SWAP1 SLOAD SWAP1 PUSH2 0x100 EXP SWAP1 DIV PUSH1 0xFF AND ISZERO ISZERO EQ PUSH2 0x635 JUMPI PUSH1 0x40 MLOAD PUSH32 0x8C379A000000000000000000000000000000000000000000000000000000000 DUP2 MSTORE PUSH1 0x4 ADD PUSH2 0x62C SWAP1 PUSH2 0x1B3C JUMP JUMPDEST PUSH1 0x40 MLOAD DUP1 SWAP2 SUB SWAP1 REVERT JUMPDEST PUSH1 0x0 PUSH1 0x1 PUSH1 0x0 ADD PUSH1 0x14 PUSH2 0x100 EXP DUP2 SLOAD DUP2 PUSH1 0xFF MUL NOT AND SWAP1 DUP4 ISZERO ISZERO MUL OR SWAP1 SSTORE POP JUMPDEST PUSH1 0x0 PUSH1 0x3 DUP2 GT ISZERO PUSH2 0x668 JUMPI PUSH2 0x667 PUSH2 0x17CD JUMP JUMPDEST JUMPDEST PUSH1 0x4 PUSH1 0x0 ADD PUSH1 0x0 SWAP1 SLOAD SWAP1 PUSH2 0x100 EXP SWAP1 DIV PUSH1 0xFF AND PUSH1 0x3 DUP2 GT ISZERO PUSH2 0x68D JUMPI PUSH2 0x68C PUSH2 0x17CD JUMP JUMPDEST JUMPDEST POP POP JUMP JUMPDEST PUSH1 0x1 PUSH1 0x0 ADD PUSH1 0x0 SWAP1 SLOAD SWAP1 PUSH2 0x100 EXP SWAP1 DIV PUSH20 0xFFFFFFFFFFFFFFFFFFFFFFFFFFFFFFFFFFFFFFFF AND PUSH20 0xFFFFFFFFFFFFFFFFFFFFFFFFFFFFFFFFFFFFFFFF AND CALLER PUSH20 0xFFFFFFFFFFFFFFFFFFFFFFFFFFFFFFFFFFFFFFFF AND EQ PUSH2 0x724 JUMPI PUSH1 0x40 MLOAD PUSH32 0x8C379A000000000000000000000000000000000000000000000000000000000 DUP2 MSTORE PUSH1 0x4 ADD PUSH2 0x71B SWAP1 PUSH2 0x1BCE JUMP JUMPDEST PUSH1 0x40 MLOAD DUP1 SWAP2 SUB SWAP1 REVERT JUMPDEST PUSH1 0x2 PUSH1 0x3 DUP2 GT ISZERO PUSH2 0x738 JUMPI PUSH2 0x737 PUSH2 0x17CD JUMP JUMPDEST JUMPDEST PUSH1 0x4 PUSH1 0x0 ADD PUSH1 0x0 SWAP1 SLOAD SWAP1 PUSH2 0x100 EXP SWAP1 DIV PUSH1 0xFF AND PUSH1 0x3 DUP2 GT ISZERO PUSH2 0x75D JUMPI PUSH2 0x75C PUSH2 0x17CD JUMP JUMPDEST JUMPDEST EQ PUSH2 0x79D JUMPI PUSH1 0x40 MLOAD PUSH32 0x8C379A000000000000000000000000000000000000000000000000000000000 DUP2 MSTORE PUSH1 0x4 ADD PUSH2 0x794 SWAP1 PUSH2 0x1C60 JUMP JUMPDEST PUSH1 0x40 MLOAD DUP1 SWAP2 SUB SWAP1 REVERT JUMPDEST PUSH1 0x4 PUSH1 0x2 ADD SLOAD PUSH1 0xA PUSH1 0x0 SWAP1 SLOAD SWAP1 PUSH2 0x100 EXP SWAP1 DIV PUSH1 0xFF AND PUSH1 0xFF AND EQ PUSH2 0x7F6 JUMPI PUSH1 0x40 MLOAD PUSH32 0x8C379A000000000000000000000000000000000000000000000000000000000 DUP2 MSTORE PUSH1 0x4 ADD PUSH2 0x7ED SWAP1 PUSH2 0x1CF2 JUMP JUMPDEST PUSH1 0x40 MLOAD DUP1 SWAP2 SUB SWAP1 REVERT JUMPDEST PUSH1 0x1 PUSH1 0x0 ADD PUSH1 0x0 SWAP1 SLOAD SWAP1 PUSH2 0x100 EXP SWAP1 DIV PUSH20 0xFFFFFFFFFFFFFFFFFFFFFFFFFFFFFFFFFFFFFFFF AND PUSH20 0xFFFFFFFFFFFFFFFFFFFFFFFFFFFFFFFFFFFFFFFF AND PUSH2 0x8FC PUSH1 0x4 PUSH1 0x5 ADD SLOAD SWAP1 DUP2 ISZERO MUL SWAP1 PUSH1 0x40 MLOAD PUSH1 0x0 PUSH1 0x40 MLOAD DUP1 DUP4 SUB DUP2 DUP6 DUP9 DUP9 CALL SWAP4 POP POP POP POP ISZERO DUP1 ISZERO PUSH2 0x866 JUMPI RETURNDATASIZE PUSH1 0x0 DUP1 RETURNDATACOPY RETURNDATASIZE PUSH1 0x0 REVERT JUMPDEST POP PUSH1 0x3 PUSH1 0x4 PUSH1 0x0 ADD PUSH1 0x0 PUSH2 0x100 EXP DUP2 SLOAD DUP2 PUSH1 0xFF MUL NOT AND SWAP1 DUP4 PUSH1 0x3 DUP2 GT ISZERO PUSH2 0x890 JUMPI PUSH2 0x88F PUSH2 0x17CD JUMP JUMPDEST JUMPDEST MUL OR SWAP1 SSTORE POP JUMP JUMPDEST PUSH1 0x0 DUP1 ADD PUSH1 0x0 SWAP1 SLOAD SWAP1 PUSH2 0x100 EXP SWAP1 DIV PUSH20 0xFFFFFFFFFFFFFFFFFFFFFFFFFFFFFFFFFFFFFFFF AND PUSH20 0xFFFFFFFFFFFFFFFFFFFFFFFFFFFFFFFFFFFFFFFF AND CALLER PUSH20 0xFFFFFFFFFFFFFFFFFFFFFFFFFFFFFFFFFFFFFFFF AND EQ DUP1 PUSH2 0x945 JUMPI POP PUSH1 0x1 PUSH1 0x0 ADD PUSH1 0x0 SWAP1 SLOAD SWAP1 PUSH2 0x100 EXP SWAP1 DIV PUSH20 0xFFFFFFFFFFFFFFFFFFFFFFFFFFFFFFFFFFFFFFFF AND PUSH20 0xFFFFFFFFFFFFFFFFFFFFFFFFFFFFFFFFFFFFFFFF AND CALLER PUSH20 0xFFFFFFFFFFFFFFFFFFFFFFFFFFFFFFFFFFFFFFFF AND EQ JUMPDEST PUSH2 0x984 JUMPI PUSH1 0x40 MLOAD PUSH32 0x8C379A000000000000000000000000000000000000000000000000000000000 DUP2 MSTORE PUSH1 0x4 ADD PUSH2 0x97B SWAP1 PUSH2 0x1D84 JUMP JUMPDEST PUSH1 0x40 MLOAD DUP1 SWAP2 SUB SWAP1 REVERT JUMPDEST PUSH1 0x0 PUSH1 0x3 DUP2 GT ISZERO PUSH2 0x998 JUMPI PUSH2 0x997 PUSH2 0x17CD JUMP JUMPDEST JUMPDEST PUSH1 0x4 PUSH1 0x0 ADD PUSH1 0x0 SWAP1 SLOAD SWAP1 PUSH2 0x100 EXP SWAP1 DIV PUSH1 0xFF AND PUSH1 0x3 DUP2 GT ISZERO PUSH2 0x9BD JUMPI PUSH2 0x9BC PUSH2 0x17CD JUMP JUMPDEST JUMPDEST EQ PUSH2 0x9FD JUMPI PUSH1 0x40 MLOAD PUSH32 0x8C379A000000000000000000000000000000000000000000000000000000000 DUP2 MSTORE PUSH1 0x4 ADD PUSH2 0x9F4 SWAP1 PUSH2 0x1E16 JUMP JUMPDEST PUSH1 0x40 MLOAD DUP1 SWAP2 SUB SWAP1 REVERT JUMPDEST DUP5 PUSH1 0x4 PUSH1 0x1 ADD DUP2 SWAP1 SSTORE POP DUP4 PUSH1 0x4 PUSH1 0x2 ADD DUP2 SWAP1 SSTORE POP DUP3 PUSH1 0x4 PUSH1 0x3 ADD DUP2 SWAP1 SSTORE POP DUP2 PUSH1 0x4 DUP1 ADD DUP2 SWAP1 SSTORE POP DUP1 PUSH1 0x4 PUSH1 0x5 ADD DUP2 SWAP1 SSTORE POP PUSH1 0x0 DUP1 PUSH1 0x0 ADD PUSH1 0x14 PUSH2 0x100 EXP DUP2 SLOAD DUP2 PUSH1 0xFF MUL NOT AND SWAP1 DUP4 ISZERO ISZERO MUL OR SWAP1 SSTORE POP PUSH1 0x0 PUSH1 0x1 PUSH1 0x0 ADD PUSH1 0x14 PUSH2 0x100 EXP DUP2 SLOAD DUP2 PUSH1 0xFF MUL NOT AND SWAP1 DUP4 ISZERO ISZERO MUL OR SWAP1 SSTORE POP POP POP POP POP POP JUMP JUMPDEST PUSH1 0x1 PUSH1 0x0 ADD PUSH1 0x0 SWAP1 SLOAD SWAP1 PUSH2 0x100 EXP SWAP1 DIV PUSH20 0xFFFFFFFFFFFFFFFFFFFFFFFFFFFFFFFFFFFFFFFF AND PUSH20 0xFFFFFFFFFFFFFFFFFFFFFFFFFFFFFFFFFFFFFFFF AND CALLER PUSH20 0xFFFFFFFFFFFFFFFFFFFFFFFFFFFFFFFFFFFFFFFF AND EQ PUSH2 0xB03 JUMPI PUSH1 0x40 MLOAD PUSH32 0x8C379A000000000000000000000000000000000000000000000000000000000 DUP2 MSTORE PUSH1 0x4 ADD PUSH2 0xAFA SWAP1 PUSH2 0x1E82 JUMP JUMPDEST PUSH1 0x40 MLOAD DUP1 SWAP2 SUB SWAP1 REVERT JUMPDEST PUSH1 0x2 PUSH1 0x3 DUP2 GT ISZERO PUSH2 0xB17 JUMPI PUSH2 0xB16 PUSH2 0x17CD JUMP JUMPDEST JUMPDEST PUSH1 0x4 PUSH1 0x0 ADD PUSH1 0x0 SWAP1 SLOAD SWAP1 PUSH2 0x100 EXP SWAP1 DIV PUSH1 0xFF AND PUSH1 0x3 DUP2 GT ISZERO PUSH2 0xB3C JUMPI PUSH2 0xB3B PUSH2 0x17CD JUMP JUMPDEST JUMPDEST EQ PUSH2 0xB7C JUMPI PUSH1 0x40 MLOAD PUSH32 0x8C379A000000000000000000000000000000000000000000000000000000000 DUP2 MSTORE PUSH1 0x4 ADD PUSH2 0xB73 SWAP1 PUSH2 0x1F14 JUMP JUMPDEST PUSH1 0x40 MLOAD DUP1 SWAP2 SUB SWAP1 REVERT JUMPDEST PUSH1 0x4 PUSH1 0x2 ADD SLOAD PUSH1 0xA PUSH1 0x0 SWAP1 SLOAD SWAP1 PUSH2 0x100 EXP SWAP1 DIV PUSH1 0xFF AND PUSH1 0xFF AND LT PUSH2 0xBD5 JUMPI PUSH1 0x40 MLOAD PUSH32 0x8C379A000000000000000000000000000000000000000000000000000000000 DUP2 MSTORE PUSH1 0x4 ADD PUSH2 0xBCC SWAP1 PUSH2 0x1FA6 JUMP JUMPDEST PUSH1 0x40 MLOAD DUP1 SWAP2 SUB SWAP1 REVERT JUMPDEST PUSH1 0x0 PUSH2 0xBDF PUSH2 0x1575 JUMP JUMPDEST SWAP1 POP PUSH1 0x0 PUSH1 0x4 PUSH1 0x1 ADD SLOAD SWAP1 POP PUSH3 0x69780 DUP3 GT ISZERO PUSH2 0xCC9 JUMPI PUSH3 0x69780 DUP3 GT ISZERO DUP1 ISZERO PUSH2 0xC0C JUMPI POP PUSH3 0x278D00 DUP3 GT ISZERO JUMPDEST ISZERO PUSH2 0xC47 JUMPI PUSH1 0x0 PUSH3 0x15180 DUP4 PUSH2 0xC22 SWAP2 SWAP1 PUSH2 0x2024 JUMP JUMPDEST SWAP1 POP DUP1 PUSH1 0x4 DUP1 ADD SLOAD PUSH2 0xC34 SWAP2 SWAP1 PUSH2 0x2055 JUMP JUMPDEST DUP3 PUSH2 0xC3F SWAP2 SWAP1 PUSH2 0x2097 JUMP JUMPDEST SWAP2 POP POP PUSH2 0xCC8 JUMP JUMPDEST PUSH3 0x278D00 DUP3 GT ISZERO PUSH2 0xCC7 JUMPI PUSH1 0x3 PUSH1 0x4 PUSH1 0x0 ADD PUSH1 0x0 PUSH2 0x100 EXP DUP2 SLOAD DUP2 PUSH1 0xFF MUL NOT AND SWAP1 DUP4 PUSH1 0x3 DUP2 GT ISZERO PUSH2 0xC7B JUMPI PUSH2 0xC7A PUSH2 0x17CD JUMP JUMPDEST JUMPDEST MUL OR SWAP1 SSTORE POP PUSH3 0x278D00 DUP3 GT ISZERO PUSH2 0xCC6 JUMPI PUSH1 0x40 MLOAD PUSH32 0x8C379A000000000000000000000000000000000000000000000000000000000 DUP2 MSTORE PUSH1 0x4 ADD PUSH2 0xCBD SWAP1 PUSH2 0x2117 JUMP JUMPDEST PUSH1 0x40 MLOAD DUP1 SWAP2 SUB SWAP1 REVERT JUMPDEST JUMPDEST JUMPDEST JUMPDEST PUSH1 0x4 PUSH1 0x1 ADD SLOAD CALLVALUE EQ PUSH2 0xD10 JUMPI PUSH1 0x40 MLOAD PUSH32 0x8C379A000000000000000000000000000000000000000000000000000000000 DUP2 MSTORE PUSH1 0x4 ADD PUSH2 0xD07 SWAP1 PUSH2 0x21CF JUMP JUMPDEST PUSH1 0x40 MLOAD DUP1 SWAP2 SUB SWAP1 REVERT JUMPDEST PUSH1 0x1 PUSH1 0xA PUSH1 0x0 DUP3 DUP3 DUP3 SWAP1 SLOAD SWAP1 PUSH2 0x100 EXP SWAP1 DIV PUSH1 0xFF AND PUSH2 0xD2F SWAP2 SWAP1 PUSH2 0x21FC JUMP JUMPDEST SWAP3 POP PUSH2 0x100 EXP DUP2 SLOAD DUP2 PUSH1 0xFF MUL NOT AND SWAP1 DUP4 PUSH1 0xFF AND MUL OR SWAP1 SSTORE POP PUSH1 0x0 DUP1 ADD PUSH1 0x0 SWAP1 SLOAD SWAP1 PUSH2 0x100 EXP SWAP1 DIV PUSH20 0xFFFFFFFFFFFFFFFFFFFFFFFFFFFFFFFFFFFFFFFF AND PUSH20 0xFFFFFFFFFFFFFFFFFFFFFFFFFFFFFFFFFFFFFFFF AND PUSH2 0x8FC PUSH1 0x4 PUSH1 0x1 ADD SLOAD SWAP1 DUP2 ISZERO MUL SWAP1 PUSH1 0x40 MLOAD PUSH1 0x0 PUSH1 0x40 MLOAD DUP1 DUP4 SUB DUP2 DUP6 DUP9 DUP9 CALL SWAP4 POP POP POP POP ISZERO DUP1 ISZERO PUSH2 0xDB6 JUMPI RETURNDATASIZE PUSH1 0x0 DUP1 RETURNDATACOPY RETURNDATASIZE PUSH1 0x0 REVERT JUMPDEST POP POP POP JUMP JUMPDEST PUSH1 0x1 DUP1 PUSH1 0x0 ADD PUSH1 0x0 SWAP1 SLOAD SWAP1 PUSH2 0x100 EXP SWAP1 DIV PUSH20 0xFFFFFFFFFFFFFFFFFFFFFFFFFFFFFFFFFFFFFFFF AND SWAP1 DUP1 PUSH1 0x0 ADD PUSH1 0x14 SWAP1 SLOAD SWAP1 PUSH2 0x100 EXP SWAP1 DIV PUSH1 0xFF AND SWAP1 POP DUP3 JUMP JUMPDEST PUSH1 0x0 DUP1 ADD PUSH1 0x0 SWAP1 SLOAD SWAP1 PUSH2 0x100 EXP SWAP1 DIV PUSH20 0xFFFFFFFFFFFFFFFFFFFFFFFFFFFFFFFFFFFFFFFF AND PUSH20 0xFFFFFFFFFFFFFFFFFFFFFFFFFFFFFFFFFFFFFFFF AND CALLER PUSH20 0xFFFFFFFFFFFFFFFFFFFFFFFFFFFFFFFFFFFFFFFF AND EQ PUSH2 0xE8C JUMPI PUSH1 0x40 MLOAD PUSH32 0x8C379A000000000000000000000000000000000000000000000000000000000 DUP2 MSTORE PUSH1 0x4 ADD PUSH2 0xE83 SWAP1 PUSH2 0x22A3 JUMP JUMPDEST PUSH1 0x40 MLOAD DUP1 SWAP2 SUB SWAP1 REVERT JUMPDEST PUSH1 0x2 PUSH1 0x3 DUP2 GT ISZERO PUSH2 0xEA0 JUMPI PUSH2 0xE9F PUSH2 0x17CD JUMP JUMPDEST JUMPDEST PUSH1 0x4 PUSH1 0x0 ADD PUSH1 0x0 SWAP1 SLOAD SWAP1 PUSH2 0x100 EXP SWAP1 DIV PUSH1 0xFF AND PUSH1 0x3 DUP2 GT ISZERO PUSH2 0xEC5 JUMPI PUSH2 0xEC4 PUSH2 0x17CD JUMP JUMPDEST JUMPDEST EQ PUSH2 0xF05 JUMPI PUSH1 0x40 MLOAD PUSH32 0x8C379A000000000000000000000000000000000000000000000000000000000 DUP2 MSTORE PUSH1 0x4 ADD PUSH2 0xEFC SWAP1 PUSH2 0x2335 JUMP JUMPDEST PUSH1 0x40 MLOAD DUP1 SWAP2 SUB SWAP1 REVERT JUMPDEST PUSH1 0x0 PUSH2 0xF0F PUSH2 0x1575 JUMP JUMPDEST SWAP1 POP PUSH3 0x278D00 DUP2 GT PUSH2 0xF56 JUMPI PUSH1 0x40 MLOAD PUSH32 0x8C379A000000000000000000000000000000000000000000000000000000000 DUP2 MSTORE PUSH1 0x4 ADD PUSH2 0xF4D SWAP1 PUSH2 0x23C7 JUMP JUMPDEST PUSH1 0x40 MLOAD DUP1 SWAP2 SUB SWAP1 REVERT JUMPDEST PUSH1 0x4 PUSH1 0x2 ADD SLOAD PUSH1 0xA PUSH1 0x0 SWAP1 SLOAD SWAP1 PUSH2 0x100 EXP SWAP1 DIV PUSH1 0xFF AND PUSH1 0xFF AND SUB PUSH2 0xFE6 JUMPI PUSH1 0x1 PUSH1 0x0 ADD PUSH1 0x0 SWAP1 SLOAD SWAP1 PUSH2 0x100 EXP SWAP1 DIV PUSH20 0xFFFFFFFFFFFFFFFFFFFFFFFFFFFFFFFFFFFFFFFF AND PUSH20 0xFFFFFFFFFFFFFFFFFFFFFFFFFFFFFFFFFFFFFFFF AND PUSH2 0x8FC PUSH1 0x4 PUSH1 0x5 ADD SLOAD SWAP1 DUP2 ISZERO MUL SWAP1 PUSH1 0x40 MLOAD PUSH1 0x0 PUSH1 0x40 MLOAD DUP1 DUP4 SUB DUP2 DUP6 DUP9 DUP9 CALL SWAP4 POP POP POP POP ISZERO DUP1 ISZERO PUSH2 0xFE4 JUMPI RETURNDATASIZE PUSH1 0x0 DUP1 RETURNDATACOPY RETURNDATASIZE PUSH1 0x0 REVERT JUMPDEST POP JUMPDEST PUSH1 0x3 PUSH1 0x4 PUSH1 0x0 ADD PUSH1 0x0 PUSH2 0x100 EXP DUP2 SLOAD DUP2 PUSH1 0xFF MUL NOT AND SWAP1 DUP4 PUSH1 0x3 DUP2 GT ISZERO PUSH2 0x100F JUMPI PUSH2 0x100E PUSH2 0x17CD JUMP JUMPDEST JUMPDEST MUL OR SWAP1 SSTORE POP POP JUMP JUMPDEST PUSH1 0x0 DUP1 ADD PUSH1 0x0 SWAP1 SLOAD SWAP1 PUSH2 0x100 EXP SWAP1 DIV PUSH20 0xFFFFFFFFFFFFFFFFFFFFFFFFFFFFFFFFFFFFFFFF AND PUSH20 0xFFFFFFFFFFFFFFFFFFFFFFFFFFFFFFFFFFFFFFFF AND CALLER PUSH20 0xFFFFFFFFFFFFFFFFFFFFFFFFFFFFFFFFFFFFFFFF AND EQ DUP1 PUSH2 0x10C5 JUMPI POP PUSH1 0x1 PUSH1 0x0 ADD PUSH1 0x0 SWAP1 SLOAD SWAP1 PUSH2 0x100 EXP SWAP1 DIV PUSH20 0xFFFFFFFFFFFFFFFFFFFFFFFFFFFFFFFFFFFFFFFF AND PUSH20 0xFFFFFFFFFFFFFFFFFFFFFFFFFFFFFFFFFFFFFFFF AND CALLER PUSH20 0xFFFFFFFFFFFFFFFFFFFFFFFFFFFFFFFFFFFFFFFF AND EQ JUMPDEST PUSH2 0x1104 JUMPI PUSH1 0x40 MLOAD PUSH32 0x8C379A000000000000000000000000000000000000000000000000000000000 DUP2 MSTORE PUSH1 0x4 ADD PUSH2 0x10FB SWAP1 PUSH2 0x2459 JUMP JUMPDEST PUSH1 0x40 MLOAD DUP1 SWAP2 SUB SWAP1 REVERT JUMPDEST PUSH1 0x0 PUSH1 0x3 DUP2 GT ISZERO PUSH2 0x1118 JUMPI PUSH2 0x1117 PUSH2 0x17CD JUMP JUMPDEST JUMPDEST PUSH1 0x4 PUSH1 0x0 ADD PUSH1 0x0 SWAP1 SLOAD SWAP1 PUSH2 0x100 EXP SWAP1 DIV PUSH1 0xFF AND PUSH1 0x3 DUP2 GT ISZERO PUSH2 0x113D JUMPI PUSH2 0x113C PUSH2 0x17CD JUMP JUMPDEST JUMPDEST EQ PUSH2 0x117D JUMPI PUSH1 0x40 MLOAD PUSH32 0x8C379A000000000000000000000000000000000000000000000000000000000 DUP2 MSTORE PUSH1 0x4 ADD PUSH2 0x1174 SWAP1 PUSH2 0x24EB JUMP JUMPDEST PUSH1 0x40 MLOAD DUP1 SWAP2 SUB SWAP1 REVERT JUMPDEST PUSH1 0x0 DUP1 ADD PUSH1 0x0 SWAP1 SLOAD SWAP1 PUSH2 0x100 EXP SWAP1 DIV PUSH20 0xFFFFFFFFFFFFFFFFFFFFFFFFFFFFFFFFFFFFFFFF AND PUSH20 0xFFFFFFFFFFFFFFFFFFFFFFFFFFFFFFFFFFFFFFFF AND CALLER PUSH20 0xFFFFFFFFFFFFFFFFFFFFFFFFFFFFFFFFFFFFFFFF AND SUB PUSH2 0x124A JUMPI PUSH1 0x0 ISZERO ISZERO PUSH1 0x0 DUP1 ADD PUSH1 0x14 SWAP1 SLOAD SWAP1 PUSH2 0x100 EXP SWAP1 DIV PUSH1 0xFF AND ISZERO ISZERO EQ PUSH2 0x122C JUMPI PUSH1 0x40 MLOAD PUSH32 0x8C379A000000000000000000000000000000000000000000000000000000000 DUP2 MSTORE PUSH1 0x4 ADD PUSH2 0x1223 SWAP1 PUSH2 0x2557 JUMP JUMPDEST PUSH1 0x40 MLOAD DUP1 SWAP2 SUB SWAP1 REVERT JUMPDEST PUSH1 0x1 PUSH1 0x0 DUP1 ADD PUSH1 0x14 PUSH2 0x100 EXP DUP2 SLOAD DUP2 PUSH1 0xFF MUL NOT AND SWAP1 DUP4 ISZERO ISZERO MUL OR SWAP1 SSTORE POP JUMPDEST PUSH1 0x1 PUSH1 0x0 ADD PUSH1 0x0 SWAP1 SLOAD SWAP1 PUSH2 0x100 EXP SWAP1 DIV PUSH20 0xFFFFFFFFFFFFFFFFFFFFFFFFFFFFFFFFFFFFFFFF AND PUSH20 0xFFFFFFFFFFFFFFFFFFFFFFFFFFFFFFFFFFFFFFFF AND CALLER PUSH20 0xFFFFFFFFFFFFFFFFFFFFFFFFFFFFFFFFFFFFFFFF AND SUB PUSH2 0x1319 JUMPI PUSH1 0x0 ISZERO ISZERO PUSH1 0x1 PUSH1 0x0 ADD PUSH1 0x14 SWAP1 SLOAD SWAP1 PUSH2 0x100 EXP SWAP1 DIV PUSH1 0xFF AND ISZERO ISZERO EQ PUSH2 0x12FB JUMPI PUSH1 0x40 MLOAD PUSH32 0x8C379A000000000000000000000000000000000000000000000000000000000 DUP2 MSTORE PUSH1 0x4 ADD PUSH2 0x12F2 SWAP1 PUSH2 0x25C3 JUMP JUMPDEST PUSH1 0x40 MLOAD DUP1 SWAP2 SUB SWAP1 REVERT JUMPDEST PUSH1 0x1 DUP1 PUSH1 0x0 ADD PUSH1 0x14 PUSH2 0x100 EXP DUP2 SLOAD DUP2 PUSH1 0xFF MUL NOT AND SWAP1 DUP4 ISZERO ISZERO MUL OR SWAP1 SSTORE POP JUMPDEST PUSH1 0x0 DUP1 ADD PUSH1 0x14 SWAP1 SLOAD SWAP1 PUSH2 0x100 EXP SWAP1 DIV PUSH1 0xFF AND DUP1 ISZERO PUSH2 0x1346 JUMPI POP PUSH1 0x1 PUSH1 0x0 ADD PUSH1 0x14 SWAP1 SLOAD SWAP1 PUSH2 0x100 EXP SWAP1 DIV PUSH1 0xFF AND JUMPDEST ISZERO PUSH2 0x137A JUMPI PUSH1 0x1 PUSH1 0x4 PUSH1 0x0 ADD PUSH1 0x0 PUSH2 0x100 EXP DUP2 SLOAD DUP2 PUSH1 0xFF MUL NOT AND SWAP1 DUP4 PUSH1 0x3 DUP2 GT ISZERO PUSH2 0x1374 JUMPI PUSH2 0x1373 PUSH2 0x17CD JUMP JUMPDEST JUMPDEST MUL OR SWAP1 SSTORE POP JUMPDEST JUMP JUMPDEST PUSH1 0x4 DUP1 PUSH1 0x0 ADD PUSH1 0x0 SWAP1 SLOAD SWAP1 PUSH2 0x100 EXP SWAP1 DIV PUSH1 0xFF AND SWAP1 DUP1 PUSH1 0x1 ADD SLOAD SWAP1 DUP1 PUSH1 0x2 ADD SLOAD SWAP1 DUP1 PUSH1 0x3 ADD SLOAD SWAP1 DUP1 PUSH1 0x4 ADD SLOAD SWAP1 DUP1 PUSH1 0x5 ADD SLOAD SWAP1 POP DUP7 JUMP JUMPDEST PUSH1 0x0 DUP1 PUSH1 0x0 ADD PUSH1 0x0 SWAP1 SLOAD SWAP1 PUSH2 0x100 EXP SWAP1 DIV PUSH20 0xFFFFFFFFFFFFFFFFFFFFFFFFFFFFFFFFFFFFFFFF AND SWAP1 DUP1 PUSH1 0x0 ADD PUSH1 0x14 SWAP1 SLOAD SWAP1 PUSH2 0x100 EXP SWAP1 DIV PUSH1 0xFF AND SWAP1 POP DUP3 JUMP JUMPDEST PUSH1 0x1 PUSH1 0x0 ADD PUSH1 0x0 SWAP1 SLOAD SWAP1 PUSH2 0x100 EXP SWAP1 DIV PUSH20 0xFFFFFFFFFFFFFFFFFFFFFFFFFFFFFFFFFFFFFFFF AND PUSH20 0xFFFFFFFFFFFFFFFFFFFFFFFFFFFFFFFFFFFFFFFF AND CALLER PUSH20 0xFFFFFFFFFFFFFFFFFFFFFFFFFFFFFFFFFFFFFFFF AND EQ PUSH2 0x1485 JUMPI PUSH1 0x40 MLOAD PUSH32 0x8C379A000000000000000000000000000000000000000000000000000000000 DUP2 MSTORE PUSH1 0x4 ADD PUSH2 0x147C SWAP1 PUSH2 0x2655 JUMP JUMPDEST PUSH1 0x40 MLOAD DUP1 SWAP2 SUB SWAP1 REVERT JUMPDEST PUSH1 0x1 PUSH1 0x3 DUP2 GT ISZERO PUSH2 0x1499 JUMPI PUSH2 0x1498 PUSH2 0x17CD JUMP JUMPDEST JUMPDEST PUSH1 0x4 PUSH1 0x0 ADD PUSH1 0x0 SWAP1 SLOAD SWAP1 PUSH2 0x100 EXP SWAP1 DIV PUSH1 0xFF AND PUSH1 0x3 DUP2 GT ISZERO PUSH2 0x14BE JUMPI PUSH2 0x14BD PUSH2 0x17CD JUMP JUMPDEST JUMPDEST EQ PUSH2 0x14FE JUMPI PUSH1 0x40 MLOAD PUSH32 0x8C379A000000000000000000000000000000000000000000000000000000000 DUP2 MSTORE PUSH1 0x4 ADD PUSH2 0x14F5 SWAP1 PUSH2 0x26E7 JUMP JUMPDEST PUSH1 0x40 MLOAD DUP1 SWAP2 SUB SWAP1 REVERT JUMPDEST PUSH1 0x4 PUSH1 0x5 ADD SLOAD CALLVALUE EQ PUSH2 0x1545 JUMPI PUSH1 0x40 MLOAD PUSH32 0x8C379A000000000000000000000000000000000000000000000000000000000 DUP2 MSTORE PUSH1 0x4 ADD PUSH2 0x153C SWAP1 PUSH2 0x279F JUMP JUMPDEST PUSH1 0x40 MLOAD DUP1 SWAP2 SUB SWAP1 REVERT JUMPDEST PUSH1 0x2 PUSH1 0x4 PUSH1 0x0 ADD PUSH1 0x0 PUSH2 0x100 EXP DUP2 SLOAD DUP2 PUSH1 0xFF MUL NOT AND SWAP1 DUP4 PUSH1 0x3 DUP2 GT ISZERO PUSH2 0x156E JUMPI PUSH2 0x156D PUSH2 0x17CD JUMP JUMPDEST JUMPDEST MUL OR SWAP1 SSTORE POP JUMP JUMPDEST PUSH1 0x0 DUP1 TIMESTAMP SWAP1 POP PUSH1 0x0 PUSH1 0x4 PUSH1 0x3 ADD SLOAD DUP3 PUSH2 0x158E SWAP2 SWAP1 PUSH2 0x27BF JUMP JUMPDEST SWAP1 POP PUSH3 0x278D00 PUSH1 0xA PUSH1 0x0 SWAP1 SLOAD SWAP1 PUSH2 0x100 EXP SWAP1 DIV PUSH1 0xFF AND PUSH1 0xFF AND PUSH2 0x15B1 SWAP2 SWAP1 PUSH2 0x2802 JUMP JUMPDEST PUSH3 0xFFFFFF AND DUP2 PUSH2 0x15C1 SWAP2 SWAP1 PUSH2 0x27BF JUMP JUMPDEST SWAP1 POP DUP1 SWAP3 POP POP POP SWAP1 JUMP JUMPDEST PUSH1 0x0 DUP2 MLOAD SWAP1 POP SWAP2 SWAP1 POP JUMP JUMPDEST PUSH1 0x0 DUP3 DUP3 MSTORE PUSH1 0x20 DUP3 ADD SWAP1 POP SWAP3 SWAP2 POP POP JUMP JUMPDEST PUSH1 0x0 JUMPDEST DUP4 DUP2 LT ISZERO PUSH2 0x1605 JUMPI DUP1 DUP3 ADD MLOAD DUP2 DUP5 ADD MSTORE PUSH1 0x20 DUP2 ADD SWAP1 POP PUSH2 0x15EA JUMP JUMPDEST PUSH1 0x0 DUP5 DUP5 ADD MSTORE POP POP POP POP JUMP JUMPDEST PUSH1 0x0 PUSH1 0x1F NOT PUSH1 0x1F DUP4 ADD AND SWAP1 POP SWAP2 SWAP1 POP JUMP JUMPDEST PUSH1 0x0 PUSH2 0x162D DUP3 PUSH2 0x15CB JUMP JUMPDEST PUSH2 0x1637 DUP2 DUP6 PUSH2 0x15D6 JUMP JUMPDEST SWAP4 POP PUSH2 0x1647 DUP2 DUP6 PUSH1 0x20 DUP7 ADD PUSH2 0x15E7 JUMP JUMPDEST PUSH2 0x1650 DUP2 PUSH2 0x1611 JUMP JUMPDEST DUP5 ADD SWAP2 POP POP SWAP3 SWAP2 POP POP JUMP JUMPDEST PUSH1 0x0 PUSH1 0x40 DUP3 ADD SWAP1 POP DUP2 DUP2 SUB PUSH1 0x0 DUP4 ADD MSTORE PUSH2 0x1675 DUP2 DUP6 PUSH2 0x1622 JUMP JUMPDEST SWAP1 POP DUP2 DUP2 SUB PUSH1 0x20 DUP4 ADD MSTORE PUSH2 0x1689 DUP2 DUP5 PUSH2 0x1622 JUMP JUMPDEST SWAP1 POP SWAP4 SWAP3 POP POP POP JUMP JUMPDEST PUSH1 0x0 DUP1 REVERT JUMPDEST PUSH1 0x0 DUP2 SWAP1 POP SWAP2 SWAP1 POP JUMP JUMPDEST PUSH2 0x16AA DUP2 PUSH2 0x1697 JUMP JUMPDEST DUP2 EQ PUSH2 0x16B5 JUMPI PUSH1 0x0 DUP1 REVERT JUMPDEST POP JUMP JUMPDEST PUSH1 0x0 DUP2 CALLDATALOAD SWAP1 POP PUSH2 0x16C7 DUP2 PUSH2 0x16A1 JUMP JUMPDEST SWAP3 SWAP2 POP POP JUMP JUMPDEST PUSH1 0x0 DUP1 PUSH1 0x0 DUP1 PUSH1 0x0 PUSH1 0xA0 DUP7 DUP9 SUB SLT ISZERO PUSH2 0x16E9 JUMPI PUSH2 0x16E8 PUSH2 0x1692 JUMP JUMPDEST JUMPDEST PUSH1 0x0 PUSH2 0x16F7 DUP9 DUP3 DUP10 ADD PUSH2 0x16B8 JUMP JUMPDEST SWAP6 POP POP PUSH1 0x20 PUSH2 0x1708 DUP9 DUP3 DUP10 ADD PUSH2 0x16B8 JUMP JUMPDEST SWAP5 POP POP PUSH1 0x40 PUSH2 0x1719 DUP9 DUP3 DUP10 ADD PUSH2 0x16B8 JUMP JUMPDEST SWAP4 POP POP PUSH1 0x60 PUSH2 0x172A DUP9 DUP3 DUP10 ADD PUSH2 0x16B8 JUMP JUMPDEST SWAP3 POP POP PUSH1 0x80 PUSH2 0x173B DUP9 DUP3 DUP10 ADD PUSH2 0x16B8 JUMP JUMPDEST SWAP2 POP POP SWAP3 SWAP6 POP SWAP3 SWAP6 SWAP1 SWAP4 POP JUMP JUMPDEST PUSH1 0x0 PUSH20 0xFFFFFFFFFFFFFFFFFFFFFFFFFFFFFFFFFFFFFFFF DUP3 AND SWAP1 POP SWAP2 SWAP1 POP JUMP JUMPDEST PUSH1 0x0 PUSH2 0x1773 DUP3 PUSH2 0x1748 JUMP JUMPDEST SWAP1 POP SWAP2 SWAP1 POP JUMP JUMPDEST PUSH2 0x1783 DUP2 PUSH2 0x1768 JUMP JUMPDEST DUP3 MSTORE POP POP JUMP JUMPDEST PUSH1 0x0 DUP2 ISZERO ISZERO SWAP1 POP SWAP2 SWAP1 POP JUMP JUMPDEST PUSH2 0x179E DUP2 PUSH2 0x1789 JUMP JUMPDEST DUP3 MSTORE POP POP JUMP JUMPDEST PUSH1 0x0 PUSH1 0x40 DUP3 ADD SWAP1 POP PUSH2 0x17B9 PUSH1 0x0 DUP4 ADD DUP6 PUSH2 0x177A JUMP JUMPDEST PUSH2 0x17C6 PUSH1 0x20 DUP4 ADD DUP5 PUSH2 0x1795 JUMP JUMPDEST SWAP4 SWAP3 POP POP POP JUMP JUMPDEST PUSH32 0x4E487B7100000000000000000000000000000000000000000000000000000000 PUSH1 0x0 MSTORE PUSH1 0x21 PUSH1 0x4 MSTORE PUSH1 0x24 PUSH1 0x0 REVERT JUMPDEST PUSH1 0x4 DUP2 LT PUSH2 0x180D JUMPI PUSH2 0x180C PUSH2 0x17CD JUMP JUMPDEST JUMPDEST POP JUMP JUMPDEST PUSH1 0x0 DUP2 SWAP1 POP PUSH2 0x181E DUP3 PUSH2 0x17FC JUMP JUMPDEST SWAP2 SWAP1 POP JUMP JUMPDEST PUSH1 0x0 PUSH2 0x182E DUP3 PUSH2 0x1810 JUMP JUMPDEST SWAP1 POP SWAP2 SWAP1 POP JUMP JUMPDEST PUSH2 0x183E DUP2 PUSH2 0x1823 JUMP JUMPDEST DUP3 MSTORE POP POP JUMP JUMPDEST PUSH2 0x184D DUP2 PUSH2 0x1697 JUMP JUMPDEST DUP3 MSTORE POP POP JUMP JUMPDEST PUSH1 0x0 PUSH1 0xC0 DUP3 ADD SWAP1 POP PUSH2 0x1868 PUSH1 0x0 DUP4 ADD DUP10 PUSH2 0x1835 JUMP JUMPDEST PUSH2 0x1875 PUSH1 0x20 DUP4 ADD DUP9 PUSH2 0x1844 JUMP JUMPDEST PUSH2 0x1882 PUSH1 0x40 DUP4 ADD DUP8 PUSH2 0x1844 JUMP JUMPDEST PUSH2 0x188F PUSH1 0x60 DUP4 ADD DUP7 PUSH2 0x1844 JUMP JUMPDEST PUSH2 0x189C PUSH1 0x80 DUP4 ADD DUP6 PUSH2 0x1844 JUMP JUMPDEST PUSH2 0x18A9 PUSH1 0xA0 DUP4 ADD DUP5 PUSH2 0x1844 JUMP JUMPDEST SWAP8 SWAP7 POP POP POP POP POP POP POP JUMP JUMPDEST PUSH32 0x4E487B7100000000000000000000000000000000000000000000000000000000 PUSH1 0x0 MSTORE PUSH1 0x22 PUSH1 0x4 MSTORE PUSH1 0x24 PUSH1 0x0 REVERT JUMPDEST PUSH1 0x0 PUSH1 0x2 DUP3 DIV SWAP1 POP PUSH1 0x1 DUP3 AND DUP1 PUSH2 0x18FB JUMPI PUSH1 0x7F DUP3 AND SWAP2 POP JUMPDEST PUSH1 0x20 DUP3 LT DUP2 SUB PUSH2 0x190E JUMPI PUSH2 0x190D PUSH2 0x18B4 JUMP JUMPDEST JUMPDEST POP SWAP2 SWAP1 POP JUMP JUMPDEST PUSH32 0x4F6E6C79206F776E6572206F722074656E656E742063616E20756E7369676E20 PUSH1 0x0 DUP3 ADD MSTORE PUSH32 0x61677265656D656E742E00000000000000000000000000000000000000000000 PUSH1 0x20 DUP3 ADD MSTORE POP JUMP JUMPDEST PUSH1 0x0 PUSH2 0x1970 PUSH1 0x2A DUP4 PUSH2 0x15D6 JUMP JUMPDEST SWAP2 POP PUSH2 0x197B DUP3 PUSH2 0x1914 JUMP JUMPDEST PUSH1 0x40 DUP3 ADD SWAP1 POP SWAP2 SWAP1 POP JUMP JUMPDEST PUSH1 0x0 PUSH1 0x20 DUP3 ADD SWAP1 POP DUP2 DUP2 SUB PUSH1 0x0 DUP4 ADD MSTORE PUSH2 0x199F DUP2 PUSH2 0x1963 JUMP JUMPDEST SWAP1 POP SWAP2 SWAP1 POP JUMP JUMPDEST PUSH32 0x546865206C656173652073686F756C64206E6F74206861766520616374697665 PUSH1 0x0 DUP3 ADD MSTORE PUSH32 0x642E000000000000000000000000000000000000000000000000000000000000 PUSH1 0x20 DUP3 ADD MSTORE POP JUMP JUMPDEST PUSH1 0x0 PUSH2 0x1A02 PUSH1 0x22 DUP4 PUSH2 0x15D6 JUMP JUMPDEST SWAP2 POP PUSH2 0x1A0D DUP3 PUSH2 0x19A6 JUMP JUMPDEST PUSH1 0x40 DUP3 ADD SWAP1 POP SWAP2 SWAP1 POP JUMP JUMPDEST PUSH1 0x0 PUSH1 0x20 DUP3 ADD SWAP1 POP DUP2 DUP2 SUB PUSH1 0x0 DUP4 ADD MSTORE PUSH2 0x1A31 DUP2 PUSH2 0x19F5 JUMP JUMPDEST SWAP1 POP SWAP2 SWAP1 POP JUMP JUMPDEST PUSH32 0x4C616E646C6F726420686173206E6F74207369676E6564207468652061677265 PUSH1 0x0 DUP3 ADD MSTORE PUSH32 0x656D656E74207965742E00000000000000000000000000000000000000000000 PUSH1 0x20 DUP3 ADD MSTORE POP JUMP JUMPDEST PUSH1 0x0 PUSH2 0x1A94 PUSH1 0x2A DUP4 PUSH2 0x15D6 JUMP JUMPDEST SWAP2 POP PUSH2 0x1A9F DUP3 PUSH2 0x1A38 JUMP JUMPDEST PUSH1 0x40 DUP3 ADD SWAP1 POP SWAP2 SWAP1 POP JUMP JUMPDEST PUSH1 0x0 PUSH1 0x20 DUP3 ADD SWAP1 POP DUP2 DUP2 SUB PUSH1 0x0 DUP4 ADD MSTORE PUSH2 0x1AC3 DUP2 PUSH2 0x1A87 JUMP JUMPDEST SWAP1 POP SWAP2 SWAP1 POP JUMP JUMPDEST PUSH32 0x54656E616E7420686173206E6F74207369676E6564207468652061677265656D PUSH1 0x0 DUP3 ADD MSTORE PUSH32 0x656E74207965742E000000000000000000000000000000000000000000000000 PUSH1 0x20 DUP3 ADD MSTORE POP JUMP JUMPDEST PUSH1 0x0 PUSH2 0x1B26 PUSH1 0x28 DUP4 PUSH2 0x15D6 JUMP JUMPDEST SWAP2 POP PUSH2 0x1B31 DUP3 PUSH2 0x1ACA JUMP JUMPDEST PUSH1 0x40 DUP3 ADD SWAP1 POP SWAP2 SWAP1 POP JUMP JUMPDEST PUSH1 0x0 PUSH1 0x20 DUP3 ADD SWAP1 POP DUP2 DUP2 SUB PUSH1 0x0 DUP4 ADD MSTORE PUSH2 0x1B55 DUP2 PUSH2 0x1B19 JUMP JUMPDEST SWAP1 POP SWAP2 SWAP1 POP JUMP JUMPDEST PUSH32 0x4F6E6C79207468652074656E656E742063616E2063686F6F736520746F207661 PUSH1 0x0 DUP3 ADD MSTORE PUSH32 0x636174652E000000000000000000000000000000000000000000000000000000 PUSH1 0x20 DUP3 ADD MSTORE POP JUMP JUMPDEST PUSH1 0x0 PUSH2 0x1BB8 PUSH1 0x25 DUP4 PUSH2 0x15D6 JUMP JUMPDEST SWAP2 POP PUSH2 0x1BC3 DUP3 PUSH2 0x1B5C JUMP JUMPDEST PUSH1 0x40 DUP3 ADD SWAP1 POP SWAP2 SWAP1 POP JUMP JUMPDEST PUSH1 0x0 PUSH1 0x20 DUP3 ADD SWAP1 POP DUP2 DUP2 SUB PUSH1 0x0 DUP4 ADD MSTORE PUSH2 0x1BE7 DUP2 PUSH2 0x1BAB JUMP JUMPDEST SWAP1 POP SWAP2 SWAP1 POP JUMP JUMPDEST PUSH32 0x546865206C656173652073686F756C642062652061637469766520746F207374 PUSH1 0x0 DUP3 ADD MSTORE PUSH32 0x617274207661636174652070726F636573732E00000000000000000000000000 PUSH1 0x20 DUP3 ADD MSTORE POP JUMP JUMPDEST PUSH1 0x0 PUSH2 0x1C4A PUSH1 0x33 DUP4 PUSH2 0x15D6 JUMP JUMPDEST SWAP2 POP PUSH2 0x1C55 DUP3 PUSH2 0x1BEE JUMP JUMPDEST PUSH1 0x40 DUP3 ADD SWAP1 POP SWAP2 SWAP1 POP JUMP JUMPDEST PUSH1 0x0 PUSH1 0x20 DUP3 ADD SWAP1 POP DUP2 DUP2 SUB PUSH1 0x0 DUP4 ADD MSTORE PUSH2 0x1C79 DUP2 PUSH2 0x1C3D JUMP JUMPDEST SWAP1 POP SWAP2 SWAP1 POP JUMP JUMPDEST PUSH32 0x546865206C65617365207465726D20686173206E6F742079657420636F6D706C PUSH1 0x0 DUP3 ADD MSTORE PUSH32 0x657465642E000000000000000000000000000000000000000000000000000000 PUSH1 0x20 DUP3 ADD MSTORE POP JUMP JUMPDEST PUSH1 0x0 PUSH2 0x1CDC PUSH1 0x25 DUP4 PUSH2 0x15D6 JUMP JUMPDEST SWAP2 POP PUSH2 0x1CE7 DUP3 PUSH2 0x1C80 JUMP JUMPDEST PUSH1 0x40 DUP3 ADD SWAP1 POP SWAP2 SWAP1 POP JUMP JUMPDEST PUSH1 0x0 PUSH1 0x20 DUP3 ADD SWAP1 POP DUP2 DUP2 SUB PUSH1 0x0 DUP4 ADD MSTORE PUSH2 0x1D0B DUP2 PUSH2 0x1CCF JUMP JUMPDEST SWAP1 POP SWAP2 SWAP1 POP JUMP JUMPDEST PUSH32 0x4F6E6C79206F776E6572206F722074656E656E742063616E2073657420746572 PUSH1 0x0 DUP3 ADD MSTORE PUSH32 0x6D732E0000000000000000000000000000000000000000000000000000000000 PUSH1 0x20 DUP3 ADD MSTORE POP JUMP JUMPDEST PUSH1 0x0 PUSH2 0x1D6E PUSH1 0x23 DUP4 PUSH2 0x15D6 JUMP JUMPDEST SWAP2 POP PUSH2 0x1D79 DUP3 PUSH2 0x1D12 JUMP JUMPDEST PUSH1 0x40 DUP3 ADD SWAP1 POP SWAP2 SWAP1 POP JUMP JUMPDEST PUSH1 0x0 PUSH1 0x20 DUP3 ADD SWAP1 POP DUP2 DUP2 SUB PUSH1 0x0 DUP4 ADD MSTORE PUSH2 0x1D9D DUP2 PUSH2 0x1D61 JUMP JUMPDEST SWAP1 POP SWAP2 SWAP1 POP JUMP JUMPDEST PUSH32 0x546865206C656173652068617320746F20626520696E20696E61637469766520 PUSH1 0x0 DUP3 ADD MSTORE PUSH32 0x737461746520746F20736574207465726D732E00000000000000000000000000 PUSH1 0x20 DUP3 ADD MSTORE POP JUMP JUMPDEST PUSH1 0x0 PUSH2 0x1E00 PUSH1 0x33 DUP4 PUSH2 0x15D6 JUMP JUMPDEST SWAP2 POP PUSH2 0x1E0B DUP3 PUSH2 0x1DA4 JUMP JUMPDEST PUSH1 0x40 DUP3 ADD SWAP1 POP SWAP2 SWAP1 POP JUMP JUMPDEST PUSH1 0x0 PUSH1 0x20 DUP3 ADD SWAP1 POP DUP2 DUP2 SUB PUSH1 0x0 DUP4 ADD MSTORE PUSH2 0x1E2F DUP2 PUSH2 0x1DF3 JUMP JUMPDEST SWAP1 POP SWAP2 SWAP1 POP JUMP JUMPDEST PUSH32 0x4F6E6C792074656E656E742063616E2073656E642072656E742E000000000000 PUSH1 0x0 DUP3 ADD MSTORE POP JUMP JUMPDEST PUSH1 0x0 PUSH2 0x1E6C PUSH1 0x1A DUP4 PUSH2 0x15D6 JUMP JUMPDEST SWAP2 POP PUSH2 0x1E77 DUP3 PUSH2 0x1E36 JUMP JUMPDEST PUSH1 0x20 DUP3 ADD SWAP1 POP SWAP2 SWAP1 POP JUMP JUMPDEST PUSH1 0x0 PUSH1 0x20 DUP3 ADD SWAP1 POP DUP2 DUP2 SUB PUSH1 0x0 DUP4 ADD MSTORE PUSH2 0x1E9B DUP2 PUSH2 0x1E5F JUMP JUMPDEST SWAP1 POP SWAP2 SWAP1 POP JUMP JUMPDEST PUSH32 0x546865206C656173652073686F756C642062652061637469766520746F207365 PUSH1 0x0 DUP3 ADD MSTORE PUSH32 0x6E642072656E742E000000000000000000000000000000000000000000000000 PUSH1 0x20 DUP3 ADD MSTORE POP JUMP JUMPDEST PUSH1 0x0 PUSH2 0x1EFE PUSH1 0x28 DUP4 PUSH2 0x15D6 JUMP JUMPDEST SWAP2 POP PUSH2 0x1F09 DUP3 PUSH2 0x1EA2 JUMP JUMPDEST PUSH1 0x40 DUP3 ADD SWAP1 POP SWAP2 SWAP1 POP JUMP JUMPDEST PUSH1 0x0 PUSH1 0x20 DUP3 ADD SWAP1 POP DUP2 DUP2 SUB PUSH1 0x0 DUP4 ADD MSTORE PUSH2 0x1F2D DUP2 PUSH2 0x1EF1 JUMP JUMPDEST SWAP1 POP SWAP2 SWAP1 POP JUMP JUMPDEST PUSH32 0x546865206C65617365207465726D206973207570202D2074696D6520746F2076 PUSH1 0x0 DUP3 ADD MSTORE PUSH32 0x61636174652074686520706C6163652E00000000000000000000000000000000 PUSH1 0x20 DUP3 ADD MSTORE POP JUMP JUMPDEST PUSH1 0x0 PUSH2 0x1F90 PUSH1 0x30 DUP4 PUSH2 0x15D6 JUMP JUMPDEST SWAP2 POP PUSH2 0x1F9B DUP3 PUSH2 0x1F34 JUMP JUMPDEST PUSH1 0x40 DUP3 ADD SWAP1 POP SWAP2 SWAP1 POP JUMP JUMPDEST PUSH1 0x0 PUSH1 0x20 DUP3 ADD SWAP1 POP DUP2 DUP2 SUB PUSH1 0x0 DUP4 ADD MSTORE PUSH2 0x1FBF DUP2 PUSH2 0x1F83 JUMP JUMPDEST SWAP1 POP SWAP2 SWAP1 POP JUMP JUMPDEST PUSH32 0x4E487B7100000000000000000000000000000000000000000000000000000000 PUSH1 0x0 MSTORE PUSH1 0x12 PUSH1 0x4 MSTORE PUSH1 0x24 PUSH1 0x0 REVERT JUMPDEST PUSH32 0x4E487B7100000000000000000000000000000000000000000000000000000000 PUSH1 0x0 MSTORE PUSH1 0x11 PUSH1 0x4 MSTORE PUSH1 0x24 PUSH1 0x0 REVERT JUMPDEST PUSH1 0x0 PUSH2 0x202F DUP3 PUSH2 0x1697 JUMP JUMPDEST SWAP2 POP PUSH2 0x203A DUP4 PUSH2 0x1697 JUMP JUMPDEST SWAP3 POP DUP3 PUSH2 0x204A JUMPI PUSH2 0x2049 PUSH2 0x1FC6 JUMP JUMPDEST JUMPDEST DUP3 DUP3 DIV SWAP1 POP SWAP3 SWAP2 POP POP JUMP JUMPDEST PUSH1 0x0 PUSH2 0x2060 DUP3 PUSH2 0x1697 JUMP JUMPDEST SWAP2 POP PUSH2 0x206B DUP4 PUSH2 0x1697 JUMP JUMPDEST SWAP3 POP DUP3 DUP3 MUL PUSH2 0x2079 DUP2 PUSH2 0x1697 JUMP JUMPDEST SWAP2 POP DUP3 DUP3 DIV DUP5 EQ DUP4 ISZERO OR PUSH2 0x2090 JUMPI PUSH2 0x208F PUSH2 0x1FF5 JUMP JUMPDEST JUMPDEST POP SWAP3 SWAP2 POP POP JUMP JUMPDEST PUSH1 0x0 PUSH2 0x20A2 DUP3 PUSH2 0x1697 JUMP JUMPDEST SWAP2 POP PUSH2 0x20AD DUP4 PUSH2 0x1697 JUMP JUMPDEST SWAP3 POP DUP3 DUP3 ADD SWAP1 POP DUP1 DUP3 GT ISZERO PUSH2 0x20C5 JUMPI PUSH2 0x20C4 PUSH2 0x1FF5 JUMP JUMPDEST JUMPDEST SWAP3 SWAP2 POP POP JUMP JUMPDEST PUSH32 0x4C6561736520686173206265656E207465726D696E617465642E000000000000 PUSH1 0x0 DUP3 ADD MSTORE POP JUMP JUMPDEST PUSH1 0x0 PUSH2 0x2101 PUSH1 0x1A DUP4 PUSH2 0x15D6 JUMP JUMPDEST SWAP2 POP PUSH2 0x210C DUP3 PUSH2 0x20CB JUMP JUMPDEST PUSH1 0x20 DUP3 ADD SWAP1 POP SWAP2 SWAP1 POP JUMP JUMPDEST PUSH1 0x0 PUSH1 0x20 DUP3 ADD SWAP1 POP DUP2 DUP2 SUB PUSH1 0x0 DUP4 ADD MSTORE PUSH2 0x2130 DUP2 PUSH2 0x20F4 JUMP JUMPDEST SWAP1 POP SWAP2 SWAP1 POP JUMP JUMPDEST PUSH32 0x5468652076616C7565206265696E672073656E742073686F756C642065717561 PUSH1 0x0 DUP3 ADD MSTORE PUSH32 0x6C207468652072656E7420616D6F756E742028696E636C7564696E67206C6174 PUSH1 0x20 DUP3 ADD MSTORE PUSH32 0x652066656573292E000000000000000000000000000000000000000000000000 PUSH1 0x40 DUP3 ADD MSTORE POP JUMP JUMPDEST PUSH1 0x0 PUSH2 0x21B9 PUSH1 0x48 DUP4 PUSH2 0x15D6 JUMP JUMPDEST SWAP2 POP PUSH2 0x21C4 DUP3 PUSH2 0x2137 JUMP JUMPDEST PUSH1 0x60 DUP3 ADD SWAP1 POP SWAP2 SWAP1 POP JUMP JUMPDEST PUSH1 0x0 PUSH1 0x20 DUP3 ADD SWAP1 POP DUP2 DUP2 SUB PUSH1 0x0 DUP4 ADD MSTORE PUSH2 0x21E8 DUP2 PUSH2 0x21AC JUMP JUMPDEST SWAP1 POP SWAP2 SWAP1 POP JUMP JUMPDEST PUSH1 0x0 PUSH1 0xFF DUP3 AND SWAP1 POP SWAP2 SWAP1 POP JUMP JUMPDEST PUSH1 0x0 PUSH2 0x2207 DUP3 PUSH2 0x21EF JUMP JUMPDEST SWAP2 POP PUSH2 0x2212 DUP4 PUSH2 0x21EF JUMP JUMPDEST SWAP3 POP DUP3 DUP3 ADD SWAP1 POP PUSH1 0xFF DUP2 GT ISZERO PUSH2 0x222B JUMPI PUSH2 0x222A PUSH2 0x1FF5 JUMP JUMPDEST JUMPDEST SWAP3 SWAP2 POP POP JUMP JUMPDEST PUSH32 0x4F6E6C7920746865206C616E646C6F72642063616E2063686F6F736520746F20 PUSH1 0x0 DUP3 ADD MSTORE PUSH32 0x65766963742E0000000000000000000000000000000000000000000000000000 PUSH1 0x20 DUP3 ADD MSTORE POP JUMP JUMPDEST PUSH1 0x0 PUSH2 0x228D PUSH1 0x26 DUP4 PUSH2 0x15D6 JUMP JUMPDEST SWAP2 POP PUSH2 0x2298 DUP3 PUSH2 0x2231 JUMP JUMPDEST PUSH1 0x40 DUP3 ADD SWAP1 POP SWAP2 SWAP1 POP JUMP JUMPDEST PUSH1 0x0 PUSH1 0x20 DUP3 ADD SWAP1 POP DUP2 DUP2 SUB PUSH1 0x0 DUP4 ADD MSTORE PUSH2 0x22BC DUP2 PUSH2 0x2280 JUMP JUMPDEST SWAP1 POP SWAP2 SWAP1 POP JUMP JUMPDEST PUSH32 0x546865206C656173652073686F756C642062652061637469766520746F207374 PUSH1 0x0 DUP3 ADD MSTORE PUSH32 0x617274206576696374696F6E2070726F636573732E0000000000000000000000 PUSH1 0x20 DUP3 ADD MSTORE POP JUMP JUMPDEST PUSH1 0x0 PUSH2 0x231F PUSH1 0x35 DUP4 PUSH2 0x15D6 JUMP JUMPDEST SWAP2 POP PUSH2 0x232A DUP3 PUSH2 0x22C3 JUMP JUMPDEST PUSH1 0x40 DUP3 ADD SWAP1 POP SWAP2 SWAP1 POP JUMP JUMPDEST PUSH1 0x0 PUSH1 0x20 DUP3 ADD SWAP1 POP DUP2 DUP2 SUB PUSH1 0x0 DUP4 ADD MSTORE PUSH2 0x234E DUP2 PUSH2 0x2312 JUMP JUMPDEST SWAP1 POP SWAP2 SWAP1 POP JUMP JUMPDEST PUSH32 0x497420686173206E6F74206265656E20333020646179732073696E6365207468 PUSH1 0x0 DUP3 ADD MSTORE PUSH32 0x65206C6173742072656E742E0000000000000000000000000000000000000000 PUSH1 0x20 DUP3 ADD MSTORE POP JUMP JUMPDEST PUSH1 0x0 PUSH2 0x23B1 PUSH1 0x2C DUP4 PUSH2 0x15D6 JUMP JUMPDEST SWAP2 POP PUSH2 0x23BC DUP3 PUSH2 0x2355 JUMP JUMPDEST PUSH1 0x40 DUP3 ADD SWAP1 POP SWAP2 SWAP1 POP JUMP JUMPDEST PUSH1 0x0 PUSH1 0x20 DUP3 ADD SWAP1 POP DUP2 DUP2 SUB PUSH1 0x0 DUP4 ADD MSTORE PUSH2 0x23E0 DUP2 PUSH2 0x23A4 JUMP JUMPDEST SWAP1 POP SWAP2 SWAP1 POP JUMP JUMPDEST PUSH32 0x4F6E6C79206F776E6572206F722074656E656E742063616E207369676E206167 PUSH1 0x0 DUP3 ADD MSTORE PUSH32 0x7265656D656E742E000000000000000000000000000000000000000000000000 PUSH1 0x20 DUP3 ADD MSTORE POP JUMP JUMPDEST PUSH1 0x0 PUSH2 0x2443 PUSH1 0x28 DUP4 PUSH2 0x15D6 JUMP JUMPDEST SWAP2 POP PUSH2 0x244E DUP3 PUSH2 0x23E7 JUMP JUMPDEST PUSH1 0x40 DUP3 ADD SWAP1 POP SWAP2 SWAP1 POP JUMP JUMPDEST PUSH1 0x0 PUSH1 0x20 DUP3 ADD SWAP1 POP DUP2 DUP2 SUB PUSH1 0x0 DUP4 ADD MSTORE PUSH2 0x2472 DUP2 PUSH2 0x2436 JUMP JUMPDEST SWAP1 POP SWAP2 SWAP1 POP JUMP JUMPDEST PUSH32 0x546865206C656173652068617320746F20626520696E20696E61637469766520 PUSH1 0x0 DUP3 ADD MSTORE PUSH32 0x73746174652E0000000000000000000000000000000000000000000000000000 PUSH1 0x20 DUP3 ADD MSTORE POP JUMP JUMPDEST PUSH1 0x0 PUSH2 0x24D5 PUSH1 0x26 DUP4 PUSH2 0x15D6 JUMP JUMPDEST SWAP2 POP PUSH2 0x24E0 DUP3 PUSH2 0x2479 JUMP JUMPDEST PUSH1 0x40 DUP3 ADD SWAP1 POP SWAP2 SWAP1 POP JUMP JUMPDEST PUSH1 0x0 PUSH1 0x20 DUP3 ADD SWAP1 POP DUP2 DUP2 SUB PUSH1 0x0 DUP4 ADD MSTORE PUSH2 0x2504 DUP2 PUSH2 0x24C8 JUMP JUMPDEST SWAP1 POP SWAP2 SWAP1 POP JUMP JUMPDEST PUSH32 0x4C616E646C6F72642068617320616C7265616479206167726565642E00000000 PUSH1 0x0 DUP3 ADD MSTORE POP JUMP JUMPDEST PUSH1 0x0 PUSH2 0x2541 PUSH1 0x1C DUP4 PUSH2 0x15D6 JUMP JUMPDEST SWAP2 POP PUSH2 0x254C DUP3 PUSH2 0x250B JUMP JUMPDEST PUSH1 0x20 DUP3 ADD SWAP1 POP SWAP2 SWAP1 POP JUMP JUMPDEST PUSH1 0x0 PUSH1 0x20 DUP3 ADD SWAP1 POP DUP2 DUP2 SUB PUSH1 0x0 DUP4 ADD MSTORE PUSH2 0x2570 DUP2 PUSH2 0x2534 JUMP JUMPDEST SWAP1 POP SWAP2 SWAP1 POP JUMP JUMPDEST PUSH32 0x54656E616E742068617320616C7265616479206167726565642E000000000000 PUSH1 0x0 DUP3 ADD MSTORE POP JUMP JUMPDEST PUSH1 0x0 PUSH2 0x25AD PUSH1 0x1A DUP4 PUSH2 0x15D6 JUMP JUMPDEST SWAP2 POP PUSH2 0x25B8 DUP3 PUSH2 0x2577 JUMP JUMPDEST PUSH1 0x20 DUP3 ADD SWAP1 POP SWAP2 SWAP1 POP JUMP JUMPDEST PUSH1 0x0 PUSH1 0x20 DUP3 ADD SWAP1 POP DUP2 DUP2 SUB PUSH1 0x0 DUP4 ADD MSTORE PUSH2 0x25DC DUP2 PUSH2 0x25A0 JUMP JUMPDEST SWAP1 POP SWAP2 SWAP1 POP JUMP JUMPDEST PUSH32 0x4F6E6C792074656E656E742063616E2073656E64207365637572697479206465 PUSH1 0x0 DUP3 ADD MSTORE PUSH32 0x706F7369742E0000000000000000000000000000000000000000000000000000 PUSH1 0x20 DUP3 ADD MSTORE POP JUMP JUMPDEST PUSH1 0x0 PUSH2 0x263F PUSH1 0x26 DUP4 PUSH2 0x15D6 JUMP JUMPDEST SWAP2 POP PUSH2 0x264A DUP3 PUSH2 0x25E3 JUMP JUMPDEST PUSH1 0x40 DUP3 ADD SWAP1 POP SWAP2 SWAP1 POP JUMP JUMPDEST PUSH1 0x0 PUSH1 0x20 DUP3 ADD SWAP1 POP DUP2 DUP2 SUB PUSH1 0x0 DUP4 ADD MSTORE PUSH2 0x266E DUP2 PUSH2 0x2632 JUMP JUMPDEST SWAP1 POP SWAP2 SWAP1 POP JUMP JUMPDEST PUSH32 0x546865206C656173652073686F756C6420626520696E2070656E64696E672064 PUSH1 0x0 DUP3 ADD MSTORE PUSH32 0x65706F7369742073746174652E00000000000000000000000000000000000000 PUSH1 0x20 DUP3 ADD MSTORE POP JUMP JUMPDEST PUSH1 0x0 PUSH2 0x26D1 PUSH1 0x2D DUP4 PUSH2 0x15D6 JUMP JUMPDEST SWAP2 POP PUSH2 0x26DC DUP3 PUSH2 0x2675 JUMP JUMPDEST PUSH1 0x40 DUP3 ADD SWAP1 POP SWAP2 SWAP1 POP JUMP JUMPDEST PUSH1 0x0 PUSH1 0x20 DUP3 ADD SWAP1 POP DUP2 DUP2 SUB PUSH1 0x0 DUP4 ADD MSTORE PUSH2 0x2700 DUP2 PUSH2 0x26C4 JUMP JUMPDEST SWAP1 POP SWAP2 SWAP1 POP JUMP JUMPDEST PUSH32 0x5468652076616C7565206265696E67206465706F73697465642073686F756C64 PUSH1 0x0 DUP3 ADD MSTORE PUSH32 0x20657175616C20746865207365637572697479206465706F73697420616D6F75 PUSH1 0x20 DUP3 ADD MSTORE PUSH32 0x6E742E0000000000000000000000000000000000000000000000000000000000 PUSH1 0x40 DUP3 ADD MSTORE POP JUMP JUMPDEST PUSH1 0x0 PUSH2 0x2789 PUSH1 0x43 DUP4 PUSH2 0x15D6 JUMP JUMPDEST SWAP2 POP PUSH2 0x2794 DUP3 PUSH2 0x2707 JUMP JUMPDEST PUSH1 0x60 DUP3 ADD SWAP1 POP SWAP2 SWAP1 POP JUMP JUMPDEST PUSH1 0x0 PUSH1 0x20 DUP3 ADD SWAP1 POP DUP2 DUP2 SUB PUSH1 0x0 DUP4 ADD MSTORE PUSH2 0x27B8 DUP2 PUSH2 0x277C JUMP JUMPDEST SWAP1 POP SWAP2 SWAP1 POP JUMP JUMPDEST PUSH1 0x0 PUSH2 0x27CA DUP3 PUSH2 0x1697 JUMP JUMPDEST SWAP2 POP PUSH2 0x27D5 DUP4 PUSH2 0x1697 JUMP JUMPDEST SWAP3 POP DUP3 DUP3 SUB SWAP1 POP DUP2 DUP2 GT ISZERO PUSH2 0x27ED JUMPI PUSH2 0x27EC PUSH2 0x1FF5 JUMP JUMPDEST JUMPDEST SWAP3 SWAP2 POP POP JUMP JUMPDEST PUSH1 0x0 PUSH3 0xFFFFFF DUP3 AND SWAP1 POP SWAP2 SWAP1 POP JUMP JUMPDEST PUSH1 0x0 PUSH2 0x280D DUP3 PUSH2 0x27F3 JUMP JUMPDEST SWAP2 POP PUSH2 0x2818 DUP4 PUSH2 0x27F3 JUMP JUMPDEST SWAP3 POP DUP3 DUP3 MUL PUSH2 0x2826 DUP2 PUSH2 0x27F3 JUMP JUMPDEST SWAP2 POP DUP1 DUP3 EQ PUSH2 0x2838 JUMPI PUSH2 0x2837 PUSH2 0x1FF5 JUMP JUMPDEST JUMPDEST POP SWAP3 SWAP2 POP POP JUMP INVALID LOG2 PUSH5 0x6970667358 0x22 SLT KECCAK256 0xCB 0x21 0xDC 0xD0 0x29 SWAP10 0xA6 0xBB SWAP5 SLOAD 0xF6 0x26 PUSH18 0xC371345E0E774F374393F7DA991C9283DE2 REVERT PUSH5 0x736F6C6343 STOP ADDMOD SLT STOP CALLER "
				},
				"gasEstimates": {
					"creation": {
						"codeDepositCost": "2071400",
						"executionCost": "infinite",
						"totalCost": "infinite"
					},
					"external": {
						"depositSecurityDeposit()": "31044",
						"evict()": "infinite",
						"landlord()": "4920",
						"lease()": "infinite",
						"payRent()": "infinite",
						"property()": "infinite",
						"setTerms(uint256,uint256,uint256,uint256,uint256)": "infinite",
						"signAgreement()": "92936",
						"tenant()": "4832",
						"unsignAgreement()": "68644",
						"vacate()": "infinite"
					},
					"internal": {
						"findTimeSinceLastRent()": "infinite"
					}
				},
				"methodIdentifiers": {
					"depositSecurityDeposit()": "e154fe71",
					"evict()": "b763701b",
					"landlord()": "dc1997ea",
					"lease()": "c998eef4",
					"payRent()": "a709c4fe",
					"property()": "176fd3f0",
					"setTerms(uint256,uint256,uint256,uint256,uint256)": "750d23a9",
					"signAgreement()": "c939329b",
					"tenant()": "adf07791",
					"unsignAgreement()": "3fbd37d2",
					"vacate()": "548aff72"
				}
			},
			"storageLayout": {
				"storage": [
					{
						"astId": 38,
						"contract": "contracts/BlockLease.sol:BlockLease",
						"label": "landlord",
						"offset": 0,
						"slot": "0",
						"type": "t_struct(Landlord)6_storage"
					},
					{
						"astId": 41,
						"contract": "contracts/BlockLease.sol:BlockLease",
						"label": "tenant",
						"offset": 0,
						"slot": "1",
						"type": "t_struct(Tenant)11_storage"
					},
					{
						"astId": 44,
						"contract": "contracts/BlockLease.sol:BlockLease",
						"label": "property",
						"offset": 0,
						"slot": "2",
						"type": "t_struct(Property)16_storage"
					},
					{
						"astId": 47,
						"contract": "contracts/BlockLease.sol:BlockLease",
						"label": "lease",
						"offset": 0,
						"slot": "4",
						"type": "t_struct(Lease)35_storage"
					},
					{
						"astId": 49,
						"contract": "contracts/BlockLease.sol:BlockLease",
						"label": "monthsRentPaid",
						"offset": 0,
						"slot": "10",
						"type": "t_uint8"
					}
				],
				"types": {
					"t_address_payable": {
						"encoding": "inplace",
						"label": "address payable",
						"numberOfBytes": "20"
					},
					"t_bool": {
						"encoding": "inplace",
						"label": "bool",
						"numberOfBytes": "1"
					},
					"t_enum(LeaseState)21": {
						"encoding": "inplace",
						"label": "enum BlockLease.LeaseState",
						"numberOfBytes": "1"
					},
					"t_string_storage": {
						"encoding": "bytes",
						"label": "string",
						"numberOfBytes": "32"
					},
					"t_struct(Landlord)6_storage": {
						"encoding": "inplace",
						"label": "struct BlockLease.Landlord",
						"members": [
							{
								"astId": 3,
								"contract": "contracts/BlockLease.sol:BlockLease",
								"label": "addr",
								"offset": 0,
								"slot": "0",
								"type": "t_address_payable"
							},
							{
								"astId": 5,
								"contract": "contracts/BlockLease.sol:BlockLease",
								"label": "agrees",
								"offset": 20,
								"slot": "0",
								"type": "t_bool"
							}
						],
						"numberOfBytes": "32"
					},
					"t_struct(Lease)35_storage": {
						"encoding": "inplace",
						"label": "struct BlockLease.Lease",
						"members": [
							{
								"astId": 24,
								"contract": "contracts/BlockLease.sol:BlockLease",
								"label": "state",
								"offset": 0,
								"slot": "0",
								"type": "t_enum(LeaseState)21"
							},
							{
								"astId": 26,
								"contract": "contracts/BlockLease.sol:BlockLease",
								"label": "rentAmount",
								"offset": 0,
								"slot": "1",
								"type": "t_uint256"
							},
							{
								"astId": 28,
								"contract": "contracts/BlockLease.sol:BlockLease",
								"label": "rentalDuration",
								"offset": 0,
								"slot": "2",
								"type": "t_uint256"
							},
							{
								"astId": 30,
								"contract": "contracts/BlockLease.sol:BlockLease",
								"label": "startDate",
								"offset": 0,
								"slot": "3",
								"type": "t_uint256"
							},
							{
								"astId": 32,
								"contract": "contracts/BlockLease.sol:BlockLease",
								"label": "latePenaltyPerDay",
								"offset": 0,
								"slot": "4",
								"type": "t_uint256"
							},
							{
								"astId": 34,
								"contract": "contracts/BlockLease.sol:BlockLease",
								"label": "securityDeposit",
								"offset": 0,
								"slot": "5",
								"type": "t_uint256"
							}
						],
						"numberOfBytes": "192"
					},
					"t_struct(Property)16_storage": {
						"encoding": "inplace",
						"label": "struct BlockLease.Property",
						"members": [
							{
								"astId": 13,
								"contract": "contracts/BlockLease.sol:BlockLease",
								"label": "name",
								"offset": 0,
								"slot": "0",
								"type": "t_string_storage"
							},
							{
								"astId": 15,
								"contract": "contracts/BlockLease.sol:BlockLease",
								"label": "location",
								"offset": 0,
								"slot": "1",
								"type": "t_string_storage"
							}
						],
						"numberOfBytes": "64"
					},
					"t_struct(Tenant)11_storage": {
						"encoding": "inplace",
						"label": "struct BlockLease.Tenant",
						"members": [
							{
								"astId": 8,
								"contract": "contracts/BlockLease.sol:BlockLease",
								"label": "addr",
								"offset": 0,
								"slot": "0",
								"type": "t_address_payable"
							},
							{
								"astId": 10,
								"contract": "contracts/BlockLease.sol:BlockLease",
								"label": "agrees",
								"offset": 20,
								"slot": "0",
								"type": "t_bool"
							}
						],
						"numberOfBytes": "32"
					},
					"t_uint256": {
						"encoding": "inplace",
						"label": "uint256",
						"numberOfBytes": "32"
					},
					"t_uint8": {
						"encoding": "inplace",
						"label": "uint8",
						"numberOfBytes": "1"
					}
				}
			},
			"userdoc": {
				"kind": "user",
				"methods": {},
				"version": 1
			}
		}
	}
}