{
	"contracts/4_BlockLease.sol": {
		"BlockLease": {
			"abi": [
				{
					"inputs": [
						{
							"internalType": "address",
							"name": "landlordAddr",
							"type": "address"
						},
						{
							"internalType": "address",
							"name": "tenantAddr",
							"type": "address"
						},
						{
							"internalType": "string",
							"name": "propertyName",
							"type": "string"
						},
						{
							"internalType": "string",
							"name": "propertyLocation",
							"type": "string"
						}
					],
					"stateMutability": "nonpayable",
					"type": "constructor"
				},
				{
					"inputs": [],
					"name": "landlord",
					"outputs": [
						{
							"internalType": "address payable",
							"name": "addr",
							"type": "address"
						},
						{
							"internalType": "bool",
							"name": "agrees",
							"type": "bool"
						}
					],
					"stateMutability": "view",
					"type": "function"
				},
				{
					"inputs": [],
					"name": "lease",
					"outputs": [
						{
							"internalType": "enum BlockLease.LeaseState",
							"name": "state",
							"type": "uint8"
						},
						{
							"internalType": "uint256",
							"name": "rentAmount",
							"type": "uint256"
						},
						{
							"internalType": "uint256",
							"name": "rentalDuration",
							"type": "uint256"
						}
					],
					"stateMutability": "view",
					"type": "function"
				},
				{
					"inputs": [],
					"name": "makeRentPayment",
					"outputs": [],
					"stateMutability": "payable",
					"type": "function"
				},
				{
					"inputs": [],
					"name": "property",
					"outputs": [
						{
							"internalType": "string",
							"name": "name",
							"type": "string"
						},
						{
							"internalType": "string",
							"name": "location",
							"type": "string"
						}
					],
					"stateMutability": "view",
					"type": "function"
				},
				{
					"inputs": [
						{
							"internalType": "uint256",
							"name": "rentAmount",
							"type": "uint256"
						},
						{
							"internalType": "uint256",
							"name": "rentDuration",
							"type": "uint256"
						}
					],
					"name": "setTerms",
					"outputs": [],
					"stateMutability": "nonpayable",
					"type": "function"
				},
				{
					"inputs": [],
					"name": "signAgreement",
					"outputs": [],
					"stateMutability": "nonpayable",
					"type": "function"
				},
				{
					"inputs": [],
					"name": "tenant",
					"outputs": [
						{
							"internalType": "address",
							"name": "addr",
							"type": "address"
						},
						{
							"internalType": "bool",
							"name": "agrees",
							"type": "bool"
						}
					],
					"stateMutability": "view",
					"type": "function"
				},
				{
					"inputs": [],
					"name": "unsignAgreement",
					"outputs": [],
					"stateMutability": "nonpayable",
					"type": "function"
				}
			],
			"devdoc": {
				"kind": "dev",
				"methods": {},
				"version": 1
			},
			"evm": {
				"assembly": "    /* \"contracts/4_BlockLease.sol\":69:2764  contract BlockLease {... */\n  mstore(0x40, 0x80)\n    /* \"contracts/4_BlockLease.sol\":2300:2762  constructor(... */\n  callvalue\n  dup1\n  iszero\n  tag_1\n  jumpi\n  0x00\n  dup1\n  revert\ntag_1:\n  pop\n  mload(0x40)\n  sub(codesize, bytecodeSize)\n  dup1\n  bytecodeSize\n  dup4\n  codecopy\n  dup2\n  dup2\n  add\n  0x40\n  mstore\n  dup2\n  add\n  swap1\n  tag_2\n  swap2\n  swap1\n  tag_3\n  jump\t// in\ntag_2:\n    /* \"contracts/4_BlockLease.sol\":2483:2495  landlordAddr */\n  dup4\n    /* \"contracts/4_BlockLease.sol\":2469:2495  msg.sender == landlordAddr */\n  0xffffffffffffffffffffffffffffffffffffffff\n  and\n    /* \"contracts/4_BlockLease.sol\":2469:2479  msg.sender */\n  caller\n    /* \"contracts/4_BlockLease.sol\":2469:2495  msg.sender == landlordAddr */\n  0xffffffffffffffffffffffffffffffffffffffff\n  and\n  eq\n    /* \"contracts/4_BlockLease.sol\":2469:2523  msg.sender == landlordAddr || msg.sender == tenantAddr */\n  dup1\n  tag_6\n  jumpi\n  pop\n    /* \"contracts/4_BlockLease.sol\":2513:2523  tenantAddr */\n  dup3\n    /* \"contracts/4_BlockLease.sol\":2499:2523  msg.sender == tenantAddr */\n  0xffffffffffffffffffffffffffffffffffffffff\n  and\n    /* \"contracts/4_BlockLease.sol\":2499:2509  msg.sender */\n  caller\n    /* \"contracts/4_BlockLease.sol\":2499:2523  msg.sender == tenantAddr */\n  0xffffffffffffffffffffffffffffffffffffffff\n  and\n  eq\n    /* \"contracts/4_BlockLease.sol\":2469:2523  msg.sender == landlordAddr || msg.sender == tenantAddr */\ntag_6:\n    /* \"contracts/4_BlockLease.sol\":2461:2590  require(msg.sender == landlordAddr || msg.sender == tenantAddr, \"Only landlord or tenant should be allowed to create the lease.\") */\n  tag_7\n  jumpi\n  mload(0x40)\n  0x08c379a000000000000000000000000000000000000000000000000000000000\n  dup2\n  mstore\n  0x04\n  add\n  tag_8\n  swap1\n  tag_9\n  jump\t// in\ntag_8:\n  mload(0x40)\n  dup1\n  swap2\n  sub\n  swap1\n  revert\ntag_7:\n    /* \"contracts/4_BlockLease.sol\":2624:2636  landlordAddr */\n  dup4\n    /* \"contracts/4_BlockLease.sol\":2600:2608  landlord */\n  0x00\n    /* \"contracts/4_BlockLease.sol\":2600:2613  landlord.addr */\n  dup1\n  add\n  0x00\n    /* \"contracts/4_BlockLease.sol\":2600:2637  landlord.addr = payable(landlordAddr) */\n  0x0100\n  exp\n  dup2\n  sload\n  dup2\n  0xffffffffffffffffffffffffffffffffffffffff\n  mul\n  not\n  and\n  swap1\n  dup4\n  0xffffffffffffffffffffffffffffffffffffffff\n  and\n  mul\n  or\n  swap1\n  sstore\n  pop\n    /* \"contracts/4_BlockLease.sol\":2661:2671  tenantAddr */\n  dup3\n    /* \"contracts/4_BlockLease.sol\":2647:2653  tenant */\n  0x01\n    /* \"contracts/4_BlockLease.sol\":2647:2658  tenant.addr */\n  0x00\n  add\n  0x00\n    /* \"contracts/4_BlockLease.sol\":2647:2671  tenant.addr = tenantAddr */\n  0x0100\n  exp\n  dup2\n  sload\n  dup2\n  0xffffffffffffffffffffffffffffffffffffffff\n  mul\n  not\n  and\n  swap1\n  dup4\n  0xffffffffffffffffffffffffffffffffffffffff\n  and\n  mul\n  or\n  swap1\n  sstore\n  pop\n    /* \"contracts/4_BlockLease.sol\":2697:2709  propertyName */\n  dup2\n    /* \"contracts/4_BlockLease.sol\":2681:2689  property */\n  0x02\n    /* \"contracts/4_BlockLease.sol\":2681:2694  property.name */\n  0x00\n  add\n    /* \"contracts/4_BlockLease.sol\":2681:2709  property.name = propertyName */\n  swap1\n  dup2\n  tag_10\n  swap2\n  swap1\n  tag_11\n  jump\t// in\ntag_10:\n  pop\n    /* \"contracts/4_BlockLease.sol\":2739:2755  propertyLocation */\n  dup1\n    /* \"contracts/4_BlockLease.sol\":2719:2727  property */\n  0x02\n    /* \"contracts/4_BlockLease.sol\":2719:2736  property.location */\n  0x01\n  add\n    /* \"contracts/4_BlockLease.sol\":2719:2755  property.location = propertyLocation */\n  swap1\n  dup2\n  tag_12\n  swap2\n  swap1\n  tag_11\n  jump\t// in\ntag_12:\n  pop\n    /* \"contracts/4_BlockLease.sol\":2300:2762  constructor(... */\n  pop\n  pop\n  pop\n  pop\n    /* \"contracts/4_BlockLease.sol\":69:2764  contract BlockLease {... */\n  jump(tag_13)\n    /* \"#utility.yul\":7:82   */\ntag_14:\n    /* \"#utility.yul\":40:46   */\n  0x00\n    /* \"#utility.yul\":73:75   */\n  0x40\n    /* \"#utility.yul\":67:76   */\n  mload\n    /* \"#utility.yul\":57:76   */\n  swap1\n  pop\n    /* \"#utility.yul\":7:82   */\n  swap1\n  jump\t// out\n    /* \"#utility.yul\":88:205   */\ntag_15:\n    /* \"#utility.yul\":197:198   */\n  0x00\n    /* \"#utility.yul\":194:195   */\n  dup1\n    /* \"#utility.yul\":187:199   */\n  revert\n    /* \"#utility.yul\":211:328   */\ntag_16:\n    /* \"#utility.yul\":320:321   */\n  0x00\n    /* \"#utility.yul\":317:318   */\n  dup1\n    /* \"#utility.yul\":310:322   */\n  revert\n    /* \"#utility.yul\":334:460   */\ntag_17:\n    /* \"#utility.yul\":371:378   */\n  0x00\n    /* \"#utility.yul\":411:453   */\n  0xffffffffffffffffffffffffffffffffffffffff\n    /* \"#utility.yul\":404:409   */\n  dup3\n    /* \"#utility.yul\":400:454   */\n  and\n    /* \"#utility.yul\":389:454   */\n  swap1\n  pop\n    /* \"#utility.yul\":334:460   */\n  swap2\n  swap1\n  pop\n  jump\t// out\n    /* \"#utility.yul\":466:562   */\ntag_18:\n    /* \"#utility.yul\":503:510   */\n  0x00\n    /* \"#utility.yul\":532:556   */\n  tag_59\n    /* \"#utility.yul\":550:555   */\n  dup3\n    /* \"#utility.yul\":532:556   */\n  tag_17\n  jump\t// in\ntag_59:\n    /* \"#utility.yul\":521:556   */\n  swap1\n  pop\n    /* \"#utility.yul\":466:562   */\n  swap2\n  swap1\n  pop\n  jump\t// out\n    /* \"#utility.yul\":568:690   */\ntag_19:\n    /* \"#utility.yul\":641:665   */\n  tag_61\n    /* \"#utility.yul\":659:664   */\n  dup2\n    /* \"#utility.yul\":641:665   */\n  tag_18\n  jump\t// in\ntag_61:\n    /* \"#utility.yul\":634:639   */\n  dup2\n    /* \"#utility.yul\":631:666   */\n  eq\n    /* \"#utility.yul\":621:684   */\n  tag_62\n  jumpi\n    /* \"#utility.yul\":680:681   */\n  0x00\n    /* \"#utility.yul\":677:678   */\n  dup1\n    /* \"#utility.yul\":670:682   */\n  revert\n    /* \"#utility.yul\":621:684   */\ntag_62:\n    /* \"#utility.yul\":568:690   */\n  pop\n  jump\t// out\n    /* \"#utility.yul\":696:839   */\ntag_20:\n    /* \"#utility.yul\":753:758   */\n  0x00\n    /* \"#utility.yul\":784:790   */\n  dup2\n    /* \"#utility.yul\":778:791   */\n  mload\n    /* \"#utility.yul\":769:791   */\n  swap1\n  pop\n    /* \"#utility.yul\":800:833   */\n  tag_64\n    /* \"#utility.yul\":827:832   */\n  dup2\n    /* \"#utility.yul\":800:833   */\n  tag_19\n  jump\t// in\ntag_64:\n    /* \"#utility.yul\":696:839   */\n  swap3\n  swap2\n  pop\n  pop\n  jump\t// out\n    /* \"#utility.yul\":845:962   */\ntag_21:\n    /* \"#utility.yul\":954:955   */\n  0x00\n    /* \"#utility.yul\":951:952   */\n  dup1\n    /* \"#utility.yul\":944:956   */\n  revert\n    /* \"#utility.yul\":968:1085   */\ntag_22:\n    /* \"#utility.yul\":1077:1078   */\n  0x00\n    /* \"#utility.yul\":1074:1075   */\n  dup1\n    /* \"#utility.yul\":1067:1079   */\n  revert\n    /* \"#utility.yul\":1091:1193   */\ntag_23:\n    /* \"#utility.yul\":1132:1138   */\n  0x00\n    /* \"#utility.yul\":1183:1185   */\n  0x1f\n    /* \"#utility.yul\":1179:1186   */\n  not\n    /* \"#utility.yul\":1174:1176   */\n  0x1f\n    /* \"#utility.yul\":1167:1172   */\n  dup4\n    /* \"#utility.yul\":1163:1177   */\n  add\n    /* \"#utility.yul\":1159:1187   */\n  and\n    /* \"#utility.yul\":1149:1187   */\n  swap1\n  pop\n    /* \"#utility.yul\":1091:1193   */\n  swap2\n  swap1\n  pop\n  jump\t// out\n    /* \"#utility.yul\":1199:1379   */\ntag_24:\n    /* \"#utility.yul\":1247:1324   */\n  0x4e487b7100000000000000000000000000000000000000000000000000000000\n    /* \"#utility.yul\":1244:1245   */\n  0x00\n    /* \"#utility.yul\":1237:1325   */\n  mstore\n    /* \"#utility.yul\":1344:1348   */\n  0x41\n    /* \"#utility.yul\":1341:1342   */\n  0x04\n    /* \"#utility.yul\":1334:1349   */\n  mstore\n    /* \"#utility.yul\":1368:1372   */\n  0x24\n    /* \"#utility.yul\":1365:1366   */\n  0x00\n    /* \"#utility.yul\":1358:1373   */\n  revert\n    /* \"#utility.yul\":1385:1666   */\ntag_25:\n    /* \"#utility.yul\":1468:1495   */\n  tag_70\n    /* \"#utility.yul\":1490:1494   */\n  dup3\n    /* \"#utility.yul\":1468:1495   */\n  tag_23\n  jump\t// in\ntag_70:\n    /* \"#utility.yul\":1460:1466   */\n  dup2\n    /* \"#utility.yul\":1456:1496   */\n  add\n    /* \"#utility.yul\":1598:1604   */\n  dup2\n    /* \"#utility.yul\":1586:1596   */\n  dup2\n    /* \"#utility.yul\":1583:1605   */\n  lt\n    /* \"#utility.yul\":1562:1580   */\n  0xffffffffffffffff\n    /* \"#utility.yul\":1550:1560   */\n  dup3\n    /* \"#utility.yul\":1547:1581   */\n  gt\n    /* \"#utility.yul\":1544:1606   */\n  or\n    /* \"#utility.yul\":1541:1629   */\n  iszero\n  tag_71\n  jumpi\n    /* \"#utility.yul\":1609:1627   */\n  tag_72\n  tag_24\n  jump\t// in\ntag_72:\n    /* \"#utility.yul\":1541:1629   */\ntag_71:\n    /* \"#utility.yul\":1649:1659   */\n  dup1\n    /* \"#utility.yul\":1645:1647   */\n  0x40\n    /* \"#utility.yul\":1638:1660   */\n  mstore\n    /* \"#utility.yul\":1428:1666   */\n  pop\n    /* \"#utility.yul\":1385:1666   */\n  pop\n  pop\n  jump\t// out\n    /* \"#utility.yul\":1672:1801   */\ntag_26:\n    /* \"#utility.yul\":1706:1712   */\n  0x00\n    /* \"#utility.yul\":1733:1753   */\n  tag_74\n  tag_14\n  jump\t// in\ntag_74:\n    /* \"#utility.yul\":1723:1753   */\n  swap1\n  pop\n    /* \"#utility.yul\":1762:1795   */\n  tag_75\n    /* \"#utility.yul\":1790:1794   */\n  dup3\n    /* \"#utility.yul\":1782:1788   */\n  dup3\n    /* \"#utility.yul\":1762:1795   */\n  tag_25\n  jump\t// in\ntag_75:\n    /* \"#utility.yul\":1672:1801   */\n  swap2\n  swap1\n  pop\n  jump\t// out\n    /* \"#utility.yul\":1807:2115   */\ntag_27:\n    /* \"#utility.yul\":1869:1873   */\n  0x00\n    /* \"#utility.yul\":1959:1977   */\n  0xffffffffffffffff\n    /* \"#utility.yul\":1951:1957   */\n  dup3\n    /* \"#utility.yul\":1948:1978   */\n  gt\n    /* \"#utility.yul\":1945:2001   */\n  iszero\n  tag_77\n  jumpi\n    /* \"#utility.yul\":1981:1999   */\n  tag_78\n  tag_24\n  jump\t// in\ntag_78:\n    /* \"#utility.yul\":1945:2001   */\ntag_77:\n    /* \"#utility.yul\":2019:2048   */\n  tag_79\n    /* \"#utility.yul\":2041:2047   */\n  dup3\n    /* \"#utility.yul\":2019:2048   */\n  tag_23\n  jump\t// in\ntag_79:\n    /* \"#utility.yul\":2011:2048   */\n  swap1\n  pop\n    /* \"#utility.yul\":2103:2107   */\n  0x20\n    /* \"#utility.yul\":2097:2101   */\n  dup2\n    /* \"#utility.yul\":2093:2108   */\n  add\n    /* \"#utility.yul\":2085:2108   */\n  swap1\n  pop\n    /* \"#utility.yul\":1807:2115   */\n  swap2\n  swap1\n  pop\n  jump\t// out\n    /* \"#utility.yul\":2121:2367   */\ntag_28:\n    /* \"#utility.yul\":2202:2203   */\n  0x00\n    /* \"#utility.yul\":2212:2325   */\ntag_81:\n    /* \"#utility.yul\":2226:2232   */\n  dup4\n    /* \"#utility.yul\":2223:2224   */\n  dup2\n    /* \"#utility.yul\":2220:2233   */\n  lt\n    /* \"#utility.yul\":2212:2325   */\n  iszero\n  tag_83\n  jumpi\n    /* \"#utility.yul\":2311:2312   */\n  dup1\n    /* \"#utility.yul\":2306:2309   */\n  dup3\n    /* \"#utility.yul\":2302:2313   */\n  add\n    /* \"#utility.yul\":2296:2314   */\n  mload\n    /* \"#utility.yul\":2292:2293   */\n  dup2\n    /* \"#utility.yul\":2287:2290   */\n  dup5\n    /* \"#utility.yul\":2283:2294   */\n  add\n    /* \"#utility.yul\":2276:2315   */\n  mstore\n    /* \"#utility.yul\":2248:2250   */\n  0x20\n    /* \"#utility.yul\":2245:2246   */\n  dup2\n    /* \"#utility.yul\":2241:2251   */\n  add\n    /* \"#utility.yul\":2236:2251   */\n  swap1\n  pop\n    /* \"#utility.yul\":2212:2325   */\n  jump(tag_81)\ntag_83:\n    /* \"#utility.yul\":2359:2360   */\n  0x00\n    /* \"#utility.yul\":2350:2356   */\n  dup5\n    /* \"#utility.yul\":2345:2348   */\n  dup5\n    /* \"#utility.yul\":2341:2357   */\n  add\n    /* \"#utility.yul\":2334:2361   */\n  mstore\n    /* \"#utility.yul\":2183:2367   */\n  pop\n    /* \"#utility.yul\":2121:2367   */\n  pop\n  pop\n  pop\n  jump\t// out\n    /* \"#utility.yul\":2373:2807   */\ntag_29:\n    /* \"#utility.yul\":2462:2467   */\n  0x00\n    /* \"#utility.yul\":2487:2553   */\n  tag_85\n    /* \"#utility.yul\":2503:2552   */\n  tag_86\n    /* \"#utility.yul\":2545:2551   */\n  dup5\n    /* \"#utility.yul\":2503:2552   */\n  tag_27\n  jump\t// in\ntag_86:\n    /* \"#utility.yul\":2487:2553   */\n  tag_26\n  jump\t// in\ntag_85:\n    /* \"#utility.yul\":2478:2553   */\n  swap1\n  pop\n    /* \"#utility.yul\":2576:2582   */\n  dup3\n    /* \"#utility.yul\":2569:2574   */\n  dup2\n    /* \"#utility.yul\":2562:2583   */\n  mstore\n    /* \"#utility.yul\":2614:2618   */\n  0x20\n    /* \"#utility.yul\":2607:2612   */\n  dup2\n    /* \"#utility.yul\":2603:2619   */\n  add\n    /* \"#utility.yul\":2652:2655   */\n  dup5\n    /* \"#utility.yul\":2643:2649   */\n  dup5\n    /* \"#utility.yul\":2638:2641   */\n  dup5\n    /* \"#utility.yul\":2634:2650   */\n  add\n    /* \"#utility.yul\":2631:2656   */\n  gt\n    /* \"#utility.yul\":2628:2740   */\n  iszero\n  tag_87\n  jumpi\n    /* \"#utility.yul\":2659:2738   */\n  tag_88\n  tag_22\n  jump\t// in\ntag_88:\n    /* \"#utility.yul\":2628:2740   */\ntag_87:\n    /* \"#utility.yul\":2749:2801   */\n  tag_89\n    /* \"#utility.yul\":2794:2800   */\n  dup5\n    /* \"#utility.yul\":2789:2792   */\n  dup3\n    /* \"#utility.yul\":2784:2787   */\n  dup6\n    /* \"#utility.yul\":2749:2801   */\n  tag_28\n  jump\t// in\ntag_89:\n    /* \"#utility.yul\":2468:2807   */\n  pop\n    /* \"#utility.yul\":2373:2807   */\n  swap4\n  swap3\n  pop\n  pop\n  pop\n  jump\t// out\n    /* \"#utility.yul\":2827:3182   */\ntag_30:\n    /* \"#utility.yul\":2894:2899   */\n  0x00\n    /* \"#utility.yul\":2943:2946   */\n  dup3\n    /* \"#utility.yul\":2936:2940   */\n  0x1f\n    /* \"#utility.yul\":2928:2934   */\n  dup4\n    /* \"#utility.yul\":2924:2941   */\n  add\n    /* \"#utility.yul\":2920:2947   */\n  slt\n    /* \"#utility.yul\":2910:3032   */\n  tag_91\n  jumpi\n    /* \"#utility.yul\":2951:3030   */\n  tag_92\n  tag_21\n  jump\t// in\ntag_92:\n    /* \"#utility.yul\":2910:3032   */\ntag_91:\n    /* \"#utility.yul\":3061:3067   */\n  dup2\n    /* \"#utility.yul\":3055:3068   */\n  mload\n    /* \"#utility.yul\":3086:3176   */\n  tag_93\n    /* \"#utility.yul\":3172:3175   */\n  dup5\n    /* \"#utility.yul\":3164:3170   */\n  dup3\n    /* \"#utility.yul\":3157:3161   */\n  0x20\n    /* \"#utility.yul\":3149:3155   */\n  dup7\n    /* \"#utility.yul\":3145:3162   */\n  add\n    /* \"#utility.yul\":3086:3176   */\n  tag_29\n  jump\t// in\ntag_93:\n    /* \"#utility.yul\":3077:3176   */\n  swap2\n  pop\n    /* \"#utility.yul\":2900:3182   */\n  pop\n    /* \"#utility.yul\":2827:3182   */\n  swap3\n  swap2\n  pop\n  pop\n  jump\t// out\n    /* \"#utility.yul\":3188:4354   */\ntag_3:\n    /* \"#utility.yul\":3305:3311   */\n  0x00\n    /* \"#utility.yul\":3313:3319   */\n  dup1\n    /* \"#utility.yul\":3321:3327   */\n  0x00\n    /* \"#utility.yul\":3329:3335   */\n  dup1\n    /* \"#utility.yul\":3378:3381   */\n  0x80\n    /* \"#utility.yul\":3366:3375   */\n  dup6\n    /* \"#utility.yul\":3357:3364   */\n  dup8\n    /* \"#utility.yul\":3353:3376   */\n  sub\n    /* \"#utility.yul\":3349:3382   */\n  slt\n    /* \"#utility.yul\":3346:3466   */\n  iszero\n  tag_95\n  jumpi\n    /* \"#utility.yul\":3385:3464   */\n  tag_96\n  tag_15\n  jump\t// in\ntag_96:\n    /* \"#utility.yul\":3346:3466   */\ntag_95:\n    /* \"#utility.yul\":3505:3506   */\n  0x00\n    /* \"#utility.yul\":3530:3594   */\n  tag_97\n    /* \"#utility.yul\":3586:3593   */\n  dup8\n    /* \"#utility.yul\":3577:3583   */\n  dup3\n    /* \"#utility.yul\":3566:3575   */\n  dup9\n    /* \"#utility.yul\":3562:3584   */\n  add\n    /* \"#utility.yul\":3530:3594   */\n  tag_20\n  jump\t// in\ntag_97:\n    /* \"#utility.yul\":3520:3594   */\n  swap5\n  pop\n    /* \"#utility.yul\":3476:3604   */\n  pop\n    /* \"#utility.yul\":3643:3645   */\n  0x20\n    /* \"#utility.yul\":3669:3733   */\n  tag_98\n    /* \"#utility.yul\":3725:3732   */\n  dup8\n    /* \"#utility.yul\":3716:3722   */\n  dup3\n    /* \"#utility.yul\":3705:3714   */\n  dup9\n    /* \"#utility.yul\":3701:3723   */\n  add\n    /* \"#utility.yul\":3669:3733   */\n  tag_20\n  jump\t// in\ntag_98:\n    /* \"#utility.yul\":3659:3733   */\n  swap4\n  pop\n    /* \"#utility.yul\":3614:3743   */\n  pop\n    /* \"#utility.yul\":3803:3805   */\n  0x40\n    /* \"#utility.yul\":3792:3801   */\n  dup6\n    /* \"#utility.yul\":3788:3806   */\n  add\n    /* \"#utility.yul\":3782:3807   */\n  mload\n    /* \"#utility.yul\":3834:3852   */\n  0xffffffffffffffff\n    /* \"#utility.yul\":3826:3832   */\n  dup2\n    /* \"#utility.yul\":3823:3853   */\n  gt\n    /* \"#utility.yul\":3820:3937   */\n  iszero\n  tag_99\n  jumpi\n    /* \"#utility.yul\":3856:3935   */\n  tag_100\n  tag_16\n  jump\t// in\ntag_100:\n    /* \"#utility.yul\":3820:3937   */\ntag_99:\n    /* \"#utility.yul\":3961:4035   */\n  tag_101\n    /* \"#utility.yul\":4027:4034   */\n  dup8\n    /* \"#utility.yul\":4018:4024   */\n  dup3\n    /* \"#utility.yul\":4007:4016   */\n  dup9\n    /* \"#utility.yul\":4003:4025   */\n  add\n    /* \"#utility.yul\":3961:4035   */\n  tag_30\n  jump\t// in\ntag_101:\n    /* \"#utility.yul\":3951:4035   */\n  swap3\n  pop\n    /* \"#utility.yul\":3753:4045   */\n  pop\n    /* \"#utility.yul\":4105:4107   */\n  0x60\n    /* \"#utility.yul\":4094:4103   */\n  dup6\n    /* \"#utility.yul\":4090:4108   */\n  add\n    /* \"#utility.yul\":4084:4109   */\n  mload\n    /* \"#utility.yul\":4136:4154   */\n  0xffffffffffffffff\n    /* \"#utility.yul\":4128:4134   */\n  dup2\n    /* \"#utility.yul\":4125:4155   */\n  gt\n    /* \"#utility.yul\":4122:4239   */\n  iszero\n  tag_102\n  jumpi\n    /* \"#utility.yul\":4158:4237   */\n  tag_103\n  tag_16\n  jump\t// in\ntag_103:\n    /* \"#utility.yul\":4122:4239   */\ntag_102:\n    /* \"#utility.yul\":4263:4337   */\n  tag_104\n    /* \"#utility.yul\":4329:4336   */\n  dup8\n    /* \"#utility.yul\":4320:4326   */\n  dup3\n    /* \"#utility.yul\":4309:4318   */\n  dup9\n    /* \"#utility.yul\":4305:4327   */\n  add\n    /* \"#utility.yul\":4263:4337   */\n  tag_30\n  jump\t// in\ntag_104:\n    /* \"#utility.yul\":4253:4337   */\n  swap2\n  pop\n    /* \"#utility.yul\":4055:4347   */\n  pop\n    /* \"#utility.yul\":3188:4354   */\n  swap3\n  swap6\n  swap2\n  swap5\n  pop\n  swap3\n  pop\n  jump\t// out\n    /* \"#utility.yul\":4360:4529   */\ntag_31:\n    /* \"#utility.yul\":4444:4455   */\n  0x00\n    /* \"#utility.yul\":4478:4484   */\n  dup3\n    /* \"#utility.yul\":4473:4476   */\n  dup3\n    /* \"#utility.yul\":4466:4485   */\n  mstore\n    /* \"#utility.yul\":4518:4522   */\n  0x20\n    /* \"#utility.yul\":4513:4516   */\n  dup3\n    /* \"#utility.yul\":4509:4523   */\n  add\n    /* \"#utility.yul\":4494:4523   */\n  swap1\n  pop\n    /* \"#utility.yul\":4360:4529   */\n  swap3\n  swap2\n  pop\n  pop\n  jump\t// out\n    /* \"#utility.yul\":4535:4784   */\ntag_32:\n    /* \"#utility.yul\":4675:4709   */\n  0x4f6e6c79206c616e646c6f7264206f722074656e616e742073686f756c642062\n    /* \"#utility.yul\":4671:4672   */\n  0x00\n    /* \"#utility.yul\":4663:4669   */\n  dup3\n    /* \"#utility.yul\":4659:4673   */\n  add\n    /* \"#utility.yul\":4652:4710   */\n  mstore\n    /* \"#utility.yul\":4744:4776   */\n  0x6520616c6c6f77656420746f2063726561746520746865206c656173652e0000\n    /* \"#utility.yul\":4739:4741   */\n  0x20\n    /* \"#utility.yul\":4731:4737   */\n  dup3\n    /* \"#utility.yul\":4727:4742   */\n  add\n    /* \"#utility.yul\":4720:4777   */\n  mstore\n    /* \"#utility.yul\":4535:4784   */\n  pop\n  jump\t// out\n    /* \"#utility.yul\":4790:5156   */\ntag_33:\n    /* \"#utility.yul\":4932:4935   */\n  0x00\n    /* \"#utility.yul\":4953:5020   */\n  tag_108\n    /* \"#utility.yul\":5017:5019   */\n  0x3e\n    /* \"#utility.yul\":5012:5015   */\n  dup4\n    /* \"#utility.yul\":4953:5020   */\n  tag_31\n  jump\t// in\ntag_108:\n    /* \"#utility.yul\":4946:5020   */\n  swap2\n  pop\n    /* \"#utility.yul\":5029:5122   */\n  tag_109\n    /* \"#utility.yul\":5118:5121   */\n  dup3\n    /* \"#utility.yul\":5029:5122   */\n  tag_32\n  jump\t// in\ntag_109:\n    /* \"#utility.yul\":5147:5149   */\n  0x40\n    /* \"#utility.yul\":5142:5145   */\n  dup3\n    /* \"#utility.yul\":5138:5150   */\n  add\n    /* \"#utility.yul\":5131:5150   */\n  swap1\n  pop\n    /* \"#utility.yul\":4790:5156   */\n  swap2\n  swap1\n  pop\n  jump\t// out\n    /* \"#utility.yul\":5162:5581   */\ntag_9:\n    /* \"#utility.yul\":5328:5332   */\n  0x00\n    /* \"#utility.yul\":5366:5368   */\n  0x20\n    /* \"#utility.yul\":5355:5364   */\n  dup3\n    /* \"#utility.yul\":5351:5369   */\n  add\n    /* \"#utility.yul\":5343:5369   */\n  swap1\n  pop\n    /* \"#utility.yul\":5415:5424   */\n  dup2\n    /* \"#utility.yul\":5409:5413   */\n  dup2\n    /* \"#utility.yul\":5405:5425   */\n  sub\n    /* \"#utility.yul\":5401:5402   */\n  0x00\n    /* \"#utility.yul\":5390:5399   */\n  dup4\n    /* \"#utility.yul\":5386:5403   */\n  add\n    /* \"#utility.yul\":5379:5426   */\n  mstore\n    /* \"#utility.yul\":5443:5574   */\n  tag_111\n    /* \"#utility.yul\":5569:5573   */\n  dup2\n    /* \"#utility.yul\":5443:5574   */\n  tag_33\n  jump\t// in\ntag_111:\n    /* \"#utility.yul\":5435:5574   */\n  swap1\n  pop\n    /* \"#utility.yul\":5162:5581   */\n  swap2\n  swap1\n  pop\n  jump\t// out\n    /* \"#utility.yul\":5587:5686   */\ntag_34:\n    /* \"#utility.yul\":5639:5645   */\n  0x00\n    /* \"#utility.yul\":5673:5678   */\n  dup2\n    /* \"#utility.yul\":5667:5679   */\n  mload\n    /* \"#utility.yul\":5657:5679   */\n  swap1\n  pop\n    /* \"#utility.yul\":5587:5686   */\n  swap2\n  swap1\n  pop\n  jump\t// out\n    /* \"#utility.yul\":5692:5872   */\ntag_35:\n    /* \"#utility.yul\":5740:5817   */\n  0x4e487b7100000000000000000000000000000000000000000000000000000000\n    /* \"#utility.yul\":5737:5738   */\n  0x00\n    /* \"#utility.yul\":5730:5818   */\n  mstore\n    /* \"#utility.yul\":5837:5841   */\n  0x22\n    /* \"#utility.yul\":5834:5835   */\n  0x04\n    /* \"#utility.yul\":5827:5842   */\n  mstore\n    /* \"#utility.yul\":5861:5865   */\n  0x24\n    /* \"#utility.yul\":5858:5859   */\n  0x00\n    /* \"#utility.yul\":5851:5866   */\n  revert\n    /* \"#utility.yul\":5878:6198   */\ntag_36:\n    /* \"#utility.yul\":5922:5928   */\n  0x00\n    /* \"#utility.yul\":5959:5960   */\n  0x02\n    /* \"#utility.yul\":5953:5957   */\n  dup3\n    /* \"#utility.yul\":5949:5961   */\n  div\n    /* \"#utility.yul\":5939:5961   */\n  swap1\n  pop\n    /* \"#utility.yul\":6006:6007   */\n  0x01\n    /* \"#utility.yul\":6000:6004   */\n  dup3\n    /* \"#utility.yul\":5996:6008   */\n  and\n    /* \"#utility.yul\":6027:6045   */\n  dup1\n    /* \"#utility.yul\":6017:6098   */\n  tag_115\n  jumpi\n    /* \"#utility.yul\":6083:6087   */\n  0x7f\n    /* \"#utility.yul\":6075:6081   */\n  dup3\n    /* \"#utility.yul\":6071:6088   */\n  and\n    /* \"#utility.yul\":6061:6088   */\n  swap2\n  pop\n    /* \"#utility.yul\":6017:6098   */\ntag_115:\n    /* \"#utility.yul\":6145:6147   */\n  0x20\n    /* \"#utility.yul\":6137:6143   */\n  dup3\n    /* \"#utility.yul\":6134:6148   */\n  lt\n    /* \"#utility.yul\":6114:6132   */\n  dup2\n    /* \"#utility.yul\":6111:6149   */\n  sub\n    /* \"#utility.yul\":6108:6192   */\n  tag_116\n  jumpi\n    /* \"#utility.yul\":6164:6182   */\n  tag_117\n  tag_35\n  jump\t// in\ntag_117:\n    /* \"#utility.yul\":6108:6192   */\ntag_116:\n    /* \"#utility.yul\":5929:6198   */\n  pop\n    /* \"#utility.yul\":5878:6198   */\n  swap2\n  swap1\n  pop\n  jump\t// out\n    /* \"#utility.yul\":6204:6345   */\ntag_37:\n    /* \"#utility.yul\":6253:6257   */\n  0x00\n    /* \"#utility.yul\":6276:6279   */\n  dup2\n    /* \"#utility.yul\":6268:6279   */\n  swap1\n  pop\n    /* \"#utility.yul\":6299:6302   */\n  dup2\n    /* \"#utility.yul\":6296:6297   */\n  0x00\n    /* \"#utility.yul\":6289:6303   */\n  mstore\n    /* \"#utility.yul\":6333:6337   */\n  0x20\n    /* \"#utility.yul\":6330:6331   */\n  0x00\n    /* \"#utility.yul\":6320:6338   */\n  keccak256\n    /* \"#utility.yul\":6312:6338   */\n  swap1\n  pop\n    /* \"#utility.yul\":6204:6345   */\n  swap2\n  swap1\n  pop\n  jump\t// out\n    /* \"#utility.yul\":6351:6444   */\ntag_38:\n    /* \"#utility.yul\":6388:6394   */\n  0x00\n    /* \"#utility.yul\":6435:6437   */\n  0x20\n    /* \"#utility.yul\":6430:6432   */\n  0x1f\n    /* \"#utility.yul\":6423:6428   */\n  dup4\n    /* \"#utility.yul\":6419:6433   */\n  add\n    /* \"#utility.yul\":6415:6438   */\n  div\n    /* \"#utility.yul\":6405:6438   */\n  swap1\n  pop\n    /* \"#utility.yul\":6351:6444   */\n  swap2\n  swap1\n  pop\n  jump\t// out\n    /* \"#utility.yul\":6450:6557   */\ntag_39:\n    /* \"#utility.yul\":6494:6502   */\n  0x00\n    /* \"#utility.yul\":6544:6549   */\n  dup3\n    /* \"#utility.yul\":6538:6542   */\n  dup3\n    /* \"#utility.yul\":6534:6550   */\n  shl\n    /* \"#utility.yul\":6513:6550   */\n  swap1\n  pop\n    /* \"#utility.yul\":6450:6557   */\n  swap3\n  swap2\n  pop\n  pop\n  jump\t// out\n    /* \"#utility.yul\":6563:6956   */\ntag_40:\n    /* \"#utility.yul\":6632:6638   */\n  0x00\n    /* \"#utility.yul\":6682:6683   */\n  0x08\n    /* \"#utility.yul\":6670:6680   */\n  dup4\n    /* \"#utility.yul\":6666:6684   */\n  mul\n    /* \"#utility.yul\":6705:6802   */\n  tag_122\n    /* \"#utility.yul\":6735:6801   */\n  0xffffffffffffffffffffffffffffffffffffffffffffffffffffffffffffffff\n    /* \"#utility.yul\":6724:6733   */\n  dup3\n    /* \"#utility.yul\":6705:6802   */\n  tag_39\n  jump\t// in\ntag_122:\n    /* \"#utility.yul\":6823:6862   */\n  tag_123\n    /* \"#utility.yul\":6853:6861   */\n  dup7\n    /* \"#utility.yul\":6842:6851   */\n  dup4\n    /* \"#utility.yul\":6823:6862   */\n  tag_39\n  jump\t// in\ntag_123:\n    /* \"#utility.yul\":6811:6862   */\n  swap6\n  pop\n    /* \"#utility.yul\":6895:6899   */\n  dup1\n    /* \"#utility.yul\":6891:6900   */\n  not\n    /* \"#utility.yul\":6884:6889   */\n  dup5\n    /* \"#utility.yul\":6880:6901   */\n  and\n    /* \"#utility.yul\":6871:6901   */\n  swap4\n  pop\n    /* \"#utility.yul\":6944:6948   */\n  dup1\n    /* \"#utility.yul\":6934:6942   */\n  dup7\n    /* \"#utility.yul\":6930:6949   */\n  and\n    /* \"#utility.yul\":6923:6928   */\n  dup5\n    /* \"#utility.yul\":6920:6950   */\n  or\n    /* \"#utility.yul\":6910:6950   */\n  swap3\n  pop\n    /* \"#utility.yul\":6639:6956   */\n  pop\n  pop\n    /* \"#utility.yul\":6563:6956   */\n  swap4\n  swap3\n  pop\n  pop\n  pop\n  jump\t// out\n    /* \"#utility.yul\":6962:7039   */\ntag_41:\n    /* \"#utility.yul\":6999:7006   */\n  0x00\n    /* \"#utility.yul\":7028:7033   */\n  dup2\n    /* \"#utility.yul\":7017:7033   */\n  swap1\n  pop\n    /* \"#utility.yul\":6962:7039   */\n  swap2\n  swap1\n  pop\n  jump\t// out\n    /* \"#utility.yul\":7045:7105   */\ntag_42:\n    /* \"#utility.yul\":7073:7076   */\n  0x00\n    /* \"#utility.yul\":7094:7099   */\n  dup2\n    /* \"#utility.yul\":7087:7099   */\n  swap1\n  pop\n    /* \"#utility.yul\":7045:7105   */\n  swap2\n  swap1\n  pop\n  jump\t// out\n    /* \"#utility.yul\":7111:7253   */\ntag_43:\n    /* \"#utility.yul\":7161:7170   */\n  0x00\n    /* \"#utility.yul\":7194:7247   */\n  tag_127\n    /* \"#utility.yul\":7212:7246   */\n  tag_128\n    /* \"#utility.yul\":7221:7245   */\n  tag_129\n    /* \"#utility.yul\":7239:7244   */\n  dup5\n    /* \"#utility.yul\":7221:7245   */\n  tag_41\n  jump\t// in\ntag_129:\n    /* \"#utility.yul\":7212:7246   */\n  tag_42\n  jump\t// in\ntag_128:\n    /* \"#utility.yul\":7194:7247   */\n  tag_41\n  jump\t// in\ntag_127:\n    /* \"#utility.yul\":7181:7247   */\n  swap1\n  pop\n    /* \"#utility.yul\":7111:7253   */\n  swap2\n  swap1\n  pop\n  jump\t// out\n    /* \"#utility.yul\":7259:7334   */\ntag_44:\n    /* \"#utility.yul\":7302:7305   */\n  0x00\n    /* \"#utility.yul\":7323:7328   */\n  dup2\n    /* \"#utility.yul\":7316:7328   */\n  swap1\n  pop\n    /* \"#utility.yul\":7259:7334   */\n  swap2\n  swap1\n  pop\n  jump\t// out\n    /* \"#utility.yul\":7340:7609   */\ntag_45:\n    /* \"#utility.yul\":7450:7489   */\n  tag_132\n    /* \"#utility.yul\":7481:7488   */\n  dup4\n    /* \"#utility.yul\":7450:7489   */\n  tag_43\n  jump\t// in\ntag_132:\n    /* \"#utility.yul\":7511:7602   */\n  tag_133\n    /* \"#utility.yul\":7560:7601   */\n  tag_134\n    /* \"#utility.yul\":7584:7600   */\n  dup3\n    /* \"#utility.yul\":7560:7601   */\n  tag_44\n  jump\t// in\ntag_134:\n    /* \"#utility.yul\":7552:7558   */\n  dup5\n    /* \"#utility.yul\":7545:7549   */\n  dup5\n    /* \"#utility.yul\":7539:7550   */\n  sload\n    /* \"#utility.yul\":7511:7602   */\n  tag_40\n  jump\t// in\ntag_133:\n    /* \"#utility.yul\":7505:7509   */\n  dup3\n    /* \"#utility.yul\":7498:7603   */\n  sstore\n    /* \"#utility.yul\":7416:7609   */\n  pop\n    /* \"#utility.yul\":7340:7609   */\n  pop\n  pop\n  pop\n  jump\t// out\n    /* \"#utility.yul\":7615:7688   */\ntag_46:\n    /* \"#utility.yul\":7660:7663   */\n  0x00\n    /* \"#utility.yul\":7615:7688   */\n  swap1\n  jump\t// out\n    /* \"#utility.yul\":7694:7883   */\ntag_47:\n    /* \"#utility.yul\":7771:7803   */\n  tag_137\n  tag_46\n  jump\t// in\ntag_137:\n    /* \"#utility.yul\":7812:7877   */\n  tag_138\n    /* \"#utility.yul\":7870:7876   */\n  dup2\n    /* \"#utility.yul\":7862:7868   */\n  dup5\n    /* \"#utility.yul\":7856:7860   */\n  dup5\n    /* \"#utility.yul\":7812:7877   */\n  tag_45\n  jump\t// in\ntag_138:\n    /* \"#utility.yul\":7747:7883   */\n  pop\n    /* \"#utility.yul\":7694:7883   */\n  pop\n  pop\n  jump\t// out\n    /* \"#utility.yul\":7889:8075   */\ntag_48:\n    /* \"#utility.yul\":7949:8069   */\ntag_140:\n    /* \"#utility.yul\":7966:7969   */\n  dup2\n    /* \"#utility.yul\":7959:7964   */\n  dup2\n    /* \"#utility.yul\":7956:7970   */\n  lt\n    /* \"#utility.yul\":7949:8069   */\n  iszero\n  tag_142\n  jumpi\n    /* \"#utility.yul\":8020:8059   */\n  tag_143\n    /* \"#utility.yul\":8057:8058   */\n  0x00\n    /* \"#utility.yul\":8050:8055   */\n  dup3\n    /* \"#utility.yul\":8020:8059   */\n  tag_47\n  jump\t// in\ntag_143:\n    /* \"#utility.yul\":7993:7994   */\n  0x01\n    /* \"#utility.yul\":7986:7991   */\n  dup2\n    /* \"#utility.yul\":7982:7995   */\n  add\n    /* \"#utility.yul\":7973:7995   */\n  swap1\n  pop\n    /* \"#utility.yul\":7949:8069   */\n  jump(tag_140)\ntag_142:\n    /* \"#utility.yul\":7889:8075   */\n  pop\n  pop\n  jump\t// out\n    /* \"#utility.yul\":8081:8624   */\ntag_49:\n    /* \"#utility.yul\":8182:8184   */\n  0x1f\n    /* \"#utility.yul\":8177:8180   */\n  dup3\n    /* \"#utility.yul\":8174:8185   */\n  gt\n    /* \"#utility.yul\":8171:8617   */\n  iszero\n  tag_145\n  jumpi\n    /* \"#utility.yul\":8216:8254   */\n  tag_146\n    /* \"#utility.yul\":8248:8253   */\n  dup2\n    /* \"#utility.yul\":8216:8254   */\n  tag_37\n  jump\t// in\ntag_146:\n    /* \"#utility.yul\":8300:8329   */\n  tag_147\n    /* \"#utility.yul\":8318:8328   */\n  dup5\n    /* \"#utility.yul\":8300:8329   */\n  tag_38\n  jump\t// in\ntag_147:\n    /* \"#utility.yul\":8290:8298   */\n  dup2\n    /* \"#utility.yul\":8286:8330   */\n  add\n    /* \"#utility.yul\":8483:8485   */\n  0x20\n    /* \"#utility.yul\":8471:8481   */\n  dup6\n    /* \"#utility.yul\":8468:8486   */\n  lt\n    /* \"#utility.yul\":8465:8514   */\n  iszero\n  tag_148\n  jumpi\n    /* \"#utility.yul\":8504:8512   */\n  dup2\n    /* \"#utility.yul\":8489:8512   */\n  swap1\n  pop\n    /* \"#utility.yul\":8465:8514   */\ntag_148:\n    /* \"#utility.yul\":8527:8607   */\n  tag_149\n    /* \"#utility.yul\":8583:8605   */\n  tag_150\n    /* \"#utility.yul\":8601:8604   */\n  dup6\n    /* \"#utility.yul\":8583:8605   */\n  tag_38\n  jump\t// in\ntag_150:\n    /* \"#utility.yul\":8573:8581   */\n  dup4\n    /* \"#utility.yul\":8569:8606   */\n  add\n    /* \"#utility.yul\":8556:8567   */\n  dup3\n    /* \"#utility.yul\":8527:8607   */\n  tag_48\n  jump\t// in\ntag_149:\n    /* \"#utility.yul\":8186:8617   */\n  pop\n  pop\n    /* \"#utility.yul\":8171:8617   */\ntag_145:\n    /* \"#utility.yul\":8081:8624   */\n  pop\n  pop\n  pop\n  jump\t// out\n    /* \"#utility.yul\":8630:8747   */\ntag_50:\n    /* \"#utility.yul\":8684:8692   */\n  0x00\n    /* \"#utility.yul\":8734:8739   */\n  dup3\n    /* \"#utility.yul\":8728:8732   */\n  dup3\n    /* \"#utility.yul\":8724:8740   */\n  shr\n    /* \"#utility.yul\":8703:8740   */\n  swap1\n  pop\n    /* \"#utility.yul\":8630:8747   */\n  swap3\n  swap2\n  pop\n  pop\n  jump\t// out\n    /* \"#utility.yul\":8753:8922   */\ntag_51:\n    /* \"#utility.yul\":8797:8803   */\n  0x00\n    /* \"#utility.yul\":8830:8881   */\n  tag_153\n    /* \"#utility.yul\":8878:8879   */\n  0x00\n    /* \"#utility.yul\":8874:8880   */\n  not\n    /* \"#utility.yul\":8866:8871   */\n  dup5\n    /* \"#utility.yul\":8863:8864   */\n  0x08\n    /* \"#utility.yul\":8859:8872   */\n  mul\n    /* \"#utility.yul\":8830:8881   */\n  tag_50\n  jump\t// in\ntag_153:\n    /* \"#utility.yul\":8826:8882   */\n  not\n    /* \"#utility.yul\":8911:8915   */\n  dup1\n    /* \"#utility.yul\":8905:8909   */\n  dup4\n    /* \"#utility.yul\":8901:8916   */\n  and\n    /* \"#utility.yul\":8891:8916   */\n  swap2\n  pop\n    /* \"#utility.yul\":8804:8922   */\n  pop\n    /* \"#utility.yul\":8753:8922   */\n  swap3\n  swap2\n  pop\n  pop\n  jump\t// out\n    /* \"#utility.yul\":8927:9222   */\ntag_52:\n    /* \"#utility.yul\":9003:9007   */\n  0x00\n    /* \"#utility.yul\":9149:9178   */\n  tag_155\n    /* \"#utility.yul\":9174:9177   */\n  dup4\n    /* \"#utility.yul\":9168:9172   */\n  dup4\n    /* \"#utility.yul\":9149:9178   */\n  tag_51\n  jump\t// in\ntag_155:\n    /* \"#utility.yul\":9141:9178   */\n  swap2\n  pop\n    /* \"#utility.yul\":9211:9214   */\n  dup3\n    /* \"#utility.yul\":9208:9209   */\n  0x02\n    /* \"#utility.yul\":9204:9215   */\n  mul\n    /* \"#utility.yul\":9198:9202   */\n  dup3\n    /* \"#utility.yul\":9195:9216   */\n  or\n    /* \"#utility.yul\":9187:9216   */\n  swap1\n  pop\n    /* \"#utility.yul\":8927:9222   */\n  swap3\n  swap2\n  pop\n  pop\n  jump\t// out\n    /* \"#utility.yul\":9227:10622   */\ntag_11:\n    /* \"#utility.yul\":9344:9381   */\n  tag_157\n    /* \"#utility.yul\":9377:9380   */\n  dup3\n    /* \"#utility.yul\":9344:9381   */\n  tag_34\n  jump\t// in\ntag_157:\n    /* \"#utility.yul\":9446:9464   */\n  0xffffffffffffffff\n    /* \"#utility.yul\":9438:9444   */\n  dup2\n    /* \"#utility.yul\":9435:9465   */\n  gt\n    /* \"#utility.yul\":9432:9488   */\n  iszero\n  tag_158\n  jumpi\n    /* \"#utility.yul\":9468:9486   */\n  tag_159\n  tag_24\n  jump\t// in\ntag_159:\n    /* \"#utility.yul\":9432:9488   */\ntag_158:\n    /* \"#utility.yul\":9512:9550   */\n  tag_160\n    /* \"#utility.yul\":9544:9548   */\n  dup3\n    /* \"#utility.yul\":9538:9549   */\n  sload\n    /* \"#utility.yul\":9512:9550   */\n  tag_36\n  jump\t// in\ntag_160:\n    /* \"#utility.yul\":9597:9664   */\n  tag_161\n    /* \"#utility.yul\":9657:9663   */\n  dup3\n    /* \"#utility.yul\":9649:9655   */\n  dup3\n    /* \"#utility.yul\":9643:9647   */\n  dup6\n    /* \"#utility.yul\":9597:9664   */\n  tag_49\n  jump\t// in\ntag_161:\n    /* \"#utility.yul\":9691:9692   */\n  0x00\n    /* \"#utility.yul\":9715:9719   */\n  0x20\n    /* \"#utility.yul\":9702:9719   */\n  swap1\n  pop\n    /* \"#utility.yul\":9747:9749   */\n  0x1f\n    /* \"#utility.yul\":9739:9745   */\n  dup4\n    /* \"#utility.yul\":9736:9750   */\n  gt\n    /* \"#utility.yul\":9764:9765   */\n  0x01\n    /* \"#utility.yul\":9759:10377   */\n  dup2\n  eq\n  tag_163\n  jumpi\n    /* \"#utility.yul\":10421:10422   */\n  0x00\n    /* \"#utility.yul\":10438:10444   */\n  dup5\n    /* \"#utility.yul\":10435:10512   */\n  iszero\n  tag_164\n  jumpi\n    /* \"#utility.yul\":10487:10496   */\n  dup3\n    /* \"#utility.yul\":10482:10485   */\n  dup8\n    /* \"#utility.yul\":10478:10497   */\n  add\n    /* \"#utility.yul\":10472:10498   */\n  mload\n    /* \"#utility.yul\":10463:10498   */\n  swap1\n  pop\n    /* \"#utility.yul\":10435:10512   */\ntag_164:\n    /* \"#utility.yul\":10538:10605   */\n  tag_165\n    /* \"#utility.yul\":10598:10604   */\n  dup6\n    /* \"#utility.yul\":10591:10596   */\n  dup3\n    /* \"#utility.yul\":10538:10605   */\n  tag_52\n  jump\t// in\ntag_165:\n    /* \"#utility.yul\":10532:10536   */\n  dup7\n    /* \"#utility.yul\":10525:10606   */\n  sstore\n    /* \"#utility.yul\":10394:10616   */\n  pop\n    /* \"#utility.yul\":9729:10616   */\n  jump(tag_162)\n    /* \"#utility.yul\":9759:10377   */\ntag_163:\n    /* \"#utility.yul\":9811:9815   */\n  0x1f\n    /* \"#utility.yul\":9807:9816   */\n  not\n    /* \"#utility.yul\":9799:9805   */\n  dup5\n    /* \"#utility.yul\":9795:9817   */\n  and\n    /* \"#utility.yul\":9845:9882   */\n  tag_166\n    /* \"#utility.yul\":9877:9881   */\n  dup7\n    /* \"#utility.yul\":9845:9882   */\n  tag_37\n  jump\t// in\ntag_166:\n    /* \"#utility.yul\":9904:9905   */\n  0x00\n    /* \"#utility.yul\":9918:10126   */\ntag_167:\n    /* \"#utility.yul\":9932:9939   */\n  dup3\n    /* \"#utility.yul\":9929:9930   */\n  dup2\n    /* \"#utility.yul\":9926:9940   */\n  lt\n    /* \"#utility.yul\":9918:10126   */\n  iszero\n  tag_169\n  jumpi\n    /* \"#utility.yul\":10011:10020   */\n  dup5\n    /* \"#utility.yul\":10006:10009   */\n  dup10\n    /* \"#utility.yul\":10002:10021   */\n  add\n    /* \"#utility.yul\":9996:10022   */\n  mload\n    /* \"#utility.yul\":9988:9994   */\n  dup3\n    /* \"#utility.yul\":9981:10023   */\n  sstore\n    /* \"#utility.yul\":10062:10063   */\n  0x01\n    /* \"#utility.yul\":10054:10060   */\n  dup3\n    /* \"#utility.yul\":10050:10064   */\n  add\n    /* \"#utility.yul\":10040:10064   */\n  swap2\n  pop\n    /* \"#utility.yul\":10109:10111   */\n  0x20\n    /* \"#utility.yul\":10098:10107   */\n  dup6\n    /* \"#utility.yul\":10094:10112   */\n  add\n    /* \"#utility.yul\":10081:10112   */\n  swap5\n  pop\n    /* \"#utility.yul\":9955:9959   */\n  0x20\n    /* \"#utility.yul\":9952:9953   */\n  dup2\n    /* \"#utility.yul\":9948:9960   */\n  add\n    /* \"#utility.yul\":9943:9960   */\n  swap1\n  pop\n    /* \"#utility.yul\":9918:10126   */\n  jump(tag_167)\ntag_169:\n    /* \"#utility.yul\":10154:10160   */\n  dup7\n    /* \"#utility.yul\":10145:10152   */\n  dup4\n    /* \"#utility.yul\":10142:10161   */\n  lt\n    /* \"#utility.yul\":10139:10318   */\n  iszero\n  tag_170\n  jumpi\n    /* \"#utility.yul\":10212:10221   */\n  dup5\n    /* \"#utility.yul\":10207:10210   */\n  dup10\n    /* \"#utility.yul\":10203:10222   */\n  add\n    /* \"#utility.yul\":10197:10223   */\n  mload\n    /* \"#utility.yul\":10255:10303   */\n  tag_171\n    /* \"#utility.yul\":10297:10301   */\n  0x1f\n    /* \"#utility.yul\":10289:10295   */\n  dup10\n    /* \"#utility.yul\":10285:10302   */\n  and\n    /* \"#utility.yul\":10274:10283   */\n  dup3\n    /* \"#utility.yul\":10255:10303   */\n  tag_51\n  jump\t// in\ntag_171:\n    /* \"#utility.yul\":10247:10253   */\n  dup4\n    /* \"#utility.yul\":10240:10304   */\n  sstore\n    /* \"#utility.yul\":10162:10318   */\n  pop\n    /* \"#utility.yul\":10139:10318   */\ntag_170:\n    /* \"#utility.yul\":10364:10365   */\n  0x01\n    /* \"#utility.yul\":10360:10361   */\n  0x02\n    /* \"#utility.yul\":10352:10358   */\n  dup9\n    /* \"#utility.yul\":10348:10362   */\n  mul\n    /* \"#utility.yul\":10344:10366   */\n  add\n    /* \"#utility.yul\":10338:10342   */\n  dup9\n    /* \"#utility.yul\":10331:10367   */\n  sstore\n    /* \"#utility.yul\":9766:10377   */\n  pop\n  pop\n  pop\n    /* \"#utility.yul\":9729:10616   */\ntag_162:\n  pop\n    /* \"#utility.yul\":9319:10622   */\n  pop\n  pop\n  pop\n    /* \"#utility.yul\":9227:10622   */\n  pop\n  pop\n  jump\t// out\n    /* \"contracts/4_BlockLease.sol\":69:2764  contract BlockLease {... */\ntag_13:\n  dataSize(sub_0)\n  dup1\n  dataOffset(sub_0)\n  0x00\n  codecopy\n  0x00\n  return\nstop\n\nsub_0: assembly {\n        /* \"contracts/4_BlockLease.sol\":69:2764  contract BlockLease {... */\n      mstore(0x40, 0x80)\n      jumpi(tag_1, lt(calldatasize, 0x04))\n      shr(0xe0, calldataload(0x00))\n      dup1\n      0xadf07791\n      gt\n      tag_10\n      jumpi\n      dup1\n      0xadf07791\n      eq\n      tag_6\n      jumpi\n      dup1\n      0xc939329b\n      eq\n      tag_7\n      jumpi\n      dup1\n      0xc998eef4\n      eq\n      tag_8\n      jumpi\n      dup1\n      0xdc1997ea\n      eq\n      tag_9\n      jumpi\n      jump(tag_1)\n    tag_10:\n      dup1\n      0x176fd3f0\n      eq\n      tag_2\n      jumpi\n      dup1\n      0x3fbd37d2\n      eq\n      tag_3\n      jumpi\n      dup1\n      0x75abfede\n      eq\n      tag_4\n      jumpi\n      dup1\n      0x8eebcd6d\n      eq\n      tag_5\n      jumpi\n    tag_1:\n      0x00\n      dup1\n      revert\n        /* \"contracts/4_BlockLease.sol\":764:788  Property public property */\n    tag_2:\n      callvalue\n      dup1\n      iszero\n      tag_11\n      jumpi\n      0x00\n      dup1\n      revert\n    tag_11:\n      pop\n      tag_12\n      tag_13\n      jump\t// in\n    tag_12:\n      mload(0x40)\n      tag_14\n      swap3\n      swap2\n      swap1\n      tag_15\n      jump\t// in\n    tag_14:\n      mload(0x40)\n      dup1\n      swap2\n      sub\n      swap1\n      return\n        /* \"contracts/4_BlockLease.sol\":1437:1956  function unsignAgreement() public {... */\n    tag_3:\n      callvalue\n      dup1\n      iszero\n      tag_16\n      jumpi\n      0x00\n      dup1\n      revert\n    tag_16:\n      pop\n      tag_17\n      tag_18\n      jump\t// in\n    tag_17:\n      stop\n        /* \"contracts/4_BlockLease.sol\":1962:2234  function setTerms(uint256 rentAmount, uint256 rentDuration) public {... */\n    tag_4:\n      callvalue\n      dup1\n      iszero\n      tag_19\n      jumpi\n      0x00\n      dup1\n      revert\n    tag_19:\n      pop\n      tag_20\n      0x04\n      dup1\n      calldatasize\n      sub\n      dup2\n      add\n      swap1\n      tag_21\n      swap2\n      swap1\n      tag_22\n      jump\t// in\n    tag_21:\n      tag_23\n      jump\t// in\n    tag_20:\n      stop\n        /* \"contracts/4_BlockLease.sol\":2240:2290  function makeRentPayment() public payable {... */\n    tag_5:\n      tag_24\n      tag_25\n      jump\t// in\n    tag_24:\n      stop\n        /* \"contracts/4_BlockLease.sol\":738:758  Tenant public tenant */\n    tag_6:\n      callvalue\n      dup1\n      iszero\n      tag_26\n      jumpi\n      0x00\n      dup1\n      revert\n    tag_26:\n      pop\n      tag_27\n      tag_28\n      jump\t// in\n    tag_27:\n      mload(0x40)\n      tag_29\n      swap3\n      swap2\n      swap1\n      tag_30\n      jump\t// in\n    tag_29:\n      mload(0x40)\n      dup1\n      swap2\n      sub\n      swap1\n      return\n        /* \"contracts/4_BlockLease.sol\":819:1431  function signAgreement() public {... */\n    tag_7:\n      callvalue\n      dup1\n      iszero\n      tag_31\n      jumpi\n      0x00\n      dup1\n      revert\n    tag_31:\n      pop\n      tag_32\n      tag_33\n      jump\t// in\n    tag_32:\n      stop\n        /* \"contracts/4_BlockLease.sol\":794:812  Lease public lease */\n    tag_8:\n      callvalue\n      dup1\n      iszero\n      tag_34\n      jumpi\n      0x00\n      dup1\n      revert\n    tag_34:\n      pop\n      tag_35\n      tag_36\n      jump\t// in\n    tag_35:\n      mload(0x40)\n      tag_37\n      swap4\n      swap3\n      swap2\n      swap1\n      tag_38\n      jump\t// in\n    tag_37:\n      mload(0x40)\n      dup1\n      swap2\n      sub\n      swap1\n      return\n        /* \"contracts/4_BlockLease.sol\":708:732  Landlord public landlord */\n    tag_9:\n      callvalue\n      dup1\n      iszero\n      tag_39\n      jumpi\n      0x00\n      dup1\n      revert\n    tag_39:\n      pop\n      tag_40\n      tag_41\n      jump\t// in\n    tag_40:\n      mload(0x40)\n      tag_42\n      swap3\n      swap2\n      swap1\n      tag_43\n      jump\t// in\n    tag_42:\n      mload(0x40)\n      dup1\n      swap2\n      sub\n      swap1\n      return\n        /* \"contracts/4_BlockLease.sol\":764:788  Property public property */\n    tag_13:\n      0x02\n      dup1\n      0x00\n      add\n      dup1\n      sload\n      tag_44\n      swap1\n      tag_45\n      jump\t// in\n    tag_44:\n      dup1\n      0x1f\n      add\n      0x20\n      dup1\n      swap2\n      div\n      mul\n      0x20\n      add\n      mload(0x40)\n      swap1\n      dup2\n      add\n      0x40\n      mstore\n      dup1\n      swap3\n      swap2\n      swap1\n      dup2\n      dup2\n      mstore\n      0x20\n      add\n      dup3\n      dup1\n      sload\n      tag_46\n      swap1\n      tag_45\n      jump\t// in\n    tag_46:\n      dup1\n      iszero\n      tag_47\n      jumpi\n      dup1\n      0x1f\n      lt\n      tag_48\n      jumpi\n      0x0100\n      dup1\n      dup4\n      sload\n      div\n      mul\n      dup4\n      mstore\n      swap2\n      0x20\n      add\n      swap2\n      jump(tag_47)\n    tag_48:\n      dup3\n      add\n      swap2\n      swap1\n      0x00\n      mstore\n      keccak256(0x00, 0x20)\n      swap1\n    tag_49:\n      dup2\n      sload\n      dup2\n      mstore\n      swap1\n      0x01\n      add\n      swap1\n      0x20\n      add\n      dup1\n      dup4\n      gt\n      tag_49\n      jumpi\n      dup3\n      swap1\n      sub\n      0x1f\n      and\n      dup3\n      add\n      swap2\n    tag_47:\n      pop\n      pop\n      pop\n      pop\n      pop\n      swap1\n      dup1\n      0x01\n      add\n      dup1\n      sload\n      tag_50\n      swap1\n      tag_45\n      jump\t// in\n    tag_50:\n      dup1\n      0x1f\n      add\n      0x20\n      dup1\n      swap2\n      div\n      mul\n      0x20\n      add\n      mload(0x40)\n      swap1\n      dup2\n      add\n      0x40\n      mstore\n      dup1\n      swap3\n      swap2\n      swap1\n      dup2\n      dup2\n      mstore\n      0x20\n      add\n      dup3\n      dup1\n      sload\n      tag_51\n      swap1\n      tag_45\n      jump\t// in\n    tag_51:\n      dup1\n      iszero\n      tag_52\n      jumpi\n      dup1\n      0x1f\n      lt\n      tag_53\n      jumpi\n      0x0100\n      dup1\n      dup4\n      sload\n      div\n      mul\n      dup4\n      mstore\n      swap2\n      0x20\n      add\n      swap2\n      jump(tag_52)\n    tag_53:\n      dup3\n      add\n      swap2\n      swap1\n      0x00\n      mstore\n      keccak256(0x00, 0x20)\n      swap1\n    tag_54:\n      dup2\n      sload\n      dup2\n      mstore\n      swap1\n      0x01\n      add\n      swap1\n      0x20\n      add\n      dup1\n      dup4\n      gt\n      tag_54\n      jumpi\n      dup3\n      swap1\n      sub\n      0x1f\n      and\n      dup3\n      add\n      swap2\n    tag_52:\n      pop\n      pop\n      pop\n      pop\n      pop\n      swap1\n      pop\n      dup3\n      jump\t// out\n        /* \"contracts/4_BlockLease.sol\":1437:1956  function unsignAgreement() public {... */\n    tag_18:\n        /* \"contracts/4_BlockLease.sol\":1503:1511  landlord */\n      0x00\n        /* \"contracts/4_BlockLease.sol\":1503:1516  landlord.addr */\n      dup1\n      add\n      0x00\n      swap1\n      sload\n      swap1\n      0x0100\n      exp\n      swap1\n      div\n      0xffffffffffffffffffffffffffffffffffffffff\n      and\n        /* \"contracts/4_BlockLease.sol\":1489:1516  msg.sender == landlord.addr */\n      0xffffffffffffffffffffffffffffffffffffffff\n      and\n        /* \"contracts/4_BlockLease.sol\":1489:1499  msg.sender */\n      caller\n        /* \"contracts/4_BlockLease.sol\":1489:1516  msg.sender == landlord.addr */\n      0xffffffffffffffffffffffffffffffffffffffff\n      and\n      eq\n        /* \"contracts/4_BlockLease.sol\":1489:1545  msg.sender == landlord.addr || msg.sender == tenant.addr */\n      dup1\n      tag_56\n      jumpi\n      pop\n        /* \"contracts/4_BlockLease.sol\":1534:1540  tenant */\n      0x01\n        /* \"contracts/4_BlockLease.sol\":1534:1545  tenant.addr */\n      0x00\n      add\n      0x00\n      swap1\n      sload\n      swap1\n      0x0100\n      exp\n      swap1\n      div\n      0xffffffffffffffffffffffffffffffffffffffff\n      and\n        /* \"contracts/4_BlockLease.sol\":1520:1545  msg.sender == tenant.addr */\n      0xffffffffffffffffffffffffffffffffffffffff\n      and\n        /* \"contracts/4_BlockLease.sol\":1520:1530  msg.sender */\n      caller\n        /* \"contracts/4_BlockLease.sol\":1520:1545  msg.sender == tenant.addr */\n      0xffffffffffffffffffffffffffffffffffffffff\n      and\n      eq\n        /* \"contracts/4_BlockLease.sol\":1489:1545  msg.sender == landlord.addr || msg.sender == tenant.addr */\n    tag_56:\n        /* \"contracts/4_BlockLease.sol\":1481:1592  require(msg.sender == landlord.addr || msg.sender == tenant.addr, \"Only owner or tenent can unsign agreement.\") */\n      tag_57\n      jumpi\n      mload(0x40)\n      0x08c379a000000000000000000000000000000000000000000000000000000000\n      dup2\n      mstore\n      0x04\n      add\n      tag_58\n      swap1\n      tag_59\n      jump\t// in\n    tag_58:\n      mload(0x40)\n      dup1\n      swap2\n      sub\n      swap1\n      revert\n    tag_57:\n        /* \"contracts/4_BlockLease.sol\":1619:1627  landlord */\n      0x00\n        /* \"contracts/4_BlockLease.sol\":1619:1632  landlord.addr */\n      dup1\n      add\n      0x00\n      swap1\n      sload\n      swap1\n      0x0100\n      exp\n      swap1\n      div\n      0xffffffffffffffffffffffffffffffffffffffff\n      and\n        /* \"contracts/4_BlockLease.sol\":1605:1632  msg.sender == landlord.addr */\n      0xffffffffffffffffffffffffffffffffffffffff\n      and\n        /* \"contracts/4_BlockLease.sol\":1605:1615  msg.sender */\n      caller\n        /* \"contracts/4_BlockLease.sol\":1605:1632  msg.sender == landlord.addr */\n      0xffffffffffffffffffffffffffffffffffffffff\n      and\n      sub\n        /* \"contracts/4_BlockLease.sol\":1602:1775  if(msg.sender == landlord.addr) {... */\n      tag_60\n      jumpi\n        /* \"contracts/4_BlockLease.sol\":1676:1680  true */\n      0x01\n        /* \"contracts/4_BlockLease.sol\":1657:1680  landlord.agrees == true */\n      iszero\n      iszero\n        /* \"contracts/4_BlockLease.sol\":1657:1665  landlord */\n      0x00\n        /* \"contracts/4_BlockLease.sol\":1657:1672  landlord.agrees */\n      dup1\n      add\n      0x14\n      swap1\n      sload\n      swap1\n      0x0100\n      exp\n      swap1\n      div\n      0xff\n      and\n        /* \"contracts/4_BlockLease.sol\":1657:1680  landlord.agrees == true */\n      iszero\n      iszero\n      eq\n        /* \"contracts/4_BlockLease.sol\":1648:1727  require (landlord.agrees == true, \"Landlord has not signed the agreement yet.\") */\n      tag_61\n      jumpi\n      mload(0x40)\n      0x08c379a000000000000000000000000000000000000000000000000000000000\n      dup2\n      mstore\n      0x04\n      add\n      tag_62\n      swap1\n      tag_63\n      jump\t// in\n    tag_62:\n      mload(0x40)\n      dup1\n      swap2\n      sub\n      swap1\n      revert\n    tag_61:\n        /* \"contracts/4_BlockLease.sol\":1759:1764  false */\n      0x00\n        /* \"contracts/4_BlockLease.sol\":1741:1749  landlord */\n      dup1\n        /* \"contracts/4_BlockLease.sol\":1741:1756  landlord.agrees */\n      0x00\n      add\n      0x14\n        /* \"contracts/4_BlockLease.sol\":1741:1764  landlord.agrees = false */\n      0x0100\n      exp\n      dup2\n      sload\n      dup2\n      0xff\n      mul\n      not\n      and\n      swap1\n      dup4\n      iszero\n      iszero\n      mul\n      or\n      swap1\n      sstore\n      pop\n        /* \"contracts/4_BlockLease.sol\":1602:1775  if(msg.sender == landlord.addr) {... */\n    tag_60:\n        /* \"contracts/4_BlockLease.sol\":1802:1808  tenant */\n      0x01\n        /* \"contracts/4_BlockLease.sol\":1802:1813  tenant.addr */\n      0x00\n      add\n      0x00\n      swap1\n      sload\n      swap1\n      0x0100\n      exp\n      swap1\n      div\n      0xffffffffffffffffffffffffffffffffffffffff\n      and\n        /* \"contracts/4_BlockLease.sol\":1788:1813  msg.sender == tenant.addr */\n      0xffffffffffffffffffffffffffffffffffffffff\n      and\n        /* \"contracts/4_BlockLease.sol\":1788:1798  msg.sender */\n      caller\n        /* \"contracts/4_BlockLease.sol\":1788:1813  msg.sender == tenant.addr */\n      0xffffffffffffffffffffffffffffffffffffffff\n      and\n      sub\n        /* \"contracts/4_BlockLease.sol\":1784:1950  if (msg.sender == tenant.addr) {... */\n      tag_64\n      jumpi\n        /* \"contracts/4_BlockLease.sol\":1855:1859  true */\n      0x01\n        /* \"contracts/4_BlockLease.sol\":1838:1859  tenant.agrees == true */\n      iszero\n      iszero\n        /* \"contracts/4_BlockLease.sol\":1838:1844  tenant */\n      0x01\n        /* \"contracts/4_BlockLease.sol\":1838:1851  tenant.agrees */\n      0x00\n      add\n      0x14\n      swap1\n      sload\n      swap1\n      0x0100\n      exp\n      swap1\n      div\n      0xff\n      and\n        /* \"contracts/4_BlockLease.sol\":1838:1859  tenant.agrees == true */\n      iszero\n      iszero\n      eq\n        /* \"contracts/4_BlockLease.sol\":1829:1904  require (tenant.agrees == true, \"Tenant has not signed the agreement yet.\") */\n      tag_65\n      jumpi\n      mload(0x40)\n      0x08c379a000000000000000000000000000000000000000000000000000000000\n      dup2\n      mstore\n      0x04\n      add\n      tag_66\n      swap1\n      tag_67\n      jump\t// in\n    tag_66:\n      mload(0x40)\n      dup1\n      swap2\n      sub\n      swap1\n      revert\n    tag_65:\n        /* \"contracts/4_BlockLease.sol\":1934:1939  false */\n      0x00\n        /* \"contracts/4_BlockLease.sol\":1918:1924  tenant */\n      0x01\n        /* \"contracts/4_BlockLease.sol\":1918:1931  tenant.agrees */\n      0x00\n      add\n      0x14\n        /* \"contracts/4_BlockLease.sol\":1918:1939  tenant.agrees = false */\n      0x0100\n      exp\n      dup2\n      sload\n      dup2\n      0xff\n      mul\n      not\n      and\n      swap1\n      dup4\n      iszero\n      iszero\n      mul\n      or\n      swap1\n      sstore\n      pop\n        /* \"contracts/4_BlockLease.sol\":1784:1950  if (msg.sender == tenant.addr) {... */\n    tag_64:\n        /* \"contracts/4_BlockLease.sol\":1437:1956  function unsignAgreement() public {... */\n      jump\t// out\n        /* \"contracts/4_BlockLease.sol\":1962:2234  function setTerms(uint256 rentAmount, uint256 rentDuration) public {... */\n    tag_23:\n        /* \"contracts/4_BlockLease.sol\":2061:2069  landlord */\n      0x00\n        /* \"contracts/4_BlockLease.sol\":2061:2074  landlord.addr */\n      dup1\n      add\n      0x00\n      swap1\n      sload\n      swap1\n      0x0100\n      exp\n      swap1\n      div\n      0xffffffffffffffffffffffffffffffffffffffff\n      and\n        /* \"contracts/4_BlockLease.sol\":2047:2074  msg.sender == landlord.addr */\n      0xffffffffffffffffffffffffffffffffffffffff\n      and\n        /* \"contracts/4_BlockLease.sol\":2047:2057  msg.sender */\n      caller\n        /* \"contracts/4_BlockLease.sol\":2047:2074  msg.sender == landlord.addr */\n      0xffffffffffffffffffffffffffffffffffffffff\n      and\n      eq\n        /* \"contracts/4_BlockLease.sol\":2047:2103  msg.sender == landlord.addr || msg.sender == tenant.addr */\n      dup1\n      tag_69\n      jumpi\n      pop\n        /* \"contracts/4_BlockLease.sol\":2092:2098  tenant */\n      0x01\n        /* \"contracts/4_BlockLease.sol\":2092:2103  tenant.addr */\n      0x00\n      add\n      0x00\n      swap1\n      sload\n      swap1\n      0x0100\n      exp\n      swap1\n      div\n      0xffffffffffffffffffffffffffffffffffffffff\n      and\n        /* \"contracts/4_BlockLease.sol\":2078:2103  msg.sender == tenant.addr */\n      0xffffffffffffffffffffffffffffffffffffffff\n      and\n        /* \"contracts/4_BlockLease.sol\":2078:2088  msg.sender */\n      caller\n        /* \"contracts/4_BlockLease.sol\":2078:2103  msg.sender == tenant.addr */\n      0xffffffffffffffffffffffffffffffffffffffff\n      and\n      eq\n        /* \"contracts/4_BlockLease.sol\":2047:2103  msg.sender == landlord.addr || msg.sender == tenant.addr */\n    tag_69:\n        /* \"contracts/4_BlockLease.sol\":2039:2143  require(msg.sender == landlord.addr || msg.sender == tenant.addr, \"Only owner or tenent can set terms.\") */\n      tag_70\n      jumpi\n      mload(0x40)\n      0x08c379a000000000000000000000000000000000000000000000000000000000\n      dup2\n      mstore\n      0x04\n      add\n      tag_71\n      swap1\n      tag_72\n      jump\t// in\n    tag_71:\n      mload(0x40)\n      dup1\n      swap2\n      sub\n      swap1\n      revert\n    tag_70:\n        /* \"contracts/4_BlockLease.sol\":2172:2182  rentAmount */\n      dup2\n        /* \"contracts/4_BlockLease.sol\":2153:2158  lease */\n      0x04\n        /* \"contracts/4_BlockLease.sol\":2153:2169  lease.rentAmount */\n      0x01\n      add\n        /* \"contracts/4_BlockLease.sol\":2153:2182  lease.rentAmount = rentAmount */\n      dup2\n      swap1\n      sstore\n      pop\n        /* \"contracts/4_BlockLease.sol\":2215:2227  rentDuration */\n      dup1\n        /* \"contracts/4_BlockLease.sol\":2192:2197  lease */\n      0x04\n        /* \"contracts/4_BlockLease.sol\":2192:2212  lease.rentalDuration */\n      0x02\n      add\n        /* \"contracts/4_BlockLease.sol\":2192:2227  lease.rentalDuration = rentDuration */\n      dup2\n      swap1\n      sstore\n      pop\n        /* \"contracts/4_BlockLease.sol\":1962:2234  function setTerms(uint256 rentAmount, uint256 rentDuration) public {... */\n      pop\n      pop\n      jump\t// out\n        /* \"contracts/4_BlockLease.sol\":2240:2290  function makeRentPayment() public payable {... */\n    tag_25:\n      jump\t// out\n        /* \"contracts/4_BlockLease.sol\":738:758  Tenant public tenant */\n    tag_28:\n      0x01\n      dup1\n      0x00\n      add\n      0x00\n      swap1\n      sload\n      swap1\n      0x0100\n      exp\n      swap1\n      div\n      0xffffffffffffffffffffffffffffffffffffffff\n      and\n      swap1\n      dup1\n      0x00\n      add\n      0x14\n      swap1\n      sload\n      swap1\n      0x0100\n      exp\n      swap1\n      div\n      0xff\n      and\n      swap1\n      pop\n      dup3\n      jump\t// out\n        /* \"contracts/4_BlockLease.sol\":819:1431  function signAgreement() public {... */\n    tag_33:\n        /* \"contracts/4_BlockLease.sol\":883:891  landlord */\n      0x00\n        /* \"contracts/4_BlockLease.sol\":883:896  landlord.addr */\n      dup1\n      add\n      0x00\n      swap1\n      sload\n      swap1\n      0x0100\n      exp\n      swap1\n      div\n      0xffffffffffffffffffffffffffffffffffffffff\n      and\n        /* \"contracts/4_BlockLease.sol\":869:896  msg.sender == landlord.addr */\n      0xffffffffffffffffffffffffffffffffffffffff\n      and\n        /* \"contracts/4_BlockLease.sol\":869:879  msg.sender */\n      caller\n        /* \"contracts/4_BlockLease.sol\":869:896  msg.sender == landlord.addr */\n      0xffffffffffffffffffffffffffffffffffffffff\n      and\n      eq\n        /* \"contracts/4_BlockLease.sol\":869:925  msg.sender == landlord.addr || msg.sender == tenant.addr */\n      dup1\n      tag_75\n      jumpi\n      pop\n        /* \"contracts/4_BlockLease.sol\":914:920  tenant */\n      0x01\n        /* \"contracts/4_BlockLease.sol\":914:925  tenant.addr */\n      0x00\n      add\n      0x00\n      swap1\n      sload\n      swap1\n      0x0100\n      exp\n      swap1\n      div\n      0xffffffffffffffffffffffffffffffffffffffff\n      and\n        /* \"contracts/4_BlockLease.sol\":900:925  msg.sender == tenant.addr */\n      0xffffffffffffffffffffffffffffffffffffffff\n      and\n        /* \"contracts/4_BlockLease.sol\":900:910  msg.sender */\n      caller\n        /* \"contracts/4_BlockLease.sol\":900:925  msg.sender == tenant.addr */\n      0xffffffffffffffffffffffffffffffffffffffff\n      and\n      eq\n        /* \"contracts/4_BlockLease.sol\":869:925  msg.sender == landlord.addr || msg.sender == tenant.addr */\n    tag_75:\n        /* \"contracts/4_BlockLease.sol\":861:970  require(msg.sender == landlord.addr || msg.sender == tenant.addr, \"Only owner or tenent can sign agreement.\") */\n      tag_76\n      jumpi\n      mload(0x40)\n      0x08c379a000000000000000000000000000000000000000000000000000000000\n      dup2\n      mstore\n      0x04\n      add\n      tag_77\n      swap1\n      tag_78\n      jump\t// in\n    tag_77:\n      mload(0x40)\n      dup1\n      swap2\n      sub\n      swap1\n      revert\n    tag_76:\n        /* \"contracts/4_BlockLease.sol\":1003:1022  LeaseState.UNSIGNED */\n      0x00\n        /* \"contracts/4_BlockLease.sol\":988:1022  lease.state == LeaseState.UNSIGNED */\n      0x04\n      dup2\n      gt\n      iszero\n      tag_79\n      jumpi\n      tag_80\n      tag_81\n      jump\t// in\n    tag_80:\n    tag_79:\n        /* \"contracts/4_BlockLease.sol\":988:993  lease */\n      0x04\n        /* \"contracts/4_BlockLease.sol\":988:999  lease.state */\n      0x00\n      add\n      0x00\n      swap1\n      sload\n      swap1\n      0x0100\n      exp\n      swap1\n      div\n      0xff\n      and\n        /* \"contracts/4_BlockLease.sol\":988:1022  lease.state == LeaseState.UNSIGNED */\n      0x04\n      dup2\n      gt\n      iszero\n      tag_82\n      jumpi\n      tag_83\n      tag_81\n      jump\t// in\n    tag_83:\n    tag_82:\n      eq\n        /* \"contracts/4_BlockLease.sol\":980:1065  require(lease.state == LeaseState.UNSIGNED, \"The lease has to be in unsigned state.\") */\n      tag_84\n      jumpi\n      mload(0x40)\n      0x08c379a000000000000000000000000000000000000000000000000000000000\n      dup2\n      mstore\n      0x04\n      add\n      tag_85\n      swap1\n      tag_86\n      jump\t// in\n    tag_85:\n      mload(0x40)\n      dup1\n      swap2\n      sub\n      swap1\n      revert\n    tag_84:\n        /* \"contracts/4_BlockLease.sol\":1092:1100  landlord */\n      0x00\n        /* \"contracts/4_BlockLease.sol\":1092:1105  landlord.addr */\n      dup1\n      add\n      0x00\n      swap1\n      sload\n      swap1\n      0x0100\n      exp\n      swap1\n      div\n      0xffffffffffffffffffffffffffffffffffffffff\n      and\n        /* \"contracts/4_BlockLease.sol\":1078:1105  msg.sender == landlord.addr */\n      0xffffffffffffffffffffffffffffffffffffffff\n      and\n        /* \"contracts/4_BlockLease.sol\":1078:1088  msg.sender */\n      caller\n        /* \"contracts/4_BlockLease.sol\":1078:1105  msg.sender == landlord.addr */\n      0xffffffffffffffffffffffffffffffffffffffff\n      and\n      sub\n        /* \"contracts/4_BlockLease.sol\":1075:1249  if(msg.sender == landlord.addr) {... */\n      tag_87\n      jumpi\n        /* \"contracts/4_BlockLease.sol\":1149:1154  false */\n      0x00\n        /* \"contracts/4_BlockLease.sol\":1130:1154  landlord.agrees == false */\n      iszero\n      iszero\n        /* \"contracts/4_BlockLease.sol\":1130:1138  landlord */\n      0x00\n        /* \"contracts/4_BlockLease.sol\":1130:1145  landlord.agrees */\n      dup1\n      add\n      0x14\n      swap1\n      sload\n      swap1\n      0x0100\n      exp\n      swap1\n      div\n      0xff\n      and\n        /* \"contracts/4_BlockLease.sol\":1130:1154  landlord.agrees == false */\n      iszero\n      iszero\n      eq\n        /* \"contracts/4_BlockLease.sol\":1121:1202  require (landlord.agrees == false, \"Landlord has already signed this agreement.\") */\n      tag_88\n      jumpi\n      mload(0x40)\n      0x08c379a000000000000000000000000000000000000000000000000000000000\n      dup2\n      mstore\n      0x04\n      add\n      tag_89\n      swap1\n      tag_90\n      jump\t// in\n    tag_89:\n      mload(0x40)\n      dup1\n      swap2\n      sub\n      swap1\n      revert\n    tag_88:\n        /* \"contracts/4_BlockLease.sol\":1234:1238  true */\n      0x01\n        /* \"contracts/4_BlockLease.sol\":1216:1224  landlord */\n      0x00\n        /* \"contracts/4_BlockLease.sol\":1216:1231  landlord.agrees */\n      dup1\n      add\n      0x14\n        /* \"contracts/4_BlockLease.sol\":1216:1238  landlord.agrees = true */\n      0x0100\n      exp\n      dup2\n      sload\n      dup2\n      0xff\n      mul\n      not\n      and\n      swap1\n      dup4\n      iszero\n      iszero\n      mul\n      or\n      swap1\n      sstore\n      pop\n        /* \"contracts/4_BlockLease.sol\":1075:1249  if(msg.sender == landlord.addr) {... */\n    tag_87:\n        /* \"contracts/4_BlockLease.sol\":1276:1282  tenant */\n      0x01\n        /* \"contracts/4_BlockLease.sol\":1276:1287  tenant.addr */\n      0x00\n      add\n      0x00\n      swap1\n      sload\n      swap1\n      0x0100\n      exp\n      swap1\n      div\n      0xffffffffffffffffffffffffffffffffffffffff\n      and\n        /* \"contracts/4_BlockLease.sol\":1262:1287  msg.sender == tenant.addr */\n      0xffffffffffffffffffffffffffffffffffffffff\n      and\n        /* \"contracts/4_BlockLease.sol\":1262:1272  msg.sender */\n      caller\n        /* \"contracts/4_BlockLease.sol\":1262:1287  msg.sender == tenant.addr */\n      0xffffffffffffffffffffffffffffffffffffffff\n      and\n      sub\n        /* \"contracts/4_BlockLease.sol\":1258:1425  if (msg.sender == tenant.addr) {... */\n      tag_91\n      jumpi\n        /* \"contracts/4_BlockLease.sol\":1329:1334  false */\n      0x00\n        /* \"contracts/4_BlockLease.sol\":1312:1334  tenant.agrees == false */\n      iszero\n      iszero\n        /* \"contracts/4_BlockLease.sol\":1312:1318  tenant */\n      0x01\n        /* \"contracts/4_BlockLease.sol\":1312:1325  tenant.agrees */\n      0x00\n      add\n      0x14\n      swap1\n      sload\n      swap1\n      0x0100\n      exp\n      swap1\n      div\n      0xff\n      and\n        /* \"contracts/4_BlockLease.sol\":1312:1334  tenant.agrees == false */\n      iszero\n      iszero\n      eq\n        /* \"contracts/4_BlockLease.sol\":1303:1380  require (tenant.agrees == false, \"Tenant has already signed this agreement.\") */\n      tag_92\n      jumpi\n      mload(0x40)\n      0x08c379a000000000000000000000000000000000000000000000000000000000\n      dup2\n      mstore\n      0x04\n      add\n      tag_93\n      swap1\n      tag_94\n      jump\t// in\n    tag_93:\n      mload(0x40)\n      dup1\n      swap2\n      sub\n      swap1\n      revert\n    tag_92:\n        /* \"contracts/4_BlockLease.sol\":1410:1414  true */\n      0x01\n        /* \"contracts/4_BlockLease.sol\":1394:1400  tenant */\n      dup1\n        /* \"contracts/4_BlockLease.sol\":1394:1407  tenant.agrees */\n      0x00\n      add\n      0x14\n        /* \"contracts/4_BlockLease.sol\":1394:1414  tenant.agrees = true */\n      0x0100\n      exp\n      dup2\n      sload\n      dup2\n      0xff\n      mul\n      not\n      and\n      swap1\n      dup4\n      iszero\n      iszero\n      mul\n      or\n      swap1\n      sstore\n      pop\n        /* \"contracts/4_BlockLease.sol\":1258:1425  if (msg.sender == tenant.addr) {... */\n    tag_91:\n        /* \"contracts/4_BlockLease.sol\":819:1431  function signAgreement() public {... */\n      jump\t// out\n        /* \"contracts/4_BlockLease.sol\":794:812  Lease public lease */\n    tag_36:\n      0x04\n      dup1\n      0x00\n      add\n      0x00\n      swap1\n      sload\n      swap1\n      0x0100\n      exp\n      swap1\n      div\n      0xff\n      and\n      swap1\n      dup1\n      0x01\n      add\n      sload\n      swap1\n      dup1\n      0x02\n      add\n      sload\n      swap1\n      pop\n      dup4\n      jump\t// out\n        /* \"contracts/4_BlockLease.sol\":708:732  Landlord public landlord */\n    tag_41:\n      0x00\n      dup1\n      0x00\n      add\n      0x00\n      swap1\n      sload\n      swap1\n      0x0100\n      exp\n      swap1\n      div\n      0xffffffffffffffffffffffffffffffffffffffff\n      and\n      swap1\n      dup1\n      0x00\n      add\n      0x14\n      swap1\n      sload\n      swap1\n      0x0100\n      exp\n      swap1\n      div\n      0xff\n      and\n      swap1\n      pop\n      dup3\n      jump\t// out\n        /* \"#utility.yul\":7:106   */\n    tag_95:\n        /* \"#utility.yul\":59:65   */\n      0x00\n        /* \"#utility.yul\":93:98   */\n      dup2\n        /* \"#utility.yul\":87:99   */\n      mload\n        /* \"#utility.yul\":77:99   */\n      swap1\n      pop\n        /* \"#utility.yul\":7:106   */\n      swap2\n      swap1\n      pop\n      jump\t// out\n        /* \"#utility.yul\":112:281   */\n    tag_96:\n        /* \"#utility.yul\":196:207   */\n      0x00\n        /* \"#utility.yul\":230:236   */\n      dup3\n        /* \"#utility.yul\":225:228   */\n      dup3\n        /* \"#utility.yul\":218:237   */\n      mstore\n        /* \"#utility.yul\":270:274   */\n      0x20\n        /* \"#utility.yul\":265:268   */\n      dup3\n        /* \"#utility.yul\":261:275   */\n      add\n        /* \"#utility.yul\":246:275   */\n      swap1\n      pop\n        /* \"#utility.yul\":112:281   */\n      swap3\n      swap2\n      pop\n      pop\n      jump\t// out\n        /* \"#utility.yul\":287:533   */\n    tag_97:\n        /* \"#utility.yul\":368:369   */\n      0x00\n        /* \"#utility.yul\":378:491   */\n    tag_139:\n        /* \"#utility.yul\":392:398   */\n      dup4\n        /* \"#utility.yul\":389:390   */\n      dup2\n        /* \"#utility.yul\":386:399   */\n      lt\n        /* \"#utility.yul\":378:491   */\n      iszero\n      tag_141\n      jumpi\n        /* \"#utility.yul\":477:478   */\n      dup1\n        /* \"#utility.yul\":472:475   */\n      dup3\n        /* \"#utility.yul\":468:479   */\n      add\n        /* \"#utility.yul\":462:480   */\n      mload\n        /* \"#utility.yul\":458:459   */\n      dup2\n        /* \"#utility.yul\":453:456   */\n      dup5\n        /* \"#utility.yul\":449:460   */\n      add\n        /* \"#utility.yul\":442:481   */\n      mstore\n        /* \"#utility.yul\":414:416   */\n      0x20\n        /* \"#utility.yul\":411:412   */\n      dup2\n        /* \"#utility.yul\":407:417   */\n      add\n        /* \"#utility.yul\":402:417   */\n      swap1\n      pop\n        /* \"#utility.yul\":378:491   */\n      jump(tag_139)\n    tag_141:\n        /* \"#utility.yul\":525:526   */\n      0x00\n        /* \"#utility.yul\":516:522   */\n      dup5\n        /* \"#utility.yul\":511:514   */\n      dup5\n        /* \"#utility.yul\":507:523   */\n      add\n        /* \"#utility.yul\":500:527   */\n      mstore\n        /* \"#utility.yul\":349:533   */\n      pop\n        /* \"#utility.yul\":287:533   */\n      pop\n      pop\n      pop\n      jump\t// out\n        /* \"#utility.yul\":539:641   */\n    tag_98:\n        /* \"#utility.yul\":580:586   */\n      0x00\n        /* \"#utility.yul\":631:633   */\n      0x1f\n        /* \"#utility.yul\":627:634   */\n      not\n        /* \"#utility.yul\":622:624   */\n      0x1f\n        /* \"#utility.yul\":615:620   */\n      dup4\n        /* \"#utility.yul\":611:625   */\n      add\n        /* \"#utility.yul\":607:635   */\n      and\n        /* \"#utility.yul\":597:635   */\n      swap1\n      pop\n        /* \"#utility.yul\":539:641   */\n      swap2\n      swap1\n      pop\n      jump\t// out\n        /* \"#utility.yul\":647:1024   */\n    tag_99:\n        /* \"#utility.yul\":735:738   */\n      0x00\n        /* \"#utility.yul\":763:802   */\n      tag_144\n        /* \"#utility.yul\":796:801   */\n      dup3\n        /* \"#utility.yul\":763:802   */\n      tag_95\n      jump\t// in\n    tag_144:\n        /* \"#utility.yul\":818:889   */\n      tag_145\n        /* \"#utility.yul\":882:888   */\n      dup2\n        /* \"#utility.yul\":877:880   */\n      dup6\n        /* \"#utility.yul\":818:889   */\n      tag_96\n      jump\t// in\n    tag_145:\n        /* \"#utility.yul\":811:889   */\n      swap4\n      pop\n        /* \"#utility.yul\":898:963   */\n      tag_146\n        /* \"#utility.yul\":956:962   */\n      dup2\n        /* \"#utility.yul\":951:954   */\n      dup6\n        /* \"#utility.yul\":944:948   */\n      0x20\n        /* \"#utility.yul\":937:942   */\n      dup7\n        /* \"#utility.yul\":933:949   */\n      add\n        /* \"#utility.yul\":898:963   */\n      tag_97\n      jump\t// in\n    tag_146:\n        /* \"#utility.yul\":988:1017   */\n      tag_147\n        /* \"#utility.yul\":1010:1016   */\n      dup2\n        /* \"#utility.yul\":988:1017   */\n      tag_98\n      jump\t// in\n    tag_147:\n        /* \"#utility.yul\":983:986   */\n      dup5\n        /* \"#utility.yul\":979:1018   */\n      add\n        /* \"#utility.yul\":972:1018   */\n      swap2\n      pop\n        /* \"#utility.yul\":739:1024   */\n      pop\n        /* \"#utility.yul\":647:1024   */\n      swap3\n      swap2\n      pop\n      pop\n      jump\t// out\n        /* \"#utility.yul\":1030:1544   */\n    tag_15:\n        /* \"#utility.yul\":1191:1195   */\n      0x00\n        /* \"#utility.yul\":1229:1231   */\n      0x40\n        /* \"#utility.yul\":1218:1227   */\n      dup3\n        /* \"#utility.yul\":1214:1232   */\n      add\n        /* \"#utility.yul\":1206:1232   */\n      swap1\n      pop\n        /* \"#utility.yul\":1278:1287   */\n      dup2\n        /* \"#utility.yul\":1272:1276   */\n      dup2\n        /* \"#utility.yul\":1268:1288   */\n      sub\n        /* \"#utility.yul\":1264:1265   */\n      0x00\n        /* \"#utility.yul\":1253:1262   */\n      dup4\n        /* \"#utility.yul\":1249:1266   */\n      add\n        /* \"#utility.yul\":1242:1289   */\n      mstore\n        /* \"#utility.yul\":1306:1384   */\n      tag_149\n        /* \"#utility.yul\":1379:1383   */\n      dup2\n        /* \"#utility.yul\":1370:1376   */\n      dup6\n        /* \"#utility.yul\":1306:1384   */\n      tag_99\n      jump\t// in\n    tag_149:\n        /* \"#utility.yul\":1298:1384   */\n      swap1\n      pop\n        /* \"#utility.yul\":1431:1440   */\n      dup2\n        /* \"#utility.yul\":1425:1429   */\n      dup2\n        /* \"#utility.yul\":1421:1441   */\n      sub\n        /* \"#utility.yul\":1416:1418   */\n      0x20\n        /* \"#utility.yul\":1405:1414   */\n      dup4\n        /* \"#utility.yul\":1401:1419   */\n      add\n        /* \"#utility.yul\":1394:1442   */\n      mstore\n        /* \"#utility.yul\":1459:1537   */\n      tag_150\n        /* \"#utility.yul\":1532:1536   */\n      dup2\n        /* \"#utility.yul\":1523:1529   */\n      dup5\n        /* \"#utility.yul\":1459:1537   */\n      tag_99\n      jump\t// in\n    tag_150:\n        /* \"#utility.yul\":1451:1537   */\n      swap1\n      pop\n        /* \"#utility.yul\":1030:1544   */\n      swap4\n      swap3\n      pop\n      pop\n      pop\n      jump\t// out\n        /* \"#utility.yul\":1631:1748   */\n    tag_101:\n        /* \"#utility.yul\":1740:1741   */\n      0x00\n        /* \"#utility.yul\":1737:1738   */\n      dup1\n        /* \"#utility.yul\":1730:1742   */\n      revert\n        /* \"#utility.yul\":1877:1954   */\n    tag_103:\n        /* \"#utility.yul\":1914:1921   */\n      0x00\n        /* \"#utility.yul\":1943:1948   */\n      dup2\n        /* \"#utility.yul\":1932:1948   */\n      swap1\n      pop\n        /* \"#utility.yul\":1877:1954   */\n      swap2\n      swap1\n      pop\n      jump\t// out\n        /* \"#utility.yul\":1960:2082   */\n    tag_104:\n        /* \"#utility.yul\":2033:2057   */\n      tag_156\n        /* \"#utility.yul\":2051:2056   */\n      dup2\n        /* \"#utility.yul\":2033:2057   */\n      tag_103\n      jump\t// in\n    tag_156:\n        /* \"#utility.yul\":2026:2031   */\n      dup2\n        /* \"#utility.yul\":2023:2058   */\n      eq\n        /* \"#utility.yul\":2013:2076   */\n      tag_157\n      jumpi\n        /* \"#utility.yul\":2072:2073   */\n      0x00\n        /* \"#utility.yul\":2069:2070   */\n      dup1\n        /* \"#utility.yul\":2062:2074   */\n      revert\n        /* \"#utility.yul\":2013:2076   */\n    tag_157:\n        /* \"#utility.yul\":1960:2082   */\n      pop\n      jump\t// out\n        /* \"#utility.yul\":2088:2227   */\n    tag_105:\n        /* \"#utility.yul\":2134:2139   */\n      0x00\n        /* \"#utility.yul\":2172:2178   */\n      dup2\n        /* \"#utility.yul\":2159:2179   */\n      calldataload\n        /* \"#utility.yul\":2150:2179   */\n      swap1\n      pop\n        /* \"#utility.yul\":2188:2221   */\n      tag_159\n        /* \"#utility.yul\":2215:2220   */\n      dup2\n        /* \"#utility.yul\":2188:2221   */\n      tag_104\n      jump\t// in\n    tag_159:\n        /* \"#utility.yul\":2088:2227   */\n      swap3\n      swap2\n      pop\n      pop\n      jump\t// out\n        /* \"#utility.yul\":2233:2707   */\n    tag_22:\n        /* \"#utility.yul\":2301:2307   */\n      0x00\n        /* \"#utility.yul\":2309:2315   */\n      dup1\n        /* \"#utility.yul\":2358:2360   */\n      0x40\n        /* \"#utility.yul\":2346:2355   */\n      dup4\n        /* \"#utility.yul\":2337:2344   */\n      dup6\n        /* \"#utility.yul\":2333:2356   */\n      sub\n        /* \"#utility.yul\":2329:2361   */\n      slt\n        /* \"#utility.yul\":2326:2445   */\n      iszero\n      tag_161\n      jumpi\n        /* \"#utility.yul\":2364:2443   */\n      tag_162\n      tag_101\n      jump\t// in\n    tag_162:\n        /* \"#utility.yul\":2326:2445   */\n    tag_161:\n        /* \"#utility.yul\":2484:2485   */\n      0x00\n        /* \"#utility.yul\":2509:2562   */\n      tag_163\n        /* \"#utility.yul\":2554:2561   */\n      dup6\n        /* \"#utility.yul\":2545:2551   */\n      dup3\n        /* \"#utility.yul\":2534:2543   */\n      dup7\n        /* \"#utility.yul\":2530:2552   */\n      add\n        /* \"#utility.yul\":2509:2562   */\n      tag_105\n      jump\t// in\n    tag_163:\n        /* \"#utility.yul\":2499:2562   */\n      swap3\n      pop\n        /* \"#utility.yul\":2455:2572   */\n      pop\n        /* \"#utility.yul\":2611:2613   */\n      0x20\n        /* \"#utility.yul\":2637:2690   */\n      tag_164\n        /* \"#utility.yul\":2682:2689   */\n      dup6\n        /* \"#utility.yul\":2673:2679   */\n      dup3\n        /* \"#utility.yul\":2662:2671   */\n      dup7\n        /* \"#utility.yul\":2658:2680   */\n      add\n        /* \"#utility.yul\":2637:2690   */\n      tag_105\n      jump\t// in\n    tag_164:\n        /* \"#utility.yul\":2627:2690   */\n      swap2\n      pop\n        /* \"#utility.yul\":2582:2700   */\n      pop\n        /* \"#utility.yul\":2233:2707   */\n      swap3\n      pop\n      swap3\n      swap1\n      pop\n      jump\t// out\n        /* \"#utility.yul\":2713:2839   */\n    tag_106:\n        /* \"#utility.yul\":2750:2757   */\n      0x00\n        /* \"#utility.yul\":2790:2832   */\n      0xffffffffffffffffffffffffffffffffffffffff\n        /* \"#utility.yul\":2783:2788   */\n      dup3\n        /* \"#utility.yul\":2779:2833   */\n      and\n        /* \"#utility.yul\":2768:2833   */\n      swap1\n      pop\n        /* \"#utility.yul\":2713:2839   */\n      swap2\n      swap1\n      pop\n      jump\t// out\n        /* \"#utility.yul\":2845:2941   */\n    tag_107:\n        /* \"#utility.yul\":2882:2889   */\n      0x00\n        /* \"#utility.yul\":2911:2935   */\n      tag_167\n        /* \"#utility.yul\":2929:2934   */\n      dup3\n        /* \"#utility.yul\":2911:2935   */\n      tag_106\n      jump\t// in\n    tag_167:\n        /* \"#utility.yul\":2900:2935   */\n      swap1\n      pop\n        /* \"#utility.yul\":2845:2941   */\n      swap2\n      swap1\n      pop\n      jump\t// out\n        /* \"#utility.yul\":2947:3065   */\n    tag_108:\n        /* \"#utility.yul\":3034:3058   */\n      tag_169\n        /* \"#utility.yul\":3052:3057   */\n      dup2\n        /* \"#utility.yul\":3034:3058   */\n      tag_107\n      jump\t// in\n    tag_169:\n        /* \"#utility.yul\":3029:3032   */\n      dup3\n        /* \"#utility.yul\":3022:3059   */\n      mstore\n        /* \"#utility.yul\":2947:3065   */\n      pop\n      pop\n      jump\t// out\n        /* \"#utility.yul\":3071:3161   */\n    tag_109:\n        /* \"#utility.yul\":3105:3112   */\n      0x00\n        /* \"#utility.yul\":3148:3153   */\n      dup2\n        /* \"#utility.yul\":3141:3154   */\n      iszero\n        /* \"#utility.yul\":3134:3155   */\n      iszero\n        /* \"#utility.yul\":3123:3155   */\n      swap1\n      pop\n        /* \"#utility.yul\":3071:3161   */\n      swap2\n      swap1\n      pop\n      jump\t// out\n        /* \"#utility.yul\":3167:3276   */\n    tag_110:\n        /* \"#utility.yul\":3248:3269   */\n      tag_172\n        /* \"#utility.yul\":3263:3268   */\n      dup2\n        /* \"#utility.yul\":3248:3269   */\n      tag_109\n      jump\t// in\n    tag_172:\n        /* \"#utility.yul\":3243:3246   */\n      dup3\n        /* \"#utility.yul\":3236:3270   */\n      mstore\n        /* \"#utility.yul\":3167:3276   */\n      pop\n      pop\n      jump\t// out\n        /* \"#utility.yul\":3282:3602   */\n    tag_30:\n        /* \"#utility.yul\":3397:3401   */\n      0x00\n        /* \"#utility.yul\":3435:3437   */\n      0x40\n        /* \"#utility.yul\":3424:3433   */\n      dup3\n        /* \"#utility.yul\":3420:3438   */\n      add\n        /* \"#utility.yul\":3412:3438   */\n      swap1\n      pop\n        /* \"#utility.yul\":3448:3519   */\n      tag_174\n        /* \"#utility.yul\":3516:3517   */\n      0x00\n        /* \"#utility.yul\":3505:3514   */\n      dup4\n        /* \"#utility.yul\":3501:3518   */\n      add\n        /* \"#utility.yul\":3492:3498   */\n      dup6\n        /* \"#utility.yul\":3448:3519   */\n      tag_108\n      jump\t// in\n    tag_174:\n        /* \"#utility.yul\":3529:3595   */\n      tag_175\n        /* \"#utility.yul\":3591:3593   */\n      0x20\n        /* \"#utility.yul\":3580:3589   */\n      dup4\n        /* \"#utility.yul\":3576:3594   */\n      add\n        /* \"#utility.yul\":3567:3573   */\n      dup5\n        /* \"#utility.yul\":3529:3595   */\n      tag_110\n      jump\t// in\n    tag_175:\n        /* \"#utility.yul\":3282:3602   */\n      swap4\n      swap3\n      pop\n      pop\n      pop\n      jump\t// out\n        /* \"#utility.yul\":3608:3788   */\n    tag_81:\n        /* \"#utility.yul\":3656:3733   */\n      0x4e487b7100000000000000000000000000000000000000000000000000000000\n        /* \"#utility.yul\":3653:3654   */\n      0x00\n        /* \"#utility.yul\":3646:3734   */\n      mstore\n        /* \"#utility.yul\":3753:3757   */\n      0x21\n        /* \"#utility.yul\":3750:3751   */\n      0x04\n        /* \"#utility.yul\":3743:3758   */\n      mstore\n        /* \"#utility.yul\":3777:3781   */\n      0x24\n        /* \"#utility.yul\":3774:3775   */\n      0x00\n        /* \"#utility.yul\":3767:3782   */\n      revert\n        /* \"#utility.yul\":3794:3912   */\n    tag_111:\n        /* \"#utility.yul\":3880:3881   */\n      0x05\n        /* \"#utility.yul\":3873:3878   */\n      dup2\n        /* \"#utility.yul\":3870:3882   */\n      lt\n        /* \"#utility.yul\":3860:3906   */\n      tag_178\n      jumpi\n        /* \"#utility.yul\":3886:3904   */\n      tag_179\n      tag_81\n      jump\t// in\n    tag_179:\n        /* \"#utility.yul\":3860:3906   */\n    tag_178:\n        /* \"#utility.yul\":3794:3912   */\n      pop\n      jump\t// out\n        /* \"#utility.yul\":3918:4055   */\n    tag_112:\n        /* \"#utility.yul\":3968:3975   */\n      0x00\n        /* \"#utility.yul\":3997:4002   */\n      dup2\n        /* \"#utility.yul\":3986:4002   */\n      swap1\n      pop\n        /* \"#utility.yul\":4003:4049   */\n      tag_181\n        /* \"#utility.yul\":4043:4048   */\n      dup3\n        /* \"#utility.yul\":4003:4049   */\n      tag_111\n      jump\t// in\n    tag_181:\n        /* \"#utility.yul\":3918:4055   */\n      swap2\n      swap1\n      pop\n      jump\t// out\n        /* \"#utility.yul\":4061:4198   */\n    tag_113:\n        /* \"#utility.yul\":4122:4131   */\n      0x00\n        /* \"#utility.yul\":4155:4192   */\n      tag_183\n        /* \"#utility.yul\":4186:4191   */\n      dup3\n        /* \"#utility.yul\":4155:4192   */\n      tag_112\n      jump\t// in\n    tag_183:\n        /* \"#utility.yul\":4142:4192   */\n      swap1\n      pop\n        /* \"#utility.yul\":4061:4198   */\n      swap2\n      swap1\n      pop\n      jump\t// out\n        /* \"#utility.yul\":4204:4357   */\n    tag_114:\n        /* \"#utility.yul\":4302:4350   */\n      tag_185\n        /* \"#utility.yul\":4344:4349   */\n      dup2\n        /* \"#utility.yul\":4302:4350   */\n      tag_113\n      jump\t// in\n    tag_185:\n        /* \"#utility.yul\":4297:4300   */\n      dup3\n        /* \"#utility.yul\":4290:4351   */\n      mstore\n        /* \"#utility.yul\":4204:4357   */\n      pop\n      pop\n      jump\t// out\n        /* \"#utility.yul\":4363:4481   */\n    tag_115:\n        /* \"#utility.yul\":4450:4474   */\n      tag_187\n        /* \"#utility.yul\":4468:4473   */\n      dup2\n        /* \"#utility.yul\":4450:4474   */\n      tag_103\n      jump\t// in\n    tag_187:\n        /* \"#utility.yul\":4445:4448   */\n      dup3\n        /* \"#utility.yul\":4438:4475   */\n      mstore\n        /* \"#utility.yul\":4363:4481   */\n      pop\n      pop\n      jump\t// out\n        /* \"#utility.yul\":4487:4951   */\n    tag_38:\n        /* \"#utility.yul\":4647:4651   */\n      0x00\n        /* \"#utility.yul\":4685:4687   */\n      0x60\n        /* \"#utility.yul\":4674:4683   */\n      dup3\n        /* \"#utility.yul\":4670:4688   */\n      add\n        /* \"#utility.yul\":4662:4688   */\n      swap1\n      pop\n        /* \"#utility.yul\":4698:4780   */\n      tag_189\n        /* \"#utility.yul\":4777:4778   */\n      0x00\n        /* \"#utility.yul\":4766:4775   */\n      dup4\n        /* \"#utility.yul\":4762:4779   */\n      add\n        /* \"#utility.yul\":4753:4759   */\n      dup7\n        /* \"#utility.yul\":4698:4780   */\n      tag_114\n      jump\t// in\n    tag_189:\n        /* \"#utility.yul\":4790:4862   */\n      tag_190\n        /* \"#utility.yul\":4858:4860   */\n      0x20\n        /* \"#utility.yul\":4847:4856   */\n      dup4\n        /* \"#utility.yul\":4843:4861   */\n      add\n        /* \"#utility.yul\":4834:4840   */\n      dup6\n        /* \"#utility.yul\":4790:4862   */\n      tag_115\n      jump\t// in\n    tag_190:\n        /* \"#utility.yul\":4872:4944   */\n      tag_191\n        /* \"#utility.yul\":4940:4942   */\n      0x40\n        /* \"#utility.yul\":4929:4938   */\n      dup4\n        /* \"#utility.yul\":4925:4943   */\n      add\n        /* \"#utility.yul\":4916:4922   */\n      dup5\n        /* \"#utility.yul\":4872:4944   */\n      tag_115\n      jump\t// in\n    tag_191:\n        /* \"#utility.yul\":4487:4951   */\n      swap5\n      swap4\n      pop\n      pop\n      pop\n      pop\n      jump\t// out\n        /* \"#utility.yul\":4957:5061   */\n    tag_116:\n        /* \"#utility.yul\":5002:5009   */\n      0x00\n        /* \"#utility.yul\":5031:5055   */\n      tag_193\n        /* \"#utility.yul\":5049:5054   */\n      dup3\n        /* \"#utility.yul\":5031:5055   */\n      tag_106\n      jump\t// in\n    tag_193:\n        /* \"#utility.yul\":5020:5055   */\n      swap1\n      pop\n        /* \"#utility.yul\":4957:5061   */\n      swap2\n      swap1\n      pop\n      jump\t// out\n        /* \"#utility.yul\":5067:5209   */\n    tag_117:\n        /* \"#utility.yul\":5170:5202   */\n      tag_195\n        /* \"#utility.yul\":5196:5201   */\n      dup2\n        /* \"#utility.yul\":5170:5202   */\n      tag_116\n      jump\t// in\n    tag_195:\n        /* \"#utility.yul\":5165:5168   */\n      dup3\n        /* \"#utility.yul\":5158:5203   */\n      mstore\n        /* \"#utility.yul\":5067:5209   */\n      pop\n      pop\n      jump\t// out\n        /* \"#utility.yul\":5215:5567   */\n    tag_43:\n        /* \"#utility.yul\":5346:5350   */\n      0x00\n        /* \"#utility.yul\":5384:5386   */\n      0x40\n        /* \"#utility.yul\":5373:5382   */\n      dup3\n        /* \"#utility.yul\":5369:5387   */\n      add\n        /* \"#utility.yul\":5361:5387   */\n      swap1\n      pop\n        /* \"#utility.yul\":5397:5484   */\n      tag_197\n        /* \"#utility.yul\":5481:5482   */\n      0x00\n        /* \"#utility.yul\":5470:5479   */\n      dup4\n        /* \"#utility.yul\":5466:5483   */\n      add\n        /* \"#utility.yul\":5457:5463   */\n      dup6\n        /* \"#utility.yul\":5397:5484   */\n      tag_117\n      jump\t// in\n    tag_197:\n        /* \"#utility.yul\":5494:5560   */\n      tag_198\n        /* \"#utility.yul\":5556:5558   */\n      0x20\n        /* \"#utility.yul\":5545:5554   */\n      dup4\n        /* \"#utility.yul\":5541:5559   */\n      add\n        /* \"#utility.yul\":5532:5538   */\n      dup5\n        /* \"#utility.yul\":5494:5560   */\n      tag_110\n      jump\t// in\n    tag_198:\n        /* \"#utility.yul\":5215:5567   */\n      swap4\n      swap3\n      pop\n      pop\n      pop\n      jump\t// out\n        /* \"#utility.yul\":5573:5753   */\n    tag_118:\n        /* \"#utility.yul\":5621:5698   */\n      0x4e487b7100000000000000000000000000000000000000000000000000000000\n        /* \"#utility.yul\":5618:5619   */\n      0x00\n        /* \"#utility.yul\":5611:5699   */\n      mstore\n        /* \"#utility.yul\":5718:5722   */\n      0x22\n        /* \"#utility.yul\":5715:5716   */\n      0x04\n        /* \"#utility.yul\":5708:5723   */\n      mstore\n        /* \"#utility.yul\":5742:5746   */\n      0x24\n        /* \"#utility.yul\":5739:5740   */\n      0x00\n        /* \"#utility.yul\":5732:5747   */\n      revert\n        /* \"#utility.yul\":5759:6079   */\n    tag_45:\n        /* \"#utility.yul\":5803:5809   */\n      0x00\n        /* \"#utility.yul\":5840:5841   */\n      0x02\n        /* \"#utility.yul\":5834:5838   */\n      dup3\n        /* \"#utility.yul\":5830:5842   */\n      div\n        /* \"#utility.yul\":5820:5842   */\n      swap1\n      pop\n        /* \"#utility.yul\":5887:5888   */\n      0x01\n        /* \"#utility.yul\":5881:5885   */\n      dup3\n        /* \"#utility.yul\":5877:5889   */\n      and\n        /* \"#utility.yul\":5908:5926   */\n      dup1\n        /* \"#utility.yul\":5898:5979   */\n      tag_201\n      jumpi\n        /* \"#utility.yul\":5964:5968   */\n      0x7f\n        /* \"#utility.yul\":5956:5962   */\n      dup3\n        /* \"#utility.yul\":5952:5969   */\n      and\n        /* \"#utility.yul\":5942:5969   */\n      swap2\n      pop\n        /* \"#utility.yul\":5898:5979   */\n    tag_201:\n        /* \"#utility.yul\":6026:6028   */\n      0x20\n        /* \"#utility.yul\":6018:6024   */\n      dup3\n        /* \"#utility.yul\":6015:6029   */\n      lt\n        /* \"#utility.yul\":5995:6013   */\n      dup2\n        /* \"#utility.yul\":5992:6030   */\n      sub\n        /* \"#utility.yul\":5989:6073   */\n      tag_202\n      jumpi\n        /* \"#utility.yul\":6045:6063   */\n      tag_203\n      tag_118\n      jump\t// in\n    tag_203:\n        /* \"#utility.yul\":5989:6073   */\n    tag_202:\n        /* \"#utility.yul\":5810:6079   */\n      pop\n        /* \"#utility.yul\":5759:6079   */\n      swap2\n      swap1\n      pop\n      jump\t// out\n        /* \"#utility.yul\":6085:6314   */\n    tag_119:\n        /* \"#utility.yul\":6225:6259   */\n      0x4f6e6c79206f776e6572206f722074656e656e742063616e20756e7369676e20\n        /* \"#utility.yul\":6221:6222   */\n      0x00\n        /* \"#utility.yul\":6213:6219   */\n      dup3\n        /* \"#utility.yul\":6209:6223   */\n      add\n        /* \"#utility.yul\":6202:6260   */\n      mstore\n        /* \"#utility.yul\":6294:6306   */\n      0x61677265656d656e742e00000000000000000000000000000000000000000000\n        /* \"#utility.yul\":6289:6291   */\n      0x20\n        /* \"#utility.yul\":6281:6287   */\n      dup3\n        /* \"#utility.yul\":6277:6292   */\n      add\n        /* \"#utility.yul\":6270:6307   */\n      mstore\n        /* \"#utility.yul\":6085:6314   */\n      pop\n      jump\t// out\n        /* \"#utility.yul\":6320:6686   */\n    tag_120:\n        /* \"#utility.yul\":6462:6465   */\n      0x00\n        /* \"#utility.yul\":6483:6550   */\n      tag_206\n        /* \"#utility.yul\":6547:6549   */\n      0x2a\n        /* \"#utility.yul\":6542:6545   */\n      dup4\n        /* \"#utility.yul\":6483:6550   */\n      tag_96\n      jump\t// in\n    tag_206:\n        /* \"#utility.yul\":6476:6550   */\n      swap2\n      pop\n        /* \"#utility.yul\":6559:6652   */\n      tag_207\n        /* \"#utility.yul\":6648:6651   */\n      dup3\n        /* \"#utility.yul\":6559:6652   */\n      tag_119\n      jump\t// in\n    tag_207:\n        /* \"#utility.yul\":6677:6679   */\n      0x40\n        /* \"#utility.yul\":6672:6675   */\n      dup3\n        /* \"#utility.yul\":6668:6680   */\n      add\n        /* \"#utility.yul\":6661:6680   */\n      swap1\n      pop\n        /* \"#utility.yul\":6320:6686   */\n      swap2\n      swap1\n      pop\n      jump\t// out\n        /* \"#utility.yul\":6692:7111   */\n    tag_59:\n        /* \"#utility.yul\":6858:6862   */\n      0x00\n        /* \"#utility.yul\":6896:6898   */\n      0x20\n        /* \"#utility.yul\":6885:6894   */\n      dup3\n        /* \"#utility.yul\":6881:6899   */\n      add\n        /* \"#utility.yul\":6873:6899   */\n      swap1\n      pop\n        /* \"#utility.yul\":6945:6954   */\n      dup2\n        /* \"#utility.yul\":6939:6943   */\n      dup2\n        /* \"#utility.yul\":6935:6955   */\n      sub\n        /* \"#utility.yul\":6931:6932   */\n      0x00\n        /* \"#utility.yul\":6920:6929   */\n      dup4\n        /* \"#utility.yul\":6916:6933   */\n      add\n        /* \"#utility.yul\":6909:6956   */\n      mstore\n        /* \"#utility.yul\":6973:7104   */\n      tag_209\n        /* \"#utility.yul\":7099:7103   */\n      dup2\n        /* \"#utility.yul\":6973:7104   */\n      tag_120\n      jump\t// in\n    tag_209:\n        /* \"#utility.yul\":6965:7104   */\n      swap1\n      pop\n        /* \"#utility.yul\":6692:7111   */\n      swap2\n      swap1\n      pop\n      jump\t// out\n        /* \"#utility.yul\":7117:7346   */\n    tag_121:\n        /* \"#utility.yul\":7257:7291   */\n      0x4c616e646c6f726420686173206e6f74207369676e6564207468652061677265\n        /* \"#utility.yul\":7253:7254   */\n      0x00\n        /* \"#utility.yul\":7245:7251   */\n      dup3\n        /* \"#utility.yul\":7241:7255   */\n      add\n        /* \"#utility.yul\":7234:7292   */\n      mstore\n        /* \"#utility.yul\":7326:7338   */\n      0x656d656e74207965742e00000000000000000000000000000000000000000000\n        /* \"#utility.yul\":7321:7323   */\n      0x20\n        /* \"#utility.yul\":7313:7319   */\n      dup3\n        /* \"#utility.yul\":7309:7324   */\n      add\n        /* \"#utility.yul\":7302:7339   */\n      mstore\n        /* \"#utility.yul\":7117:7346   */\n      pop\n      jump\t// out\n        /* \"#utility.yul\":7352:7718   */\n    tag_122:\n        /* \"#utility.yul\":7494:7497   */\n      0x00\n        /* \"#utility.yul\":7515:7582   */\n      tag_212\n        /* \"#utility.yul\":7579:7581   */\n      0x2a\n        /* \"#utility.yul\":7574:7577   */\n      dup4\n        /* \"#utility.yul\":7515:7582   */\n      tag_96\n      jump\t// in\n    tag_212:\n        /* \"#utility.yul\":7508:7582   */\n      swap2\n      pop\n        /* \"#utility.yul\":7591:7684   */\n      tag_213\n        /* \"#utility.yul\":7680:7683   */\n      dup3\n        /* \"#utility.yul\":7591:7684   */\n      tag_121\n      jump\t// in\n    tag_213:\n        /* \"#utility.yul\":7709:7711   */\n      0x40\n        /* \"#utility.yul\":7704:7707   */\n      dup3\n        /* \"#utility.yul\":7700:7712   */\n      add\n        /* \"#utility.yul\":7693:7712   */\n      swap1\n      pop\n        /* \"#utility.yul\":7352:7718   */\n      swap2\n      swap1\n      pop\n      jump\t// out\n        /* \"#utility.yul\":7724:8143   */\n    tag_63:\n        /* \"#utility.yul\":7890:7894   */\n      0x00\n        /* \"#utility.yul\":7928:7930   */\n      0x20\n        /* \"#utility.yul\":7917:7926   */\n      dup3\n        /* \"#utility.yul\":7913:7931   */\n      add\n        /* \"#utility.yul\":7905:7931   */\n      swap1\n      pop\n        /* \"#utility.yul\":7977:7986   */\n      dup2\n        /* \"#utility.yul\":7971:7975   */\n      dup2\n        /* \"#utility.yul\":7967:7987   */\n      sub\n        /* \"#utility.yul\":7963:7964   */\n      0x00\n        /* \"#utility.yul\":7952:7961   */\n      dup4\n        /* \"#utility.yul\":7948:7965   */\n      add\n        /* \"#utility.yul\":7941:7988   */\n      mstore\n        /* \"#utility.yul\":8005:8136   */\n      tag_215\n        /* \"#utility.yul\":8131:8135   */\n      dup2\n        /* \"#utility.yul\":8005:8136   */\n      tag_122\n      jump\t// in\n    tag_215:\n        /* \"#utility.yul\":7997:8136   */\n      swap1\n      pop\n        /* \"#utility.yul\":7724:8143   */\n      swap2\n      swap1\n      pop\n      jump\t// out\n        /* \"#utility.yul\":8149:8376   */\n    tag_123:\n        /* \"#utility.yul\":8289:8323   */\n      0x54656e616e7420686173206e6f74207369676e6564207468652061677265656d\n        /* \"#utility.yul\":8285:8286   */\n      0x00\n        /* \"#utility.yul\":8277:8283   */\n      dup3\n        /* \"#utility.yul\":8273:8287   */\n      add\n        /* \"#utility.yul\":8266:8324   */\n      mstore\n        /* \"#utility.yul\":8358:8368   */\n      0x656e74207965742e000000000000000000000000000000000000000000000000\n        /* \"#utility.yul\":8353:8355   */\n      0x20\n        /* \"#utility.yul\":8345:8351   */\n      dup3\n        /* \"#utility.yul\":8341:8356   */\n      add\n        /* \"#utility.yul\":8334:8369   */\n      mstore\n        /* \"#utility.yul\":8149:8376   */\n      pop\n      jump\t// out\n        /* \"#utility.yul\":8382:8748   */\n    tag_124:\n        /* \"#utility.yul\":8524:8527   */\n      0x00\n        /* \"#utility.yul\":8545:8612   */\n      tag_218\n        /* \"#utility.yul\":8609:8611   */\n      0x28\n        /* \"#utility.yul\":8604:8607   */\n      dup4\n        /* \"#utility.yul\":8545:8612   */\n      tag_96\n      jump\t// in\n    tag_218:\n        /* \"#utility.yul\":8538:8612   */\n      swap2\n      pop\n        /* \"#utility.yul\":8621:8714   */\n      tag_219\n        /* \"#utility.yul\":8710:8713   */\n      dup3\n        /* \"#utility.yul\":8621:8714   */\n      tag_123\n      jump\t// in\n    tag_219:\n        /* \"#utility.yul\":8739:8741   */\n      0x40\n        /* \"#utility.yul\":8734:8737   */\n      dup3\n        /* \"#utility.yul\":8730:8742   */\n      add\n        /* \"#utility.yul\":8723:8742   */\n      swap1\n      pop\n        /* \"#utility.yul\":8382:8748   */\n      swap2\n      swap1\n      pop\n      jump\t// out\n        /* \"#utility.yul\":8754:9173   */\n    tag_67:\n        /* \"#utility.yul\":8920:8924   */\n      0x00\n        /* \"#utility.yul\":8958:8960   */\n      0x20\n        /* \"#utility.yul\":8947:8956   */\n      dup3\n        /* \"#utility.yul\":8943:8961   */\n      add\n        /* \"#utility.yul\":8935:8961   */\n      swap1\n      pop\n        /* \"#utility.yul\":9007:9016   */\n      dup2\n        /* \"#utility.yul\":9001:9005   */\n      dup2\n        /* \"#utility.yul\":8997:9017   */\n      sub\n        /* \"#utility.yul\":8993:8994   */\n      0x00\n        /* \"#utility.yul\":8982:8991   */\n      dup4\n        /* \"#utility.yul\":8978:8995   */\n      add\n        /* \"#utility.yul\":8971:9018   */\n      mstore\n        /* \"#utility.yul\":9035:9166   */\n      tag_221\n        /* \"#utility.yul\":9161:9165   */\n      dup2\n        /* \"#utility.yul\":9035:9166   */\n      tag_124\n      jump\t// in\n    tag_221:\n        /* \"#utility.yul\":9027:9166   */\n      swap1\n      pop\n        /* \"#utility.yul\":8754:9173   */\n      swap2\n      swap1\n      pop\n      jump\t// out\n        /* \"#utility.yul\":9179:9401   */\n    tag_125:\n        /* \"#utility.yul\":9319:9353   */\n      0x4f6e6c79206f776e6572206f722074656e656e742063616e2073657420746572\n        /* \"#utility.yul\":9315:9316   */\n      0x00\n        /* \"#utility.yul\":9307:9313   */\n      dup3\n        /* \"#utility.yul\":9303:9317   */\n      add\n        /* \"#utility.yul\":9296:9354   */\n      mstore\n        /* \"#utility.yul\":9388:9393   */\n      0x6d732e0000000000000000000000000000000000000000000000000000000000\n        /* \"#utility.yul\":9383:9385   */\n      0x20\n        /* \"#utility.yul\":9375:9381   */\n      dup3\n        /* \"#utility.yul\":9371:9386   */\n      add\n        /* \"#utility.yul\":9364:9394   */\n      mstore\n        /* \"#utility.yul\":9179:9401   */\n      pop\n      jump\t// out\n        /* \"#utility.yul\":9407:9773   */\n    tag_126:\n        /* \"#utility.yul\":9549:9552   */\n      0x00\n        /* \"#utility.yul\":9570:9637   */\n      tag_224\n        /* \"#utility.yul\":9634:9636   */\n      0x23\n        /* \"#utility.yul\":9629:9632   */\n      dup4\n        /* \"#utility.yul\":9570:9637   */\n      tag_96\n      jump\t// in\n    tag_224:\n        /* \"#utility.yul\":9563:9637   */\n      swap2\n      pop\n        /* \"#utility.yul\":9646:9739   */\n      tag_225\n        /* \"#utility.yul\":9735:9738   */\n      dup3\n        /* \"#utility.yul\":9646:9739   */\n      tag_125\n      jump\t// in\n    tag_225:\n        /* \"#utility.yul\":9764:9766   */\n      0x40\n        /* \"#utility.yul\":9759:9762   */\n      dup3\n        /* \"#utility.yul\":9755:9767   */\n      add\n        /* \"#utility.yul\":9748:9767   */\n      swap1\n      pop\n        /* \"#utility.yul\":9407:9773   */\n      swap2\n      swap1\n      pop\n      jump\t// out\n        /* \"#utility.yul\":9779:10198   */\n    tag_72:\n        /* \"#utility.yul\":9945:9949   */\n      0x00\n        /* \"#utility.yul\":9983:9985   */\n      0x20\n        /* \"#utility.yul\":9972:9981   */\n      dup3\n        /* \"#utility.yul\":9968:9986   */\n      add\n        /* \"#utility.yul\":9960:9986   */\n      swap1\n      pop\n        /* \"#utility.yul\":10032:10041   */\n      dup2\n        /* \"#utility.yul\":10026:10030   */\n      dup2\n        /* \"#utility.yul\":10022:10042   */\n      sub\n        /* \"#utility.yul\":10018:10019   */\n      0x00\n        /* \"#utility.yul\":10007:10016   */\n      dup4\n        /* \"#utility.yul\":10003:10020   */\n      add\n        /* \"#utility.yul\":9996:10043   */\n      mstore\n        /* \"#utility.yul\":10060:10191   */\n      tag_227\n        /* \"#utility.yul\":10186:10190   */\n      dup2\n        /* \"#utility.yul\":10060:10191   */\n      tag_126\n      jump\t// in\n    tag_227:\n        /* \"#utility.yul\":10052:10191   */\n      swap1\n      pop\n        /* \"#utility.yul\":9779:10198   */\n      swap2\n      swap1\n      pop\n      jump\t// out\n        /* \"#utility.yul\":10204:10431   */\n    tag_127:\n        /* \"#utility.yul\":10344:10378   */\n      0x4f6e6c79206f776e6572206f722074656e656e742063616e207369676e206167\n        /* \"#utility.yul\":10340:10341   */\n      0x00\n        /* \"#utility.yul\":10332:10338   */\n      dup3\n        /* \"#utility.yul\":10328:10342   */\n      add\n        /* \"#utility.yul\":10321:10379   */\n      mstore\n        /* \"#utility.yul\":10413:10423   */\n      0x7265656d656e742e000000000000000000000000000000000000000000000000\n        /* \"#utility.yul\":10408:10410   */\n      0x20\n        /* \"#utility.yul\":10400:10406   */\n      dup3\n        /* \"#utility.yul\":10396:10411   */\n      add\n        /* \"#utility.yul\":10389:10424   */\n      mstore\n        /* \"#utility.yul\":10204:10431   */\n      pop\n      jump\t// out\n        /* \"#utility.yul\":10437:10803   */\n    tag_128:\n        /* \"#utility.yul\":10579:10582   */\n      0x00\n        /* \"#utility.yul\":10600:10667   */\n      tag_230\n        /* \"#utility.yul\":10664:10666   */\n      0x28\n        /* \"#utility.yul\":10659:10662   */\n      dup4\n        /* \"#utility.yul\":10600:10667   */\n      tag_96\n      jump\t// in\n    tag_230:\n        /* \"#utility.yul\":10593:10667   */\n      swap2\n      pop\n        /* \"#utility.yul\":10676:10769   */\n      tag_231\n        /* \"#utility.yul\":10765:10768   */\n      dup3\n        /* \"#utility.yul\":10676:10769   */\n      tag_127\n      jump\t// in\n    tag_231:\n        /* \"#utility.yul\":10794:10796   */\n      0x40\n        /* \"#utility.yul\":10789:10792   */\n      dup3\n        /* \"#utility.yul\":10785:10797   */\n      add\n        /* \"#utility.yul\":10778:10797   */\n      swap1\n      pop\n        /* \"#utility.yul\":10437:10803   */\n      swap2\n      swap1\n      pop\n      jump\t// out\n        /* \"#utility.yul\":10809:11228   */\n    tag_78:\n        /* \"#utility.yul\":10975:10979   */\n      0x00\n        /* \"#utility.yul\":11013:11015   */\n      0x20\n        /* \"#utility.yul\":11002:11011   */\n      dup3\n        /* \"#utility.yul\":10998:11016   */\n      add\n        /* \"#utility.yul\":10990:11016   */\n      swap1\n      pop\n        /* \"#utility.yul\":11062:11071   */\n      dup2\n        /* \"#utility.yul\":11056:11060   */\n      dup2\n        /* \"#utility.yul\":11052:11072   */\n      sub\n        /* \"#utility.yul\":11048:11049   */\n      0x00\n        /* \"#utility.yul\":11037:11046   */\n      dup4\n        /* \"#utility.yul\":11033:11050   */\n      add\n        /* \"#utility.yul\":11026:11073   */\n      mstore\n        /* \"#utility.yul\":11090:11221   */\n      tag_233\n        /* \"#utility.yul\":11216:11220   */\n      dup2\n        /* \"#utility.yul\":11090:11221   */\n      tag_128\n      jump\t// in\n    tag_233:\n        /* \"#utility.yul\":11082:11221   */\n      swap1\n      pop\n        /* \"#utility.yul\":10809:11228   */\n      swap2\n      swap1\n      pop\n      jump\t// out\n        /* \"#utility.yul\":11234:11459   */\n    tag_129:\n        /* \"#utility.yul\":11374:11408   */\n      0x546865206c656173652068617320746f20626520696e20756e7369676e656420\n        /* \"#utility.yul\":11370:11371   */\n      0x00\n        /* \"#utility.yul\":11362:11368   */\n      dup3\n        /* \"#utility.yul\":11358:11372   */\n      add\n        /* \"#utility.yul\":11351:11409   */\n      mstore\n        /* \"#utility.yul\":11443:11451   */\n      0x73746174652e0000000000000000000000000000000000000000000000000000\n        /* \"#utility.yul\":11438:11440   */\n      0x20\n        /* \"#utility.yul\":11430:11436   */\n      dup3\n        /* \"#utility.yul\":11426:11441   */\n      add\n        /* \"#utility.yul\":11419:11452   */\n      mstore\n        /* \"#utility.yul\":11234:11459   */\n      pop\n      jump\t// out\n        /* \"#utility.yul\":11465:11831   */\n    tag_130:\n        /* \"#utility.yul\":11607:11610   */\n      0x00\n        /* \"#utility.yul\":11628:11695   */\n      tag_236\n        /* \"#utility.yul\":11692:11694   */\n      0x26\n        /* \"#utility.yul\":11687:11690   */\n      dup4\n        /* \"#utility.yul\":11628:11695   */\n      tag_96\n      jump\t// in\n    tag_236:\n        /* \"#utility.yul\":11621:11695   */\n      swap2\n      pop\n        /* \"#utility.yul\":11704:11797   */\n      tag_237\n        /* \"#utility.yul\":11793:11796   */\n      dup3\n        /* \"#utility.yul\":11704:11797   */\n      tag_129\n      jump\t// in\n    tag_237:\n        /* \"#utility.yul\":11822:11824   */\n      0x40\n        /* \"#utility.yul\":11817:11820   */\n      dup3\n        /* \"#utility.yul\":11813:11825   */\n      add\n        /* \"#utility.yul\":11806:11825   */\n      swap1\n      pop\n        /* \"#utility.yul\":11465:11831   */\n      swap2\n      swap1\n      pop\n      jump\t// out\n        /* \"#utility.yul\":11837:12256   */\n    tag_86:\n        /* \"#utility.yul\":12003:12007   */\n      0x00\n        /* \"#utility.yul\":12041:12043   */\n      0x20\n        /* \"#utility.yul\":12030:12039   */\n      dup3\n        /* \"#utility.yul\":12026:12044   */\n      add\n        /* \"#utility.yul\":12018:12044   */\n      swap1\n      pop\n        /* \"#utility.yul\":12090:12099   */\n      dup2\n        /* \"#utility.yul\":12084:12088   */\n      dup2\n        /* \"#utility.yul\":12080:12100   */\n      sub\n        /* \"#utility.yul\":12076:12077   */\n      0x00\n        /* \"#utility.yul\":12065:12074   */\n      dup4\n        /* \"#utility.yul\":12061:12078   */\n      add\n        /* \"#utility.yul\":12054:12101   */\n      mstore\n        /* \"#utility.yul\":12118:12249   */\n      tag_239\n        /* \"#utility.yul\":12244:12248   */\n      dup2\n        /* \"#utility.yul\":12118:12249   */\n      tag_130\n      jump\t// in\n    tag_239:\n        /* \"#utility.yul\":12110:12249   */\n      swap1\n      pop\n        /* \"#utility.yul\":11837:12256   */\n      swap2\n      swap1\n      pop\n      jump\t// out\n        /* \"#utility.yul\":12262:12492   */\n    tag_131:\n        /* \"#utility.yul\":12402:12436   */\n      0x4c616e646c6f72642068617320616c7265616479207369676e65642074686973\n        /* \"#utility.yul\":12398:12399   */\n      0x00\n        /* \"#utility.yul\":12390:12396   */\n      dup3\n        /* \"#utility.yul\":12386:12400   */\n      add\n        /* \"#utility.yul\":12379:12437   */\n      mstore\n        /* \"#utility.yul\":12471:12484   */\n      0x2061677265656d656e742e000000000000000000000000000000000000000000\n        /* \"#utility.yul\":12466:12468   */\n      0x20\n        /* \"#utility.yul\":12458:12464   */\n      dup3\n        /* \"#utility.yul\":12454:12469   */\n      add\n        /* \"#utility.yul\":12447:12485   */\n      mstore\n        /* \"#utility.yul\":12262:12492   */\n      pop\n      jump\t// out\n        /* \"#utility.yul\":12498:12864   */\n    tag_132:\n        /* \"#utility.yul\":12640:12643   */\n      0x00\n        /* \"#utility.yul\":12661:12728   */\n      tag_242\n        /* \"#utility.yul\":12725:12727   */\n      0x2b\n        /* \"#utility.yul\":12720:12723   */\n      dup4\n        /* \"#utility.yul\":12661:12728   */\n      tag_96\n      jump\t// in\n    tag_242:\n        /* \"#utility.yul\":12654:12728   */\n      swap2\n      pop\n        /* \"#utility.yul\":12737:12830   */\n      tag_243\n        /* \"#utility.yul\":12826:12829   */\n      dup3\n        /* \"#utility.yul\":12737:12830   */\n      tag_131\n      jump\t// in\n    tag_243:\n        /* \"#utility.yul\":12855:12857   */\n      0x40\n        /* \"#utility.yul\":12850:12853   */\n      dup3\n        /* \"#utility.yul\":12846:12858   */\n      add\n        /* \"#utility.yul\":12839:12858   */\n      swap1\n      pop\n        /* \"#utility.yul\":12498:12864   */\n      swap2\n      swap1\n      pop\n      jump\t// out\n        /* \"#utility.yul\":12870:13289   */\n    tag_90:\n        /* \"#utility.yul\":13036:13040   */\n      0x00\n        /* \"#utility.yul\":13074:13076   */\n      0x20\n        /* \"#utility.yul\":13063:13072   */\n      dup3\n        /* \"#utility.yul\":13059:13077   */\n      add\n        /* \"#utility.yul\":13051:13077   */\n      swap1\n      pop\n        /* \"#utility.yul\":13123:13132   */\n      dup2\n        /* \"#utility.yul\":13117:13121   */\n      dup2\n        /* \"#utility.yul\":13113:13133   */\n      sub\n        /* \"#utility.yul\":13109:13110   */\n      0x00\n        /* \"#utility.yul\":13098:13107   */\n      dup4\n        /* \"#utility.yul\":13094:13111   */\n      add\n        /* \"#utility.yul\":13087:13134   */\n      mstore\n        /* \"#utility.yul\":13151:13282   */\n      tag_245\n        /* \"#utility.yul\":13277:13281   */\n      dup2\n        /* \"#utility.yul\":13151:13282   */\n      tag_132\n      jump\t// in\n    tag_245:\n        /* \"#utility.yul\":13143:13282   */\n      swap1\n      pop\n        /* \"#utility.yul\":12870:13289   */\n      swap2\n      swap1\n      pop\n      jump\t// out\n        /* \"#utility.yul\":13295:13523   */\n    tag_133:\n        /* \"#utility.yul\":13435:13469   */\n      0x54656e616e742068617320616c7265616479207369676e656420746869732061\n        /* \"#utility.yul\":13431:13432   */\n      0x00\n        /* \"#utility.yul\":13423:13429   */\n      dup3\n        /* \"#utility.yul\":13419:13433   */\n      add\n        /* \"#utility.yul\":13412:13470   */\n      mstore\n        /* \"#utility.yul\":13504:13515   */\n      0x677265656d656e742e0000000000000000000000000000000000000000000000\n        /* \"#utility.yul\":13499:13501   */\n      0x20\n        /* \"#utility.yul\":13491:13497   */\n      dup3\n        /* \"#utility.yul\":13487:13502   */\n      add\n        /* \"#utility.yul\":13480:13516   */\n      mstore\n        /* \"#utility.yul\":13295:13523   */\n      pop\n      jump\t// out\n        /* \"#utility.yul\":13529:13895   */\n    tag_134:\n        /* \"#utility.yul\":13671:13674   */\n      0x00\n        /* \"#utility.yul\":13692:13759   */\n      tag_248\n        /* \"#utility.yul\":13756:13758   */\n      0x29\n        /* \"#utility.yul\":13751:13754   */\n      dup4\n        /* \"#utility.yul\":13692:13759   */\n      tag_96\n      jump\t// in\n    tag_248:\n        /* \"#utility.yul\":13685:13759   */\n      swap2\n      pop\n        /* \"#utility.yul\":13768:13861   */\n      tag_249\n        /* \"#utility.yul\":13857:13860   */\n      dup3\n        /* \"#utility.yul\":13768:13861   */\n      tag_133\n      jump\t// in\n    tag_249:\n        /* \"#utility.yul\":13886:13888   */\n      0x40\n        /* \"#utility.yul\":13881:13884   */\n      dup3\n        /* \"#utility.yul\":13877:13889   */\n      add\n        /* \"#utility.yul\":13870:13889   */\n      swap1\n      pop\n        /* \"#utility.yul\":13529:13895   */\n      swap2\n      swap1\n      pop\n      jump\t// out\n        /* \"#utility.yul\":13901:14320   */\n    tag_94:\n        /* \"#utility.yul\":14067:14071   */\n      0x00\n        /* \"#utility.yul\":14105:14107   */\n      0x20\n        /* \"#utility.yul\":14094:14103   */\n      dup3\n        /* \"#utility.yul\":14090:14108   */\n      add\n        /* \"#utility.yul\":14082:14108   */\n      swap1\n      pop\n        /* \"#utility.yul\":14154:14163   */\n      dup2\n        /* \"#utility.yul\":14148:14152   */\n      dup2\n        /* \"#utility.yul\":14144:14164   */\n      sub\n        /* \"#utility.yul\":14140:14141   */\n      0x00\n        /* \"#utility.yul\":14129:14138   */\n      dup4\n        /* \"#utility.yul\":14125:14142   */\n      add\n        /* \"#utility.yul\":14118:14165   */\n      mstore\n        /* \"#utility.yul\":14182:14313   */\n      tag_251\n        /* \"#utility.yul\":14308:14312   */\n      dup2\n        /* \"#utility.yul\":14182:14313   */\n      tag_134\n      jump\t// in\n    tag_251:\n        /* \"#utility.yul\":14174:14313   */\n      swap1\n      pop\n        /* \"#utility.yul\":13901:14320   */\n      swap2\n      swap1\n      pop\n      jump\t// out\n\n    auxdata: 0xa26469706673582212205757bdb22da0078daf01f5a70622271ad639159f8fd02a9c3c07a394aa5009a264736f6c63430008120033\n}\n",
				"bytecode": {
					"linkReferences": {},
					"object": "60806040523480156200001157600080fd5b5060405162001a0f38038062001a0f833981810160405281019062000037919062000392565b8373ffffffffffffffffffffffffffffffffffffffff163373ffffffffffffffffffffffffffffffffffffffff1614806200009d57508273ffffffffffffffffffffffffffffffffffffffff163373ffffffffffffffffffffffffffffffffffffffff16145b620000df576040517f08c379a0000000000000000000000000000000000000000000000000000000008152600401620000d690620004c9565b60405180910390fd5b836000800160006101000a81548173ffffffffffffffffffffffffffffffffffffffff021916908373ffffffffffffffffffffffffffffffffffffffff16021790555082600160000160006101000a81548173ffffffffffffffffffffffffffffffffffffffff021916908373ffffffffffffffffffffffffffffffffffffffff16021790555081600260000190816200017a919062000736565b5080600260010190816200018f919062000736565b50505050506200081d565b6000604051905090565b600080fd5b600080fd5b600073ffffffffffffffffffffffffffffffffffffffff82169050919050565b6000620001db82620001ae565b9050919050565b620001ed81620001ce565b8114620001f957600080fd5b50565b6000815190506200020d81620001e2565b92915050565b600080fd5b600080fd5b6000601f19601f8301169050919050565b7f4e487b7100000000000000000000000000000000000000000000000000000000600052604160045260246000fd5b62000268826200021d565b810181811067ffffffffffffffff821117156200028a57620002896200022e565b5b80604052505050565b60006200029f6200019a565b9050620002ad82826200025d565b919050565b600067ffffffffffffffff821115620002d057620002cf6200022e565b5b620002db826200021d565b9050602081019050919050565b60005b8381101562000308578082015181840152602081019050620002eb565b60008484015250505050565b60006200032b6200032584620002b2565b62000293565b9050828152602081018484840111156200034a576200034962000218565b5b62000357848285620002e8565b509392505050565b600082601f83011262000377576200037662000213565b5b81516200038984826020860162000314565b91505092915050565b60008060008060808587031215620003af57620003ae620001a4565b5b6000620003bf87828801620001fc565b9450506020620003d287828801620001fc565b935050604085015167ffffffffffffffff811115620003f657620003f5620001a9565b5b62000404878288016200035f565b925050606085015167ffffffffffffffff811115620004285762000427620001a9565b5b62000436878288016200035f565b91505092959194509250565b600082825260208201905092915050565b7f4f6e6c79206c616e646c6f7264206f722074656e616e742073686f756c64206260008201527f6520616c6c6f77656420746f2063726561746520746865206c656173652e0000602082015250565b6000620004b1603e8362000442565b9150620004be8262000453565b604082019050919050565b60006020820190508181036000830152620004e481620004a2565b9050919050565b600081519050919050565b7f4e487b7100000000000000000000000000000000000000000000000000000000600052602260045260246000fd5b600060028204905060018216806200053e57607f821691505b602082108103620005545762000553620004f6565b5b50919050565b60008190508160005260206000209050919050565b60006020601f8301049050919050565b600082821b905092915050565b600060088302620005be7fffffffffffffffffffffffffffffffffffffffffffffffffffffffffffffffff826200057f565b620005ca86836200057f565b95508019841693508086168417925050509392505050565b6000819050919050565b6000819050919050565b600062000617620006116200060b84620005e2565b620005ec565b620005e2565b9050919050565b6000819050919050565b6200063383620005f6565b6200064b62000642826200061e565b8484546200058c565b825550505050565b600090565b6200066262000653565b6200066f81848462000628565b505050565b5b8181101562000697576200068b60008262000658565b60018101905062000675565b5050565b601f821115620006e657620006b0816200055a565b620006bb846200056f565b81016020851015620006cb578190505b620006e3620006da856200056f565b83018262000674565b50505b505050565b600082821c905092915050565b60006200070b60001984600802620006eb565b1980831691505092915050565b6000620007268383620006f8565b9150826002028217905092915050565b6200074182620004eb565b67ffffffffffffffff8111156200075d576200075c6200022e565b5b62000769825462000525565b620007768282856200069b565b600060209050601f831160018114620007ae576000841562000799578287015190505b620007a5858262000718565b86555062000815565b601f198416620007be866200055a565b60005b82811015620007e857848901518255600182019150602085019450602081019050620007c1565b8683101562000808578489015162000804601f891682620006f8565b8355505b6001600288020188555050505b505050505050565b6111e2806200082d6000396000f3fe60806040526004361061007b5760003560e01c8063adf077911161004e578063adf07791146100f6578063c939329b14610122578063c998eef414610139578063dc1997ea146101665761007b565b8063176fd3f0146100805780633fbd37d2146100ac57806375abfede146100c35780638eebcd6d146100ec575b600080fd5b34801561008c57600080fd5b50610095610192565b6040516100a3929190610a7e565b60405180910390f35b3480156100b857600080fd5b506100c16102b4565b005b3480156100cf57600080fd5b506100ea60048036038101906100e59190610af0565b610540565b005b6100f4610645565b005b34801561010257600080fd5b5061010b610647565b604051610119929190610b8c565b60405180910390f35b34801561012e57600080fd5b50610137610686565b005b34801561014557600080fd5b5061014e61098a565b60405161015d93929190610c3b565b60405180910390f35b34801561017257600080fd5b5061017b6109af565b604051610189929190610c93565b60405180910390f35b60028060000180546101a390610ceb565b80601f01602080910402602001604051908101604052809291908181526020018280546101cf90610ceb565b801561021c5780601f106101f15761010080835404028352916020019161021c565b820191906000526020600020905b8154815290600101906020018083116101ff57829003601f168201915b50505050509080600101805461023190610ceb565b80601f016020809104026020016040519081016040528092919081815260200182805461025d90610ceb565b80156102aa5780601f1061027f576101008083540402835291602001916102aa565b820191906000526020600020905b81548152906001019060200180831161028d57829003601f168201915b5050505050905082565b6000800160009054906101000a900473ffffffffffffffffffffffffffffffffffffffff1673ffffffffffffffffffffffffffffffffffffffff163373ffffffffffffffffffffffffffffffffffffffff1614806103625750600160000160009054906101000a900473ffffffffffffffffffffffffffffffffffffffff1673ffffffffffffffffffffffffffffffffffffffff163373ffffffffffffffffffffffffffffffffffffffff16145b6103a1576040517f08c379a000000000000000000000000000000000000000000000000000000000815260040161039890610d8e565b60405180910390fd5b6000800160009054906101000a900473ffffffffffffffffffffffffffffffffffffffff1673ffffffffffffffffffffffffffffffffffffffff163373ffffffffffffffffffffffffffffffffffffffff160361046e57600115156000800160149054906101000a900460ff16151514610450576040517f08c379a000000000000000000000000000000000000000000000000000000000815260040161044790610e20565b60405180910390fd5b60008060000160146101000a81548160ff0219169083151502179055505b600160000160009054906101000a900473ffffffffffffffffffffffffffffffffffffffff1673ffffffffffffffffffffffffffffffffffffffff163373ffffffffffffffffffffffffffffffffffffffff160361053e5760011515600160000160149054906101000a900460ff1615151461051f576040517f08c379a000000000000000000000000000000000000000000000000000000000815260040161051690610eb2565b60405180910390fd5b6000600160000160146101000a81548160ff0219169083151502179055505b565b6000800160009054906101000a900473ffffffffffffffffffffffffffffffffffffffff1673ffffffffffffffffffffffffffffffffffffffff163373ffffffffffffffffffffffffffffffffffffffff1614806105ee5750600160000160009054906101000a900473ffffffffffffffffffffffffffffffffffffffff1673ffffffffffffffffffffffffffffffffffffffff163373ffffffffffffffffffffffffffffffffffffffff16145b61062d576040517f08c379a000000000000000000000000000000000000000000000000000000000815260040161062490610f44565b60405180910390fd5b81600460010181905550806004600201819055505050565b565b60018060000160009054906101000a900473ffffffffffffffffffffffffffffffffffffffff16908060000160149054906101000a900460ff16905082565b6000800160009054906101000a900473ffffffffffffffffffffffffffffffffffffffff1673ffffffffffffffffffffffffffffffffffffffff163373ffffffffffffffffffffffffffffffffffffffff1614806107345750600160000160009054906101000a900473ffffffffffffffffffffffffffffffffffffffff1673ffffffffffffffffffffffffffffffffffffffff163373ffffffffffffffffffffffffffffffffffffffff16145b610773576040517f08c379a000000000000000000000000000000000000000000000000000000000815260040161076a90610fd6565b60405180910390fd5b6000600481111561078757610786610bb5565b5b600460000160009054906101000a900460ff1660048111156107ac576107ab610bb5565b5b146107ec576040517f08c379a00000000000000000000000000000000000000000000000000000000081526004016107e390611068565b60405180910390fd5b6000800160009054906101000a900473ffffffffffffffffffffffffffffffffffffffff1673ffffffffffffffffffffffffffffffffffffffff163373ffffffffffffffffffffffffffffffffffffffff16036108b957600015156000800160149054906101000a900460ff1615151461089b576040517f08c379a0000000000000000000000000000000000000000000000000000000008152600401610892906110fa565b60405180910390fd5b60016000800160146101000a81548160ff0219169083151502179055505b600160000160009054906101000a900473ffffffffffffffffffffffffffffffffffffffff1673ffffffffffffffffffffffffffffffffffffffff163373ffffffffffffffffffffffffffffffffffffffff16036109885760001515600160000160149054906101000a900460ff1615151461096a576040517f08c379a00000000000000000000000000000000000000000000000000000000081526004016109619061118c565b60405180910390fd5b60018060000160146101000a81548160ff0219169083151502179055505b565b60048060000160009054906101000a900460ff16908060010154908060020154905083565b60008060000160009054906101000a900473ffffffffffffffffffffffffffffffffffffffff16908060000160149054906101000a900460ff16905082565b600081519050919050565b600082825260208201905092915050565b60005b83811015610a28578082015181840152602081019050610a0d565b60008484015250505050565b6000601f19601f8301169050919050565b6000610a50826109ee565b610a5a81856109f9565b9350610a6a818560208601610a0a565b610a7381610a34565b840191505092915050565b60006040820190508181036000830152610a988185610a45565b90508181036020830152610aac8184610a45565b90509392505050565b600080fd5b6000819050919050565b610acd81610aba565b8114610ad857600080fd5b50565b600081359050610aea81610ac4565b92915050565b60008060408385031215610b0757610b06610ab5565b5b6000610b1585828601610adb565b9250506020610b2685828601610adb565b9150509250929050565b600073ffffffffffffffffffffffffffffffffffffffff82169050919050565b6000610b5b82610b30565b9050919050565b610b6b81610b50565b82525050565b60008115159050919050565b610b8681610b71565b82525050565b6000604082019050610ba16000830185610b62565b610bae6020830184610b7d565b9392505050565b7f4e487b7100000000000000000000000000000000000000000000000000000000600052602160045260246000fd5b60058110610bf557610bf4610bb5565b5b50565b6000819050610c0682610be4565b919050565b6000610c1682610bf8565b9050919050565b610c2681610c0b565b82525050565b610c3581610aba565b82525050565b6000606082019050610c506000830186610c1d565b610c5d6020830185610c2c565b610c6a6040830184610c2c565b949350505050565b6000610c7d82610b30565b9050919050565b610c8d81610c72565b82525050565b6000604082019050610ca86000830185610c84565b610cb56020830184610b7d565b9392505050565b7f4e487b7100000000000000000000000000000000000000000000000000000000600052602260045260246000fd5b60006002820490506001821680610d0357607f821691505b602082108103610d1657610d15610cbc565b5b50919050565b7f4f6e6c79206f776e6572206f722074656e656e742063616e20756e7369676e2060008201527f61677265656d656e742e00000000000000000000000000000000000000000000602082015250565b6000610d78602a836109f9565b9150610d8382610d1c565b604082019050919050565b60006020820190508181036000830152610da781610d6b565b9050919050565b7f4c616e646c6f726420686173206e6f74207369676e656420746865206167726560008201527f656d656e74207965742e00000000000000000000000000000000000000000000602082015250565b6000610e0a602a836109f9565b9150610e1582610dae565b604082019050919050565b60006020820190508181036000830152610e3981610dfd565b9050919050565b7f54656e616e7420686173206e6f74207369676e6564207468652061677265656d60008201527f656e74207965742e000000000000000000000000000000000000000000000000602082015250565b6000610e9c6028836109f9565b9150610ea782610e40565b604082019050919050565b60006020820190508181036000830152610ecb81610e8f565b9050919050565b7f4f6e6c79206f776e6572206f722074656e656e742063616e207365742074657260008201527f6d732e0000000000000000000000000000000000000000000000000000000000602082015250565b6000610f2e6023836109f9565b9150610f3982610ed2565b604082019050919050565b60006020820190508181036000830152610f5d81610f21565b9050919050565b7f4f6e6c79206f776e6572206f722074656e656e742063616e207369676e20616760008201527f7265656d656e742e000000000000000000000000000000000000000000000000602082015250565b6000610fc06028836109f9565b9150610fcb82610f64565b604082019050919050565b60006020820190508181036000830152610fef81610fb3565b9050919050565b7f546865206c656173652068617320746f20626520696e20756e7369676e65642060008201527f73746174652e0000000000000000000000000000000000000000000000000000602082015250565b60006110526026836109f9565b915061105d82610ff6565b604082019050919050565b6000602082019050818103600083015261108181611045565b9050919050565b7f4c616e646c6f72642068617320616c7265616479207369676e6564207468697360008201527f2061677265656d656e742e000000000000000000000000000000000000000000602082015250565b60006110e4602b836109f9565b91506110ef82611088565b604082019050919050565b60006020820190508181036000830152611113816110d7565b9050919050565b7f54656e616e742068617320616c7265616479207369676e65642074686973206160008201527f677265656d656e742e0000000000000000000000000000000000000000000000602082015250565b60006111766029836109f9565b91506111818261111a565b604082019050919050565b600060208201905081810360008301526111a581611169565b905091905056fea26469706673582212205757bdb22da0078daf01f5a70622271ad639159f8fd02a9c3c07a394aa5009a264736f6c63430008120033",
					"opcodes": "PUSH1 0x80 PUSH1 0x40 MSTORE CALLVALUE DUP1 ISZERO PUSH3 0x11 JUMPI PUSH1 0x0 DUP1 REVERT JUMPDEST POP PUSH1 0x40 MLOAD PUSH3 0x1A0F CODESIZE SUB DUP1 PUSH3 0x1A0F DUP4 CODECOPY DUP2 DUP2 ADD PUSH1 0x40 MSTORE DUP2 ADD SWAP1 PUSH3 0x37 SWAP2 SWAP1 PUSH3 0x392 JUMP JUMPDEST DUP4 PUSH20 0xFFFFFFFFFFFFFFFFFFFFFFFFFFFFFFFFFFFFFFFF AND CALLER PUSH20 0xFFFFFFFFFFFFFFFFFFFFFFFFFFFFFFFFFFFFFFFF AND EQ DUP1 PUSH3 0x9D JUMPI POP DUP3 PUSH20 0xFFFFFFFFFFFFFFFFFFFFFFFFFFFFFFFFFFFFFFFF AND CALLER PUSH20 0xFFFFFFFFFFFFFFFFFFFFFFFFFFFFFFFFFFFFFFFF AND EQ JUMPDEST PUSH3 0xDF JUMPI PUSH1 0x40 MLOAD PUSH32 0x8C379A000000000000000000000000000000000000000000000000000000000 DUP2 MSTORE PUSH1 0x4 ADD PUSH3 0xD6 SWAP1 PUSH3 0x4C9 JUMP JUMPDEST PUSH1 0x40 MLOAD DUP1 SWAP2 SUB SWAP1 REVERT JUMPDEST DUP4 PUSH1 0x0 DUP1 ADD PUSH1 0x0 PUSH2 0x100 EXP DUP2 SLOAD DUP2 PUSH20 0xFFFFFFFFFFFFFFFFFFFFFFFFFFFFFFFFFFFFFFFF MUL NOT AND SWAP1 DUP4 PUSH20 0xFFFFFFFFFFFFFFFFFFFFFFFFFFFFFFFFFFFFFFFF AND MUL OR SWAP1 SSTORE POP DUP3 PUSH1 0x1 PUSH1 0x0 ADD PUSH1 0x0 PUSH2 0x100 EXP DUP2 SLOAD DUP2 PUSH20 0xFFFFFFFFFFFFFFFFFFFFFFFFFFFFFFFFFFFFFFFF MUL NOT AND SWAP1 DUP4 PUSH20 0xFFFFFFFFFFFFFFFFFFFFFFFFFFFFFFFFFFFFFFFF AND MUL OR SWAP1 SSTORE POP DUP2 PUSH1 0x2 PUSH1 0x0 ADD SWAP1 DUP2 PUSH3 0x17A SWAP2 SWAP1 PUSH3 0x736 JUMP JUMPDEST POP DUP1 PUSH1 0x2 PUSH1 0x1 ADD SWAP1 DUP2 PUSH3 0x18F SWAP2 SWAP1 PUSH3 0x736 JUMP JUMPDEST POP POP POP POP POP PUSH3 0x81D JUMP JUMPDEST PUSH1 0x0 PUSH1 0x40 MLOAD SWAP1 POP SWAP1 JUMP JUMPDEST PUSH1 0x0 DUP1 REVERT JUMPDEST PUSH1 0x0 DUP1 REVERT JUMPDEST PUSH1 0x0 PUSH20 0xFFFFFFFFFFFFFFFFFFFFFFFFFFFFFFFFFFFFFFFF DUP3 AND SWAP1 POP SWAP2 SWAP1 POP JUMP JUMPDEST PUSH1 0x0 PUSH3 0x1DB DUP3 PUSH3 0x1AE JUMP JUMPDEST SWAP1 POP SWAP2 SWAP1 POP JUMP JUMPDEST PUSH3 0x1ED DUP2 PUSH3 0x1CE JUMP JUMPDEST DUP2 EQ PUSH3 0x1F9 JUMPI PUSH1 0x0 DUP1 REVERT JUMPDEST POP JUMP JUMPDEST PUSH1 0x0 DUP2 MLOAD SWAP1 POP PUSH3 0x20D DUP2 PUSH3 0x1E2 JUMP JUMPDEST SWAP3 SWAP2 POP POP JUMP JUMPDEST PUSH1 0x0 DUP1 REVERT JUMPDEST PUSH1 0x0 DUP1 REVERT JUMPDEST PUSH1 0x0 PUSH1 0x1F NOT PUSH1 0x1F DUP4 ADD AND SWAP1 POP SWAP2 SWAP1 POP JUMP JUMPDEST PUSH32 0x4E487B7100000000000000000000000000000000000000000000000000000000 PUSH1 0x0 MSTORE PUSH1 0x41 PUSH1 0x4 MSTORE PUSH1 0x24 PUSH1 0x0 REVERT JUMPDEST PUSH3 0x268 DUP3 PUSH3 0x21D JUMP JUMPDEST DUP2 ADD DUP2 DUP2 LT PUSH8 0xFFFFFFFFFFFFFFFF DUP3 GT OR ISZERO PUSH3 0x28A JUMPI PUSH3 0x289 PUSH3 0x22E JUMP JUMPDEST JUMPDEST DUP1 PUSH1 0x40 MSTORE POP POP POP JUMP JUMPDEST PUSH1 0x0 PUSH3 0x29F PUSH3 0x19A JUMP JUMPDEST SWAP1 POP PUSH3 0x2AD DUP3 DUP3 PUSH3 0x25D JUMP JUMPDEST SWAP2 SWAP1 POP JUMP JUMPDEST PUSH1 0x0 PUSH8 0xFFFFFFFFFFFFFFFF DUP3 GT ISZERO PUSH3 0x2D0 JUMPI PUSH3 0x2CF PUSH3 0x22E JUMP JUMPDEST JUMPDEST PUSH3 0x2DB DUP3 PUSH3 0x21D JUMP JUMPDEST SWAP1 POP PUSH1 0x20 DUP2 ADD SWAP1 POP SWAP2 SWAP1 POP JUMP JUMPDEST PUSH1 0x0 JUMPDEST DUP4 DUP2 LT ISZERO PUSH3 0x308 JUMPI DUP1 DUP3 ADD MLOAD DUP2 DUP5 ADD MSTORE PUSH1 0x20 DUP2 ADD SWAP1 POP PUSH3 0x2EB JUMP JUMPDEST PUSH1 0x0 DUP5 DUP5 ADD MSTORE POP POP POP POP JUMP JUMPDEST PUSH1 0x0 PUSH3 0x32B PUSH3 0x325 DUP5 PUSH3 0x2B2 JUMP JUMPDEST PUSH3 0x293 JUMP JUMPDEST SWAP1 POP DUP3 DUP2 MSTORE PUSH1 0x20 DUP2 ADD DUP5 DUP5 DUP5 ADD GT ISZERO PUSH3 0x34A JUMPI PUSH3 0x349 PUSH3 0x218 JUMP JUMPDEST JUMPDEST PUSH3 0x357 DUP5 DUP3 DUP6 PUSH3 0x2E8 JUMP JUMPDEST POP SWAP4 SWAP3 POP POP POP JUMP JUMPDEST PUSH1 0x0 DUP3 PUSH1 0x1F DUP4 ADD SLT PUSH3 0x377 JUMPI PUSH3 0x376 PUSH3 0x213 JUMP JUMPDEST JUMPDEST DUP2 MLOAD PUSH3 0x389 DUP5 DUP3 PUSH1 0x20 DUP7 ADD PUSH3 0x314 JUMP JUMPDEST SWAP2 POP POP SWAP3 SWAP2 POP POP JUMP JUMPDEST PUSH1 0x0 DUP1 PUSH1 0x0 DUP1 PUSH1 0x80 DUP6 DUP8 SUB SLT ISZERO PUSH3 0x3AF JUMPI PUSH3 0x3AE PUSH3 0x1A4 JUMP JUMPDEST JUMPDEST PUSH1 0x0 PUSH3 0x3BF DUP8 DUP3 DUP9 ADD PUSH3 0x1FC JUMP JUMPDEST SWAP5 POP POP PUSH1 0x20 PUSH3 0x3D2 DUP8 DUP3 DUP9 ADD PUSH3 0x1FC JUMP JUMPDEST SWAP4 POP POP PUSH1 0x40 DUP6 ADD MLOAD PUSH8 0xFFFFFFFFFFFFFFFF DUP2 GT ISZERO PUSH3 0x3F6 JUMPI PUSH3 0x3F5 PUSH3 0x1A9 JUMP JUMPDEST JUMPDEST PUSH3 0x404 DUP8 DUP3 DUP9 ADD PUSH3 0x35F JUMP JUMPDEST SWAP3 POP POP PUSH1 0x60 DUP6 ADD MLOAD PUSH8 0xFFFFFFFFFFFFFFFF DUP2 GT ISZERO PUSH3 0x428 JUMPI PUSH3 0x427 PUSH3 0x1A9 JUMP JUMPDEST JUMPDEST PUSH3 0x436 DUP8 DUP3 DUP9 ADD PUSH3 0x35F JUMP JUMPDEST SWAP2 POP POP SWAP3 SWAP6 SWAP2 SWAP5 POP SWAP3 POP JUMP JUMPDEST PUSH1 0x0 DUP3 DUP3 MSTORE PUSH1 0x20 DUP3 ADD SWAP1 POP SWAP3 SWAP2 POP POP JUMP JUMPDEST PUSH32 0x4F6E6C79206C616E646C6F7264206F722074656E616E742073686F756C642062 PUSH1 0x0 DUP3 ADD MSTORE PUSH32 0x6520616C6C6F77656420746F2063726561746520746865206C656173652E0000 PUSH1 0x20 DUP3 ADD MSTORE POP JUMP JUMPDEST PUSH1 0x0 PUSH3 0x4B1 PUSH1 0x3E DUP4 PUSH3 0x442 JUMP JUMPDEST SWAP2 POP PUSH3 0x4BE DUP3 PUSH3 0x453 JUMP JUMPDEST PUSH1 0x40 DUP3 ADD SWAP1 POP SWAP2 SWAP1 POP JUMP JUMPDEST PUSH1 0x0 PUSH1 0x20 DUP3 ADD SWAP1 POP DUP2 DUP2 SUB PUSH1 0x0 DUP4 ADD MSTORE PUSH3 0x4E4 DUP2 PUSH3 0x4A2 JUMP JUMPDEST SWAP1 POP SWAP2 SWAP1 POP JUMP JUMPDEST PUSH1 0x0 DUP2 MLOAD SWAP1 POP SWAP2 SWAP1 POP JUMP JUMPDEST PUSH32 0x4E487B7100000000000000000000000000000000000000000000000000000000 PUSH1 0x0 MSTORE PUSH1 0x22 PUSH1 0x4 MSTORE PUSH1 0x24 PUSH1 0x0 REVERT JUMPDEST PUSH1 0x0 PUSH1 0x2 DUP3 DIV SWAP1 POP PUSH1 0x1 DUP3 AND DUP1 PUSH3 0x53E JUMPI PUSH1 0x7F DUP3 AND SWAP2 POP JUMPDEST PUSH1 0x20 DUP3 LT DUP2 SUB PUSH3 0x554 JUMPI PUSH3 0x553 PUSH3 0x4F6 JUMP JUMPDEST JUMPDEST POP SWAP2 SWAP1 POP JUMP JUMPDEST PUSH1 0x0 DUP2 SWAP1 POP DUP2 PUSH1 0x0 MSTORE PUSH1 0x20 PUSH1 0x0 KECCAK256 SWAP1 POP SWAP2 SWAP1 POP JUMP JUMPDEST PUSH1 0x0 PUSH1 0x20 PUSH1 0x1F DUP4 ADD DIV SWAP1 POP SWAP2 SWAP1 POP JUMP JUMPDEST PUSH1 0x0 DUP3 DUP3 SHL SWAP1 POP SWAP3 SWAP2 POP POP JUMP JUMPDEST PUSH1 0x0 PUSH1 0x8 DUP4 MUL PUSH3 0x5BE PUSH32 0xFFFFFFFFFFFFFFFFFFFFFFFFFFFFFFFFFFFFFFFFFFFFFFFFFFFFFFFFFFFFFFFF DUP3 PUSH3 0x57F JUMP JUMPDEST PUSH3 0x5CA DUP7 DUP4 PUSH3 0x57F JUMP JUMPDEST SWAP6 POP DUP1 NOT DUP5 AND SWAP4 POP DUP1 DUP7 AND DUP5 OR SWAP3 POP POP POP SWAP4 SWAP3 POP POP POP JUMP JUMPDEST PUSH1 0x0 DUP2 SWAP1 POP SWAP2 SWAP1 POP JUMP JUMPDEST PUSH1 0x0 DUP2 SWAP1 POP SWAP2 SWAP1 POP JUMP JUMPDEST PUSH1 0x0 PUSH3 0x617 PUSH3 0x611 PUSH3 0x60B DUP5 PUSH3 0x5E2 JUMP JUMPDEST PUSH3 0x5EC JUMP JUMPDEST PUSH3 0x5E2 JUMP JUMPDEST SWAP1 POP SWAP2 SWAP1 POP JUMP JUMPDEST PUSH1 0x0 DUP2 SWAP1 POP SWAP2 SWAP1 POP JUMP JUMPDEST PUSH3 0x633 DUP4 PUSH3 0x5F6 JUMP JUMPDEST PUSH3 0x64B PUSH3 0x642 DUP3 PUSH3 0x61E JUMP JUMPDEST DUP5 DUP5 SLOAD PUSH3 0x58C JUMP JUMPDEST DUP3 SSTORE POP POP POP POP JUMP JUMPDEST PUSH1 0x0 SWAP1 JUMP JUMPDEST PUSH3 0x662 PUSH3 0x653 JUMP JUMPDEST PUSH3 0x66F DUP2 DUP5 DUP5 PUSH3 0x628 JUMP JUMPDEST POP POP POP JUMP JUMPDEST JUMPDEST DUP2 DUP2 LT ISZERO PUSH3 0x697 JUMPI PUSH3 0x68B PUSH1 0x0 DUP3 PUSH3 0x658 JUMP JUMPDEST PUSH1 0x1 DUP2 ADD SWAP1 POP PUSH3 0x675 JUMP JUMPDEST POP POP JUMP JUMPDEST PUSH1 0x1F DUP3 GT ISZERO PUSH3 0x6E6 JUMPI PUSH3 0x6B0 DUP2 PUSH3 0x55A JUMP JUMPDEST PUSH3 0x6BB DUP5 PUSH3 0x56F JUMP JUMPDEST DUP2 ADD PUSH1 0x20 DUP6 LT ISZERO PUSH3 0x6CB JUMPI DUP2 SWAP1 POP JUMPDEST PUSH3 0x6E3 PUSH3 0x6DA DUP6 PUSH3 0x56F JUMP JUMPDEST DUP4 ADD DUP3 PUSH3 0x674 JUMP JUMPDEST POP POP JUMPDEST POP POP POP JUMP JUMPDEST PUSH1 0x0 DUP3 DUP3 SHR SWAP1 POP SWAP3 SWAP2 POP POP JUMP JUMPDEST PUSH1 0x0 PUSH3 0x70B PUSH1 0x0 NOT DUP5 PUSH1 0x8 MUL PUSH3 0x6EB JUMP JUMPDEST NOT DUP1 DUP4 AND SWAP2 POP POP SWAP3 SWAP2 POP POP JUMP JUMPDEST PUSH1 0x0 PUSH3 0x726 DUP4 DUP4 PUSH3 0x6F8 JUMP JUMPDEST SWAP2 POP DUP3 PUSH1 0x2 MUL DUP3 OR SWAP1 POP SWAP3 SWAP2 POP POP JUMP JUMPDEST PUSH3 0x741 DUP3 PUSH3 0x4EB JUMP JUMPDEST PUSH8 0xFFFFFFFFFFFFFFFF DUP2 GT ISZERO PUSH3 0x75D JUMPI PUSH3 0x75C PUSH3 0x22E JUMP JUMPDEST JUMPDEST PUSH3 0x769 DUP3 SLOAD PUSH3 0x525 JUMP JUMPDEST PUSH3 0x776 DUP3 DUP3 DUP6 PUSH3 0x69B JUMP JUMPDEST PUSH1 0x0 PUSH1 0x20 SWAP1 POP PUSH1 0x1F DUP4 GT PUSH1 0x1 DUP2 EQ PUSH3 0x7AE JUMPI PUSH1 0x0 DUP5 ISZERO PUSH3 0x799 JUMPI DUP3 DUP8 ADD MLOAD SWAP1 POP JUMPDEST PUSH3 0x7A5 DUP6 DUP3 PUSH3 0x718 JUMP JUMPDEST DUP7 SSTORE POP PUSH3 0x815 JUMP JUMPDEST PUSH1 0x1F NOT DUP5 AND PUSH3 0x7BE DUP7 PUSH3 0x55A JUMP JUMPDEST PUSH1 0x0 JUMPDEST DUP3 DUP2 LT ISZERO PUSH3 0x7E8 JUMPI DUP5 DUP10 ADD MLOAD DUP3 SSTORE PUSH1 0x1 DUP3 ADD SWAP2 POP PUSH1 0x20 DUP6 ADD SWAP5 POP PUSH1 0x20 DUP2 ADD SWAP1 POP PUSH3 0x7C1 JUMP JUMPDEST DUP7 DUP4 LT ISZERO PUSH3 0x808 JUMPI DUP5 DUP10 ADD MLOAD PUSH3 0x804 PUSH1 0x1F DUP10 AND DUP3 PUSH3 0x6F8 JUMP JUMPDEST DUP4 SSTORE POP JUMPDEST PUSH1 0x1 PUSH1 0x2 DUP9 MUL ADD DUP9 SSTORE POP POP POP JUMPDEST POP POP POP POP POP POP JUMP JUMPDEST PUSH2 0x11E2 DUP1 PUSH3 0x82D PUSH1 0x0 CODECOPY PUSH1 0x0 RETURN INVALID PUSH1 0x80 PUSH1 0x40 MSTORE PUSH1 0x4 CALLDATASIZE LT PUSH2 0x7B JUMPI PUSH1 0x0 CALLDATALOAD PUSH1 0xE0 SHR DUP1 PUSH4 0xADF07791 GT PUSH2 0x4E JUMPI DUP1 PUSH4 0xADF07791 EQ PUSH2 0xF6 JUMPI DUP1 PUSH4 0xC939329B EQ PUSH2 0x122 JUMPI DUP1 PUSH4 0xC998EEF4 EQ PUSH2 0x139 JUMPI DUP1 PUSH4 0xDC1997EA EQ PUSH2 0x166 JUMPI PUSH2 0x7B JUMP JUMPDEST DUP1 PUSH4 0x176FD3F0 EQ PUSH2 0x80 JUMPI DUP1 PUSH4 0x3FBD37D2 EQ PUSH2 0xAC JUMPI DUP1 PUSH4 0x75ABFEDE EQ PUSH2 0xC3 JUMPI DUP1 PUSH4 0x8EEBCD6D EQ PUSH2 0xEC JUMPI JUMPDEST PUSH1 0x0 DUP1 REVERT JUMPDEST CALLVALUE DUP1 ISZERO PUSH2 0x8C JUMPI PUSH1 0x0 DUP1 REVERT JUMPDEST POP PUSH2 0x95 PUSH2 0x192 JUMP JUMPDEST PUSH1 0x40 MLOAD PUSH2 0xA3 SWAP3 SWAP2 SWAP1 PUSH2 0xA7E JUMP JUMPDEST PUSH1 0x40 MLOAD DUP1 SWAP2 SUB SWAP1 RETURN JUMPDEST CALLVALUE DUP1 ISZERO PUSH2 0xB8 JUMPI PUSH1 0x0 DUP1 REVERT JUMPDEST POP PUSH2 0xC1 PUSH2 0x2B4 JUMP JUMPDEST STOP JUMPDEST CALLVALUE DUP1 ISZERO PUSH2 0xCF JUMPI PUSH1 0x0 DUP1 REVERT JUMPDEST POP PUSH2 0xEA PUSH1 0x4 DUP1 CALLDATASIZE SUB DUP2 ADD SWAP1 PUSH2 0xE5 SWAP2 SWAP1 PUSH2 0xAF0 JUMP JUMPDEST PUSH2 0x540 JUMP JUMPDEST STOP JUMPDEST PUSH2 0xF4 PUSH2 0x645 JUMP JUMPDEST STOP JUMPDEST CALLVALUE DUP1 ISZERO PUSH2 0x102 JUMPI PUSH1 0x0 DUP1 REVERT JUMPDEST POP PUSH2 0x10B PUSH2 0x647 JUMP JUMPDEST PUSH1 0x40 MLOAD PUSH2 0x119 SWAP3 SWAP2 SWAP1 PUSH2 0xB8C JUMP JUMPDEST PUSH1 0x40 MLOAD DUP1 SWAP2 SUB SWAP1 RETURN JUMPDEST CALLVALUE DUP1 ISZERO PUSH2 0x12E JUMPI PUSH1 0x0 DUP1 REVERT JUMPDEST POP PUSH2 0x137 PUSH2 0x686 JUMP JUMPDEST STOP JUMPDEST CALLVALUE DUP1 ISZERO PUSH2 0x145 JUMPI PUSH1 0x0 DUP1 REVERT JUMPDEST POP PUSH2 0x14E PUSH2 0x98A JUMP JUMPDEST PUSH1 0x40 MLOAD PUSH2 0x15D SWAP4 SWAP3 SWAP2 SWAP1 PUSH2 0xC3B JUMP JUMPDEST PUSH1 0x40 MLOAD DUP1 SWAP2 SUB SWAP1 RETURN JUMPDEST CALLVALUE DUP1 ISZERO PUSH2 0x172 JUMPI PUSH1 0x0 DUP1 REVERT JUMPDEST POP PUSH2 0x17B PUSH2 0x9AF JUMP JUMPDEST PUSH1 0x40 MLOAD PUSH2 0x189 SWAP3 SWAP2 SWAP1 PUSH2 0xC93 JUMP JUMPDEST PUSH1 0x40 MLOAD DUP1 SWAP2 SUB SWAP1 RETURN JUMPDEST PUSH1 0x2 DUP1 PUSH1 0x0 ADD DUP1 SLOAD PUSH2 0x1A3 SWAP1 PUSH2 0xCEB JUMP JUMPDEST DUP1 PUSH1 0x1F ADD PUSH1 0x20 DUP1 SWAP2 DIV MUL PUSH1 0x20 ADD PUSH1 0x40 MLOAD SWAP1 DUP2 ADD PUSH1 0x40 MSTORE DUP1 SWAP3 SWAP2 SWAP1 DUP2 DUP2 MSTORE PUSH1 0x20 ADD DUP3 DUP1 SLOAD PUSH2 0x1CF SWAP1 PUSH2 0xCEB JUMP JUMPDEST DUP1 ISZERO PUSH2 0x21C JUMPI DUP1 PUSH1 0x1F LT PUSH2 0x1F1 JUMPI PUSH2 0x100 DUP1 DUP4 SLOAD DIV MUL DUP4 MSTORE SWAP2 PUSH1 0x20 ADD SWAP2 PUSH2 0x21C JUMP JUMPDEST DUP3 ADD SWAP2 SWAP1 PUSH1 0x0 MSTORE PUSH1 0x20 PUSH1 0x0 KECCAK256 SWAP1 JUMPDEST DUP2 SLOAD DUP2 MSTORE SWAP1 PUSH1 0x1 ADD SWAP1 PUSH1 0x20 ADD DUP1 DUP4 GT PUSH2 0x1FF JUMPI DUP3 SWAP1 SUB PUSH1 0x1F AND DUP3 ADD SWAP2 JUMPDEST POP POP POP POP POP SWAP1 DUP1 PUSH1 0x1 ADD DUP1 SLOAD PUSH2 0x231 SWAP1 PUSH2 0xCEB JUMP JUMPDEST DUP1 PUSH1 0x1F ADD PUSH1 0x20 DUP1 SWAP2 DIV MUL PUSH1 0x20 ADD PUSH1 0x40 MLOAD SWAP1 DUP2 ADD PUSH1 0x40 MSTORE DUP1 SWAP3 SWAP2 SWAP1 DUP2 DUP2 MSTORE PUSH1 0x20 ADD DUP3 DUP1 SLOAD PUSH2 0x25D SWAP1 PUSH2 0xCEB JUMP JUMPDEST DUP1 ISZERO PUSH2 0x2AA JUMPI DUP1 PUSH1 0x1F LT PUSH2 0x27F JUMPI PUSH2 0x100 DUP1 DUP4 SLOAD DIV MUL DUP4 MSTORE SWAP2 PUSH1 0x20 ADD SWAP2 PUSH2 0x2AA JUMP JUMPDEST DUP3 ADD SWAP2 SWAP1 PUSH1 0x0 MSTORE PUSH1 0x20 PUSH1 0x0 KECCAK256 SWAP1 JUMPDEST DUP2 SLOAD DUP2 MSTORE SWAP1 PUSH1 0x1 ADD SWAP1 PUSH1 0x20 ADD DUP1 DUP4 GT PUSH2 0x28D JUMPI DUP3 SWAP1 SUB PUSH1 0x1F AND DUP3 ADD SWAP2 JUMPDEST POP POP POP POP POP SWAP1 POP DUP3 JUMP JUMPDEST PUSH1 0x0 DUP1 ADD PUSH1 0x0 SWAP1 SLOAD SWAP1 PUSH2 0x100 EXP SWAP1 DIV PUSH20 0xFFFFFFFFFFFFFFFFFFFFFFFFFFFFFFFFFFFFFFFF AND PUSH20 0xFFFFFFFFFFFFFFFFFFFFFFFFFFFFFFFFFFFFFFFF AND CALLER PUSH20 0xFFFFFFFFFFFFFFFFFFFFFFFFFFFFFFFFFFFFFFFF AND EQ DUP1 PUSH2 0x362 JUMPI POP PUSH1 0x1 PUSH1 0x0 ADD PUSH1 0x0 SWAP1 SLOAD SWAP1 PUSH2 0x100 EXP SWAP1 DIV PUSH20 0xFFFFFFFFFFFFFFFFFFFFFFFFFFFFFFFFFFFFFFFF AND PUSH20 0xFFFFFFFFFFFFFFFFFFFFFFFFFFFFFFFFFFFFFFFF AND CALLER PUSH20 0xFFFFFFFFFFFFFFFFFFFFFFFFFFFFFFFFFFFFFFFF AND EQ JUMPDEST PUSH2 0x3A1 JUMPI PUSH1 0x40 MLOAD PUSH32 0x8C379A000000000000000000000000000000000000000000000000000000000 DUP2 MSTORE PUSH1 0x4 ADD PUSH2 0x398 SWAP1 PUSH2 0xD8E JUMP JUMPDEST PUSH1 0x40 MLOAD DUP1 SWAP2 SUB SWAP1 REVERT JUMPDEST PUSH1 0x0 DUP1 ADD PUSH1 0x0 SWAP1 SLOAD SWAP1 PUSH2 0x100 EXP SWAP1 DIV PUSH20 0xFFFFFFFFFFFFFFFFFFFFFFFFFFFFFFFFFFFFFFFF AND PUSH20 0xFFFFFFFFFFFFFFFFFFFFFFFFFFFFFFFFFFFFFFFF AND CALLER PUSH20 0xFFFFFFFFFFFFFFFFFFFFFFFFFFFFFFFFFFFFFFFF AND SUB PUSH2 0x46E JUMPI PUSH1 0x1 ISZERO ISZERO PUSH1 0x0 DUP1 ADD PUSH1 0x14 SWAP1 SLOAD SWAP1 PUSH2 0x100 EXP SWAP1 DIV PUSH1 0xFF AND ISZERO ISZERO EQ PUSH2 0x450 JUMPI PUSH1 0x40 MLOAD PUSH32 0x8C379A000000000000000000000000000000000000000000000000000000000 DUP2 MSTORE PUSH1 0x4 ADD PUSH2 0x447 SWAP1 PUSH2 0xE20 JUMP JUMPDEST PUSH1 0x40 MLOAD DUP1 SWAP2 SUB SWAP1 REVERT JUMPDEST PUSH1 0x0 DUP1 PUSH1 0x0 ADD PUSH1 0x14 PUSH2 0x100 EXP DUP2 SLOAD DUP2 PUSH1 0xFF MUL NOT AND SWAP1 DUP4 ISZERO ISZERO MUL OR SWAP1 SSTORE POP JUMPDEST PUSH1 0x1 PUSH1 0x0 ADD PUSH1 0x0 SWAP1 SLOAD SWAP1 PUSH2 0x100 EXP SWAP1 DIV PUSH20 0xFFFFFFFFFFFFFFFFFFFFFFFFFFFFFFFFFFFFFFFF AND PUSH20 0xFFFFFFFFFFFFFFFFFFFFFFFFFFFFFFFFFFFFFFFF AND CALLER PUSH20 0xFFFFFFFFFFFFFFFFFFFFFFFFFFFFFFFFFFFFFFFF AND SUB PUSH2 0x53E JUMPI PUSH1 0x1 ISZERO ISZERO PUSH1 0x1 PUSH1 0x0 ADD PUSH1 0x14 SWAP1 SLOAD SWAP1 PUSH2 0x100 EXP SWAP1 DIV PUSH1 0xFF AND ISZERO ISZERO EQ PUSH2 0x51F JUMPI PUSH1 0x40 MLOAD PUSH32 0x8C379A000000000000000000000000000000000000000000000000000000000 DUP2 MSTORE PUSH1 0x4 ADD PUSH2 0x516 SWAP1 PUSH2 0xEB2 JUMP JUMPDEST PUSH1 0x40 MLOAD DUP1 SWAP2 SUB SWAP1 REVERT JUMPDEST PUSH1 0x0 PUSH1 0x1 PUSH1 0x0 ADD PUSH1 0x14 PUSH2 0x100 EXP DUP2 SLOAD DUP2 PUSH1 0xFF MUL NOT AND SWAP1 DUP4 ISZERO ISZERO MUL OR SWAP1 SSTORE POP JUMPDEST JUMP JUMPDEST PUSH1 0x0 DUP1 ADD PUSH1 0x0 SWAP1 SLOAD SWAP1 PUSH2 0x100 EXP SWAP1 DIV PUSH20 0xFFFFFFFFFFFFFFFFFFFFFFFFFFFFFFFFFFFFFFFF AND PUSH20 0xFFFFFFFFFFFFFFFFFFFFFFFFFFFFFFFFFFFFFFFF AND CALLER PUSH20 0xFFFFFFFFFFFFFFFFFFFFFFFFFFFFFFFFFFFFFFFF AND EQ DUP1 PUSH2 0x5EE JUMPI POP PUSH1 0x1 PUSH1 0x0 ADD PUSH1 0x0 SWAP1 SLOAD SWAP1 PUSH2 0x100 EXP SWAP1 DIV PUSH20 0xFFFFFFFFFFFFFFFFFFFFFFFFFFFFFFFFFFFFFFFF AND PUSH20 0xFFFFFFFFFFFFFFFFFFFFFFFFFFFFFFFFFFFFFFFF AND CALLER PUSH20 0xFFFFFFFFFFFFFFFFFFFFFFFFFFFFFFFFFFFFFFFF AND EQ JUMPDEST PUSH2 0x62D JUMPI PUSH1 0x40 MLOAD PUSH32 0x8C379A000000000000000000000000000000000000000000000000000000000 DUP2 MSTORE PUSH1 0x4 ADD PUSH2 0x624 SWAP1 PUSH2 0xF44 JUMP JUMPDEST PUSH1 0x40 MLOAD DUP1 SWAP2 SUB SWAP1 REVERT JUMPDEST DUP2 PUSH1 0x4 PUSH1 0x1 ADD DUP2 SWAP1 SSTORE POP DUP1 PUSH1 0x4 PUSH1 0x2 ADD DUP2 SWAP1 SSTORE POP POP POP JUMP JUMPDEST JUMP JUMPDEST PUSH1 0x1 DUP1 PUSH1 0x0 ADD PUSH1 0x0 SWAP1 SLOAD SWAP1 PUSH2 0x100 EXP SWAP1 DIV PUSH20 0xFFFFFFFFFFFFFFFFFFFFFFFFFFFFFFFFFFFFFFFF AND SWAP1 DUP1 PUSH1 0x0 ADD PUSH1 0x14 SWAP1 SLOAD SWAP1 PUSH2 0x100 EXP SWAP1 DIV PUSH1 0xFF AND SWAP1 POP DUP3 JUMP JUMPDEST PUSH1 0x0 DUP1 ADD PUSH1 0x0 SWAP1 SLOAD SWAP1 PUSH2 0x100 EXP SWAP1 DIV PUSH20 0xFFFFFFFFFFFFFFFFFFFFFFFFFFFFFFFFFFFFFFFF AND PUSH20 0xFFFFFFFFFFFFFFFFFFFFFFFFFFFFFFFFFFFFFFFF AND CALLER PUSH20 0xFFFFFFFFFFFFFFFFFFFFFFFFFFFFFFFFFFFFFFFF AND EQ DUP1 PUSH2 0x734 JUMPI POP PUSH1 0x1 PUSH1 0x0 ADD PUSH1 0x0 SWAP1 SLOAD SWAP1 PUSH2 0x100 EXP SWAP1 DIV PUSH20 0xFFFFFFFFFFFFFFFFFFFFFFFFFFFFFFFFFFFFFFFF AND PUSH20 0xFFFFFFFFFFFFFFFFFFFFFFFFFFFFFFFFFFFFFFFF AND CALLER PUSH20 0xFFFFFFFFFFFFFFFFFFFFFFFFFFFFFFFFFFFFFFFF AND EQ JUMPDEST PUSH2 0x773 JUMPI PUSH1 0x40 MLOAD PUSH32 0x8C379A000000000000000000000000000000000000000000000000000000000 DUP2 MSTORE PUSH1 0x4 ADD PUSH2 0x76A SWAP1 PUSH2 0xFD6 JUMP JUMPDEST PUSH1 0x40 MLOAD DUP1 SWAP2 SUB SWAP1 REVERT JUMPDEST PUSH1 0x0 PUSH1 0x4 DUP2 GT ISZERO PUSH2 0x787 JUMPI PUSH2 0x786 PUSH2 0xBB5 JUMP JUMPDEST JUMPDEST PUSH1 0x4 PUSH1 0x0 ADD PUSH1 0x0 SWAP1 SLOAD SWAP1 PUSH2 0x100 EXP SWAP1 DIV PUSH1 0xFF AND PUSH1 0x4 DUP2 GT ISZERO PUSH2 0x7AC JUMPI PUSH2 0x7AB PUSH2 0xBB5 JUMP JUMPDEST JUMPDEST EQ PUSH2 0x7EC JUMPI PUSH1 0x40 MLOAD PUSH32 0x8C379A000000000000000000000000000000000000000000000000000000000 DUP2 MSTORE PUSH1 0x4 ADD PUSH2 0x7E3 SWAP1 PUSH2 0x1068 JUMP JUMPDEST PUSH1 0x40 MLOAD DUP1 SWAP2 SUB SWAP1 REVERT JUMPDEST PUSH1 0x0 DUP1 ADD PUSH1 0x0 SWAP1 SLOAD SWAP1 PUSH2 0x100 EXP SWAP1 DIV PUSH20 0xFFFFFFFFFFFFFFFFFFFFFFFFFFFFFFFFFFFFFFFF AND PUSH20 0xFFFFFFFFFFFFFFFFFFFFFFFFFFFFFFFFFFFFFFFF AND CALLER PUSH20 0xFFFFFFFFFFFFFFFFFFFFFFFFFFFFFFFFFFFFFFFF AND SUB PUSH2 0x8B9 JUMPI PUSH1 0x0 ISZERO ISZERO PUSH1 0x0 DUP1 ADD PUSH1 0x14 SWAP1 SLOAD SWAP1 PUSH2 0x100 EXP SWAP1 DIV PUSH1 0xFF AND ISZERO ISZERO EQ PUSH2 0x89B JUMPI PUSH1 0x40 MLOAD PUSH32 0x8C379A000000000000000000000000000000000000000000000000000000000 DUP2 MSTORE PUSH1 0x4 ADD PUSH2 0x892 SWAP1 PUSH2 0x10FA JUMP JUMPDEST PUSH1 0x40 MLOAD DUP1 SWAP2 SUB SWAP1 REVERT JUMPDEST PUSH1 0x1 PUSH1 0x0 DUP1 ADD PUSH1 0x14 PUSH2 0x100 EXP DUP2 SLOAD DUP2 PUSH1 0xFF MUL NOT AND SWAP1 DUP4 ISZERO ISZERO MUL OR SWAP1 SSTORE POP JUMPDEST PUSH1 0x1 PUSH1 0x0 ADD PUSH1 0x0 SWAP1 SLOAD SWAP1 PUSH2 0x100 EXP SWAP1 DIV PUSH20 0xFFFFFFFFFFFFFFFFFFFFFFFFFFFFFFFFFFFFFFFF AND PUSH20 0xFFFFFFFFFFFFFFFFFFFFFFFFFFFFFFFFFFFFFFFF AND CALLER PUSH20 0xFFFFFFFFFFFFFFFFFFFFFFFFFFFFFFFFFFFFFFFF AND SUB PUSH2 0x988 JUMPI PUSH1 0x0 ISZERO ISZERO PUSH1 0x1 PUSH1 0x0 ADD PUSH1 0x14 SWAP1 SLOAD SWAP1 PUSH2 0x100 EXP SWAP1 DIV PUSH1 0xFF AND ISZERO ISZERO EQ PUSH2 0x96A JUMPI PUSH1 0x40 MLOAD PUSH32 0x8C379A000000000000000000000000000000000000000000000000000000000 DUP2 MSTORE PUSH1 0x4 ADD PUSH2 0x961 SWAP1 PUSH2 0x118C JUMP JUMPDEST PUSH1 0x40 MLOAD DUP1 SWAP2 SUB SWAP1 REVERT JUMPDEST PUSH1 0x1 DUP1 PUSH1 0x0 ADD PUSH1 0x14 PUSH2 0x100 EXP DUP2 SLOAD DUP2 PUSH1 0xFF MUL NOT AND SWAP1 DUP4 ISZERO ISZERO MUL OR SWAP1 SSTORE POP JUMPDEST JUMP JUMPDEST PUSH1 0x4 DUP1 PUSH1 0x0 ADD PUSH1 0x0 SWAP1 SLOAD SWAP1 PUSH2 0x100 EXP SWAP1 DIV PUSH1 0xFF AND SWAP1 DUP1 PUSH1 0x1 ADD SLOAD SWAP1 DUP1 PUSH1 0x2 ADD SLOAD SWAP1 POP DUP4 JUMP JUMPDEST PUSH1 0x0 DUP1 PUSH1 0x0 ADD PUSH1 0x0 SWAP1 SLOAD SWAP1 PUSH2 0x100 EXP SWAP1 DIV PUSH20 0xFFFFFFFFFFFFFFFFFFFFFFFFFFFFFFFFFFFFFFFF AND SWAP1 DUP1 PUSH1 0x0 ADD PUSH1 0x14 SWAP1 SLOAD SWAP1 PUSH2 0x100 EXP SWAP1 DIV PUSH1 0xFF AND SWAP1 POP DUP3 JUMP JUMPDEST PUSH1 0x0 DUP2 MLOAD SWAP1 POP SWAP2 SWAP1 POP JUMP JUMPDEST PUSH1 0x0 DUP3 DUP3 MSTORE PUSH1 0x20 DUP3 ADD SWAP1 POP SWAP3 SWAP2 POP POP JUMP JUMPDEST PUSH1 0x0 JUMPDEST DUP4 DUP2 LT ISZERO PUSH2 0xA28 JUMPI DUP1 DUP3 ADD MLOAD DUP2 DUP5 ADD MSTORE PUSH1 0x20 DUP2 ADD SWAP1 POP PUSH2 0xA0D JUMP JUMPDEST PUSH1 0x0 DUP5 DUP5 ADD MSTORE POP POP POP POP JUMP JUMPDEST PUSH1 0x0 PUSH1 0x1F NOT PUSH1 0x1F DUP4 ADD AND SWAP1 POP SWAP2 SWAP1 POP JUMP JUMPDEST PUSH1 0x0 PUSH2 0xA50 DUP3 PUSH2 0x9EE JUMP JUMPDEST PUSH2 0xA5A DUP2 DUP6 PUSH2 0x9F9 JUMP JUMPDEST SWAP4 POP PUSH2 0xA6A DUP2 DUP6 PUSH1 0x20 DUP7 ADD PUSH2 0xA0A JUMP JUMPDEST PUSH2 0xA73 DUP2 PUSH2 0xA34 JUMP JUMPDEST DUP5 ADD SWAP2 POP POP SWAP3 SWAP2 POP POP JUMP JUMPDEST PUSH1 0x0 PUSH1 0x40 DUP3 ADD SWAP1 POP DUP2 DUP2 SUB PUSH1 0x0 DUP4 ADD MSTORE PUSH2 0xA98 DUP2 DUP6 PUSH2 0xA45 JUMP JUMPDEST SWAP1 POP DUP2 DUP2 SUB PUSH1 0x20 DUP4 ADD MSTORE PUSH2 0xAAC DUP2 DUP5 PUSH2 0xA45 JUMP JUMPDEST SWAP1 POP SWAP4 SWAP3 POP POP POP JUMP JUMPDEST PUSH1 0x0 DUP1 REVERT JUMPDEST PUSH1 0x0 DUP2 SWAP1 POP SWAP2 SWAP1 POP JUMP JUMPDEST PUSH2 0xACD DUP2 PUSH2 0xABA JUMP JUMPDEST DUP2 EQ PUSH2 0xAD8 JUMPI PUSH1 0x0 DUP1 REVERT JUMPDEST POP JUMP JUMPDEST PUSH1 0x0 DUP2 CALLDATALOAD SWAP1 POP PUSH2 0xAEA DUP2 PUSH2 0xAC4 JUMP JUMPDEST SWAP3 SWAP2 POP POP JUMP JUMPDEST PUSH1 0x0 DUP1 PUSH1 0x40 DUP4 DUP6 SUB SLT ISZERO PUSH2 0xB07 JUMPI PUSH2 0xB06 PUSH2 0xAB5 JUMP JUMPDEST JUMPDEST PUSH1 0x0 PUSH2 0xB15 DUP6 DUP3 DUP7 ADD PUSH2 0xADB JUMP JUMPDEST SWAP3 POP POP PUSH1 0x20 PUSH2 0xB26 DUP6 DUP3 DUP7 ADD PUSH2 0xADB JUMP JUMPDEST SWAP2 POP POP SWAP3 POP SWAP3 SWAP1 POP JUMP JUMPDEST PUSH1 0x0 PUSH20 0xFFFFFFFFFFFFFFFFFFFFFFFFFFFFFFFFFFFFFFFF DUP3 AND SWAP1 POP SWAP2 SWAP1 POP JUMP JUMPDEST PUSH1 0x0 PUSH2 0xB5B DUP3 PUSH2 0xB30 JUMP JUMPDEST SWAP1 POP SWAP2 SWAP1 POP JUMP JUMPDEST PUSH2 0xB6B DUP2 PUSH2 0xB50 JUMP JUMPDEST DUP3 MSTORE POP POP JUMP JUMPDEST PUSH1 0x0 DUP2 ISZERO ISZERO SWAP1 POP SWAP2 SWAP1 POP JUMP JUMPDEST PUSH2 0xB86 DUP2 PUSH2 0xB71 JUMP JUMPDEST DUP3 MSTORE POP POP JUMP JUMPDEST PUSH1 0x0 PUSH1 0x40 DUP3 ADD SWAP1 POP PUSH2 0xBA1 PUSH1 0x0 DUP4 ADD DUP6 PUSH2 0xB62 JUMP JUMPDEST PUSH2 0xBAE PUSH1 0x20 DUP4 ADD DUP5 PUSH2 0xB7D JUMP JUMPDEST SWAP4 SWAP3 POP POP POP JUMP JUMPDEST PUSH32 0x4E487B7100000000000000000000000000000000000000000000000000000000 PUSH1 0x0 MSTORE PUSH1 0x21 PUSH1 0x4 MSTORE PUSH1 0x24 PUSH1 0x0 REVERT JUMPDEST PUSH1 0x5 DUP2 LT PUSH2 0xBF5 JUMPI PUSH2 0xBF4 PUSH2 0xBB5 JUMP JUMPDEST JUMPDEST POP JUMP JUMPDEST PUSH1 0x0 DUP2 SWAP1 POP PUSH2 0xC06 DUP3 PUSH2 0xBE4 JUMP JUMPDEST SWAP2 SWAP1 POP JUMP JUMPDEST PUSH1 0x0 PUSH2 0xC16 DUP3 PUSH2 0xBF8 JUMP JUMPDEST SWAP1 POP SWAP2 SWAP1 POP JUMP JUMPDEST PUSH2 0xC26 DUP2 PUSH2 0xC0B JUMP JUMPDEST DUP3 MSTORE POP POP JUMP JUMPDEST PUSH2 0xC35 DUP2 PUSH2 0xABA JUMP JUMPDEST DUP3 MSTORE POP POP JUMP JUMPDEST PUSH1 0x0 PUSH1 0x60 DUP3 ADD SWAP1 POP PUSH2 0xC50 PUSH1 0x0 DUP4 ADD DUP7 PUSH2 0xC1D JUMP JUMPDEST PUSH2 0xC5D PUSH1 0x20 DUP4 ADD DUP6 PUSH2 0xC2C JUMP JUMPDEST PUSH2 0xC6A PUSH1 0x40 DUP4 ADD DUP5 PUSH2 0xC2C JUMP JUMPDEST SWAP5 SWAP4 POP POP POP POP JUMP JUMPDEST PUSH1 0x0 PUSH2 0xC7D DUP3 PUSH2 0xB30 JUMP JUMPDEST SWAP1 POP SWAP2 SWAP1 POP JUMP JUMPDEST PUSH2 0xC8D DUP2 PUSH2 0xC72 JUMP JUMPDEST DUP3 MSTORE POP POP JUMP JUMPDEST PUSH1 0x0 PUSH1 0x40 DUP3 ADD SWAP1 POP PUSH2 0xCA8 PUSH1 0x0 DUP4 ADD DUP6 PUSH2 0xC84 JUMP JUMPDEST PUSH2 0xCB5 PUSH1 0x20 DUP4 ADD DUP5 PUSH2 0xB7D JUMP JUMPDEST SWAP4 SWAP3 POP POP POP JUMP JUMPDEST PUSH32 0x4E487B7100000000000000000000000000000000000000000000000000000000 PUSH1 0x0 MSTORE PUSH1 0x22 PUSH1 0x4 MSTORE PUSH1 0x24 PUSH1 0x0 REVERT JUMPDEST PUSH1 0x0 PUSH1 0x2 DUP3 DIV SWAP1 POP PUSH1 0x1 DUP3 AND DUP1 PUSH2 0xD03 JUMPI PUSH1 0x7F DUP3 AND SWAP2 POP JUMPDEST PUSH1 0x20 DUP3 LT DUP2 SUB PUSH2 0xD16 JUMPI PUSH2 0xD15 PUSH2 0xCBC JUMP JUMPDEST JUMPDEST POP SWAP2 SWAP1 POP JUMP JUMPDEST PUSH32 0x4F6E6C79206F776E6572206F722074656E656E742063616E20756E7369676E20 PUSH1 0x0 DUP3 ADD MSTORE PUSH32 0x61677265656D656E742E00000000000000000000000000000000000000000000 PUSH1 0x20 DUP3 ADD MSTORE POP JUMP JUMPDEST PUSH1 0x0 PUSH2 0xD78 PUSH1 0x2A DUP4 PUSH2 0x9F9 JUMP JUMPDEST SWAP2 POP PUSH2 0xD83 DUP3 PUSH2 0xD1C JUMP JUMPDEST PUSH1 0x40 DUP3 ADD SWAP1 POP SWAP2 SWAP1 POP JUMP JUMPDEST PUSH1 0x0 PUSH1 0x20 DUP3 ADD SWAP1 POP DUP2 DUP2 SUB PUSH1 0x0 DUP4 ADD MSTORE PUSH2 0xDA7 DUP2 PUSH2 0xD6B JUMP JUMPDEST SWAP1 POP SWAP2 SWAP1 POP JUMP JUMPDEST PUSH32 0x4C616E646C6F726420686173206E6F74207369676E6564207468652061677265 PUSH1 0x0 DUP3 ADD MSTORE PUSH32 0x656D656E74207965742E00000000000000000000000000000000000000000000 PUSH1 0x20 DUP3 ADD MSTORE POP JUMP JUMPDEST PUSH1 0x0 PUSH2 0xE0A PUSH1 0x2A DUP4 PUSH2 0x9F9 JUMP JUMPDEST SWAP2 POP PUSH2 0xE15 DUP3 PUSH2 0xDAE JUMP JUMPDEST PUSH1 0x40 DUP3 ADD SWAP1 POP SWAP2 SWAP1 POP JUMP JUMPDEST PUSH1 0x0 PUSH1 0x20 DUP3 ADD SWAP1 POP DUP2 DUP2 SUB PUSH1 0x0 DUP4 ADD MSTORE PUSH2 0xE39 DUP2 PUSH2 0xDFD JUMP JUMPDEST SWAP1 POP SWAP2 SWAP1 POP JUMP JUMPDEST PUSH32 0x54656E616E7420686173206E6F74207369676E6564207468652061677265656D PUSH1 0x0 DUP3 ADD MSTORE PUSH32 0x656E74207965742E000000000000000000000000000000000000000000000000 PUSH1 0x20 DUP3 ADD MSTORE POP JUMP JUMPDEST PUSH1 0x0 PUSH2 0xE9C PUSH1 0x28 DUP4 PUSH2 0x9F9 JUMP JUMPDEST SWAP2 POP PUSH2 0xEA7 DUP3 PUSH2 0xE40 JUMP JUMPDEST PUSH1 0x40 DUP3 ADD SWAP1 POP SWAP2 SWAP1 POP JUMP JUMPDEST PUSH1 0x0 PUSH1 0x20 DUP3 ADD SWAP1 POP DUP2 DUP2 SUB PUSH1 0x0 DUP4 ADD MSTORE PUSH2 0xECB DUP2 PUSH2 0xE8F JUMP JUMPDEST SWAP1 POP SWAP2 SWAP1 POP JUMP JUMPDEST PUSH32 0x4F6E6C79206F776E6572206F722074656E656E742063616E2073657420746572 PUSH1 0x0 DUP3 ADD MSTORE PUSH32 0x6D732E0000000000000000000000000000000000000000000000000000000000 PUSH1 0x20 DUP3 ADD MSTORE POP JUMP JUMPDEST PUSH1 0x0 PUSH2 0xF2E PUSH1 0x23 DUP4 PUSH2 0x9F9 JUMP JUMPDEST SWAP2 POP PUSH2 0xF39 DUP3 PUSH2 0xED2 JUMP JUMPDEST PUSH1 0x40 DUP3 ADD SWAP1 POP SWAP2 SWAP1 POP JUMP JUMPDEST PUSH1 0x0 PUSH1 0x20 DUP3 ADD SWAP1 POP DUP2 DUP2 SUB PUSH1 0x0 DUP4 ADD MSTORE PUSH2 0xF5D DUP2 PUSH2 0xF21 JUMP JUMPDEST SWAP1 POP SWAP2 SWAP1 POP JUMP JUMPDEST PUSH32 0x4F6E6C79206F776E6572206F722074656E656E742063616E207369676E206167 PUSH1 0x0 DUP3 ADD MSTORE PUSH32 0x7265656D656E742E000000000000000000000000000000000000000000000000 PUSH1 0x20 DUP3 ADD MSTORE POP JUMP JUMPDEST PUSH1 0x0 PUSH2 0xFC0 PUSH1 0x28 DUP4 PUSH2 0x9F9 JUMP JUMPDEST SWAP2 POP PUSH2 0xFCB DUP3 PUSH2 0xF64 JUMP JUMPDEST PUSH1 0x40 DUP3 ADD SWAP1 POP SWAP2 SWAP1 POP JUMP JUMPDEST PUSH1 0x0 PUSH1 0x20 DUP3 ADD SWAP1 POP DUP2 DUP2 SUB PUSH1 0x0 DUP4 ADD MSTORE PUSH2 0xFEF DUP2 PUSH2 0xFB3 JUMP JUMPDEST SWAP1 POP SWAP2 SWAP1 POP JUMP JUMPDEST PUSH32 0x546865206C656173652068617320746F20626520696E20756E7369676E656420 PUSH1 0x0 DUP3 ADD MSTORE PUSH32 0x73746174652E0000000000000000000000000000000000000000000000000000 PUSH1 0x20 DUP3 ADD MSTORE POP JUMP JUMPDEST PUSH1 0x0 PUSH2 0x1052 PUSH1 0x26 DUP4 PUSH2 0x9F9 JUMP JUMPDEST SWAP2 POP PUSH2 0x105D DUP3 PUSH2 0xFF6 JUMP JUMPDEST PUSH1 0x40 DUP3 ADD SWAP1 POP SWAP2 SWAP1 POP JUMP JUMPDEST PUSH1 0x0 PUSH1 0x20 DUP3 ADD SWAP1 POP DUP2 DUP2 SUB PUSH1 0x0 DUP4 ADD MSTORE PUSH2 0x1081 DUP2 PUSH2 0x1045 JUMP JUMPDEST SWAP1 POP SWAP2 SWAP1 POP JUMP JUMPDEST PUSH32 0x4C616E646C6F72642068617320616C7265616479207369676E65642074686973 PUSH1 0x0 DUP3 ADD MSTORE PUSH32 0x2061677265656D656E742E000000000000000000000000000000000000000000 PUSH1 0x20 DUP3 ADD MSTORE POP JUMP JUMPDEST PUSH1 0x0 PUSH2 0x10E4 PUSH1 0x2B DUP4 PUSH2 0x9F9 JUMP JUMPDEST SWAP2 POP PUSH2 0x10EF DUP3 PUSH2 0x1088 JUMP JUMPDEST PUSH1 0x40 DUP3 ADD SWAP1 POP SWAP2 SWAP1 POP JUMP JUMPDEST PUSH1 0x0 PUSH1 0x20 DUP3 ADD SWAP1 POP DUP2 DUP2 SUB PUSH1 0x0 DUP4 ADD MSTORE PUSH2 0x1113 DUP2 PUSH2 0x10D7 JUMP JUMPDEST SWAP1 POP SWAP2 SWAP1 POP JUMP JUMPDEST PUSH32 0x54656E616E742068617320616C7265616479207369676E656420746869732061 PUSH1 0x0 DUP3 ADD MSTORE PUSH32 0x677265656D656E742E0000000000000000000000000000000000000000000000 PUSH1 0x20 DUP3 ADD MSTORE POP JUMP JUMPDEST PUSH1 0x0 PUSH2 0x1176 PUSH1 0x29 DUP4 PUSH2 0x9F9 JUMP JUMPDEST SWAP2 POP PUSH2 0x1181 DUP3 PUSH2 0x111A JUMP JUMPDEST PUSH1 0x40 DUP3 ADD SWAP1 POP SWAP2 SWAP1 POP JUMP JUMPDEST PUSH1 0x0 PUSH1 0x20 DUP3 ADD SWAP1 POP DUP2 DUP2 SUB PUSH1 0x0 DUP4 ADD MSTORE PUSH2 0x11A5 DUP2 PUSH2 0x1169 JUMP JUMPDEST SWAP1 POP SWAP2 SWAP1 POP JUMP INVALID LOG2 PUSH5 0x6970667358 0x22 SLT KECCAK256 JUMPI JUMPI 0xBD 0xB2 0x2D LOG0 SMOD DUP14 0xAF ADD CREATE2 0xA7 MOD 0x22 0x27 BYTE 0xD6 CODECOPY ISZERO SWAP16 DUP16 0xD0 0x2A SWAP13 EXTCODECOPY SMOD LOG3 SWAP5 0xAA POP MULMOD LOG2 PUSH5 0x736F6C6343 STOP ADDMOD SLT STOP CALLER "
				},
				"gasEstimates": {
					"creation": {
						"codeDepositCost": "915600",
						"executionCost": "infinite",
						"totalCost": "infinite"
					},
					"external": {
						"landlord()": "4898",
						"lease()": "infinite",
						"makeRentPayment()": "187",
						"property()": "infinite",
						"setTerms(uint256,uint256)": "infinite",
						"signAgreement()": "64192",
						"tenant()": "4832",
						"unsignAgreement()": "61976"
					}
				},
				"methodIdentifiers": {
					"landlord()": "dc1997ea",
					"lease()": "c998eef4",
					"makeRentPayment()": "8eebcd6d",
					"property()": "176fd3f0",
					"setTerms(uint256,uint256)": "75abfede",
					"signAgreement()": "c939329b",
					"tenant()": "adf07791",
					"unsignAgreement()": "3fbd37d2"
				}
			},
			"storageLayout": {
				"storage": [
					{
						"astId": 33,
						"contract": "contracts/4_BlockLease.sol:BlockLease",
						"label": "landlord",
						"offset": 0,
						"slot": "0",
						"type": "t_struct(Landlord)6_storage"
					},
					{
						"astId": 36,
						"contract": "contracts/4_BlockLease.sol:BlockLease",
						"label": "tenant",
						"offset": 0,
						"slot": "1",
						"type": "t_struct(Tenant)11_storage"
					},
					{
						"astId": 39,
						"contract": "contracts/4_BlockLease.sol:BlockLease",
						"label": "property",
						"offset": 0,
						"slot": "2",
						"type": "t_struct(Property)16_storage"
					},
					{
						"astId": 42,
						"contract": "contracts/4_BlockLease.sol:BlockLease",
						"label": "lease",
						"offset": 0,
						"slot": "4",
						"type": "t_struct(Lease)30_storage"
					}
				],
				"types": {
					"t_address": {
						"encoding": "inplace",
						"label": "address",
						"numberOfBytes": "20"
					},
					"t_address_payable": {
						"encoding": "inplace",
						"label": "address payable",
						"numberOfBytes": "20"
					},
					"t_bool": {
						"encoding": "inplace",
						"label": "bool",
						"numberOfBytes": "1"
					},
					"t_enum(LeaseState)22": {
						"encoding": "inplace",
						"label": "enum BlockLease.LeaseState",
						"numberOfBytes": "1"
					},
					"t_string_storage": {
						"encoding": "bytes",
						"label": "string",
						"numberOfBytes": "32"
					},
					"t_struct(Landlord)6_storage": {
						"encoding": "inplace",
						"label": "struct BlockLease.Landlord",
						"members": [
							{
								"astId": 3,
								"contract": "contracts/4_BlockLease.sol:BlockLease",
								"label": "addr",
								"offset": 0,
								"slot": "0",
								"type": "t_address_payable"
							},
							{
								"astId": 5,
								"contract": "contracts/4_BlockLease.sol:BlockLease",
								"label": "agrees",
								"offset": 20,
								"slot": "0",
								"type": "t_bool"
							}
						],
						"numberOfBytes": "32"
					},
					"t_struct(Lease)30_storage": {
						"encoding": "inplace",
						"label": "struct BlockLease.Lease",
						"members": [
							{
								"astId": 25,
								"contract": "contracts/4_BlockLease.sol:BlockLease",
								"label": "state",
								"offset": 0,
								"slot": "0",
								"type": "t_enum(LeaseState)22"
							},
							{
								"astId": 27,
								"contract": "contracts/4_BlockLease.sol:BlockLease",
								"label": "rentAmount",
								"offset": 0,
								"slot": "1",
								"type": "t_uint256"
							},
							{
								"astId": 29,
								"contract": "contracts/4_BlockLease.sol:BlockLease",
								"label": "rentalDuration",
								"offset": 0,
								"slot": "2",
								"type": "t_uint256"
							}
						],
						"numberOfBytes": "96"
					},
					"t_struct(Property)16_storage": {
						"encoding": "inplace",
						"label": "struct BlockLease.Property",
						"members": [
							{
								"astId": 13,
								"contract": "contracts/4_BlockLease.sol:BlockLease",
								"label": "name",
								"offset": 0,
								"slot": "0",
								"type": "t_string_storage"
							},
							{
								"astId": 15,
								"contract": "contracts/4_BlockLease.sol:BlockLease",
								"label": "location",
								"offset": 0,
								"slot": "1",
								"type": "t_string_storage"
							}
						],
						"numberOfBytes": "64"
					},
					"t_struct(Tenant)11_storage": {
						"encoding": "inplace",
						"label": "struct BlockLease.Tenant",
						"members": [
							{
								"astId": 8,
								"contract": "contracts/4_BlockLease.sol:BlockLease",
								"label": "addr",
								"offset": 0,
								"slot": "0",
								"type": "t_address"
							},
							{
								"astId": 10,
								"contract": "contracts/4_BlockLease.sol:BlockLease",
								"label": "agrees",
								"offset": 20,
								"slot": "0",
								"type": "t_bool"
							}
						],
						"numberOfBytes": "32"
					},
					"t_uint256": {
						"encoding": "inplace",
						"label": "uint256",
						"numberOfBytes": "32"
					}
				}
			},
			"userdoc": {
				"kind": "user",
				"methods": {},
				"version": 1
			}
		}
	}
}